{
  "_format": "hh-sol-artifact-1",
  "contractName": "StableBaseCDP",
  "sourceName": "contracts/StableBaseCDP.sol",
  "abi": [
    {
      "inputs": [],
      "stateMutability": "nonpayable",
      "type": "constructor"
    },
    {
      "inputs": [
        {
          "internalType": "bytes32",
          "name": "id",
          "type": "bytes32"
        }
      ],
      "name": "closeSafe",
      "outputs": [],
      "stateMutability": "nonpayable",
      "type": "function"
    },
    {
      "inputs": [
        {
          "internalType": "address",
          "name": "tokenAddress",
          "type": "address"
        },
        {
          "internalType": "uint256",
          "name": "amount",
          "type": "uint256"
        },
        {
          "internalType": "uint256",
          "name": "reserveRatio",
          "type": "uint256"
        }
      ],
      "name": "openSafe",
      "outputs": [],
      "stateMutability": "payable",
      "type": "function"
    },
    {
      "inputs": [
        {
          "internalType": "bytes32",
          "name": "",
          "type": "bytes32"
        }
      ],
      "name": "safes",
      "outputs": [
        {
          "internalType": "address",
          "name": "token",
          "type": "address"
        },
        {
          "internalType": "uint256",
          "name": "depositedAmount",
          "type": "uint256"
        },
        {
          "internalType": "uint256",
          "name": "borrowedAmount",
          "type": "uint256"
        },
        {
          "internalType": "uint256",
          "name": "reserveRatio",
          "type": "uint256"
        },
        {
          "internalType": "uint256",
          "name": "originationFeePaid",
          "type": "uint256"
        }
      ],
      "stateMutability": "view",
      "type": "function"
    },
    {
      "inputs": [
        {
          "internalType": "address",
          "name": "",
          "type": "address"
        }
      ],
      "name": "whitelistedTokens",
      "outputs": [
        {
          "internalType": "bool",
          "name": "",
          "type": "bool"
        }
      ],
      "stateMutability": "view",
      "type": "function"
    }
  ],
  "bytecode": "0x608060405260008055606e60015534801561001957600080fd5b506000805260036020527f3617319a054d772f909f7c479a2cebe5066e836a939412e32403c99029b92eff805460ff191660011790556105ff8061005e6000396000f3fe60806040526004361061003f5760003560e01c80635638ff7c146100445780638806b74314610059578063d1ea2a7014610079578063daf9c21014610104575b600080fd5b610057610052366004610539565b610144565b005b34801561006557600080fd5b5061005761007436600461056c565b610370565b34801561008557600080fd5b506100cd61009436600461056c565b6002602081905260009182526040909120805460018201549282015460038301546004909301546001600160a01b039092169392909185565b604080516001600160a01b0390961686526020860194909452928401919091526060830152608082015260a0015b60405180910390f35b34801561011057600080fd5b5061013461011f366004610585565b60036020526000908152604090205460ff1681565b60405190151581526020016100fb565b600082116101995760405162461bcd60e51b815260206004820152601d60248201527f416d6f756e74206d7573742062652067726561746572207468616e203000000060448201526064015b60405180910390fd5b6040516bffffffffffffffffffffffff1933606090811b8216602084015285901b16603482015260009060480160408051808303601f19018152828252805160209182012060a0840183526001600160a01b038881168086528386018981526000878701818152606089018b815260808a0183815287845260029889905298909220895181546001600160a01b0319169616959095178555915160018501559051948301949094559251600382015592516004909301929092559092506102ae578334146102a95760405162461bcd60e51b815260206004820152601960248201527f496e636f72726563742045544820616d6f756e742073656e74000000000000006044820152606401610190565b610369565b6040516323b872dd60e01b8152336004820152306024820152604481018590526001600160a01b038616906323b872dd906064016020604051808303816000875af1158015610301573d6000803e3d6000fd5b505050506040513d601f19601f8201168201806040525081019061032591906105a7565b6103695760405162461bcd60e51b8152602060048201526015602482015274151bdad95b881d1c985b9cd9995c8819985a5b1959605a1b6044820152606401610190565b5050505050565b600081815260026020819052604090912090810154156103e15760405162461bcd60e51b815260206004820152602660248201527f43616e6e6f7420636c6f73652053616665207769746820626f72726f77656420604482015265185b5bdd5b9d60d21b6064820152608401610190565b80546001600160a01b0316610426576001810154604051339180156108fc02916000818181858888f19350505050158015610420573d6000803e3d6000fd5b506104e4565b8054600182015460405163a9059cbb60e01b815233600482015260248101919091526001600160a01b039091169063a9059cbb906044016020604051808303816000875af115801561047c573d6000803e3d6000fd5b505050506040513d601f19601f820116820180604052508101906104a091906105a7565b6104e45760405162461bcd60e51b8152602060048201526015602482015274151bdad95b881d1c985b9cd9995c8819985a5b1959605a1b6044820152606401610190565b506000908152600260208190526040822080546001600160a01b0319168155600181018390559081018290556003810182905560040155565b80356001600160a01b038116811461053457600080fd5b919050565b60008060006060848603121561054e57600080fd5b6105578461051d565b95602085013595506040909401359392505050565b60006020828403121561057e57600080fd5b5035919050565b60006020828403121561059757600080fd5b6105a08261051d565b9392505050565b6000602082840312156105b957600080fd5b815180151581146105a057600080fdfea26469706673582212206bbbd99177083c4f807efb3f3ce8700db3fa051f13360f95dc0821016f1cd34564736f6c63430008140033",
  "linkReferences": {},
  "deployedLinkReferences": {}
}