{
  "_format": "hh-sol-artifact-1",
  "contractName": "StableBaseCDP",
  "sourceName": "contracts/StableBaseCDP.sol",
  "abi": [
    {
      "inputs": [],
      "stateMutability": "nonpayable",
      "type": "constructor"
    },
    {
      "inputs": [
        {
          "internalType": "address",
          "name": "collateralToken",
          "type": "address"
        }
      ],
      "name": "closeSafe",
      "outputs": [],
      "stateMutability": "nonpayable",
      "type": "function"
    },
    {
      "inputs": [
        {
          "internalType": "address",
          "name": "_token",
          "type": "address"
        },
        {
          "internalType": "uint256",
          "name": "_amount",
          "type": "uint256"
        },
        {
          "internalType": "uint256",
          "name": "_reserveRatio",
          "type": "uint256"
        }
      ],
      "name": "openSafe",
      "outputs": [],
      "stateMutability": "payable",
      "type": "function"
    },
    {
      "inputs": [
        {
          "internalType": "bytes32",
          "name": "",
          "type": "bytes32"
        }
      ],
      "name": "safes",
      "outputs": [
        {
          "internalType": "address",
          "name": "token",
          "type": "address"
        },
        {
          "internalType": "uint256",
          "name": "depositedAmount",
          "type": "uint256"
        },
        {
          "internalType": "uint256",
          "name": "borrowedAmount",
          "type": "uint256"
        },
        {
          "internalType": "uint256",
          "name": "reserveRatio",
          "type": "uint256"
        },
        {
          "internalType": "uint256",
          "name": "originationFeePaid",
          "type": "uint256"
        }
      ],
      "stateMutability": "view",
      "type": "function"
    },
    {
      "inputs": [
        {
          "internalType": "address",
          "name": "",
          "type": "address"
        }
      ],
      "name": "whitelistedTokens",
      "outputs": [
        {
          "internalType": "bool",
          "name": "",
          "type": "bool"
        }
      ],
      "stateMutability": "view",
      "type": "function"
    }
  ],
  "bytecode": "0x608060405260008055606e60015534801561001957600080fd5b506000805260036020527f3617319a054d772f909f7c479a2cebe5066e836a939412e32403c99029b92eff805460ff1916600117905561061d8061005e6000396000f3fe60806040526004361061003f5760003560e01c80635638ff7c14610044578063bfa493f814610059578063d1ea2a7014610079578063daf9c21014610104575b600080fd5b610057610052366004610557565b610144565b005b34801561006557600080fd5b5061005761007436600461058a565b610282565b34801561008557600080fd5b506100cd6100943660046105ac565b6002602081905260009182526040909120805460018201549282015460038301546004909301546001600160a01b039092169392909185565b604080516001600160a01b0390961686526020860194909452928401919091526060830152608082015260a0015b60405180910390f35b34801561011057600080fd5b5061013461011f36600461058a565b60036020526000908152604090205460ff1681565b60405190151581526020016100fb565b600082116101995760405162461bcd60e51b815260206004820152601d60248201527f416d6f756e74206d7573742062652067726561746572207468616e203000000060448201526064015b60405180910390fd5b60006101a53385610359565b6040805160a0810182526001600160a01b0387811680835260208084018981526000858701818152606087018b8152608088018381528a845260029586905298909220875181546001600160a01b03191697169690961786559151600186015590519184019190915551600383015592516004909101559192506102705783341461026b5760405162461bcd60e51b8152602060048201526016602482015275125b9d985b1a590819195c1bdcda5d08185b5bdd5b9d60521b6044820152606401610190565b61027b565b61027b8530866103a3565b5050505050565b600061028e3383610359565b60008181526002602081905260409091209081015491925090156103035760405162461bcd60e51b815260206004820152602660248201527f43616e6e6f7420636c6f73652053616665207769746820626f72726f77656420604482015265185b5bdd5b9d60d21b6064820152608401610190565b8054600182015461031f916001600160a01b03169033906104bc565b506000908152600260208190526040822080546001600160a01b031916815560018101839055908101829055600381018290556004015550565b6040516bffffffffffffffffffffffff19606084811b8216602084015283901b16603482015260009060480160405160208183030381529060405280519060200120905092915050565b6001600160a01b0383166103fe578034146103f95760405162461bcd60e51b8152602060048201526016602482015275125b9d985b1a590819195c1bdcda5d08185b5bdd5b9d60521b6044820152606401610190565b505050565b6040516323b872dd60e01b81523360048201526001600160a01b038381166024830152604482018390528416906323b872dd906064015b6020604051808303816000875af1158015610454573d6000803e3d6000fd5b505050506040513d601f19601f8201168201806040525081019061047891906105c5565b6103f95760405162461bcd60e51b8152602060048201526015602482015274151bdad95b881d1c985b9cd9995c8819985a5b1959605a1b6044820152606401610190565b6001600160a01b038316610506576040516001600160a01b0383169082156108fc029083906000818181858888f19350505050158015610500573d6000803e3d6000fd5b50505050565b60405163a9059cbb60e01b81526001600160a01b0383811660048301526024820183905284169063a9059cbb90604401610435565b80356001600160a01b038116811461055257600080fd5b919050565b60008060006060848603121561056c57600080fd5b6105758461053b565b95602085013595506040909401359392505050565b60006020828403121561059c57600080fd5b6105a58261053b565b9392505050565b6000602082840312156105be57600080fd5b5035919050565b6000602082840312156105d757600080fd5b815180151581146105a557600080fdfea2646970667358221220fc5a7c639b8b624850bf6d7f2be8f3b9ef0f68ad9db33bc57336caecd66ac9f564736f6c63430008140033",
  "linkReferences": {},
  "deployedLinkReferences": {}
}