{
  "_format": "hh-sol-artifact-1",
  "contractName": "ChainlinkPriceFeed",
  "sourceName": "contracts/dependencies/price-oracle/ChainlinkPriceOracle.sol",
  "abi": [
    {
      "inputs": [
        {
          "internalType": "uint256",
          "name": "chainId",
          "type": "uint256"
        }
      ],
      "stateMutability": "nonpayable",
      "type": "constructor"
    },
    {
      "inputs": [],
      "name": "fetchPrice",
      "outputs": [
        {
          "internalType": "uint256",
          "name": "",
          "type": "uint256"
        }
      ],
      "stateMutability": "view",
      "type": "function"
    }
  ],
  "bytecode": "0x60803461012b57601f61030f38819003918201601f19168301916001600160401b038311848410176101305780849260209460405283398101031261012b57516001810361007e5750600080546001600160a01b031916735f4ec3df9cbd43714fe2740f5e3616155c5b84191790555b6040516101c890816101478239f35b62aa36a781036100b45750600080546001600160a01b03191673694aa1769357215de4fac081bf1f309adc32530617905561006f565b6005036100e657600080546001600160a01b03191673d4a33860578de61dbabdc8bfdb98fd742fa7028e17905561006f565b60405162461bcd60e51b815260206004820152601460248201527f556e737570706f7274656420636861696e2049440000000000000000000000006044820152606490fd5b600080fd5b634e487b7160e01b600052604160045260246000fdfe608080604052600436101561001357600080fd5b6000803560e01c630fdb11cf1461002957600080fd5b3461017357806003193601126101735760a08260048173ffffffffffffffffffffffffffffffffffffffff855416633fabe5a360e21b82525afa9182156101665781926100ea575b50808213156100b0576402540be4009182810292818404149015171561009c57602082604051908152f35b634e487b7160e01b81526011600452602490fd5b60405162461bcd60e51b8152602060048201526012602482015271496e76616c6964207072696365206461746160701b6044820152606490fd5b90915060a03d811161015f575b601f8101601f1916820167ffffffffffffffff81118382101761014b5760a0918391604052810103126101475761012d81610176565b5061013f608060208301519201610176565b509038610071565b5080fd5b634e487b7160e01b84526041600452602484fd5b503d6100f7565b50604051903d90823e3d90fd5b80fd5b519069ffffffffffffffffffff8216820361018d57565b600080fdfea2646970667358221220f5fb502a7cbf17b9805ea079d6cd260f920f3a396c3d97f2182c2f9df5cd827164736f6c63430008140033",
  "linkReferences": {},
  "deployedLinkReferences": {}
}