{
  "_format": "hh-sol-artifact-1",
  "contractName": "DFIRStaking",
  "sourceName": "contracts/DFIRStaking.sol",
  "abi": [
    {
      "inputs": [
        {
          "internalType": "bool",
          "name": "_rewardSenderActive",
          "type": "bool"
        }
      ],
      "stateMutability": "nonpayable",
      "type": "constructor"
    },
    {
      "inputs": [
        {
          "internalType": "address",
          "name": "owner",
          "type": "address"
        }
      ],
      "name": "OwnableInvalidOwner",
      "type": "error"
    },
    {
      "inputs": [
        {
          "internalType": "address",
          "name": "account",
          "type": "address"
        }
      ],
      "name": "OwnableUnauthorizedAccount",
      "type": "error"
    },
    {
      "anonymous": false,
      "inputs": [
        {
          "indexed": true,
          "internalType": "address",
          "name": "user",
          "type": "address"
        },
        {
          "indexed": false,
          "internalType": "uint256",
          "name": "rewardAmount",
          "type": "uint256"
        },
        {
          "indexed": false,
          "internalType": "uint256",
          "name": "collateralReward",
          "type": "uint256"
        }
      ],
      "name": "Claimed",
      "type": "event"
    },
    {
      "anonymous": false,
      "inputs": [
        {
          "indexed": false,
          "internalType": "uint256",
          "name": "amount",
          "type": "uint256"
        }
      ],
      "name": "CollateralRewardAdded",
      "type": "event"
    },
    {
      "anonymous": false,
      "inputs": [
        {
          "indexed": true,
          "internalType": "address",
          "name": "previousOwner",
          "type": "address"
        },
        {
          "indexed": true,
          "internalType": "address",
          "name": "newOwner",
          "type": "address"
        }
      ],
      "name": "OwnershipTransferred",
      "type": "event"
    },
    {
      "anonymous": false,
      "inputs": [
        {
          "indexed": false,
          "internalType": "uint256",
          "name": "amount",
          "type": "uint256"
        }
      ],
      "name": "RewardAdded",
      "type": "event"
    },
    {
      "anonymous": false,
      "inputs": [
        {
          "indexed": true,
          "internalType": "address",
          "name": "user",
          "type": "address"
        },
        {
          "indexed": false,
          "internalType": "uint256",
          "name": "amount",
          "type": "uint256"
        }
      ],
      "name": "Staked",
      "type": "event"
    },
    {
      "anonymous": false,
      "inputs": [
        {
          "indexed": true,
          "internalType": "address",
          "name": "user",
          "type": "address"
        },
        {
          "indexed": false,
          "internalType": "uint256",
          "name": "amount",
          "type": "uint256"
        }
      ],
      "name": "Unstaked",
      "type": "event"
    },
    {
      "inputs": [],
      "name": "PRECISION",
      "outputs": [
        {
          "internalType": "uint256",
          "name": "",
          "type": "uint256"
        }
      ],
      "stateMutability": "view",
      "type": "function"
    },
    {
      "inputs": [
        {
          "internalType": "uint256",
          "name": "_amount",
          "type": "uint256"
        }
      ],
      "name": "addCollateralReward",
      "outputs": [
        {
          "internalType": "bool",
          "name": "",
          "type": "bool"
        }
      ],
      "stateMutability": "payable",
      "type": "function"
    },
    {
      "inputs": [
        {
          "internalType": "uint256",
          "name": "_amount",
          "type": "uint256"
        }
      ],
      "name": "addReward",
      "outputs": [
        {
          "internalType": "bool",
          "name": "",
          "type": "bool"
        }
      ],
      "stateMutability": "nonpayable",
      "type": "function"
    },
    {
      "inputs": [],
      "name": "claim",
      "outputs": [],
      "stateMutability": "nonpayable",
      "type": "function"
    },
    {
      "inputs": [
        {
          "internalType": "address",
          "name": "user",
          "type": "address"
        }
      ],
      "name": "getStake",
      "outputs": [
        {
          "components": [
            {
              "internalType": "uint256",
              "name": "stake",
              "type": "uint256"
            },
            {
              "internalType": "uint256",
              "name": "rewardSnapshot",
              "type": "uint256"
            },
            {
              "internalType": "uint256",
              "name": "collateralSnapshot",
              "type": "uint256"
            }
          ],
          "internalType": "struct IDFIRStaking.Stake",
          "name": "",
          "type": "tuple"
        }
      ],
      "stateMutability": "view",
      "type": "function"
    },
    {
      "inputs": [],
      "name": "owner",
      "outputs": [
        {
          "internalType": "address",
          "name": "",
          "type": "address"
        }
      ],
      "stateMutability": "view",
      "type": "function"
    },
    {
      "inputs": [],
      "name": "renounceOwnership",
      "outputs": [],
      "stateMutability": "nonpayable",
      "type": "function"
    },
    {
      "inputs": [],
      "name": "rewardSenderActive",
      "outputs": [
        {
          "internalType": "bool",
          "name": "",
          "type": "bool"
        }
      ],
      "stateMutability": "view",
      "type": "function"
    },
    {
      "inputs": [],
      "name": "rewardToken",
      "outputs": [
        {
          "internalType": "contract IERC20",
          "name": "",
          "type": "address"
        }
      ],
      "stateMutability": "view",
      "type": "function"
    },
    {
      "inputs": [
        {
          "internalType": "address",
          "name": "_stakingToken",
          "type": "address"
        },
        {
          "internalType": "address",
          "name": "_rewardToken",
          "type": "address"
        },
        {
          "internalType": "address",
          "name": "_stableBaseContract",
          "type": "address"
        }
      ],
      "name": "setAddresses",
      "outputs": [],
      "stateMutability": "nonpayable",
      "type": "function"
    },
    {
      "inputs": [],
      "name": "stableBaseContract",
      "outputs": [
        {
          "internalType": "address",
          "name": "",
          "type": "address"
        }
      ],
      "stateMutability": "view",
      "type": "function"
    },
    {
      "inputs": [
        {
          "internalType": "uint256",
          "name": "_amount",
          "type": "uint256"
        }
      ],
      "name": "stake",
      "outputs": [],
      "stateMutability": "nonpayable",
      "type": "function"
    },
    {
      "inputs": [
        {
          "internalType": "address",
          "name": "",
          "type": "address"
        }
      ],
      "name": "stakes",
      "outputs": [
        {
          "internalType": "uint256",
          "name": "stake",
          "type": "uint256"
        },
        {
          "internalType": "uint256",
          "name": "rewardSnapshot",
          "type": "uint256"
        },
        {
          "internalType": "uint256",
          "name": "collateralSnapshot",
          "type": "uint256"
        }
      ],
      "stateMutability": "view",
      "type": "function"
    },
    {
      "inputs": [],
      "name": "stakingToken",
      "outputs": [
        {
          "internalType": "contract IERC20",
          "name": "",
          "type": "address"
        }
      ],
      "stateMutability": "view",
      "type": "function"
    },
    {
      "inputs": [],
      "name": "totalCollateralPerToken",
      "outputs": [
        {
          "internalType": "uint256",
          "name": "",
          "type": "uint256"
        }
      ],
      "stateMutability": "view",
      "type": "function"
    },
    {
      "inputs": [],
      "name": "totalRewardPerToken",
      "outputs": [
        {
          "internalType": "uint256",
          "name": "",
          "type": "uint256"
        }
      ],
      "stateMutability": "view",
      "type": "function"
    },
    {
      "inputs": [],
      "name": "totalStake",
      "outputs": [
        {
          "internalType": "uint256",
          "name": "",
          "type": "uint256"
        }
      ],
      "stateMutability": "view",
      "type": "function"
    },
    {
      "inputs": [
        {
          "internalType": "address",
          "name": "newOwner",
          "type": "address"
        }
      ],
      "name": "transferOwnership",
      "outputs": [],
      "stateMutability": "nonpayable",
      "type": "function"
    },
    {
      "inputs": [
        {
          "internalType": "uint256",
          "name": "_amount",
          "type": "uint256"
        }
      ],
      "name": "unstake",
      "outputs": [],
      "stateMutability": "nonpayable",
      "type": "function"
    },
    {
      "inputs": [
        {
          "internalType": "address",
          "name": "user",
          "type": "address"
        }
      ],
      "name": "userPendingReward",
      "outputs": [
        {
          "internalType": "uint256",
          "name": "",
          "type": "uint256"
        },
        {
          "internalType": "uint256",
          "name": "",
          "type": "uint256"
        }
      ],
      "stateMutability": "view",
      "type": "function"
    }
  ],
  "bytecode": "0x6080346100e257601f61101d38819003918201601f19168301916001600160401b038311848410176100e7578084926020946040528339810103126100e257518015158091036100e25733156100c95760008054336001600160a01b0319821681178355604051939290916001600160a01b0316907f8be0079c531659141344cd1fd0a4f28419497f9722a3daafe3b4186f6b6457e09080a3670de0b6b3a764000060055560ff60a01b19600854169060ff60a01b9060a01b1617600855610f1f90816100fe8239f35b604051631e4fbdf760e01b815260006004820152602490fd5b600080fd5b634e487b7160e01b600052604160045260246000fdfe608060408181526004918236101561001657600080fd5b600092833560e01c9182630498dc3914610932575081630a4f08e01461091457816316934fc4146108c65781631d0ebc0a1461089d5781632e17de781461069a578163363bf9641461061b5781633e240391146105f45781634e71d92d146105cf578163715018a6146105ab5781637174df701461050557816372f702f3146104dc57816374de4ec4146104bc5781637a7664601461043a5781638b0e9f3f1461041b5781638da5cb5b146103f357816396b1ea94146103cc578163a694fc3a146101d6578163aaf5eb68146101b7578163f2fde38b1461012c575063f7c618c11461010157600080fd5b3461012857816003193601126101285760075490516001600160a01b039091168152602090f35b5080fd5b9050346101b35760203660031901126101b35761014761094e565b90610150610969565b6001600160a01b0391821692831561019d57505082546001600160a01b0319811683178455167f8be0079c531659141344cd1fd0a4f28419497f9722a3daafe3b4186f6b6457e08380a380f35b51631e4fbdf760e01b8152908101849052602490fd5b8280fd5b5050346101285781600319360112610128576020906005549051908152f35b919050346101b3576020806003193601126103c857823591821561038757338552600182528085209361020885610d7b565b60065482516323b872dd60e01b815233838201908152306020820152604081018790526001600160a01b039792869183918a169082908c90829060600103925af190811561037d5790610262918991610360575b50610a41565b61026d858254610a86565b9055856002549561027e8688610a86565b6002556008549660ff8860a01c169081610357575b506102c8575b50847f9e71bc8eea02a63969f509818f2dafb9254532904319f9dbda79b67bd34a5f3d8585519283523392a280f35b84926001926024928651998a958694631b2ae29360e11b8652850152165af193841561034d577f9e71bc8eea02a63969f509818f2dafb9254532904319f9dbda79b67bd34a5f3d9394610320575b8493508581610299565b61033f90833d8511610346575b6103378183610a07565b810190610a29565b5038610316565b503d61032d565b81513d87823e3d90fd5b90501538610293565b6103779150863d8811610346576103378183610a07565b3861025c565b84513d8a823e3d90fd5b5162461bcd60e51b81529283015250601860248201527f43616e6e6f74207374616b65207a65726f20746f6b656e7300000000000000006044820152606490fd5b8380fd5b828460203660031901126103f057506103e760209235610c22565b90519015158152f35b80fd5b505034610128578160031936011261012857905490516001600160a01b039091168152602090f35b5050346101285781600319360112610128576020906002549051908152f35b505034610128576020366003190112610128578060609261045961094e565b81838051610466816109d5565b828152826020820152015260018060a01b0316815260016020522090805161048d816109d5565b825492838252826002600183015492602085019384520154920191825282519384525160208401525190820152f35b8284346103f05760203660031901126103f057506103e760209235610ae9565b50503461012857816003193601126101285760065490516001600160a01b039091168152602090f35b905082346103f05760203660031901126103f05761059f9083906001600160a01b0361052f61094e565b16815260016020522061059a8451610546816109d5565b8254815261059261057a6105726002600187015496876020870152015495898501968752600354610aa9565b835190610ab6565b936105886005548096610ac9565b9654905190610aa9565b905190610ab6565b610ac9565b82519182526020820152f35b83346103f057806003193601126103f0576105c4610969565b6105cc610995565b80f35b5050346101285781600319360112610128576105cc9033835260016020528220610d7b565b50503461012857816003193601126101285760209060ff60085460a01c1690519015158152f35b83346103f05760603660031901126103f05761063561094e565b6001600160a01b0390602435828116908190036103c8576044359280841680940361069657610662610969565b6bffffffffffffffffffffffff60a01b921682600654161760065581600754161760075560085416176008556105c4610969565b8480fd5b9050346101b3576020806003193601126103c857813591821561085c57338552600182528385206106ca81610d7b565b805480851161082057846106dd91610aa9565b90558183866106ee82600254610aa9565b806002556008549060ff8260a01c169081610817575b506107ac575b5050600654865163a9059cbb60e01b8152339481019485526020850192909252909283916001600160a01b0316908290899082906040015b03925af19081156107a2577f0f5bb82176feb1b5e747e28471aa92156a04d9f3ab9f45f28e2d704232b93f7593949161078191879161078b5750610a41565b519283523392a280f35b6103779150843d8611610346576103378183610a07565b84513d87823e3d90fd5b8751631b2ae29360e11b815285810183905293925083916024918391906001600160a01b03165af1801561080d5761074292849286926107f0575b8891945061070a565b61080690843d8611610346576103378183610a07565b50386107e7565b85513d88823e3d90fd5b90501538610704565b855162461bcd60e51b81528084018590526016602482015275125b9d985b1a59081d5b9cdd185ad948185b5bdd5b9d60521b6044820152606490fd5b60649184519162461bcd60e51b8352820152601a60248201527f43616e6e6f7420756e7374616b65207a65726f20746f6b656e730000000000006044820152fd5b50503461012857816003193601126101285760085490516001600160a01b039091168152602090f35b5050346101285760203660031901126101285760609181906001600160a01b036108ee61094e565b168152600160205220805491600260018301549201549181519384526020840152820152f35b9050346101b357826003193601126101b35760209250549051908152f35b8490346101285781600319360112610128576020906003548152f35b600435906001600160a01b038216820361096457565b600080fd5b6000546001600160a01b0316330361097d57565b60405163118cdaa760e01b8152336004820152602490fd5b600080546001600160a01b0319811682556001600160a01b03167f8be0079c531659141344cd1fd0a4f28419497f9722a3daafe3b4186f6b6457e08280a3565b6060810190811067ffffffffffffffff8211176109f157604052565b634e487b7160e01b600052604160045260246000fd5b90601f8019910116810190811067ffffffffffffffff8211176109f157604052565b90816020910312610964575180151581036109645790565b15610a4857565b60405162461bcd60e51b8152602060048201526016602482015275151c985b9cd9995c881d1bdad95b9cc819985a5b195960521b6044820152606490fd5b91908201809211610a9357565b634e487b7160e01b600052601160045260246000fd5b91908203918211610a9357565b81810292918115918404141715610a9357565b8115610ad3570490565b634e487b7160e01b600052601260045260246000fd5b6008546001600160a01b039081163303610bcc576002549081610b0e57505050600090565b6007546040516323b872dd60e01b815233600482015230602482015260448101859052939160209185916064918391600091165af1928315610bc057610b92602093610b867fde88a922e0d3b88b24e9623efeb464919c6bf9f66857a65e2bfcf2ce87a9433d96610b9a94600091610ba95750610a41565b61059a60055485610ab6565b600354610a86565b600355604051908152a1600190565b6103779150873d8111610346576103378183610a07565b6040513d6000823e3d90fd5b60405162461bcd60e51b815260206004820152602860248201527f4f6e6c7920737461626c654261736520636f6e74726163742063616e20616464604482015267207265776172647360c01b6064820152608490fd5b6008546001600160a01b03163303610cdc5760025480610c43575050600090565b813403610c98577f39434c7ce7d70dbcb1fff3d0ea6f47500ac190d6bf4f681f54f64200a7a696b791610c89610c8160209361059a60055485610ab6565b600454610a86565b600455604051908152a1600190565b606460405162461bcd60e51b815260206004820152602060248201527f496e76616c696420636f6c6c61746572616c2072657761726420616d6f756e746044820152fd5b60405162461bcd60e51b815260206004820152603360248201527f4f6e6c7920737461626c654261736520636f6e74726163742063616e2061646460448201527220636f6c6c61746572616c207265776172647360681b6064820152608490fd5b15610d4457565b60405162461bcd60e51b815260206004820152600f60248201526e151c985b9cd9995c8819985a5b1959608a1b6044820152606490fd5b6003546001820191610d8e835483610aa9565b91610da7610d9e83548095610ab6565b60055490610ac9565b9355610dc7610d9e6002600454930193610dc2855485610aa9565b610ab6565b915581610e78575b80610e08575b60405191825260208201527f987d620f307ff6b94d58743cb7a7509f24071586a77759b77c2d4e29f75a2f9a60403392a2565b60008080808085335af1903d15610e6e573d9067ffffffffffffffff8211610e5a5790610e55929160405191610e486020601f19601f8401160184610a07565b825260203d92013e610d3d565b610dd5565b634e487b7160e01b81526041600452602490fd5b50610e5590610d3d565b60075460405163a9059cbb60e01b81523360048201526024810184905290602090829060449082906000906001600160a01b03165af18015610bc057610ec691600091610ecb575b50610d3d565b610dcf565b610ee3915060203d8111610346576103378183610a07565b38610ec056fea264697066735822122081dbe3bc62c6a5b9ce7c18b0eba1b0b5bff5fd9e73efaabed332f5400fe2169564736f6c63430008140033",
  "linkReferences": {},
  "deployedLinkReferences": {}
}