{
  "_format": "hh-sol-artifact-1",
  "contractName": "DFIRToken",
  "sourceName": "contracts/DFIRToken.sol",
  "abi": [
    {
      "inputs": [],
      "stateMutability": "nonpayable",
      "type": "constructor"
    },
    {
      "inputs": [
        {
          "internalType": "address",
          "name": "spender",
          "type": "address"
        },
        {
          "internalType": "uint256",
          "name": "allowance",
          "type": "uint256"
        },
        {
          "internalType": "uint256",
          "name": "needed",
          "type": "uint256"
        }
      ],
      "name": "ERC20InsufficientAllowance",
      "type": "error"
    },
    {
      "inputs": [
        {
          "internalType": "address",
          "name": "sender",
          "type": "address"
        },
        {
          "internalType": "uint256",
          "name": "balance",
          "type": "uint256"
        },
        {
          "internalType": "uint256",
          "name": "needed",
          "type": "uint256"
        }
      ],
      "name": "ERC20InsufficientBalance",
      "type": "error"
    },
    {
      "inputs": [
        {
          "internalType": "address",
          "name": "approver",
          "type": "address"
        }
      ],
      "name": "ERC20InvalidApprover",
      "type": "error"
    },
    {
      "inputs": [
        {
          "internalType": "address",
          "name": "receiver",
          "type": "address"
        }
      ],
      "name": "ERC20InvalidReceiver",
      "type": "error"
    },
    {
      "inputs": [
        {
          "internalType": "address",
          "name": "sender",
          "type": "address"
        }
      ],
      "name": "ERC20InvalidSender",
      "type": "error"
    },
    {
      "inputs": [
        {
          "internalType": "address",
          "name": "spender",
          "type": "address"
        }
      ],
      "name": "ERC20InvalidSpender",
      "type": "error"
    },
    {
      "inputs": [
        {
          "internalType": "address",
          "name": "owner",
          "type": "address"
        }
      ],
      "name": "OwnableInvalidOwner",
      "type": "error"
    },
    {
      "inputs": [
        {
          "internalType": "address",
          "name": "account",
          "type": "address"
        }
      ],
      "name": "OwnableUnauthorizedAccount",
      "type": "error"
    },
    {
      "anonymous": false,
      "inputs": [
        {
          "indexed": true,
          "internalType": "address",
          "name": "owner",
          "type": "address"
        },
        {
          "indexed": true,
          "internalType": "address",
          "name": "spender",
          "type": "address"
        },
        {
          "indexed": false,
          "internalType": "uint256",
          "name": "value",
          "type": "uint256"
        }
      ],
      "name": "Approval",
      "type": "event"
    },
    {
      "anonymous": false,
      "inputs": [
        {
          "indexed": true,
          "internalType": "address",
          "name": "from",
          "type": "address"
        },
        {
          "indexed": false,
          "internalType": "uint256",
          "name": "amount",
          "type": "uint256"
        }
      ],
      "name": "Burn",
      "type": "event"
    },
    {
      "anonymous": false,
      "inputs": [
        {
          "indexed": true,
          "internalType": "address",
          "name": "previousOwner",
          "type": "address"
        },
        {
          "indexed": true,
          "internalType": "address",
          "name": "newOwner",
          "type": "address"
        }
      ],
      "name": "OwnershipTransferred",
      "type": "event"
    },
    {
      "anonymous": false,
      "inputs": [
        {
          "indexed": true,
          "internalType": "address",
          "name": "from",
          "type": "address"
        },
        {
          "indexed": true,
          "internalType": "address",
          "name": "to",
          "type": "address"
        },
        {
          "indexed": false,
          "internalType": "uint256",
          "name": "value",
          "type": "uint256"
        }
      ],
      "name": "Transfer",
      "type": "event"
    },
    {
      "inputs": [
        {
          "internalType": "address",
          "name": "owner",
          "type": "address"
        },
        {
          "internalType": "address",
          "name": "spender",
          "type": "address"
        }
      ],
      "name": "allowance",
      "outputs": [
        {
          "internalType": "uint256",
          "name": "",
          "type": "uint256"
        }
      ],
      "stateMutability": "view",
      "type": "function"
    },
    {
      "inputs": [
        {
          "internalType": "address",
          "name": "spender",
          "type": "address"
        },
        {
          "internalType": "uint256",
          "name": "value",
          "type": "uint256"
        }
      ],
      "name": "approve",
      "outputs": [
        {
          "internalType": "bool",
          "name": "",
          "type": "bool"
        }
      ],
      "stateMutability": "nonpayable",
      "type": "function"
    },
    {
      "inputs": [
        {
          "internalType": "address",
          "name": "account",
          "type": "address"
        }
      ],
      "name": "balanceOf",
      "outputs": [
        {
          "internalType": "uint256",
          "name": "",
          "type": "uint256"
        }
      ],
      "stateMutability": "view",
      "type": "function"
    },
    {
      "inputs": [
        {
          "internalType": "address",
          "name": "from",
          "type": "address"
        },
        {
          "internalType": "uint256",
          "name": "amount",
          "type": "uint256"
        }
      ],
      "name": "burn",
      "outputs": [
        {
          "internalType": "bool",
          "name": "",
          "type": "bool"
        }
      ],
      "stateMutability": "nonpayable",
      "type": "function"
    },
    {
      "inputs": [],
      "name": "decimals",
      "outputs": [
        {
          "internalType": "uint8",
          "name": "",
          "type": "uint8"
        }
      ],
      "stateMutability": "view",
      "type": "function"
    },
    {
      "inputs": [
        {
          "internalType": "address",
          "name": "to",
          "type": "address"
        },
        {
          "internalType": "uint256",
          "name": "amount",
          "type": "uint256"
        }
      ],
      "name": "mint",
      "outputs": [
        {
          "internalType": "bool",
          "name": "",
          "type": "bool"
        }
      ],
      "stateMutability": "nonpayable",
      "type": "function"
    },
    {
      "inputs": [],
      "name": "name",
      "outputs": [
        {
          "internalType": "string",
          "name": "",
          "type": "string"
        }
      ],
      "stateMutability": "view",
      "type": "function"
    },
    {
      "inputs": [],
      "name": "owner",
      "outputs": [
        {
          "internalType": "address",
          "name": "",
          "type": "address"
        }
      ],
      "stateMutability": "view",
      "type": "function"
    },
    {
      "inputs": [],
      "name": "renounceOwnership",
      "outputs": [],
      "stateMutability": "nonpayable",
      "type": "function"
    },
    {
      "inputs": [
        {
          "internalType": "address",
          "name": "_stabilityPool",
          "type": "address"
        }
      ],
      "name": "setAddresses",
      "outputs": [],
      "stateMutability": "nonpayable",
      "type": "function"
    },
    {
      "inputs": [],
      "name": "symbol",
      "outputs": [
        {
          "internalType": "string",
          "name": "",
          "type": "string"
        }
      ],
      "stateMutability": "view",
      "type": "function"
    },
    {
      "inputs": [],
      "name": "totalBurned",
      "outputs": [
        {
          "internalType": "uint256",
          "name": "",
          "type": "uint256"
        }
      ],
      "stateMutability": "view",
      "type": "function"
    },
    {
      "inputs": [],
      "name": "totalSupply",
      "outputs": [
        {
          "internalType": "uint256",
          "name": "",
          "type": "uint256"
        }
      ],
      "stateMutability": "view",
      "type": "function"
    },
    {
      "inputs": [
        {
          "internalType": "address",
          "name": "to",
          "type": "address"
        },
        {
          "internalType": "uint256",
          "name": "value",
          "type": "uint256"
        }
      ],
      "name": "transfer",
      "outputs": [
        {
          "internalType": "bool",
          "name": "",
          "type": "bool"
        }
      ],
      "stateMutability": "nonpayable",
      "type": "function"
    },
    {
      "inputs": [
        {
          "internalType": "address",
          "name": "from",
          "type": "address"
        },
        {
          "internalType": "address",
          "name": "to",
          "type": "address"
        },
        {
          "internalType": "uint256",
          "name": "value",
          "type": "uint256"
        }
      ],
      "name": "transferFrom",
      "outputs": [
        {
          "internalType": "bool",
          "name": "",
          "type": "bool"
        }
      ],
      "stateMutability": "nonpayable",
      "type": "function"
    },
    {
      "inputs": [
        {
          "internalType": "address",
          "name": "newOwner",
          "type": "address"
        }
      ],
      "name": "transferOwnership",
      "outputs": [],
      "stateMutability": "nonpayable",
      "type": "function"
    }
  ],
  "bytecode": "0x60803462000370576001600160401b039060409080820183811182821017620002715782526007815260209066442e46492e524560c81b82820152825193838501858110828211176200027157845260059485815264444649524560d81b84820152825182811162000271576003918254916001958684811c9416801562000365575b888510146200034f578190601f94858111620002fa575b508890858311600114620002935760009262000287575b505060001982861b1c191690861b1783555b8051938411620002715760049586548681811c9116801562000266575b82821014620002515783811162000208575b50809285116001146200019a57509383949184926000956200018e575b50501b92600019911b1c19161781555b33156200017857508154336001600160a01b031982168117909355905191906001600160a01b03167f8be0079c531659141344cd1fd0a4f28419497f9722a3daafe3b4186f6b6457e0600080a3610b299081620003768239f35b60006024925191631e4fbdf760e01b8352820152fd5b0151935038806200010e565b92919084601f1981168860005285600020956000905b89838310620001ed5750505010620001d2575b50505050811b0181556200011e565b01519060f884600019921b161c1916905538808080620001c3565b858701518955909701969485019488935090810190620001b0565b8760005281600020848088018c1c82019284891062000247575b018b1c019087905b8281106200023a575050620000f1565b600081550187906200022a565b9250819262000222565b602288634e487b7160e01b6000525260246000fd5b90607f1690620000df565b634e487b7160e01b600052604160045260246000fd5b015190503880620000b0565b90889350601f19831691876000528a6000209260005b8c828210620002e35750508411620002ca575b505050811b018355620000c2565b015160001983881b60f8161c19169055388080620002bc565b8385015186558c97909501949384019301620002a9565b9091508560005288600020858085018d1c8201928b861062000345575b918d8b928796959401901c01915b8281106200033557505062000099565b600081558594508a910162000325565b9250819262000317565b634e487b7160e01b600052602260045260246000fd5b93607f169362000082565b600080fdfe6080604081815260048036101561001557600080fd5b600092833560e01c90816306fdde031461080e57508063095ea7b31461076557806318160ddd1461074657806323b872dd14610653578063313ce5671461063757806340c10f191461059b57806370a0823114610564578063715018a61461050457806381d3c435146104d95780638da5cb5b146104b057806395d89b41146103905780639dc29fac146101c8578063a9059cbb14610197578063d89135cd14610178578063dd62ed3e1461012b5763f2fde38b146100d357600080fd5b34610127576020366003190112610127576100ec61094c565b916100f561097d565b6001600160a01b03831615610111578361010e846109a9565b80f35b51631e4fbdf760e01b8152908101839052602490fd5b8280fd5b5050346101745780600319360112610174578060209261014961094c565b610151610967565b6001600160a01b0391821683526001865283832091168252845220549051908152f35b5080fd5b5050346101745781600319360112610174576020906006549051908152f35b5050346101745780600319360112610174576020906101c16101b761094c565b60243590336109f2565b5160018152f35b50346101275781600319360112610127576101e161094c565b92602435906101ee61097d565b6001600160a01b03851692831561035b578215610318578382526020958287528386842054106102de5784835282875285832054918483106102aa5750509181817fcc16f5dbb4873280815c1ee09dbd06736cffcc184412cf7a71a0fdb75d397ca5948689955282855203868220558160025403600255847fddf252ad1be2c89b69c2b068fc378daa952ba7f163c4a11628f55a4df523b3ef848851858152a361029a81600654610ad0565b6006558451908152a25160018152f35b865163391434e360e21b81526001600160a01b03909216908201908152602081018390526040810185905281906060010390fd5b855162461bcd60e51b81528083018890526014602482015273496e73756666696369656e742062616c616e636560601b6044820152606490fd5b606490602086519162461bcd60e51b8352820152601d60248201527f416d6f756e74206d7573742062652067726561746572207468616e20300000006044820152fd5b606490602086519162461bcd60e51b8352820152600f60248201526e496e76616c6964206164647265737360881b6044820152fd5b50919034610174578160031936011261017457805190828454600181811c908083169283156104a6575b6020938484108114610493578388529081156104775750600114610422575b505050829003601f01601f191682019267ffffffffffffffff84118385101761040f575082918261040b925282610903565b0390f35b634e487b7160e01b815260418552602490fd5b8787529192508591837f8a35acfbc15ff81a39ae7d344fd709f28e8600b4aa8c65c6b64bfe7fe36bd19b5b83851061046357505050508301013880806103d9565b80548886018301529301928490820161044d565b60ff1916878501525050151560051b84010190503880806103d9565b634e487b7160e01b895260228a52602489fd5b91607f16916103ba565b50503461017457816003193601126101745760055490516001600160a01b039091168152602090f35b5034610127576020366003190112610127576104f361094c565b916104fc61097d565b6100f561097d565b833461056157806003193601126105615761051d61097d565b600580546001600160a01b0319811690915581906001600160a01b03167f8be0079c531659141344cd1fd0a4f28419497f9722a3daafe3b4186f6b6457e08280a380f35b80fd5b5050346101745760203660031901126101745760209181906001600160a01b0361058c61094c565b16815280845220549051908152f35b50346101275781600319360112610127576105b461094c565b92602435936105c161097d565b6001600160a01b031691821561062257507fddf252ad1be2c89b69c2b068fc378daa952ba7f163c4a11628f55a4df523b3ef6020856106038297600254610ad0565b6002558484528382528584208181540190558551908152a35160018152f35b60249184519163ec442f0560e01b8352820152fd5b5050346101745781600319360112610174576020905160128152f35b5082346105615760603660031901126105615761066e61094c565b610676610967565b916044359360018060a01b0383168083526001602052868320338452602052868320549160001983036106b2575b6020886101c18989896109f2565b86831061071a5781156107035733156106ec575082526001602090815286832033845281529186902090859003905582906101c1876106a4565b8751634a1406b160e11b8152908101849052602490fd5b875163e602df0560e01b8152908101849052602490fd5b8751637dc7a0d960e11b8152339181019182526020820193909352604081018790528291506060010390fd5b5050346101745781600319360112610174576020906002549051908152f35b503461012757816003193601126101275761077e61094c565b6024359033156107f7576001600160a01b03169182156107e057508083602095338152600187528181208582528752205582519081527f8c5be1e5ebec7d5bd14f71427d1e84f3dd0314c0f7b2291e5b200ac8c7c3b925843392a35160018152f35b8351634a1406b160e11b8152908101859052602490fd5b835163e602df0560e01b8152808401869052602490fd5b849150833461012757826003193601126101275782600354600181811c908083169283156108f9575b6020938484108114610493578388529081156108dd575060011461088757505050829003601f01601f191682019267ffffffffffffffff84118385101761040f575082918261040b925282610903565b600387529192508591837fc2575a0e9e593c00f959f8c92f12db2869c3395a3b0502d05e2516446f71f85b5b8385106108c957505050508301018580806103d9565b8054888601830152930192849082016108b3565b60ff1916878501525050151560051b84010190508580806103d9565b91607f1691610837565b6020808252825181830181905290939260005b82811061093857505060409293506000838284010152601f8019910116010190565b818101860151848201604001528501610916565b600435906001600160a01b038216820361096257565b600080fd5b602435906001600160a01b038216820361096257565b6005546001600160a01b0316330361099157565b60405163118cdaa760e01b8152336004820152602490fd5b600580546001600160a01b039283166001600160a01b0319821681179092559091167f8be0079c531659141344cd1fd0a4f28419497f9722a3daafe3b4186f6b6457e0600080a3565b916001600160a01b03808416928315610ab75716928315610a9e5760009083825281602052604082205490838210610a6c575091604082827fddf252ad1be2c89b69c2b068fc378daa952ba7f163c4a11628f55a4df523b3ef958760209652828652038282205586815220818154019055604051908152a3565b60405163391434e360e21b81526001600160a01b03919091166004820152602481019190915260448101839052606490fd5b60405163ec442f0560e01b815260006004820152602490fd5b604051634b637e8f60e11b815260006004820152602490fd5b91908201809211610add57565b634e487b7160e01b600052601160045260246000fdfea26469706673582212200cedd252c39855a05bc9d0d3b2d511305f469651945a5b1284235d485256a27e64736f6c63430008140033",
  "linkReferences": {},
  "deployedLinkReferences": {}
}