{
  "_format": "hh-sol-artifact-1",
  "contractName": "Math",
  "sourceName": "contracts/library/Math.sol",
  "abi": [
    {
      "inputs": [],
      "name": "DAYS_IN_MONTH",
      "outputs": [
        {
          "internalType": "uint256",
          "name": "",
          "type": "uint256"
        }
      ],
      "stateMutability": "view",
      "type": "function"
    },
    {
      "inputs": [],
      "name": "DAYS_IN_YEAR",
      "outputs": [
        {
          "internalType": "uint256",
          "name": "",
          "type": "uint256"
        }
      ],
      "stateMutability": "view",
      "type": "function"
    },
    {
      "inputs": [],
      "name": "HOURS_IN_DAY",
      "outputs": [
        {
          "internalType": "uint256",
          "name": "",
          "type": "uint256"
        }
      ],
      "stateMutability": "view",
      "type": "function"
    }
  ],
  "bytecode": "0x608080604052346100195760bc908161001f823930815050f35b600080fdfe6080806040526004361015601257600080fd5b600090813560e01c9081630237893214606c57508063c489721b1460565763f298c35214603e57600080fd5b806003193601126053576020604051601e8152f35b80fd5b5080600319360112605357602060405160188152f35b9050816003193601126082578061016d60209252f35b5080fdfea26469706673582212207350cd0ca0a838d2619aac0c04209a4bc2ca96faab1db8aaaae41c51a5342ffc64736f6c63430008140033",
  "linkReferences": {},
  "deployedLinkReferences": {}
}