{
  "_format": "hh-sol-artifact-1",
  "contractName": "MockDebtContract",
  "sourceName": "contracts/MockDebtContract.sol",
  "abi": [
    {
      "inputs": [
        {
          "internalType": "address",
          "name": "_stakingToken",
          "type": "address"
        }
      ],
      "stateMutability": "nonpayable",
      "type": "constructor"
    },
    {
      "inputs": [
        {
          "internalType": "uint256",
          "name": "_amount",
          "type": "uint256"
        }
      ],
      "name": "addReward",
      "outputs": [],
      "stateMutability": "nonpayable",
      "type": "function"
    },
    {
      "inputs": [
        {
          "internalType": "uint256",
          "name": "amount",
          "type": "uint256"
        },
        {
          "internalType": "uint256",
          "name": "collateral",
          "type": "uint256"
        }
      ],
      "name": "liquidate",
      "outputs": [
        {
          "internalType": "uint256",
          "name": "",
          "type": "uint256"
        }
      ],
      "stateMutability": "nonpayable",
      "type": "function"
    },
    {
      "inputs": [],
      "name": "pool",
      "outputs": [
        {
          "internalType": "contract IStabilityPool",
          "name": "",
          "type": "address"
        }
      ],
      "stateMutability": "view",
      "type": "function"
    },
    {
      "inputs": [
        {
          "internalType": "address",
          "name": "_pool",
          "type": "address"
        }
      ],
      "name": "setPool",
      "outputs": [],
      "stateMutability": "nonpayable",
      "type": "function"
    },
    {
      "inputs": [],
      "name": "stakingToken",
      "outputs": [
        {
          "internalType": "contract IERC20",
          "name": "",
          "type": "address"
        }
      ],
      "stateMutability": "view",
      "type": "function"
    },
    {
      "stateMutability": "payable",
      "type": "receive"
    }
  ],
  "bytecode": "0x60803461007457601f6103f538819003918201601f19168301916001600160401b038311848410176100795780849260209460405283398101031261007457516001600160a01b0381169081900361007457600180546001600160a01b03191691909117905560405161036590816100908239f35b600080fd5b634e487b7160e01b600052604160045260246000fdfe6080604081815260049081361015610022575b505050361561002057600080fd5b005b600092833560e01c90816316f0115b146102b6575080634437152a1461027e57806372f702f31461025157806374de4ec4146101255763d296d1f10361001257346101215780600319360112610121578247928180858015610117575b8280929181923390f11561010b57602090604460018060a01b0384541691855194859384926373b2389960e01b845280359084015260243560248401525af1801561010157602094506100d4575b5051908152f35b6100f390843d81116100fa575b6100eb81836102da565b810190610312565b50386100cd565b503d6100e1565b82513d86823e3d90fd5b509051903d90823e3d90fd5b6108fc915061007f565b8280fd5b509034610121576020918260031936011261024d57813560018060a01b038585826001541660648651809481936323b872dd60e01b8352338b8401523060248401528860448401525af1801561022657610230575b50858582600154166044848454168751948593849263095ea7b360e01b84528b8401528860248401525af180156102265791602491879493610209575b50875416948785519687948593631d3793b160e21b85528401525af190811561020057506101e3578280f35b816101f992903d106100fa576100eb81836102da565b5038808280f35b513d85823e3d90fd5b61021f90853d87116100fa576100eb81836102da565b50386101b7565b84513d89823e3d90fd5b61024690863d88116100fa576100eb81836102da565b503861017a565b8380fd5b83823461027a578160031936011261027a5760015490516001600160a01b039091168152602090f35b5080fd5b50503461027a57602036600319011261027a57356001600160a01b0381169081900361027a5781546001600160a01b03191617815580f35b84903461027a578160031936011261027a5790546001600160a01b03168152602090f35b90601f8019910116810190811067ffffffffffffffff8211176102fc57604052565b634e487b7160e01b600052604160045260246000fd5b9081602091031261032a5751801515810361032a5790565b600080fdfea2646970667358221220c6427087901d0e2e735a026aa5f75d7bd7042ebaf1c5cd073c13529b1596e15d64736f6c63430008140033",
  "linkReferences": {},
  "deployedLinkReferences": {}
}