{
  "_format": "hh-sol-artifact-1",
  "contractName": "MockDebtContract",
  "sourceName": "contracts/MockDebtContract.sol",
  "abi": [
    {
      "inputs": [
        {
          "internalType": "address",
          "name": "_stakingToken",
          "type": "address"
        }
      ],
      "stateMutability": "nonpayable",
      "type": "constructor"
    },
    {
      "inputs": [
        {
          "internalType": "uint256",
          "name": "_amount",
          "type": "uint256"
        }
      ],
      "name": "addReward",
      "outputs": [],
      "stateMutability": "nonpayable",
      "type": "function"
    },
    {
      "inputs": [
        {
          "internalType": "uint256",
          "name": "amount",
          "type": "uint256"
        },
        {
          "internalType": "uint256",
          "name": "collateral",
          "type": "uint256"
        }
      ],
      "name": "liquidate",
      "outputs": [
        {
          "internalType": "uint256",
          "name": "",
          "type": "uint256"
        }
      ],
      "stateMutability": "nonpayable",
      "type": "function"
    },
    {
      "inputs": [],
      "name": "pool",
      "outputs": [
        {
          "internalType": "contract IStabilityPool",
          "name": "",
          "type": "address"
        }
      ],
      "stateMutability": "view",
      "type": "function"
    },
    {
      "inputs": [
        {
          "internalType": "address",
          "name": "_pool",
          "type": "address"
        }
      ],
      "name": "setPool",
      "outputs": [],
      "stateMutability": "nonpayable",
      "type": "function"
    },
    {
      "inputs": [],
      "name": "stakingToken",
      "outputs": [
        {
          "internalType": "contract IERC20",
          "name": "",
          "type": "address"
        }
      ],
      "stateMutability": "view",
      "type": "function"
    },
    {
      "stateMutability": "payable",
      "type": "receive"
    }
  ],
  "bytecode": "0x60803461007457601f61040138819003918201601f19168301916001600160401b038311848410176100795780849260209460405283398101031261007457516001600160a01b0381169081900361007457600180546001600160a01b03191691909117905560405161037190816100908239f35b600080fd5b634e487b7160e01b600052604160045260246000fdfe6080604081815260049081361015610022575b505050361561002057600080fd5b005b600092833560e01c90816316f0115b146102c3575080634437152a1461027f57806372f702f31461025357806374de4ec4146101265763d296d1f10361001257346101225780600319360112610122578247928180858015610118575b8280929181923390f11561010c5760209060446001600160a01b0384541691855194859384926373b2389960e01b845280359084015260243560248401525af1801561010257602094506100d5575b5051908152f35b6100f490843d81116100fb575b6100ec81836102e6565b81019061031e565b50386100ce565b503d6100e2565b82513d86823e3d90fd5b509051903d90823e3d90fd5b6108fc915061007f565b8280fd5b509034610122576020918260031936011261024f5781356001600160a01b038585826001541660648651809481936323b872dd60e01b8352338b8401523060248401528860448401525af1801561022857610232575b50858582600154166044848454168751948593849263095ea7b360e01b84528b8401528860248401525af18015610228579160249187949361020b575b50875416948785519687948593631d3793b160e21b85528401525af190811561020257506101e5578280f35b816101fb92903d106100fb576100ec81836102e6565b5038808280f35b513d85823e3d90fd5b61022190853d87116100fb576100ec81836102e6565b50386101b9565b84513d89823e3d90fd5b61024890863d88116100fb576100ec81836102e6565b503861017c565b8380fd5b83823461027b578160031936011261027b576020906001600160a01b03600154169051908152f35b5080fd5b50503461027b57602036600319011261027b57356001600160a01b03811680910361027b57815473ffffffffffffffffffffffffffffffffffffffff191617815580f35b84903461027b578160031936011261027b576001600160a01b0360209254168152f35b90601f8019910116810190811067ffffffffffffffff82111761030857604052565b634e487b7160e01b600052604160045260246000fd5b90816020910312610336575180151581036103365790565b600080fdfea2646970667358221220f19a548b287b7418363bb1a44e2424c9b267f770d5e2a1641ce031d7e30c1bcb64736f6c63430008140033",
  "linkReferences": {},
  "deployedLinkReferences": {}
}