{
  "_format": "hh-sol-artifact-1",
  "contractName": "OrderedDoublyLinkedList",
  "sourceName": "contracts/library/OrderedDoublyLinkedList.sol",
  "abi": [
    {
      "inputs": [],
      "stateMutability": "nonpayable",
      "type": "constructor"
    },
    {
      "inputs": [
        {
          "internalType": "address",
          "name": "owner",
          "type": "address"
        }
      ],
      "name": "OwnableInvalidOwner",
      "type": "error"
    },
    {
      "inputs": [
        {
          "internalType": "address",
          "name": "account",
          "type": "address"
        }
      ],
      "name": "OwnableUnauthorizedAccount",
      "type": "error"
    },
    {
      "anonymous": false,
      "inputs": [
        {
          "indexed": true,
          "internalType": "address",
          "name": "previousOwner",
          "type": "address"
        },
        {
          "indexed": true,
          "internalType": "address",
          "name": "newOwner",
          "type": "address"
        }
      ],
      "name": "OwnershipTransferred",
      "type": "event"
    },
    {
      "inputs": [
        {
          "internalType": "uint256",
          "name": "id",
          "type": "uint256"
        }
      ],
      "name": "get",
      "outputs": [
        {
          "components": [
            {
              "internalType": "uint256",
              "name": "value",
              "type": "uint256"
            },
            {
              "internalType": "uint256",
              "name": "prev",
              "type": "uint256"
            },
            {
              "internalType": "uint256",
              "name": "next",
              "type": "uint256"
            }
          ],
          "internalType": "struct IDoublyLinkedList.Node",
          "name": "",
          "type": "tuple"
        }
      ],
      "stateMutability": "view",
      "type": "function"
    },
    {
      "inputs": [],
      "name": "getHead",
      "outputs": [
        {
          "internalType": "uint256",
          "name": "",
          "type": "uint256"
        }
      ],
      "stateMutability": "view",
      "type": "function"
    },
    {
      "inputs": [
        {
          "internalType": "uint256",
          "name": "id",
          "type": "uint256"
        }
      ],
      "name": "getNode",
      "outputs": [
        {
          "components": [
            {
              "internalType": "uint256",
              "name": "value",
              "type": "uint256"
            },
            {
              "internalType": "uint256",
              "name": "prev",
              "type": "uint256"
            },
            {
              "internalType": "uint256",
              "name": "next",
              "type": "uint256"
            }
          ],
          "internalType": "struct IDoublyLinkedList.Node",
          "name": "",
          "type": "tuple"
        }
      ],
      "stateMutability": "view",
      "type": "function"
    },
    {
      "inputs": [
        {
          "internalType": "uint256",
          "name": "beginAt",
          "type": "uint256"
        },
        {
          "internalType": "uint256",
          "name": "total",
          "type": "uint256"
        }
      ],
      "name": "getNodes",
      "outputs": [
        {
          "components": [
            {
              "internalType": "uint256",
              "name": "value",
              "type": "uint256"
            },
            {
              "internalType": "uint256",
              "name": "prev",
              "type": "uint256"
            },
            {
              "internalType": "uint256",
              "name": "next",
              "type": "uint256"
            }
          ],
          "internalType": "struct IDoublyLinkedList.Node[50]",
          "name": "nodes",
          "type": "tuple[50]"
        },
        {
          "internalType": "uint256",
          "name": "totalFound",
          "type": "uint256"
        }
      ],
      "stateMutability": "view",
      "type": "function"
    },
    {
      "inputs": [],
      "name": "getTail",
      "outputs": [
        {
          "internalType": "uint256",
          "name": "",
          "type": "uint256"
        }
      ],
      "stateMutability": "view",
      "type": "function"
    },
    {
      "inputs": [],
      "name": "head",
      "outputs": [
        {
          "internalType": "uint256",
          "name": "",
          "type": "uint256"
        }
      ],
      "stateMutability": "view",
      "type": "function"
    },
    {
      "inputs": [
        {
          "internalType": "uint256",
          "name": "",
          "type": "uint256"
        }
      ],
      "name": "nodes",
      "outputs": [
        {
          "internalType": "uint256",
          "name": "value",
          "type": "uint256"
        },
        {
          "internalType": "uint256",
          "name": "prev",
          "type": "uint256"
        },
        {
          "internalType": "uint256",
          "name": "next",
          "type": "uint256"
        }
      ],
      "stateMutability": "view",
      "type": "function"
    },
    {
      "inputs": [],
      "name": "owner",
      "outputs": [
        {
          "internalType": "address",
          "name": "",
          "type": "address"
        }
      ],
      "stateMutability": "view",
      "type": "function"
    },
    {
      "inputs": [
        {
          "internalType": "uint256",
          "name": "id",
          "type": "uint256"
        }
      ],
      "name": "remove",
      "outputs": [
        {
          "components": [
            {
              "internalType": "uint256",
              "name": "value",
              "type": "uint256"
            },
            {
              "internalType": "uint256",
              "name": "prev",
              "type": "uint256"
            },
            {
              "internalType": "uint256",
              "name": "next",
              "type": "uint256"
            }
          ],
          "internalType": "struct IDoublyLinkedList.Node",
          "name": "",
          "type": "tuple"
        }
      ],
      "stateMutability": "nonpayable",
      "type": "function"
    },
    {
      "inputs": [],
      "name": "renounceOwnership",
      "outputs": [],
      "stateMutability": "nonpayable",
      "type": "function"
    },
    {
      "inputs": [
        {
          "internalType": "address",
          "name": "_stableBaseCDP",
          "type": "address"
        }
      ],
      "name": "setAddresses",
      "outputs": [],
      "stateMutability": "nonpayable",
      "type": "function"
    },
    {
      "inputs": [],
      "name": "tail",
      "outputs": [
        {
          "internalType": "uint256",
          "name": "",
          "type": "uint256"
        }
      ],
      "stateMutability": "view",
      "type": "function"
    },
    {
      "inputs": [
        {
          "internalType": "address",
          "name": "newOwner",
          "type": "address"
        }
      ],
      "name": "transferOwnership",
      "outputs": [],
      "stateMutability": "nonpayable",
      "type": "function"
    },
    {
      "inputs": [
        {
          "internalType": "uint256",
          "name": "id",
          "type": "uint256"
        },
        {
          "internalType": "uint256",
          "name": "value",
          "type": "uint256"
        },
        {
          "internalType": "uint256",
          "name": "_nearestSpot",
          "type": "uint256"
        }
      ],
      "name": "upsert",
      "outputs": [
        {
          "components": [
            {
              "internalType": "uint256",
              "name": "value",
              "type": "uint256"
            },
            {
              "internalType": "uint256",
              "name": "prev",
              "type": "uint256"
            },
            {
              "internalType": "uint256",
              "name": "next",
              "type": "uint256"
            }
          ],
          "internalType": "struct IDoublyLinkedList.Node",
          "name": "",
          "type": "tuple"
        }
      ],
      "stateMutability": "nonpayable",
      "type": "function"
    }
  ],
  "bytecode": "0x6080806040523461007f5733156100695760008054336001600160a01b031982168117835560405192916001600160a01b03167f8be0079c531659141344cd1fd0a4f28419497f9722a3daafe3b4186f6b6457e08380a380600155600255610a6290816100858239f35b631e4fbdf760e01b815260006004820152602490fd5b600080fdfe608060408181526004918236101561001657600080fd5b600092833560e01c918263038d67e8146103165750816313d8c840146102f75781631c53c280146102b957816346b043a91461027d5781634cc822151461022a5781634f0f4aa91461015e578163715018a6146101c057816381d3c435146101895781638da5cb5b146101635781638f7dcfa31461013f5781639507d39a1461015e578163dc281aff1461013f578163f2fde38b146100e0575063f8cdfbf8146100bf57600080fd5b346100dc57816003193601126100dc576020906002549051908152f35b5080fd5b90503461013b57602036600319011261013b578035916001600160a01b0383168084036101375761010f610498565b15610121578361011e846104c4565b80f35b51631e4fbdf760e01b8152908101839052602490fd5b8480fd5b8280fd5b5050346100dc57816003193601126100dc576020906001549051908152f35b610454565b5050346100dc57816003193601126100dc576001600160a01b0360209254169051908152f35b90503461013b57602036600319011261013b578035916001600160a01b038316808403610137576101b8610498565b61010f610498565b83346102275780600319360112610227576101d9610498565b805473ffffffffffffffffffffffffffffffffffffffff198116825581906001600160a01b03167f8be0079c531659141344cd1fd0a4f28419497f9722a3daafe3b4186f6b6457e08280a380f35b80fd5b828434610227576020366003190112610227575061027b61025e60609361024f610549565b50610258610498565b35610943565b915180926040809180518452602081015160208501520151910152565bf35b828434610227576060366003190112610227575061027b61025e6060936102a2610549565b506102ab610498565b604435906024359035610566565b90503461013b57602036600319011261013b576060928291358152600360205220805491600260018301549201549181519384526020840152820152f35b5050346100dc57816003193601126100dc576020906002549051908152f35b8490843461013b578060031936011261013b57833593602435908590610640908186019086821067ffffffffffffffff83111761044157508452855b81811061042c575050849515610423575b90849394915b8183106103c2575b5050505191829091905b60328210610390576112e084866112c0820152f35b60206060826103b660019487516040809180518452602081015160208501520151910152565b0193019101909161037b565b809691929695949515610418576103d8906109a7565b6103e28786610a05565b526103ed8685610a05565b5061040e610408846103ff8988610a05565b510151926109e0565b966109e0565b9190949394610369565b819650949394610371565b50600154610363565b602090610437610549565b8188015201610352565b634e487b7160e01b885260419052602487fd5b346104935760203660031901126104935760606104726004356109a7565b61027b60405180926040809180518452602081015160208501520151910152565b600080fd5b6001600160a01b036000541633036104ac57565b60405163118cdaa760e01b8152336004820152602490fd5b600054906001600160a01b0380911691826bffffffffffffffffffffffff60a01b821617600055167f8be0079c531659141344cd1fd0a4f28419497f9722a3daafe3b4186f6b6457e0600080a3565b604051906060820182811067ffffffffffffffff82111761053357604052565b634e487b7160e01b600052604160045260246000fd5b610551610513565b90600082526000602083015260006040830152565b919060009280845260036020526040842080541590816105db575b816105ce575b50156105b8576105b593610599610549565b506105a2610513565b92835280602084015260408301526105e8565b90565b6105b5936105c4610549565b506105a28261087c565b6001915001541538610587565b6002810154159150610581565b9190916105f3610549565b5060018054909281610631575050808255806002555b6000526003602052604060002090825182556020830151908201556002604083015191015590565b600280548215610874575b6000928084526003926020928484526040968988882081810154159081610868575b8161085e575b50610855575b96949290918998969492885b610800575b885b6107a6575b89919084036106f7575050818552838352858520548b51116106b2575080858b0152835252200155808255610609565b8a8301829052818552838352858520810154868c01908152918552929091528383208201869055519081156106ec57508152200155610609565b935050505055610609565b839196949297959314600014610774578697508084979697528282528a8585208d815490511160001461073757505080828d015283525220015555610609565b01548c83019081528c860182905290845291905282822089018790555191935091508015610769578152200155610609565b505050508255610609565b9395919084818d979597015284865281815282878720015494878d019586528652528484200155518152200155610609565b91939597949698828492941415806107ea575b156107db5750875285855283888820015493969492909189989694928861067d565b98969497959391929092610682565b505080885286865289898920548d5111156107b9565b9193959794969850918281141580610842575b15610834578752858552828888200154939694929091899896949288610676565b91899896949795939161067b565b50808852868652888820548c5111610813565b9350809361066a565b9050541538610664565b8581015415915061065e565b83925061063c565b610884610549565b5060008181526003602092818452826040808220936108a1610513565b968554885260019485870154828a0190808252600280990154868c0191818352801560001461092757505080518089558752848452868887822001555b805180610909575050518088558552828252848785822001555b845252812091818355820155015590565b825190885285855288878920015551905186528785872001556108f8565b88528585528987892001558151815188528887892001556108de565b8060005260036020526040600020805415908161099a575b8161098d575b5061096f576105b59061087c565b50610978610513565b60008152600060208201526000604082015290565b6001915001541538610961565b600281015415915061095b565b6109af610549565b506000526003602052604060002060026109c7610513565b9180548352600181015460208401520154604082015290565b60001981146109ef5760010190565b634e487b7160e01b600052601160045260246000fd5b906032811015610a165760051b0190565b634e487b7160e01b600052603260045260246000fdfea2646970667358221220cad28362dc3cd3e441bcd00e54c7511d6daa2b7ff9a7f6d7b9cad820e70179ec64736f6c63430008140033",
  "linkReferences": {},
  "deployedLinkReferences": {}
}