{
  "_format": "hh-sol-artifact-1",
  "contractName": "OrderedDoublyLinkedList",
  "sourceName": "contracts/library/OrderedDoublyLinkedList.sol",
  "abi": [
    {
      "inputs": [],
      "stateMutability": "nonpayable",
      "type": "constructor"
    },
    {
      "inputs": [
        {
          "internalType": "address",
          "name": "owner",
          "type": "address"
        }
      ],
      "name": "OwnableInvalidOwner",
      "type": "error"
    },
    {
      "inputs": [
        {
          "internalType": "address",
          "name": "account",
          "type": "address"
        }
      ],
      "name": "OwnableUnauthorizedAccount",
      "type": "error"
    },
    {
      "anonymous": false,
      "inputs": [
        {
          "indexed": true,
          "internalType": "address",
          "name": "previousOwner",
          "type": "address"
        },
        {
          "indexed": true,
          "internalType": "address",
          "name": "newOwner",
          "type": "address"
        }
      ],
      "name": "OwnershipTransferred",
      "type": "event"
    },
    {
      "inputs": [
        {
          "internalType": "uint256",
          "name": "id",
          "type": "uint256"
        }
      ],
      "name": "get",
      "outputs": [
        {
          "components": [
            {
              "internalType": "uint256",
              "name": "value",
              "type": "uint256"
            },
            {
              "internalType": "uint256",
              "name": "prev",
              "type": "uint256"
            },
            {
              "internalType": "uint256",
              "name": "next",
              "type": "uint256"
            }
          ],
          "internalType": "struct IDoublyLinkedList.Node",
          "name": "",
          "type": "tuple"
        }
      ],
      "stateMutability": "view",
      "type": "function"
    },
    {
      "inputs": [],
      "name": "getHead",
      "outputs": [
        {
          "internalType": "uint256",
          "name": "",
          "type": "uint256"
        }
      ],
      "stateMutability": "view",
      "type": "function"
    },
    {
      "inputs": [
        {
          "internalType": "uint256",
          "name": "id",
          "type": "uint256"
        }
      ],
      "name": "getNode",
      "outputs": [
        {
          "components": [
            {
              "internalType": "uint256",
              "name": "value",
              "type": "uint256"
            },
            {
              "internalType": "uint256",
              "name": "prev",
              "type": "uint256"
            },
            {
              "internalType": "uint256",
              "name": "next",
              "type": "uint256"
            }
          ],
          "internalType": "struct IDoublyLinkedList.Node",
          "name": "",
          "type": "tuple"
        }
      ],
      "stateMutability": "view",
      "type": "function"
    },
    {
      "inputs": [
        {
          "internalType": "uint256",
          "name": "beginAt",
          "type": "uint256"
        },
        {
          "internalType": "uint256",
          "name": "total",
          "type": "uint256"
        }
      ],
      "name": "getNodes",
      "outputs": [
        {
          "components": [
            {
              "internalType": "uint256",
              "name": "value",
              "type": "uint256"
            },
            {
              "internalType": "uint256",
              "name": "prev",
              "type": "uint256"
            },
            {
              "internalType": "uint256",
              "name": "next",
              "type": "uint256"
            }
          ],
          "internalType": "struct IDoublyLinkedList.Node[50]",
          "name": "n",
          "type": "tuple[50]"
        },
        {
          "internalType": "uint256",
          "name": "totalFound",
          "type": "uint256"
        }
      ],
      "stateMutability": "view",
      "type": "function"
    },
    {
      "inputs": [],
      "name": "getTail",
      "outputs": [
        {
          "internalType": "uint256",
          "name": "",
          "type": "uint256"
        }
      ],
      "stateMutability": "view",
      "type": "function"
    },
    {
      "inputs": [],
      "name": "head",
      "outputs": [
        {
          "internalType": "uint256",
          "name": "",
          "type": "uint256"
        }
      ],
      "stateMutability": "view",
      "type": "function"
    },
    {
      "inputs": [
        {
          "internalType": "uint256",
          "name": "",
          "type": "uint256"
        }
      ],
      "name": "nodes",
      "outputs": [
        {
          "internalType": "uint256",
          "name": "value",
          "type": "uint256"
        },
        {
          "internalType": "uint256",
          "name": "prev",
          "type": "uint256"
        },
        {
          "internalType": "uint256",
          "name": "next",
          "type": "uint256"
        }
      ],
      "stateMutability": "view",
      "type": "function"
    },
    {
      "inputs": [],
      "name": "owner",
      "outputs": [
        {
          "internalType": "address",
          "name": "",
          "type": "address"
        }
      ],
      "stateMutability": "view",
      "type": "function"
    },
    {
      "inputs": [
        {
          "internalType": "uint256",
          "name": "id",
          "type": "uint256"
        }
      ],
      "name": "remove",
      "outputs": [
        {
          "components": [
            {
              "internalType": "uint256",
              "name": "value",
              "type": "uint256"
            },
            {
              "internalType": "uint256",
              "name": "prev",
              "type": "uint256"
            },
            {
              "internalType": "uint256",
              "name": "next",
              "type": "uint256"
            }
          ],
          "internalType": "struct IDoublyLinkedList.Node",
          "name": "",
          "type": "tuple"
        }
      ],
      "stateMutability": "nonpayable",
      "type": "function"
    },
    {
      "inputs": [],
      "name": "renounceOwnership",
      "outputs": [],
      "stateMutability": "nonpayable",
      "type": "function"
    },
    {
      "inputs": [
        {
          "internalType": "address",
          "name": "_stableBaseCDP",
          "type": "address"
        }
      ],
      "name": "setAddresses",
      "outputs": [],
      "stateMutability": "nonpayable",
      "type": "function"
    },
    {
      "inputs": [],
      "name": "tail",
      "outputs": [
        {
          "internalType": "uint256",
          "name": "",
          "type": "uint256"
        }
      ],
      "stateMutability": "view",
      "type": "function"
    },
    {
      "inputs": [
        {
          "internalType": "address",
          "name": "newOwner",
          "type": "address"
        }
      ],
      "name": "transferOwnership",
      "outputs": [],
      "stateMutability": "nonpayable",
      "type": "function"
    },
    {
      "inputs": [
        {
          "internalType": "uint256",
          "name": "id",
          "type": "uint256"
        },
        {
          "internalType": "uint256",
          "name": "value",
          "type": "uint256"
        },
        {
          "internalType": "uint256",
          "name": "_nearestSpot",
          "type": "uint256"
        }
      ],
      "name": "upsert",
      "outputs": [
        {
          "components": [
            {
              "internalType": "uint256",
              "name": "value",
              "type": "uint256"
            },
            {
              "internalType": "uint256",
              "name": "prev",
              "type": "uint256"
            },
            {
              "internalType": "uint256",
              "name": "next",
              "type": "uint256"
            }
          ],
          "internalType": "struct IDoublyLinkedList.Node",
          "name": "",
          "type": "tuple"
        }
      ],
      "stateMutability": "nonpayable",
      "type": "function"
    }
  ],
  "bytecode": "0x6080806040523461007f5733156100695760008054336001600160a01b031982168117835560405192916001600160a01b03167f8be0079c531659141344cd1fd0a4f28419497f9722a3daafe3b4186f6b6457e08380a380600155600255610a5090816100858239f35b631e4fbdf760e01b815260006004820152602490fd5b600080fdfe608060408181526004918236101561001657600080fd5b600092833560e01c918263038d67e81461030b5750816313d8c840146102ec5781631c53c280146102ae57816346b043a9146102725781634cc822151461021f5781634f0f4aa91461015e578163715018a6146101c257816381d3c4351461018b5781638da5cb5b146101635781638f7dcfa31461013f5781639507d39a1461015e578163dc281aff1461013f578163f2fde38b146100e0575063f8cdfbf8146100bf57600080fd5b346100dc57816003193601126100dc576020906002549051908152f35b5080fd5b90503461013b57602036600319011261013b578035916001600160a01b0383168084036101375761010f61048e565b15610121578361011e846104ba565b80f35b51631e4fbdf760e01b8152908101839052602490fd5b8480fd5b8280fd5b5050346100dc57816003193601126100dc576020906001549051908152f35b61044a565b5050346100dc57816003193601126100dc57905490516001600160a01b039091168152602090f35b90503461013b57602036600319011261013b578035916001600160a01b038316808403610137576101ba61048e565b61010f61048e565b833461021c578060031936011261021c576101db61048e565b80546001600160a01b03198116825581906001600160a01b03167f8be0079c531659141344cd1fd0a4f28419497f9722a3daafe3b4186f6b6457e08280a380f35b80fd5b82843461021c57602036600319011261021c5750610270610253606093610244610537565b5061024d61048e565b35610931565b915180926040809180518452602081015160208501520151910152565bf35b82843461021c57606036600319011261021c5750610270610253606093610297610537565b506102a061048e565b604435906024359035610554565b90503461013b57602036600319011261013b576060928291358152600360205220805491600260018301549201549181519384526020840152820152f35b5050346100dc57816003193601126100dc576020906002549051908152f35b8490843461013b578060031936011261013b57833593602435908590610640908186019086821067ffffffffffffffff83111761043757508452855b818110610422575050849515610419575b90849394915b8183106103b7575b5050505191829091905b60328210610385576112e084866112c0820152f35b60206060826103ab60019487516040809180518452602081015160208501520151910152565b01930191019091610370565b80969192969594951561040e576103cd90610995565b6103d787866109f3565b526103e286856109f3565b5085855260036020526104046103fe60028588200154926109ce565b966109ce565b919094939461035e565b819650949394610366565b50600154610358565b60209061042d610537565b8188015201610347565b634e487b7160e01b885260419052602487fd5b34610489576020366003190112610489576060610468600435610995565b61027060405180926040809180518452602081015160208501520151910152565b600080fd5b6000546001600160a01b031633036104a257565b60405163118cdaa760e01b8152336004820152602490fd5b600080546001600160a01b039283166001600160a01b03198216811783559216907f8be0079c531659141344cd1fd0a4f28419497f9722a3daafe3b4186f6b6457e09080a3565b604051906060820182811067ffffffffffffffff82111761052157604052565b634e487b7160e01b600052604160045260246000fd5b61053f610501565b90600082526000602083015260006040830152565b919060009280845260036020526040842080541590816105c9575b816105bc575b50156105a6576105a393610587610537565b50610590610501565b92835280602084015260408301526105d6565b90565b6105a3936105b2610537565b506105908261086a565b6001915001541538610575565b600281015415915061056f565b9190916105e1610537565b506001805490928161061f575050808255806002555b6000526003602052604060002090825182556020830151908201556002604083015191015590565b600280548215610862575b6000928084526003926020928484526040968988882081810154159081610856575b8161084c575b50610843575b96949290918998969492885b6107ee575b885b610794575b89919084036106e5575050818552838352858520548b51116106a0575080858b01528352522001558082556105f7565b8a8301829052818552838352858520810154868c01908152918552929091528383208201869055519081156106da575081522001556105f7565b9350505050556105f7565b839196949297959314600014610762578697508084979697528282528a8585208d815490511160001461072557505080828d0152835252200155556105f7565b01548c83019081528c8601829052908452919052828220890187905551919350915080156107575781522001556105f7565b5050505082556105f7565b9395919084818d979597015284865281815282878720015494878d0195865286525284842001555181522001556105f7565b91939597949698828492941415806107d8575b156107c95750875285855283888820015493969492909189989694928861066b565b98969497959391929092610670565b505080885286865289898920548d5111156107a7565b9193959794969850918281141580610830575b15610822578752858552828888200154939694929091899896949288610664565b918998969497959391610669565b50808852868652888820548c5111610801565b93508093610658565b9050541538610652565b8581015415915061064c565b83925061062a565b610872610537565b50600081815260036020928184528260408082209361088f610501565b968554885260019485870154828a0190808252600280990154868c0191818352801560001461091557505080518089558752848452868887822001555b8051806108f7575050518088558552828252848785822001555b845252812091818355820155015590565b825190885285855288878920015551905186528785872001556108e6565b88528585528987892001558151815188528887892001556108cc565b80600052600360205260406000208054159081610988575b8161097b575b5061095d576105a39061086a565b50610966610501565b60008152600060208201526000604082015290565b600191500154153861094f565b6002810154159150610949565b61099d610537565b506000526003602052604060002060026109b5610501565b9180548352600181015460208401520154604082015290565b60001981146109dd5760010190565b634e487b7160e01b600052601160045260246000fd5b906032811015610a045760051b0190565b634e487b7160e01b600052603260045260246000fdfea264697066735822122088c116051ebbb0afb8da45d98ebeccfd1d229caecfe4358d3383ab720b93cacc64736f6c63430008140033",
  "linkReferences": {},
  "deployedLinkReferences": {}
}