{
  "_format": "hh-sol-artifact-1",
  "contractName": "OrderedDoublyLinkedList",
  "sourceName": "contracts/library/OrderedDoublyLinkedList.sol",
  "abi": [
    {
      "inputs": [],
      "stateMutability": "nonpayable",
      "type": "constructor"
    },
    {
      "inputs": [
        {
          "internalType": "address",
          "name": "owner",
          "type": "address"
        }
      ],
      "name": "OwnableInvalidOwner",
      "type": "error"
    },
    {
      "inputs": [
        {
          "internalType": "address",
          "name": "account",
          "type": "address"
        }
      ],
      "name": "OwnableUnauthorizedAccount",
      "type": "error"
    },
    {
      "anonymous": false,
      "inputs": [
        {
          "indexed": true,
          "internalType": "address",
          "name": "previousOwner",
          "type": "address"
        },
        {
          "indexed": true,
          "internalType": "address",
          "name": "newOwner",
          "type": "address"
        }
      ],
      "name": "OwnershipTransferred",
      "type": "event"
    },
    {
      "inputs": [
        {
          "internalType": "uint256",
          "name": "id",
          "type": "uint256"
        }
      ],
      "name": "get",
      "outputs": [
        {
          "components": [
            {
              "internalType": "uint256",
              "name": "value",
              "type": "uint256"
            },
            {
              "internalType": "uint256",
              "name": "prev",
              "type": "uint256"
            },
            {
              "internalType": "uint256",
              "name": "next",
              "type": "uint256"
            }
          ],
          "internalType": "struct IDoublyLinkedList.Node",
          "name": "",
          "type": "tuple"
        }
      ],
      "stateMutability": "view",
      "type": "function"
    },
    {
      "inputs": [],
      "name": "getHead",
      "outputs": [
        {
          "internalType": "uint256",
          "name": "",
          "type": "uint256"
        }
      ],
      "stateMutability": "view",
      "type": "function"
    },
    {
      "inputs": [
        {
          "internalType": "uint256",
          "name": "id",
          "type": "uint256"
        }
      ],
      "name": "getNode",
      "outputs": [
        {
          "components": [
            {
              "internalType": "uint256",
              "name": "value",
              "type": "uint256"
            },
            {
              "internalType": "uint256",
              "name": "prev",
              "type": "uint256"
            },
            {
              "internalType": "uint256",
              "name": "next",
              "type": "uint256"
            }
          ],
          "internalType": "struct IDoublyLinkedList.Node",
          "name": "",
          "type": "tuple"
        }
      ],
      "stateMutability": "view",
      "type": "function"
    },
    {
      "inputs": [],
      "name": "getTail",
      "outputs": [
        {
          "internalType": "uint256",
          "name": "",
          "type": "uint256"
        }
      ],
      "stateMutability": "view",
      "type": "function"
    },
    {
      "inputs": [],
      "name": "head",
      "outputs": [
        {
          "internalType": "uint256",
          "name": "",
          "type": "uint256"
        }
      ],
      "stateMutability": "view",
      "type": "function"
    },
    {
      "inputs": [
        {
          "internalType": "uint256",
          "name": "",
          "type": "uint256"
        }
      ],
      "name": "nodes",
      "outputs": [
        {
          "internalType": "uint256",
          "name": "value",
          "type": "uint256"
        },
        {
          "internalType": "uint256",
          "name": "prev",
          "type": "uint256"
        },
        {
          "internalType": "uint256",
          "name": "next",
          "type": "uint256"
        }
      ],
      "stateMutability": "view",
      "type": "function"
    },
    {
      "inputs": [],
      "name": "owner",
      "outputs": [
        {
          "internalType": "address",
          "name": "",
          "type": "address"
        }
      ],
      "stateMutability": "view",
      "type": "function"
    },
    {
      "inputs": [
        {
          "internalType": "uint256",
          "name": "id",
          "type": "uint256"
        }
      ],
      "name": "remove",
      "outputs": [
        {
          "components": [
            {
              "internalType": "uint256",
              "name": "value",
              "type": "uint256"
            },
            {
              "internalType": "uint256",
              "name": "prev",
              "type": "uint256"
            },
            {
              "internalType": "uint256",
              "name": "next",
              "type": "uint256"
            }
          ],
          "internalType": "struct IDoublyLinkedList.Node",
          "name": "",
          "type": "tuple"
        }
      ],
      "stateMutability": "nonpayable",
      "type": "function"
    },
    {
      "inputs": [],
      "name": "renounceOwnership",
      "outputs": [],
      "stateMutability": "nonpayable",
      "type": "function"
    },
    {
      "inputs": [
        {
          "internalType": "address",
          "name": "_stableBaseCDP",
          "type": "address"
        }
      ],
      "name": "setAddresses",
      "outputs": [],
      "stateMutability": "nonpayable",
      "type": "function"
    },
    {
      "inputs": [],
      "name": "tail",
      "outputs": [
        {
          "internalType": "uint256",
          "name": "",
          "type": "uint256"
        }
      ],
      "stateMutability": "view",
      "type": "function"
    },
    {
      "inputs": [
        {
          "internalType": "address",
          "name": "newOwner",
          "type": "address"
        }
      ],
      "name": "transferOwnership",
      "outputs": [],
      "stateMutability": "nonpayable",
      "type": "function"
    },
    {
      "inputs": [
        {
          "internalType": "uint256",
          "name": "id",
          "type": "uint256"
        },
        {
          "internalType": "uint256",
          "name": "value",
          "type": "uint256"
        },
        {
          "internalType": "uint256",
          "name": "_nearestSpot",
          "type": "uint256"
        }
      ],
      "name": "upsert",
      "outputs": [
        {
          "components": [
            {
              "internalType": "uint256",
              "name": "value",
              "type": "uint256"
            },
            {
              "internalType": "uint256",
              "name": "prev",
              "type": "uint256"
            },
            {
              "internalType": "uint256",
              "name": "next",
              "type": "uint256"
            }
          ],
          "internalType": "struct IDoublyLinkedList.Node",
          "name": "",
          "type": "tuple"
        }
      ],
      "stateMutability": "nonpayable",
      "type": "function"
    }
  ],
  "bytecode": "0x6080806040523461007f5733156100695760008054336001600160a01b031982168117835560405192916001600160a01b03167f8be0079c531659141344cd1fd0a4f28419497f9722a3daafe3b4186f6b6457e08380a3806001556002556108cd90816100858239f35b631e4fbdf760e01b815260006004820152602490fd5b600080fdfe608060408181526004918236101561001657600080fd5b600092833560e01c91826313d8c840146102f3575081631c53c280146102b557816346b043a91461027b5781634cc822151461021f5781634f0f4aa914610153578163715018a6146101b557816381d3c4351461017e5781638da5cb5b146101585781638f7dcfa3146101345781639507d39a14610153578163dc281aff14610134578163f2fde38b146100d5575063f8cdfbf8146100b457600080fd5b346100d157816003193601126100d1576020906002549051908152f35b5080fd5b905034610130576020366003190112610130578035916001600160a01b03831680840361012c57610104610388565b156101165783610113846103b4565b80f35b51631e4fbdf760e01b8152908101839052602490fd5b8480fd5b8280fd5b5050346100d157816003193601126100d1576020906001549051908152f35b61030f565b5050346100d157816003193601126100d1576001600160a01b0360209254169051908152f35b905034610130576020366003190112610130578035916001600160a01b03831680840361012c576101ad610388565b610104610388565b833461021c578060031936011261021c576101ce610388565b805473ffffffffffffffffffffffffffffffffffffffff198116825581906001600160a01b03167f8be0079c531659141344cd1fd0a4f28419497f9722a3daafe3b4186f6b6457e08280a380f35b80fd5b82843461021c57602036600319011261021c575061025161027792610242610439565b5061024b610388565b35610833565b905191829182919091604080606083019480518452602081015160208501520151910152565b0390f35b82843461021c57606036600319011261021c57506102516102779261029e610439565b506102a7610388565b604435906024359035610456565b905034610130576020366003190112610130576060928291358152600360205220805491600260018301549201549181519384526020840152820152f35b8490346100d157816003193601126100d1576020906002548152f35b3461038357602036600319011261038357610328610439565b50600435600052600360205261027760406000206002610346610403565b9180548352600181015460208401520154604082015260405191829182919091604080606083019480518452602081015160208501520151910152565b600080fd5b6001600160a01b0360005416330361039c57565b60405163118cdaa760e01b8152336004820152602490fd5b600054906001600160a01b0380911691826bffffffffffffffffffffffff60a01b821617600055167f8be0079c531659141344cd1fd0a4f28419497f9722a3daafe3b4186f6b6457e0600080a3565b604051906060820182811067ffffffffffffffff82111761042357604052565b634e487b7160e01b600052604160045260246000fd5b610441610403565b90600082526000602083015260006040830152565b919060009280845260036020526040842080541590816104cb575b816104be575b50156104a8576104a593610489610439565b50610492610403565b92835280602084015260408301526104d8565b90565b6104a5936104b4610439565b506104928261076c565b6001915001541538610477565b6002810154159150610471565b9190916104e3610439565b5060018054909281610521575050808255806002555b6000526003602052604060002090825182556020830151908201556002604083015191015590565b600280548215610764575b6000928084526003926020928484526040968988882081810154159081610758575b8161074e575b50610745575b96949290918998969492885b6106f0575b885b610696575b89919084036105e7575050818552838352858520548b51116105a2575080858b01528352522001558082556104f9565b8a8301829052818552838352858520810154868c01908152918552929091528383208201869055519081156105dc575081522001556104f9565b9350505050556104f9565b839196949297959314600014610664578697508084979697528282528a8585208d815490511160001461062757505080828d0152835252200155556104f9565b01548c83019081528c8601829052908452919052828220890187905551919350915080156106595781522001556104f9565b5050505082556104f9565b9395919084818d979597015284865281815282878720015494878d0195865286525284842001555181522001556104f9565b91939597949698828492941415806106da575b156106cb5750875285855283888820015493969492909189989694928861056d565b98969497959391929092610572565b505080885286865289898920548d5111156106a9565b9193959794969850918281141580610732575b15610724578752858552828888200154939694929091899896949288610566565b91899896949795939161056b565b50808852868652888820548c5111610703565b9350809361055a565b9050541538610554565b8581015415915061054e565b83925061052c565b610774610439565b506000818152600360209281845282604080822093610791610403565b968554885260019485870154828a0190808252600280990154868c0191818352801560001461081757505080518089558752848452868887822001555b8051806107f9575050518088558552828252848785822001555b845252812091818355820155015590565b825190885285855288878920015551905186528785872001556107e8565b88528585528987892001558151815188528887892001556107ce565b8060005260036020526040600020805415908161088a575b8161087d575b5061085f576104a59061076c565b50610868610403565b60008152600060208201526000604082015290565b6001915001541538610851565b600281015415915061084b56fea2646970667358221220c3edc714d93be2d1ff486e2131b8e75281338df990b4bef9835bae432b41925b64736f6c63430008140033",
  "linkReferences": {},
  "deployedLinkReferences": {}
}