{
  "_format": "hh-sol-artifact-1",
  "contractName": "SBDToken",
  "sourceName": "contracts/SBDToken.sol",
  "abi": [
    {
      "inputs": [],
      "stateMutability": "nonpayable",
      "type": "constructor"
    },
    {
      "inputs": [
        {
          "internalType": "address",
          "name": "spender",
          "type": "address"
        },
        {
          "internalType": "uint256",
          "name": "allowance",
          "type": "uint256"
        },
        {
          "internalType": "uint256",
          "name": "needed",
          "type": "uint256"
        }
      ],
      "name": "ERC20InsufficientAllowance",
      "type": "error"
    },
    {
      "inputs": [
        {
          "internalType": "address",
          "name": "sender",
          "type": "address"
        },
        {
          "internalType": "uint256",
          "name": "balance",
          "type": "uint256"
        },
        {
          "internalType": "uint256",
          "name": "needed",
          "type": "uint256"
        }
      ],
      "name": "ERC20InsufficientBalance",
      "type": "error"
    },
    {
      "inputs": [
        {
          "internalType": "address",
          "name": "approver",
          "type": "address"
        }
      ],
      "name": "ERC20InvalidApprover",
      "type": "error"
    },
    {
      "inputs": [
        {
          "internalType": "address",
          "name": "receiver",
          "type": "address"
        }
      ],
      "name": "ERC20InvalidReceiver",
      "type": "error"
    },
    {
      "inputs": [
        {
          "internalType": "address",
          "name": "sender",
          "type": "address"
        }
      ],
      "name": "ERC20InvalidSender",
      "type": "error"
    },
    {
      "inputs": [
        {
          "internalType": "address",
          "name": "spender",
          "type": "address"
        }
      ],
      "name": "ERC20InvalidSpender",
      "type": "error"
    },
    {
      "inputs": [
        {
          "internalType": "address",
          "name": "owner",
          "type": "address"
        }
      ],
      "name": "OwnableInvalidOwner",
      "type": "error"
    },
    {
      "inputs": [
        {
          "internalType": "address",
          "name": "account",
          "type": "address"
        }
      ],
      "name": "OwnableUnauthorizedAccount",
      "type": "error"
    },
    {
      "anonymous": false,
      "inputs": [
        {
          "indexed": true,
          "internalType": "address",
          "name": "owner",
          "type": "address"
        },
        {
          "indexed": true,
          "internalType": "address",
          "name": "spender",
          "type": "address"
        },
        {
          "indexed": false,
          "internalType": "uint256",
          "name": "value",
          "type": "uint256"
        }
      ],
      "name": "Approval",
      "type": "event"
    },
    {
      "anonymous": false,
      "inputs": [
        {
          "indexed": true,
          "internalType": "address",
          "name": "from",
          "type": "address"
        },
        {
          "indexed": false,
          "internalType": "uint256",
          "name": "amount",
          "type": "uint256"
        }
      ],
      "name": "Burn",
      "type": "event"
    },
    {
      "anonymous": false,
      "inputs": [
        {
          "indexed": true,
          "internalType": "address",
          "name": "previousOwner",
          "type": "address"
        },
        {
          "indexed": true,
          "internalType": "address",
          "name": "newOwner",
          "type": "address"
        }
      ],
      "name": "OwnershipTransferred",
      "type": "event"
    },
    {
      "anonymous": false,
      "inputs": [
        {
          "indexed": true,
          "internalType": "address",
          "name": "from",
          "type": "address"
        },
        {
          "indexed": true,
          "internalType": "address",
          "name": "to",
          "type": "address"
        },
        {
          "indexed": false,
          "internalType": "uint256",
          "name": "value",
          "type": "uint256"
        }
      ],
      "name": "Transfer",
      "type": "event"
    },
    {
      "inputs": [
        {
          "internalType": "address",
          "name": "owner",
          "type": "address"
        },
        {
          "internalType": "address",
          "name": "spender",
          "type": "address"
        }
      ],
      "name": "allowance",
      "outputs": [
        {
          "internalType": "uint256",
          "name": "",
          "type": "uint256"
        }
      ],
      "stateMutability": "view",
      "type": "function"
    },
    {
      "inputs": [
        {
          "internalType": "address",
          "name": "spender",
          "type": "address"
        },
        {
          "internalType": "uint256",
          "name": "value",
          "type": "uint256"
        }
      ],
      "name": "approve",
      "outputs": [
        {
          "internalType": "bool",
          "name": "",
          "type": "bool"
        }
      ],
      "stateMutability": "nonpayable",
      "type": "function"
    },
    {
      "inputs": [
        {
          "internalType": "address",
          "name": "account",
          "type": "address"
        }
      ],
      "name": "balanceOf",
      "outputs": [
        {
          "internalType": "uint256",
          "name": "",
          "type": "uint256"
        }
      ],
      "stateMutability": "view",
      "type": "function"
    },
    {
      "inputs": [
        {
          "internalType": "address",
          "name": "from",
          "type": "address"
        },
        {
          "internalType": "uint256",
          "name": "amount",
          "type": "uint256"
        }
      ],
      "name": "burn",
      "outputs": [
        {
          "internalType": "bool",
          "name": "",
          "type": "bool"
        }
      ],
      "stateMutability": "nonpayable",
      "type": "function"
    },
    {
      "inputs": [],
      "name": "decimals",
      "outputs": [
        {
          "internalType": "uint8",
          "name": "",
          "type": "uint8"
        }
      ],
      "stateMutability": "view",
      "type": "function"
    },
    {
      "inputs": [
        {
          "internalType": "address",
          "name": "to",
          "type": "address"
        },
        {
          "internalType": "uint256",
          "name": "amount",
          "type": "uint256"
        }
      ],
      "name": "mint",
      "outputs": [
        {
          "internalType": "bool",
          "name": "",
          "type": "bool"
        }
      ],
      "stateMutability": "nonpayable",
      "type": "function"
    },
    {
      "inputs": [],
      "name": "name",
      "outputs": [
        {
          "internalType": "string",
          "name": "",
          "type": "string"
        }
      ],
      "stateMutability": "view",
      "type": "function"
    },
    {
      "inputs": [],
      "name": "owner",
      "outputs": [
        {
          "internalType": "address",
          "name": "",
          "type": "address"
        }
      ],
      "stateMutability": "view",
      "type": "function"
    },
    {
      "inputs": [],
      "name": "renounceOwnership",
      "outputs": [],
      "stateMutability": "nonpayable",
      "type": "function"
    },
    {
      "inputs": [
        {
          "internalType": "address",
          "name": "_stableBaseCDP",
          "type": "address"
        }
      ],
      "name": "setAddresses",
      "outputs": [],
      "stateMutability": "nonpayable",
      "type": "function"
    },
    {
      "inputs": [],
      "name": "symbol",
      "outputs": [
        {
          "internalType": "string",
          "name": "",
          "type": "string"
        }
      ],
      "stateMutability": "view",
      "type": "function"
    },
    {
      "inputs": [],
      "name": "totalBurned",
      "outputs": [
        {
          "internalType": "uint256",
          "name": "",
          "type": "uint256"
        }
      ],
      "stateMutability": "view",
      "type": "function"
    },
    {
      "inputs": [],
      "name": "totalSupply",
      "outputs": [
        {
          "internalType": "uint256",
          "name": "",
          "type": "uint256"
        }
      ],
      "stateMutability": "view",
      "type": "function"
    },
    {
      "inputs": [
        {
          "internalType": "address",
          "name": "to",
          "type": "address"
        },
        {
          "internalType": "uint256",
          "name": "value",
          "type": "uint256"
        }
      ],
      "name": "transfer",
      "outputs": [
        {
          "internalType": "bool",
          "name": "",
          "type": "bool"
        }
      ],
      "stateMutability": "nonpayable",
      "type": "function"
    },
    {
      "inputs": [
        {
          "internalType": "address",
          "name": "from",
          "type": "address"
        },
        {
          "internalType": "address",
          "name": "to",
          "type": "address"
        },
        {
          "internalType": "uint256",
          "name": "value",
          "type": "uint256"
        }
      ],
      "name": "transferFrom",
      "outputs": [
        {
          "internalType": "bool",
          "name": "",
          "type": "bool"
        }
      ],
      "stateMutability": "nonpayable",
      "type": "function"
    },
    {
      "inputs": [
        {
          "internalType": "address",
          "name": "newOwner",
          "type": "address"
        }
      ],
      "name": "transferOwnership",
      "outputs": [],
      "stateMutability": "nonpayable",
      "type": "function"
    }
  ],
  "bytecode": "0x6080346200039e576040906001600160401b03908083018281118282101762000388578352600b81526020916a22172324972237b63630b960a91b838301528351928484018481108382111762000388578552600493848152631111925160e21b8282015283519083821162000373576003928354926001968785811c9516801562000368575b8386101462000353578190601f95868111620002fd575b50839086831160011462000296576000926200028a575b505060001982871b1c191690871b1784555b8151948511620002755786548681811c911680156200026a575b8282101462000255578381116200020a575b50809285116001146200019c575093839491849260009562000190575b50501b92600019911b1c19161781555b33156200017a575060058054336001600160a01b0319821681179092559151916001600160a01b03167f8be0079c531659141344cd1fd0a4f28419497f9722a3daafe3b4186f6b6457e0600080a3610b299081620003a48239f35b60006024925191631e4fbdf760e01b8352820152fd5b0151935038806200010f565b92919084601f1981168860005285600020956000905b89838310620001ef5750505010620001d4575b50505050811b0181556200011f565b01519060f884600019921b161c1916905538808080620001c5565b858701518955909701969485019488935090810190620001b2565b87600052816000208480880160051c8201928489106200024b575b0160051c019087905b8281106200023e575050620000f2565b600081550187906200022e565b9250819262000225565b602288634e487b7160e01b6000525260246000fd5b90607f1690620000e0565b604187634e487b7160e01b6000525260246000fd5b015190503880620000b4565b90899350601f1983169188600052856000209260005b87828210620002e65750508411620002cd575b505050811b018455620000c6565b015160001983891b60f8161c19169055388080620002bf565b8385015186558d97909501949384019301620002ac565b90915086600052836000208680850160051c82019286861062000349575b918b91869594930160051c01915b828110620003395750506200009d565b600081558594508b910162000329565b925081926200031b565b602289634e487b7160e01b6000525260246000fd5b94607f169462000086565b604186634e487b7160e01b6000525260246000fd5b634e487b7160e01b600052604160045260246000fd5b600080fdfe6080604081815260048036101561001557600080fd5b600092833560e01c90816306fdde031461080e57508063095ea7b31461076557806318160ddd1461074657806323b872dd14610653578063313ce5671461063757806340c10f191461059b57806370a0823114610564578063715018a61461050457806381d3c435146104d95780638da5cb5b146104b057806395d89b41146103905780639dc29fac146101c8578063a9059cbb14610197578063d89135cd14610178578063dd62ed3e1461012b5763f2fde38b146100d357600080fd5b34610127576020366003190112610127576100ec61094c565b916100f561097d565b6001600160a01b03831615610111578361010e846109a9565b80f35b51631e4fbdf760e01b8152908101839052602490fd5b8280fd5b5050346101745780600319360112610174578060209261014961094c565b610151610967565b6001600160a01b0391821683526001865283832091168252845220549051908152f35b5080fd5b5050346101745781600319360112610174576020906006549051908152f35b5050346101745780600319360112610174576020906101c16101b761094c565b60243590336109f2565b5160018152f35b50346101275781600319360112610127576101e161094c565b92602435906101ee61097d565b6001600160a01b03851692831561035b578215610318578382526020958287528386842054106102de5784835282875285832054918483106102aa5750509181817fcc16f5dbb4873280815c1ee09dbd06736cffcc184412cf7a71a0fdb75d397ca5948689955282855203868220558160025403600255847fddf252ad1be2c89b69c2b068fc378daa952ba7f163c4a11628f55a4df523b3ef848851858152a361029a81600654610ad0565b6006558451908152a25160018152f35b865163391434e360e21b81526001600160a01b03909216908201908152602081018390526040810185905281906060010390fd5b855162461bcd60e51b81528083018890526014602482015273496e73756666696369656e742062616c616e636560601b6044820152606490fd5b606490602086519162461bcd60e51b8352820152601d60248201527f416d6f756e74206d7573742062652067726561746572207468616e20300000006044820152fd5b606490602086519162461bcd60e51b8352820152600f60248201526e496e76616c6964206164647265737360881b6044820152fd5b50919034610174578160031936011261017457805190828454600181811c908083169283156104a6575b6020938484108114610493578388529081156104775750600114610422575b505050829003601f01601f191682019267ffffffffffffffff84118385101761040f575082918261040b925282610903565b0390f35b634e487b7160e01b815260418552602490fd5b8787529192508591837f8a35acfbc15ff81a39ae7d344fd709f28e8600b4aa8c65c6b64bfe7fe36bd19b5b83851061046357505050508301013880806103d9565b80548886018301529301928490820161044d565b60ff1916878501525050151560051b84010190503880806103d9565b634e487b7160e01b895260228a52602489fd5b91607f16916103ba565b50503461017457816003193601126101745760055490516001600160a01b039091168152602090f35b5034610127576020366003190112610127576104f361094c565b916104fc61097d565b6100f561097d565b833461056157806003193601126105615761051d61097d565b600580546001600160a01b0319811690915581906001600160a01b03167f8be0079c531659141344cd1fd0a4f28419497f9722a3daafe3b4186f6b6457e08280a380f35b80fd5b5050346101745760203660031901126101745760209181906001600160a01b0361058c61094c565b16815280845220549051908152f35b50346101275781600319360112610127576105b461094c565b92602435936105c161097d565b6001600160a01b031691821561062257507fddf252ad1be2c89b69c2b068fc378daa952ba7f163c4a11628f55a4df523b3ef6020856106038297600254610ad0565b6002558484528382528584208181540190558551908152a35160018152f35b60249184519163ec442f0560e01b8352820152fd5b5050346101745781600319360112610174576020905160128152f35b5082346105615760603660031901126105615761066e61094c565b610676610967565b916044359360018060a01b0383168083526001602052868320338452602052868320549160001983036106b2575b6020886101c18989896109f2565b86831061071a5781156107035733156106ec575082526001602090815286832033845281529186902090859003905582906101c1876106a4565b8751634a1406b160e11b8152908101849052602490fd5b875163e602df0560e01b8152908101849052602490fd5b8751637dc7a0d960e11b8152339181019182526020820193909352604081018790528291506060010390fd5b5050346101745781600319360112610174576020906002549051908152f35b503461012757816003193601126101275761077e61094c565b6024359033156107f7576001600160a01b03169182156107e057508083602095338152600187528181208582528752205582519081527f8c5be1e5ebec7d5bd14f71427d1e84f3dd0314c0f7b2291e5b200ac8c7c3b925843392a35160018152f35b8351634a1406b160e11b8152908101859052602490fd5b835163e602df0560e01b8152808401869052602490fd5b849150833461012757826003193601126101275782600354600181811c908083169283156108f9575b6020938484108114610493578388529081156108dd575060011461088757505050829003601f01601f191682019267ffffffffffffffff84118385101761040f575082918261040b925282610903565b600387529192508591837fc2575a0e9e593c00f959f8c92f12db2869c3395a3b0502d05e2516446f71f85b5b8385106108c957505050508301018580806103d9565b8054888601830152930192849082016108b3565b60ff1916878501525050151560051b84010190508580806103d9565b91607f1691610837565b6020808252825181830181905290939260005b82811061093857505060409293506000838284010152601f8019910116010190565b818101860151848201604001528501610916565b600435906001600160a01b038216820361096257565b600080fd5b602435906001600160a01b038216820361096257565b6005546001600160a01b0316330361099157565b60405163118cdaa760e01b8152336004820152602490fd5b600580546001600160a01b039283166001600160a01b0319821681179092559091167f8be0079c531659141344cd1fd0a4f28419497f9722a3daafe3b4186f6b6457e0600080a3565b916001600160a01b03808416928315610ab75716928315610a9e5760009083825281602052604082205490838210610a6c575091604082827fddf252ad1be2c89b69c2b068fc378daa952ba7f163c4a11628f55a4df523b3ef958760209652828652038282205586815220818154019055604051908152a3565b60405163391434e360e21b81526001600160a01b03919091166004820152602481019190915260448101839052606490fd5b60405163ec442f0560e01b815260006004820152602490fd5b604051634b637e8f60e11b815260006004820152602490fd5b91908201809211610add57565b634e487b7160e01b600052601160045260246000fdfea26469706673582212205354c81ce9d642d68cf169b87f4fe5133cf2564e5a48ed18c18e69757fb3ffd564736f6c63430008140033",
  "linkReferences": {},
  "deployedLinkReferences": {}
}