{
  "_format": "hh-sol-artifact-1",
  "contractName": "SBRStaking",
  "sourceName": "contracts/SBRStaking.sol",
  "abi": [
    {
      "inputs": [
        {
          "internalType": "bool",
          "name": "_rewardSenderActive",
          "type": "bool"
        }
      ],
      "stateMutability": "nonpayable",
      "type": "constructor"
    },
    {
      "inputs": [
        {
          "internalType": "address",
          "name": "owner",
          "type": "address"
        }
      ],
      "name": "OwnableInvalidOwner",
      "type": "error"
    },
    {
      "inputs": [
        {
          "internalType": "address",
          "name": "account",
          "type": "address"
        }
      ],
      "name": "OwnableUnauthorizedAccount",
      "type": "error"
    },
    {
      "anonymous": false,
      "inputs": [
        {
          "indexed": true,
          "internalType": "address",
          "name": "user",
          "type": "address"
        },
        {
          "indexed": false,
          "internalType": "uint256",
          "name": "rewardAmount",
          "type": "uint256"
        },
        {
          "indexed": false,
          "internalType": "uint256",
          "name": "collateralReward",
          "type": "uint256"
        }
      ],
      "name": "Claimed",
      "type": "event"
    },
    {
      "anonymous": false,
      "inputs": [
        {
          "indexed": false,
          "internalType": "uint256",
          "name": "amount",
          "type": "uint256"
        }
      ],
      "name": "CollateralRewardAdded",
      "type": "event"
    },
    {
      "anonymous": false,
      "inputs": [
        {
          "indexed": true,
          "internalType": "address",
          "name": "previousOwner",
          "type": "address"
        },
        {
          "indexed": true,
          "internalType": "address",
          "name": "newOwner",
          "type": "address"
        }
      ],
      "name": "OwnershipTransferred",
      "type": "event"
    },
    {
      "anonymous": false,
      "inputs": [
        {
          "indexed": false,
          "internalType": "uint256",
          "name": "amount",
          "type": "uint256"
        }
      ],
      "name": "RewardAdded",
      "type": "event"
    },
    {
      "anonymous": false,
      "inputs": [
        {
          "indexed": true,
          "internalType": "address",
          "name": "user",
          "type": "address"
        },
        {
          "indexed": false,
          "internalType": "uint256",
          "name": "amount",
          "type": "uint256"
        }
      ],
      "name": "Staked",
      "type": "event"
    },
    {
      "anonymous": false,
      "inputs": [
        {
          "indexed": true,
          "internalType": "address",
          "name": "user",
          "type": "address"
        },
        {
          "indexed": false,
          "internalType": "uint256",
          "name": "amount",
          "type": "uint256"
        }
      ],
      "name": "Unstaked",
      "type": "event"
    },
    {
      "inputs": [],
      "name": "PRECISION",
      "outputs": [
        {
          "internalType": "uint256",
          "name": "",
          "type": "uint256"
        }
      ],
      "stateMutability": "view",
      "type": "function"
    },
    {
      "inputs": [
        {
          "internalType": "uint256",
          "name": "_amount",
          "type": "uint256"
        }
      ],
      "name": "addCollateralReward",
      "outputs": [
        {
          "internalType": "bool",
          "name": "",
          "type": "bool"
        }
      ],
      "stateMutability": "payable",
      "type": "function"
    },
    {
      "inputs": [
        {
          "internalType": "uint256",
          "name": "_amount",
          "type": "uint256"
        }
      ],
      "name": "addReward",
      "outputs": [
        {
          "internalType": "bool",
          "name": "",
          "type": "bool"
        }
      ],
      "stateMutability": "nonpayable",
      "type": "function"
    },
    {
      "inputs": [],
      "name": "claim",
      "outputs": [],
      "stateMutability": "nonpayable",
      "type": "function"
    },
    {
      "inputs": [
        {
          "internalType": "address",
          "name": "user",
          "type": "address"
        }
      ],
      "name": "getStake",
      "outputs": [
        {
          "components": [
            {
              "internalType": "uint256",
              "name": "stake",
              "type": "uint256"
            },
            {
              "internalType": "uint256",
              "name": "rewardSnapshot",
              "type": "uint256"
            },
            {
              "internalType": "uint256",
              "name": "collateralSnapshot",
              "type": "uint256"
            }
          ],
          "internalType": "struct ISBRStaking.Stake",
          "name": "",
          "type": "tuple"
        }
      ],
      "stateMutability": "view",
      "type": "function"
    },
    {
      "inputs": [],
      "name": "owner",
      "outputs": [
        {
          "internalType": "address",
          "name": "",
          "type": "address"
        }
      ],
      "stateMutability": "view",
      "type": "function"
    },
    {
      "inputs": [],
      "name": "renounceOwnership",
      "outputs": [],
      "stateMutability": "nonpayable",
      "type": "function"
    },
    {
      "inputs": [],
      "name": "rewardSenderActive",
      "outputs": [
        {
          "internalType": "bool",
          "name": "",
          "type": "bool"
        }
      ],
      "stateMutability": "view",
      "type": "function"
    },
    {
      "inputs": [],
      "name": "rewardToken",
      "outputs": [
        {
          "internalType": "contract IERC20",
          "name": "",
          "type": "address"
        }
      ],
      "stateMutability": "view",
      "type": "function"
    },
    {
      "inputs": [
        {
          "internalType": "address",
          "name": "_stakingToken",
          "type": "address"
        },
        {
          "internalType": "address",
          "name": "_rewardToken",
          "type": "address"
        },
        {
          "internalType": "address",
          "name": "_stableBaseContract",
          "type": "address"
        }
      ],
      "name": "setAddresses",
      "outputs": [],
      "stateMutability": "nonpayable",
      "type": "function"
    },
    {
      "inputs": [],
      "name": "stableBaseContract",
      "outputs": [
        {
          "internalType": "address",
          "name": "",
          "type": "address"
        }
      ],
      "stateMutability": "view",
      "type": "function"
    },
    {
      "inputs": [
        {
          "internalType": "uint256",
          "name": "_amount",
          "type": "uint256"
        }
      ],
      "name": "stake",
      "outputs": [],
      "stateMutability": "nonpayable",
      "type": "function"
    },
    {
      "inputs": [
        {
          "internalType": "address",
          "name": "",
          "type": "address"
        }
      ],
      "name": "stakes",
      "outputs": [
        {
          "internalType": "uint256",
          "name": "stake",
          "type": "uint256"
        },
        {
          "internalType": "uint256",
          "name": "rewardSnapshot",
          "type": "uint256"
        },
        {
          "internalType": "uint256",
          "name": "collateralSnapshot",
          "type": "uint256"
        }
      ],
      "stateMutability": "view",
      "type": "function"
    },
    {
      "inputs": [],
      "name": "stakingToken",
      "outputs": [
        {
          "internalType": "contract IERC20",
          "name": "",
          "type": "address"
        }
      ],
      "stateMutability": "view",
      "type": "function"
    },
    {
      "inputs": [],
      "name": "totalCollateralPerToken",
      "outputs": [
        {
          "internalType": "uint256",
          "name": "",
          "type": "uint256"
        }
      ],
      "stateMutability": "view",
      "type": "function"
    },
    {
      "inputs": [],
      "name": "totalRewardPerToken",
      "outputs": [
        {
          "internalType": "uint256",
          "name": "",
          "type": "uint256"
        }
      ],
      "stateMutability": "view",
      "type": "function"
    },
    {
      "inputs": [],
      "name": "totalStake",
      "outputs": [
        {
          "internalType": "uint256",
          "name": "",
          "type": "uint256"
        }
      ],
      "stateMutability": "view",
      "type": "function"
    },
    {
      "inputs": [
        {
          "internalType": "address",
          "name": "newOwner",
          "type": "address"
        }
      ],
      "name": "transferOwnership",
      "outputs": [],
      "stateMutability": "nonpayable",
      "type": "function"
    },
    {
      "inputs": [
        {
          "internalType": "uint256",
          "name": "_amount",
          "type": "uint256"
        }
      ],
      "name": "unstake",
      "outputs": [],
      "stateMutability": "nonpayable",
      "type": "function"
    },
    {
      "inputs": [
        {
          "internalType": "address",
          "name": "user",
          "type": "address"
        }
      ],
      "name": "userPendingReward",
      "outputs": [
        {
          "internalType": "uint256",
          "name": "",
          "type": "uint256"
        },
        {
          "internalType": "uint256",
          "name": "",
          "type": "uint256"
        }
      ],
      "stateMutability": "view",
      "type": "function"
    }
  ],
  "bytecode": "0x6080346100e257601f61102438819003918201601f19168301916001600160401b038311848410176100e7578084926020946040528339810103126100e257518015158091036100e25733156100c95760008054336001600160a01b0319821681178355604051939290916001600160a01b0316907f8be0079c531659141344cd1fd0a4f28419497f9722a3daafe3b4186f6b6457e09080a3670de0b6b3a764000060055560ff60a01b19600854169060ff60a01b9060a01b1617600855610f2690816100fe8239f35b604051631e4fbdf760e01b815260006004820152602490fd5b600080fd5b634e487b7160e01b600052604160045260246000fdfe608060408181526004918236101561001657600080fd5b600092833560e01c9182630498dc3914610933575081630a4f08e01461091557816316934fc4146108c85781631d0ebc0a146108a05781632e17de7814610696578163363bf964146106175781633e240391146105f05781634e71d92d146105cb578163715018a6146105a75781637174df701461050257816372f702f3146104da57816374de4ec4146104ba5781637a766460146104375781638b0e9f3f146104185781638da5cb5b146103f257816396b1ea94146103cb578163a694fc3a146101d5578163aaf5eb68146101b6578163f2fde38b1461012b575063f7c618c11461010157600080fd5b346101275781600319360112610127576020906001600160a01b03600754169051908152f35b5080fd5b9050346101b25760203660031901126101b25761014661094f565b9061014f61096a565b6001600160a01b0380921692831561019c57505082546001600160a01b0319811683178455167f8be0079c531659141344cd1fd0a4f28419497f9722a3daafe3b4186f6b6457e08380a380f35b51631e4fbdf760e01b8152908101849052602490fd5b8280fd5b5050346101275781600319360112610127576020906005549051908152f35b919050346101b2576020806003193601126103c757823591821561038657338552600182528085209361020785610d82565b60065482516323b872dd60e01b815233838201908152306020820152604081018790526001600160a01b039792869183918a169082908c90829060600103925af190811561037c579061026191899161035f575b50610a42565b61026c858254610a8e565b9055856002549561027d8688610a8e565b6002556008549660ff8860a01c169081610356575b506102c7575b50847f9e71bc8eea02a63969f509818f2dafb9254532904319f9dbda79b67bd34a5f3d8585519283523392a280f35b84926001926024928651998a958694631b2ae29360e11b8652850152165af193841561034c577f9e71bc8eea02a63969f509818f2dafb9254532904319f9dbda79b67bd34a5f3d939461031f575b8493508581610298565b61033e90833d8511610345575b6103368183610a08565b810190610a2a565b5038610315565b503d61032c565b81513d87823e3d90fd5b90501538610292565b6103769150863d8811610345576103368183610a08565b3861025b565b84513d8a823e3d90fd5b5162461bcd60e51b81529283015250601860248201527f43616e6e6f74207374616b65207a65726f20746f6b656e7300000000000000006044820152606490fd5b8380fd5b828460203660031901126103ef57506103e660209235610c29565b90519015158152f35b80fd5b5050346101275781600319360112610127576001600160a01b0360209254169051908152f35b5050346101275781600319360112610127576020906002549051908152f35b50503461012757602036600319011261012757806060926001600160a01b0361045e61094f565b8284805161046b816109d6565b828152826020820152015216815260016020522090805161048b816109d6565b825492838252826002600183015492602085019384520154920191825282519384525160208401525190820152f35b8284346103ef5760203660031901126103ef57506103e660209235610af1565b5050346101275781600319360112610127576020906001600160a01b03600654169051908152f35b905082346103ef5760203660031901126103ef578261059b916001600160a01b0361052b61094f565b1681526001602052206105968451610542816109d6565b8254815261058e61057661056e6002600187015496876020870152015495898501968752600354610ab1565b835190610abe565b936105846005548096610ad1565b9654905190610ab1565b905190610abe565b610ad1565b82519182526020820152f35b83346103ef57806003193601126103ef576105c061096a565b6105c8610996565b80f35b5050346101275781600319360112610127576105c89033835260016020528220610d82565b50503461012757816003193601126101275760209060ff60085460a01c1690519015158152f35b83346103ef5760603660031901126103ef5761063161094f565b602435906001600160a01b03918281168091036103c757604435928084168094036106925761065e61096a565b6bffffffffffffffffffffffff60a01b921682600654161760065581600754161760075560085416176008556105c061096a565b8480fd5b9050346101b2576020806003193601126103c757813591821561085f57338552600182528385206106c681610d82565b805480851161081c57846106d991610ab1565b90558183866106ea82600254610ab1565b806002556008549060ff8260a01c169081610813575b506107a8575b5050600654865163a9059cbb60e01b8152339481019485526020850192909252909283916001600160a01b0316908290899082906040015b03925af190811561079e577f0f5bb82176feb1b5e747e28471aa92156a04d9f3ab9f45f28e2d704232b93f7593949161077d9187916107875750610a42565b519283523392a280f35b6103769150843d8611610345576103368183610a08565b84513d87823e3d90fd5b8751631b2ae29360e11b815285810183905293925083916024918391906001600160a01b03165af180156108095761073e92849286926107ec575b88919450610706565b61080290843d8611610345576103368183610a08565b50386107e3565b85513d88823e3d90fd5b90501538610700565b855162461bcd60e51b8152808401859052601660248201527f496e76616c696420756e7374616b6520616d6f756e74000000000000000000006044820152606490fd5b60649184519162461bcd60e51b8352820152601a60248201527f43616e6e6f7420756e7374616b65207a65726f20746f6b656e730000000000006044820152fd5b5050346101275781600319360112610127576020906001600160a01b03600854169051908152f35b50503461012757602036600319011261012757806060926001600160a01b036108ef61094f565b168152600160205220805491600260018301549201549181519384526020840152820152f35b9050346101b257826003193601126101b25760209250549051908152f35b8490346101275781600319360112610127576020906003548152f35b600435906001600160a01b038216820361096557565b600080fd5b6001600160a01b0360005416330361097e57565b60405163118cdaa760e01b8152336004820152602490fd5b600080546001600160a01b0319811682556001600160a01b03167f8be0079c531659141344cd1fd0a4f28419497f9722a3daafe3b4186f6b6457e08280a3565b6060810190811067ffffffffffffffff8211176109f257604052565b634e487b7160e01b600052604160045260246000fd5b90601f8019910116810190811067ffffffffffffffff8211176109f257604052565b90816020910312610965575180151581036109655790565b15610a4957565b60405162461bcd60e51b815260206004820152601660248201527f5472616e7366657220746f6b656e73206661696c6564000000000000000000006044820152606490fd5b91908201809211610a9b57565b634e487b7160e01b600052601160045260246000fd5b91908203918211610a9b57565b81810292918115918404141715610a9b57565b8115610adb570490565b634e487b7160e01b600052601260045260246000fd5b6001600160a01b0380600854163303610bd3576002549081610b1557505050600090565b6007546040516323b872dd60e01b815233600482015230602482015260448101859052939160209185916064918391600091165af1928315610bc757610b99602093610b8d7fde88a922e0d3b88b24e9623efeb464919c6bf9f66857a65e2bfcf2ce87a9433d96610ba194600091610bb05750610a42565b61059660055485610abe565b600354610a8e565b600355604051908152a1600190565b6103769150873d8111610345576103368183610a08565b6040513d6000823e3d90fd5b60405162461bcd60e51b815260206004820152602860248201527f4f6e6c7920737461626c654261736520636f6e74726163742063616e20616464604482015267207265776172647360c01b6064820152608490fd5b6001600160a01b03600854163303610ce35760025480610c4a575050600090565b813403610c9f577f39434c7ce7d70dbcb1fff3d0ea6f47500ac190d6bf4f681f54f64200a7a696b791610c90610c8860209361059660055485610abe565b600454610a8e565b600455604051908152a1600190565b606460405162461bcd60e51b815260206004820152602060248201527f496e76616c696420636f6c6c61746572616c2072657761726420616d6f756e746044820152fd5b60405162461bcd60e51b815260206004820152603360248201527f4f6e6c7920737461626c654261736520636f6e74726163742063616e2061646460448201527220636f6c6c61746572616c207265776172647360681b6064820152608490fd5b15610d4b57565b60405162461bcd60e51b815260206004820152600f60248201526e151c985b9cd9995c8819985a5b1959608a1b6044820152606490fd5b6003546001820191610d95835483610ab1565b91610dae610da583548095610abe565b60055490610ad1565b9355610dce610da56002600454930193610dc9855485610ab1565b610abe565b915581610e7f575b80610e0f575b60405191825260208201527f987d620f307ff6b94d58743cb7a7509f24071586a77759b77c2d4e29f75a2f9a60403392a2565b60008080808085335af1903d15610e75573d9067ffffffffffffffff8211610e615790610e5c929160405191610e4f6020601f19601f8401160184610a08565b825260203d92013e610d44565b610ddc565b634e487b7160e01b81526041600452602490fd5b50610e5c90610d44565b60075460405163a9059cbb60e01b81523360048201526024810184905290602090829060449082906000906001600160a01b03165af18015610bc757610ecd91600091610ed2575b50610d44565b610dd6565b610eea915060203d8111610345576103368183610a08565b38610ec756fea2646970667358221220e7822dc8f276aaef299cf7a3f62ccad5b1e0410210b4b0ad0ea90a8cb70caa1c64736f6c63430008140033",
  "linkReferences": {},
  "deployedLinkReferences": {}
}