{
  "_format": "hh-sol-artifact-1",
  "contractName": "StabilityPool",
  "sourceName": "contracts/StabilityPool.sol",
  "abi": [
    {
      "inputs": [
        {
          "internalType": "bool",
          "name": "_rewardSenderActive",
          "type": "bool"
        }
      ],
      "stateMutability": "nonpayable",
      "type": "constructor"
    },
    {
      "inputs": [
        {
          "internalType": "address",
          "name": "owner",
          "type": "address"
        }
      ],
      "name": "OwnableInvalidOwner",
      "type": "error"
    },
    {
      "inputs": [
        {
          "internalType": "address",
          "name": "account",
          "type": "address"
        }
      ],
      "name": "OwnableUnauthorizedAccount",
      "type": "error"
    },
    {
      "anonymous": false,
      "inputs": [
        {
          "indexed": true,
          "internalType": "address",
          "name": "user",
          "type": "address"
        },
        {
          "indexed": false,
          "internalType": "uint256",
          "name": "amount",
          "type": "uint256"
        }
      ],
      "name": "CollateralClaimed",
      "type": "event"
    },
    {
      "anonymous": false,
      "inputs": [
        {
          "indexed": false,
          "internalType": "uint256",
          "name": "amount",
          "type": "uint256"
        }
      ],
      "name": "CollateralRewardAdded",
      "type": "event"
    },
    {
      "anonymous": false,
      "inputs": [
        {
          "indexed": true,
          "internalType": "address",
          "name": "user",
          "type": "address"
        },
        {
          "indexed": false,
          "internalType": "uint256",
          "name": "amount",
          "type": "uint256"
        },
        {
          "indexed": false,
          "internalType": "uint256",
          "name": "frontendFee",
          "type": "uint256"
        }
      ],
      "name": "DFireRewardClaimed",
      "type": "event"
    },
    {
      "anonymous": false,
      "inputs": [
        {
          "indexed": false,
          "internalType": "uint256",
          "name": "amount",
          "type": "uint256"
        },
        {
          "indexed": false,
          "internalType": "uint256",
          "name": "collateralReceived",
          "type": "uint256"
        },
        {
          "indexed": false,
          "internalType": "uint256",
          "name": "totalStaked",
          "type": "uint256"
        },
        {
          "indexed": false,
          "internalType": "uint256",
          "name": "stakeScalingFactor",
          "type": "uint256"
        },
        {
          "indexed": false,
          "internalType": "uint256",
          "name": "totalCollateralPerToken",
          "type": "uint256"
        }
      ],
      "name": "LiquidationPerformed",
      "type": "event"
    },
    {
      "anonymous": false,
      "inputs": [
        {
          "indexed": true,
          "internalType": "address",
          "name": "previousOwner",
          "type": "address"
        },
        {
          "indexed": true,
          "internalType": "address",
          "name": "newOwner",
          "type": "address"
        }
      ],
      "name": "OwnershipTransferred",
      "type": "event"
    },
    {
      "anonymous": false,
      "inputs": [
        {
          "indexed": false,
          "internalType": "address",
          "name": "sender",
          "type": "address"
        },
        {
          "indexed": false,
          "internalType": "uint256",
          "name": "amount",
          "type": "uint256"
        }
      ],
      "name": "Received",
      "type": "event"
    },
    {
      "anonymous": false,
      "inputs": [
        {
          "indexed": false,
          "internalType": "uint256",
          "name": "amount",
          "type": "uint256"
        }
      ],
      "name": "RewardAdded",
      "type": "event"
    },
    {
      "anonymous": false,
      "inputs": [
        {
          "indexed": true,
          "internalType": "address",
          "name": "user",
          "type": "address"
        },
        {
          "indexed": false,
          "internalType": "uint256",
          "name": "totalReward",
          "type": "uint256"
        },
        {
          "indexed": false,
          "internalType": "uint256",
          "name": "rewardFrontendFee",
          "type": "uint256"
        },
        {
          "indexed": false,
          "internalType": "uint256",
          "name": "totalCollateral",
          "type": "uint256"
        },
        {
          "indexed": false,
          "internalType": "uint256",
          "name": "collateralFrontendFee",
          "type": "uint256"
        }
      ],
      "name": "RewardClaimed",
      "type": "event"
    },
    {
      "anonymous": false,
      "inputs": [
        {
          "indexed": false,
          "internalType": "uint256",
          "name": "lastTime",
          "type": "uint256"
        },
        {
          "indexed": false,
          "internalType": "uint256",
          "name": "currentTime",
          "type": "uint256"
        },
        {
          "indexed": false,
          "internalType": "uint256",
          "name": "rewardAmount",
          "type": "uint256"
        },
        {
          "indexed": false,
          "internalType": "uint256",
          "name": "totalRewardPerToken",
          "type": "uint256"
        }
      ],
      "name": "SBRRewardsAdded",
      "type": "event"
    },
    {
      "anonymous": false,
      "inputs": [
        {
          "indexed": true,
          "internalType": "uint256",
          "name": "stakeResetCount",
          "type": "uint256"
        },
        {
          "components": [
            {
              "internalType": "uint256",
              "name": "scalingFactor",
              "type": "uint256"
            },
            {
              "internalType": "uint256",
              "name": "totalRewardPerToken",
              "type": "uint256"
            },
            {
              "internalType": "uint256",
              "name": "totalCollateralPerToken",
              "type": "uint256"
            },
            {
              "internalType": "uint256",
              "name": "totalSBRRewardPerToken",
              "type": "uint256"
            }
          ],
          "indexed": false,
          "internalType": "struct IStabilityPool.StakeResetSnapshot",
          "name": "snapshot",
          "type": "tuple"
        }
      ],
      "name": "ScalingFactorReset",
      "type": "event"
    },
    {
      "anonymous": false,
      "inputs": [
        {
          "indexed": true,
          "internalType": "address",
          "name": "user",
          "type": "address"
        },
        {
          "indexed": false,
          "internalType": "uint256",
          "name": "amount",
          "type": "uint256"
        }
      ],
      "name": "Staked",
      "type": "event"
    },
    {
      "anonymous": false,
      "inputs": [
        {
          "indexed": true,
          "internalType": "address",
          "name": "user",
          "type": "address"
        },
        {
          "indexed": false,
          "internalType": "uint256",
          "name": "amount",
          "type": "uint256"
        }
      ],
      "name": "Unstaked",
      "type": "event"
    },
    {
      "inputs": [],
      "name": "BASIS_POINTS_DIVISOR",
      "outputs": [
        {
          "internalType": "uint256",
          "name": "",
          "type": "uint256"
        }
      ],
      "stateMutability": "view",
      "type": "function"
    },
    {
      "inputs": [
        {
          "internalType": "uint256",
          "name": "amount",
          "type": "uint256"
        }
      ],
      "name": "addCollateralReward",
      "outputs": [
        {
          "internalType": "bool",
          "name": "",
          "type": "bool"
        }
      ],
      "stateMutability": "payable",
      "type": "function"
    },
    {
      "inputs": [
        {
          "internalType": "uint256",
          "name": "_amount",
          "type": "uint256"
        }
      ],
      "name": "addReward",
      "outputs": [
        {
          "internalType": "bool",
          "name": "",
          "type": "bool"
        }
      ],
      "stateMutability": "nonpayable",
      "type": "function"
    },
    {
      "inputs": [],
      "name": "claim",
      "outputs": [],
      "stateMutability": "nonpayable",
      "type": "function"
    },
    {
      "inputs": [
        {
          "internalType": "address",
          "name": "frontend",
          "type": "address"
        },
        {
          "internalType": "uint256",
          "name": "fee",
          "type": "uint256"
        }
      ],
      "name": "claim",
      "outputs": [],
      "stateMutability": "nonpayable",
      "type": "function"
    },
    {
      "inputs": [],
      "name": "collateralLoss",
      "outputs": [
        {
          "internalType": "uint256",
          "name": "",
          "type": "uint256"
        }
      ],
      "stateMutability": "view",
      "type": "function"
    },
    {
      "inputs": [
        {
          "internalType": "address",
          "name": "_user",
          "type": "address"
        }
      ],
      "name": "getUser",
      "outputs": [
        {
          "components": [
            {
              "internalType": "uint256",
              "name": "stake",
              "type": "uint256"
            },
            {
              "internalType": "uint256",
              "name": "rewardSnapshot",
              "type": "uint256"
            },
            {
              "internalType": "uint256",
              "name": "collateralSnapshot",
              "type": "uint256"
            },
            {
              "internalType": "uint256",
              "name": "cumulativeProductScalingFactor",
              "type": "uint256"
            },
            {
              "internalType": "uint256",
              "name": "stakeResetCount",
              "type": "uint256"
            }
          ],
          "internalType": "struct IStabilityPool.UserInfo",
          "name": "user",
          "type": "tuple"
        }
      ],
      "stateMutability": "view",
      "type": "function"
    },
    {
      "inputs": [
        {
          "internalType": "uint256",
          "name": "amount",
          "type": "uint256"
        }
      ],
      "name": "isLiquidationPossible",
      "outputs": [
        {
          "internalType": "bool",
          "name": "",
          "type": "bool"
        }
      ],
      "stateMutability": "view",
      "type": "function"
    },
    {
      "inputs": [],
      "name": "lastSBRRewardDistributedTime",
      "outputs": [
        {
          "internalType": "uint256",
          "name": "",
          "type": "uint256"
        }
      ],
      "stateMutability": "view",
      "type": "function"
    },
    {
      "inputs": [],
      "name": "minimumScalingFactor",
      "outputs": [
        {
          "internalType": "uint256",
          "name": "",
          "type": "uint256"
        }
      ],
      "stateMutability": "view",
      "type": "function"
    },
    {
      "inputs": [],
      "name": "owner",
      "outputs": [
        {
          "internalType": "address",
          "name": "",
          "type": "address"
        }
      ],
      "stateMutability": "view",
      "type": "function"
    },
    {
      "inputs": [
        {
          "internalType": "uint256",
          "name": "amount",
          "type": "uint256"
        },
        {
          "internalType": "uint256",
          "name": "collateral",
          "type": "uint256"
        }
      ],
      "name": "performLiquidation",
      "outputs": [
        {
          "internalType": "bool",
          "name": "",
          "type": "bool"
        }
      ],
      "stateMutability": "payable",
      "type": "function"
    },
    {
      "inputs": [],
      "name": "precision",
      "outputs": [
        {
          "internalType": "uint256",
          "name": "",
          "type": "uint256"
        }
      ],
      "stateMutability": "view",
      "type": "function"
    },
    {
      "inputs": [],
      "name": "renounceOwnership",
      "outputs": [],
      "stateMutability": "nonpayable",
      "type": "function"
    },
    {
      "inputs": [],
      "name": "rewardLoss",
      "outputs": [
        {
          "internalType": "uint256",
          "name": "",
          "type": "uint256"
        }
      ],
      "stateMutability": "view",
      "type": "function"
    },
    {
      "inputs": [],
      "name": "rewardSenderActive",
      "outputs": [
        {
          "internalType": "bool",
          "name": "",
          "type": "bool"
        }
      ],
      "stateMutability": "view",
      "type": "function"
    },
    {
      "inputs": [],
      "name": "sbrDistributionRate",
      "outputs": [
        {
          "internalType": "uint256",
          "name": "",
          "type": "uint256"
        }
      ],
      "stateMutability": "view",
      "type": "function"
    },
    {
      "inputs": [],
      "name": "sbrRewardDistributionEndTime",
      "outputs": [
        {
          "internalType": "uint256",
          "name": "",
          "type": "uint256"
        }
      ],
      "stateMutability": "view",
      "type": "function"
    },
    {
      "inputs": [],
      "name": "sbrRewardDistributionStatus",
      "outputs": [
        {
          "internalType": "enum StabilityPool.SBRRewardDistribution",
          "name": "",
          "type": "uint8"
        }
      ],
      "stateMutability": "view",
      "type": "function"
    },
    {
      "inputs": [],
      "name": "sbrRewardLoss",
      "outputs": [
        {
          "internalType": "uint256",
          "name": "",
          "type": "uint256"
        }
      ],
      "stateMutability": "view",
      "type": "function"
    },
    {
      "inputs": [
        {
          "internalType": "address",
          "name": "",
          "type": "address"
        }
      ],
      "name": "sbrRewardSnapshots",
      "outputs": [
        {
          "internalType": "uint256",
          "name": "rewardSnapshot",
          "type": "uint256"
        },
        {
          "internalType": "enum StabilityPool.SBRRewardDistribution",
          "name": "status",
          "type": "uint8"
        }
      ],
      "stateMutability": "view",
      "type": "function"
    },
    {
      "inputs": [],
      "name": "sbrToken",
      "outputs": [
        {
          "internalType": "contract IMintableToken",
          "name": "",
          "type": "address"
        }
      ],
      "stateMutability": "view",
      "type": "function"
    },
    {
      "inputs": [
        {
          "internalType": "address",
          "name": "_stakingToken",
          "type": "address"
        },
        {
          "internalType": "address",
          "name": "_stableBaseCDP",
          "type": "address"
        },
        {
          "internalType": "address",
          "name": "_sbrToken",
          "type": "address"
        }
      ],
      "name": "setAddresses",
      "outputs": [],
      "stateMutability": "nonpayable",
      "type": "function"
    },
    {
      "inputs": [],
      "name": "stableBaseCDP",
      "outputs": [
        {
          "internalType": "address",
          "name": "",
          "type": "address"
        }
      ],
      "stateMutability": "view",
      "type": "function"
    },
    {
      "inputs": [
        {
          "internalType": "uint256",
          "name": "_amount",
          "type": "uint256"
        },
        {
          "internalType": "address",
          "name": "frontend",
          "type": "address"
        },
        {
          "internalType": "uint256",
          "name": "fee",
          "type": "uint256"
        }
      ],
      "name": "stake",
      "outputs": [],
      "stateMutability": "nonpayable",
      "type": "function"
    },
    {
      "inputs": [
        {
          "internalType": "uint256",
          "name": "_amount",
          "type": "uint256"
        }
      ],
      "name": "stake",
      "outputs": [],
      "stateMutability": "nonpayable",
      "type": "function"
    },
    {
      "inputs": [],
      "name": "stakeResetCount",
      "outputs": [
        {
          "internalType": "uint256",
          "name": "",
          "type": "uint256"
        }
      ],
      "stateMutability": "view",
      "type": "function"
    },
    {
      "inputs": [
        {
          "internalType": "uint256",
          "name": "",
          "type": "uint256"
        }
      ],
      "name": "stakeResetSnapshots",
      "outputs": [
        {
          "internalType": "uint256",
          "name": "scalingFactor",
          "type": "uint256"
        },
        {
          "internalType": "uint256",
          "name": "totalRewardPerToken",
          "type": "uint256"
        },
        {
          "internalType": "uint256",
          "name": "totalCollateralPerToken",
          "type": "uint256"
        },
        {
          "internalType": "uint256",
          "name": "totalSBRRewardPerToken",
          "type": "uint256"
        }
      ],
      "stateMutability": "view",
      "type": "function"
    },
    {
      "inputs": [],
      "name": "stakeScalingFactor",
      "outputs": [
        {
          "internalType": "uint256",
          "name": "",
          "type": "uint256"
        }
      ],
      "stateMutability": "view",
      "type": "function"
    },
    {
      "inputs": [],
      "name": "stakingToken",
      "outputs": [
        {
          "internalType": "contract IERC20",
          "name": "",
          "type": "address"
        }
      ],
      "stateMutability": "view",
      "type": "function"
    },
    {
      "inputs": [],
      "name": "totalCollateralPerToken",
      "outputs": [
        {
          "internalType": "uint256",
          "name": "",
          "type": "uint256"
        }
      ],
      "stateMutability": "view",
      "type": "function"
    },
    {
      "inputs": [],
      "name": "totalRewardPerToken",
      "outputs": [
        {
          "internalType": "uint256",
          "name": "",
          "type": "uint256"
        }
      ],
      "stateMutability": "view",
      "type": "function"
    },
    {
      "inputs": [],
      "name": "totalSbrRewardPerToken",
      "outputs": [
        {
          "internalType": "uint256",
          "name": "",
          "type": "uint256"
        }
      ],
      "stateMutability": "view",
      "type": "function"
    },
    {
      "inputs": [],
      "name": "totalStakedRaw",
      "outputs": [
        {
          "internalType": "uint256",
          "name": "",
          "type": "uint256"
        }
      ],
      "stateMutability": "view",
      "type": "function"
    },
    {
      "inputs": [
        {
          "internalType": "address",
          "name": "newOwner",
          "type": "address"
        }
      ],
      "name": "transferOwnership",
      "outputs": [],
      "stateMutability": "nonpayable",
      "type": "function"
    },
    {
      "inputs": [
        {
          "internalType": "uint256",
          "name": "amount",
          "type": "uint256"
        }
      ],
      "name": "unstake",
      "outputs": [],
      "stateMutability": "nonpayable",
      "type": "function"
    },
    {
      "inputs": [
        {
          "internalType": "uint256",
          "name": "_amount",
          "type": "uint256"
        },
        {
          "internalType": "address",
          "name": "frontend",
          "type": "address"
        },
        {
          "internalType": "uint256",
          "name": "fee",
          "type": "uint256"
        }
      ],
      "name": "unstake",
      "outputs": [],
      "stateMutability": "nonpayable",
      "type": "function"
    },
    {
      "inputs": [
        {
          "internalType": "address",
          "name": "_user",
          "type": "address"
        }
      ],
      "name": "userPendingCollateral",
      "outputs": [
        {
          "internalType": "uint256",
          "name": "",
          "type": "uint256"
        }
      ],
      "stateMutability": "view",
      "type": "function"
    },
    {
      "inputs": [
        {
          "internalType": "address",
          "name": "_user",
          "type": "address"
        }
      ],
      "name": "userPendingReward",
      "outputs": [
        {
          "internalType": "uint256",
          "name": "",
          "type": "uint256"
        }
      ],
      "stateMutability": "view",
      "type": "function"
    },
    {
      "inputs": [
        {
          "internalType": "address",
          "name": "_user",
          "type": "address"
        }
      ],
      "name": "userPendingRewardAndCollateral",
      "outputs": [
        {
          "internalType": "uint256",
          "name": "",
          "type": "uint256"
        },
        {
          "internalType": "uint256",
          "name": "",
          "type": "uint256"
        },
        {
          "internalType": "uint256",
          "name": "",
          "type": "uint256"
        }
      ],
      "stateMutability": "view",
      "type": "function"
    },
    {
      "inputs": [
        {
          "internalType": "address",
          "name": "",
          "type": "address"
        }
      ],
      "name": "users",
      "outputs": [
        {
          "internalType": "uint256",
          "name": "stake",
          "type": "uint256"
        },
        {
          "internalType": "uint256",
          "name": "rewardSnapshot",
          "type": "uint256"
        },
        {
          "internalType": "uint256",
          "name": "collateralSnapshot",
          "type": "uint256"
        },
        {
          "internalType": "uint256",
          "name": "cumulativeProductScalingFactor",
          "type": "uint256"
        },
        {
          "internalType": "uint256",
          "name": "stakeResetCount",
          "type": "uint256"
        }
      ],
      "stateMutability": "view",
      "type": "function"
    },
    {
      "stateMutability": "payable",
      "type": "receive"
    }
  ],
  "bytecode": "0x6080346200010057601f6200336138819003918201601f19168301916001600160401b03831184841017620001055780849260209460405283398101031262000100575180151580910362000100573315620000e75760008054336001600160a01b0319821681178355604051939260ff929091906001600160a01b03167f8be0079c531659141344cd1fd0a4f28419497f9722a3daafe3b4186f6b6457e08380a380600a5580600b55670de0b6b3a76400009081600c5580600d5580600e55600f5581199081601054166010556011556014541691161760145561324590816200011c8239f35b604051631e4fbdf760e01b815260006004820152602490fd5b600080fd5b634e487b7160e01b600052604160045260246000fdfe608060409080825260049081361015610067575b5050361561002057600080fd5b7f88a5966d370b9919b20f3e2c13ff65706f196a4e32cc2c12bf57088f885258749061005760018060a01b03600254163314612033565b51338152346020820152604090a1005b600091823560e01c9182630498dc3914611f44575081630919e43914611f1d5781630a4f08e014611efe578163126082cf14611ee15781631625115c14611ec25781632e17de781461196f57816333d6748114611950578163363bf964146118d15781633e240391146118ad57816342c3c0011461188e5781634e71d92d146114a45781634fab3ee11461145757816351a7c7161461125557816352795cc81461123657816358bac6bb14611217578163619ecc7c146111ee5781636e9c931c1461105c5781636f77926b14610fbe578163715018a614610f9a5781637174df7014610f6557816372f702f314610f3c57816373b2389914610baa57816374de4ec414610b755781638da5cb5b14610b4d57816396b1ea9414610b145781639e436b0614610af5578163a214f9ef14610ad6578163a64dfc5d14610ab7578163a694fc3a1461051e578163a87430ba146104a7578163aad3ec9614610465578163abbdf0ad1461043f578163b893cd91146103ec578163c2050f8d146103c3578163c504641d146103a4578163c5eb8bb214610362578163caf63e6c1461032a578163d3b5dc3b14610307578163ebba8d4d146102e8578163f2fde38b1461025c575063fca92dea1461023a5780610013565b9034610258578160031936011261025857602090600c549051908152f35b5080fd5b839150346102e45760203660031901126102e457610278611f82565b90610281611fc7565b6001600160a01b039182169283156102ce57505082546001600160a01b0319811683178455167f8be0079c531659141344cd1fd0a4f28419497f9722a3daafe3b4186f6b6457e08380a380f35b51631e4fbdf760e01b8152908101849052602490fd5b8280fd5b828434610258578160031936011261025857602090600b549051908152f35b82843461025857816003193601126102585760209051670de0b6b3a76400008152f35b8284346102585760203660031901126102585760609061035061034b611f82565b61300b565b91929081519384526020840152820152f35b8284346102585760203660031901126102585760209161039b9082906001600160a01b0361038e611f82565b1681526013855220612c38565b50915191825250f35b828434610258578160031936011261025857602090600d549051908152f35b82843461025857816003193601126102585760025490516001600160a01b039091168152602090f35b839150346102e45760203660031901126102e457358252600860209081529181902080546001820154600283015460039093015493519182529381019390935260408301526060820152608090f35b0390f35b839150346102e45760203660031901126102e45760209250600354903511159051908152f35b82843461025857806003193601126102585761047f611f82565b90338352601360205282208054610494578280f35b6104a191602435916121d2565b81808280f35b83833461051b57602036600319011261051b5761043b9082906001600160a01b036104d0611f82565b1681526013602052209182549260018101549460028201549060038301549201549251958695869192608093969594919660a084019784526020840152604083015260608201520152565b80fd5b839150346102e457602080600319360112610ab3578135918215610a77573385526013825283852060ff6010541682811015610a6457600203610a57575b8590869187889389928a9260038601928354610a44575b88549760019889890155600554600289015560ff601054168a811015610a31578d8f8b60028f9414156000146109e857506009600a54933383525220555b83158015610925575b50821580156108ac575b508c871595861596876107c1575b509161062091836000805160206131b0833981519152969594546107a9575b600c549055600d548d8c0155519384933397859094939260609260808301968352602083015260408201520152565b0390a2610786575b5050815486516323b872dd60e01b815233858201908152306020820152604081018890526001600160a01b0393928791839186169082908d90829060600103925af1801561077c57610681918a9161075f575b50612107565b61068c86825461214c565b905560035461069b868261214c565b6003551580610753575b6106c8575b5050506000805160206131d08339815191529192519283523392a280f35b9060248492600254169388885195869485936393b3e6d360e01b85528401525af1908115610749576000805160206131d083398151915293949161071391879161071c575b5061216f565b929185806106aa565b61073c9150843d8611610742575b61073481836120cd565b8101906120ef565b8761070d565b503d61072a565b84513d87823e3d90fd5b5060ff601454166106a5565b6107769150873d89116107425761073481836120cd565b8a61067b565b88513d8b823e3d90fd5b8751918252858201526000805160206131f0833981519152873392a28780610628565b6107ba6107b58d612b7a565b613048565b8c556105f1565b91509192939495965089171561089957908995949392918e61081e8f8a8f91849b8560018060a01b036012541692518096819582946340c10f1960e01b84523390840160209093929193604081019460018060a01b031681520152565b03925af191821561088c579161086f575b501561083d578d90386105d2565b508c5162461bcd60e51b8152808b018c9052600b60248201526a135a5b9d0819985a5b195960aa1b6044820152606490fd5b61088691508d803d106107425761073481836120cd565b3861082f565b90508f51903d90823e3d90fd5b634e487b7160e01b8e5260118a5260248efd5b9050881715610912578c8d80808086335af16108c6612bf8565b50156108d2578e6105c4565b8c5162461bcd60e51b8152808b018c9052601a60248201527910dbdb1b185d195c985b081d1c985b9cd9995c8819985a5b195960321b6044820152606490fd5b634e487b7160e01b8d526011895260248dfd5b9091508817156109125787548c5163a9059cbb60e01b8152338b8201908152602081018690528f93928492918e91839182900360400190829086906001600160a01b03165af19182156109dd57916109c0575b5015610984578e6105ba565b8c5162461bcd60e51b8152808b018c9052601660248201527514995dd85c99081d1c985b9cd9995c8819985a5b195960521b6044820152606490fd5b6109d791508c8d3d106107425761073481836120cd565b8f610978565b8f51903d90823e3d90fd5b338252600990935220015460ff168a811015610a31578d8f8d60038d9403610a14575b505050506105b1565b338252600990522001805460ff19166003179055888d8f8d610a0b565b634e487b7160e01b8f5260218b5260248ffd5b94505050610a5184612c38565b94610573565b610a5f6126fd565b61055c565b634e487b7160e01b875260218352602487fd5b60649184519162461bcd60e51b8352820152601860248201527743616e6e6f74207374616b65207a65726f20746f6b656e7360401b6044820152fd5b8380fd5b8284346102585781600319360112610258576020906011549051908152f35b82843461025857816003193601126102585760209051633b9aca008152f35b828434610258578160031936011261025857602090600a549051908152f35b8383602036600319011261051b5750610b44602092610b3e60018060a01b03600254163314612033565b35612ab0565b90519015158152f35b828434610258578160031936011261025857905490516001600160a01b039091168152602090f35b83833461051b57602036600319011261051b5750610b44602092610ba460018060a01b03600254163314612033565b356128b8565b838092506003193601126102e45760025481359360248035926001600160a01b0316610bd7338214612033565b60035496878111610efa57610bed853414612a64565b600c5497610bfb82826121c5565b95670de0b6b3a76400009687810290808204891490151715610ee857610c2b610c25848a936126dd565b8c6126ca565b04998a600c55610c3d6007548361214c565b610c4782826126ca565b898102908082048b1490151715610ed657610c63858b926126dd565b0491610c7f85610c758560055461214c565b94856005556126ca565b8a8102908082048c1490151715610ec45793610d0586948f8f610cd88f978f9d9c9a98610cd1610d0d9d997f59a8228a7fe4b6c3f4b4e280ee138524bcc0f5fdc478b910ef0bcd23ba77929a9b6126dd565b04906121c5565b6007555194859489869192608093969594919660a084019784526020840152604083015260608201520152565b0390a16121c5565b806003551580610eb8575b610e0d575b5050633b9aca008610610d35575b6020855160018152f35b83549060055492600a5494875198610d4c8a6120b1565b89526020890193845287890194855260608901958652600d5482526008602052878220895181558451600182015585516002820155600387519101558160055581875581600a55600c55600d54956000198714610dfd576001870180600d558711610dfd57505050947f6d03d2f0849bc4a04fd4c42e8a290943e89441aab87db7f2d66e5e61e8c9d8659260809260209787519351845251888401525186830152516060820152a282808080610d2b565b634e487b7160e01b825260119052fd5b602090838851809481936393b3e6d360e01b8352818b8401525af1908115610eae578391610e90575b5015610e43578187610d1d565b836022608492602088519362461bcd60e51b85528401528201527f556e61626c6520746f2064656163746976617465207265776172642073656e6460448201526132b960f11b6064820152fd5b610ea8915060203d81116107425761073481836120cd565b87610e36565b86513d85823e3d90fd5b5060ff60145416610d18565b634e487b7160e01b8a5260118c52888afd5b634e487b7160e01b895260118b528789fd5b634e487b7160e01b8752601189528587fd5b865162461bcd60e51b8152602081880152601a818501527f496e76616c6964206c69717569646174696f6e20616d6f756e740000000000006044820152606490fd5b82843461025857816003193601126102585760015490516001600160a01b039091168152602090f35b82843461025857602036600319011261025857602091610f919082906001600160a01b0361038e611f82565b50509051908152f35b823461051b578060031936011261051b57610fb3611fc7565b610fbb611ff3565b80f35b8284346102585760203660031901126102585760806110198260a094610fe2611f82565b81858451610fef8161207f565b82815282602082015282868201528260608201520152600180881b03168152601360205220612b7a565b60608101805161104c575b8351938251855260208301516020860152808301519085015251606084015201516080820152f35b61105582613048565b8252611024565b839150346102e45761106d36611f9d565b91929083156111b05733865261108d6020936013855286882092836121d2565b60015485516323b872dd60e01b815233848201908152306020820152604081018790526001600160a01b0393928691839186169082908c90829060600103925af180156111a6576110e49189916111895750612107565b6110ef85825461214c565b90556003546110fe858261214c565b600355158061117d575b61112a575b50506000805160206131d08339815191529192519283523392a280f35b600160248492600254169388885195869485936393b3e6d360e01b85528401525af1908115610749576000805160206131d083398151915293949161117591879161071c575061216f565b92918561110d565b5060ff60145416611108565b6111a09150863d88116107425761073481836120cd565b8961067b565b87513d8a823e3d90fd5b845162461bcd60e51b8152602081840152601860248201527743616e6e6f74207374616b65207a65726f20746f6b656e7360401b6044820152606490fd5b82843461025857816003193601126102585760125490516001600160a01b039091168152602090f35b828434610258578160031936011261025857602090600e549051908152f35b828434610258578160031936011261025857602090600f549051908152f35b839150346102e45761126636611f9d565b9192908315611414573386526112866020936013855286882092836121d2565b80548085116113d85784611299916121c5565b905581836112a9816003546121c5565b8060035515806113cc575b611355575b600154865163a9059cbb60e01b8152339481019485526020850192909252909283916001600160a01b0316908290899082906040015b03925af1908115610749577f0f5bb82176feb1b5e747e28471aa92156a04d9f3ab9f45f28e2d704232b93f7593949161132e9187916113385750612107565b519283523392a280f35b61134f9150843d86116107425761073481836120cd565b8761067b565b5060025485516393b3e6d360e01b81528381018890529190829060249082908a906001600160a01b03165af180156113c2576112ef9261139e869286948a916113a5575061216f565b92506112b9565b6113bc9150853d87116107425761073481836120cd565b8a61070d565b85513d88823e3d90fd5b5060ff601454166112b4565b855162461bcd60e51b81528084018590526016602482015275125b9d985b1a59081d5b9cdd185ad948185b5bdd5b9d60521b6044820152606490fd5b845162461bcd60e51b8152602081840152601a60248201527f43616e6e6f7420756e7374616b65207a65726f20746f6b656e730000000000006044820152606490fd5b828434610258576020366003190112610258579081906001600160a01b0361147d611f82565b1681526009602052206114a260ff600183549301541683519283526020830190611f5f565bf35b905082346102e457826003193601126102e4573383526020906013825280842080546114ce578480f35b60ff601054168481101561187b5760020361186e575b849385948687968897899560038101958654611853575b80549660019788840155600554600284015560ff6010541682811015611840578a8e8a60028f9414156000146117f757506009600a54933383525220555b8615801561173f575b50851580156116c4575b508b15801598896115e9575b5050916000805160206131b083398151915295949391836115a894546115d6575b600c549055600d5491015588519384933397859094939260609260808301968352602083015260408201520152565b0390a26115b3578480f35b6000805160206131f08339815191529282519485528401523392a2818080808480f35b6115e26107b584612b7a565b8355611579565b9091929d9c9b9a995017156116b15760125488516340c10f1960e01b8152338e8201908152602081018d90529c9d9b9c9a9b999a8e9a93928b92918e91839182900360400190829086906001600160a01b03165af19182156116a65791611689575b5015611658578d80611558565b895162461bcd60e51b81528083018c9052600b60248201526a135a5b9d0819985a5b195960aa1b6044820152606490fd5b6116a091508c8d3d106107425761073481836120cd565b8e61164b565b8c51903d90823e3d90fd5b634e487b7160e01b8b5260118c5260248bfd5b90935087171561172c578b928c80808089335af16116e0612bf8565b50156116ec578d61154c565b895162461bcd60e51b81528083018c9052601a60248201527910dbdb1b185d195c985b081d1c985b9cd9995c8819985a5b195960321b6044820152606490fd5b634e487b7160e01b8c526011905260248bfd5b90945087171561172c578654895163a9059cbb60e01b815233838201908152602081018990528e96928792918e91839182900360400190829086906001600160a01b03165af19182156116a657916117da575b501561179e578d611542565b895162461bcd60e51b81528083018c9052601660248201527514995dd85c99081d1c985b9cd9995c8819985a5b195960521b6044820152606490fd5b6117f191508c8d3d106107425761073481836120cd565b8e611792565b338252600990935220015460ff1682811015611840578a8e8d60038c9403611823575b50505050611539565b338252600990522001805460ff19166003179055878a8e8d61181a565b634e487b7160e01b8e526021835260248efd5b9450611863919950809350612c38565b9991939093946114fb565b6118766126fd565b6114e4565b634e487b7160e01b865260218552602486fd5b8284346102585781600319360112610258576020906003549051908152f35b82843461025857816003193601126102585760209060ff6014541690519015158152f35b823461051b57606036600319011261051b576118eb611f82565b6001600160a01b039060243582811690819003610ab3576044359280841680940361194c57611918611fc7565b6bffffffffffffffffffffffff60a01b92168260015416176001558160025416176002556012541617601255610fb3611fc7565b8480fd5b8284346102585781600319360112610258576020906006549051908152f35b839150346102e457602080600319360112610ab3578135918215611e8157338552601382528385209060ff6010541681811015611e6e57600203611e61575b8591869287889489928a9260038601928354611e4e575b8754986001998a890155600554600289015560ff6010541689811015611e3b578d8f8c60028f941415600014611df257506009600a54933383525220555b83158015611d3a575b5082158015611cc1575b508c87159586159687611be3575b5091611a7291836000805160206131b083398151915296959454611bd0575b600c549055600d548c8c0155519384933397859094939260609260808301968352602083015260408201520152565b0390a2611bad575b50508054808611611b7157918591611a938387956121c5565b905587611aa2836003546121c5565b806003551580611b65575b611aec575b509254865163a9059cbb60e01b8152339481019485526020850192909252909283916001600160a01b0316908290899082906040016112ef565b60025488516393b3e6d360e01b81528084018390529492935084916024918391906001600160a01b03165af1908115611b5b576112ef93611b36879387958b91611b3e575061216f565b935087611ab2565b611b559150863d88116107425761073481836120cd565b8b61070d565b86513d89823e3d90fd5b5060ff60145416611aad565b865162461bcd60e51b81528084018690526016602482015275125b9d985b1a59081d5b9cdd185ad948185b5bdd5b9d60521b6044820152606490fd5b8751918252858201526000805160206131f0833981519152873392a28780611a7a565b611bdc6107b58d612b7a565b8c55611a43565b9150919293949596508a1715611cae57908895949392918e611c408f8a8f91849b8560018060a01b036012541692518096819582946340c10f1960e01b84523390840160209093929193604081019460018060a01b031681520152565b03925af191821561088c5791611c91575b5015611c5f578d9038611a24565b508c5162461bcd60e51b8152808a018c9052600b60248201526a135a5b9d0819985a5b195960aa1b6044820152606490fd5b611ca891508d803d106107425761073481836120cd565b38611c51565b634e487b7160e01b8e526011895260248efd5b9050891715611d27578c8d80808086335af1611cdb612bf8565b5015611ce7578e611a16565b8c5162461bcd60e51b8152808a018c9052601a60248201527910dbdb1b185d195c985b081d1c985b9cd9995c8819985a5b195960321b6044820152606490fd5b634e487b7160e01b8d526011885260248dfd5b909150891715611d275788548c5163a9059cbb60e01b8152338a8201908152602081018690528f93928492918e91839182900360400190829086906001600160a01b03165af19182156109dd5791611dd5575b5015611d99578e611a0c565b8c5162461bcd60e51b8152808a018c9052601660248201527514995dd85c99081d1c985b9cd9995c8819985a5b195960521b6044820152606490fd5b611dec91508c8d3d106107425761073481836120cd565b8f611d8d565b338252600990935220015460ff1689811015611e3b578d8f8d60038e9403611e1e575b50505050611a03565b338252600990522001805460ff19166003179055898d8f8d611e15565b634e487b7160e01b8f5260218a5260248ffd5b94505050611e5b84612c38565b946119c5565b611e696126fd565b6119ae565b634e487b7160e01b875260218252602487fd5b60649184519162461bcd60e51b8352820152601a60248201527f43616e6e6f7420756e7374616b65207a65726f20746f6b656e730000000000006044820152fd5b8284346102585781600319360112610258576020906007549051908152f35b828434610258578160031936011261025857602090516127108152f35b8284346102585781600319360112610258576020906005549051908152f35b8284346102585781600319360112610258576020906114a260ff6010541691518092611f5f565b9150346102e457826003193601126102e45760209250548152f35b906004821015611f6c5752565b634e487b7160e01b600052602160045260246000fd5b600435906001600160a01b0382168203611f9857565b600080fd5b6060906003190112611f9857600435906024356001600160a01b0381168103611f98579060443590565b6000546001600160a01b03163303611fdb57565b60405163118cdaa760e01b8152336004820152602490fd5b600080546001600160a01b0319811682556001600160a01b03167f8be0079c531659141344cd1fd0a4f28419497f9722a3daafe3b4186f6b6457e08280a3565b1561203a57565b60405162461bcd60e51b815260206004820152601f60248201527f43616c6c6572206973206e6f7420746865206465627420636f6e7472616374006044820152606490fd5b60a0810190811067ffffffffffffffff82111761209b57604052565b634e487b7160e01b600052604160045260246000fd5b6080810190811067ffffffffffffffff82111761209b57604052565b90601f8019910116810190811067ffffffffffffffff82111761209b57604052565b90816020910312611f9857518015158103611f985790565b1561210e57565b60405162461bcd60e51b8152602060048201526016602482015275151c985b9cd9995c881d1bdad95b9cc819985a5b195960521b6044820152606490fd5b9190820180921161215957565b634e487b7160e01b600052601160045260246000fd5b1561217657565b60405162461bcd60e51b815260206004820152602160248201527f556e61626c6520746f207365742072657761726420646973747269627574696f6044820152603760f91b6064820152608490fd5b9190820391821161215957565b9160ff6010541692600493848110156126b5576002036126a8575b600090600080918190829783976003830190815461268e575b82546001850155600554600285015560ff601054168381101561267b5760021461263a57600a54338752600960205260408720555b87612505575b8661246e575b8a801515998a6122e3575b505050916000805160206131b083398151915295949391836122a494546122d0575b600c549055600d549101556040519384933397859094939260609260808301968352602083015260408201520152565b0390a26122af575050565b60405191825260208201526000805160206131f083398151915260403392a2565b6122dc6107b584612b7a565b8355612274565b612710929b50906122f791989796986126ca565b601254919004996001600160a01b03918216906123148c8e6121c5565b604080516340c10f1960e01b8082523389830190815260208181019590955293969095909391928792849291839160009183910103925af190811561241357600091612451575b501561241f57908c929183612379575b50508c915097959697612252565b916123b6979593916000869c98969460125416926040519a8b958694859384528a840160209093929193604081019460018060a01b031681520152565b03925af1978815612413576000805160206131b0833981519152986122a4966123e8926000926123f6575b5050612bb6565b91935091958938808061236b565b61240c9250803d106107425761073481836120cd565b38806123e1565b6040513d6000823e3d90fd5b60405162461bcd60e51b8152808701859052600b60248201526a135a5b9d0819985a5b195960aa1b6044820152606490fd5b6124689150853d87116107425761073481836120cd565b3861235b565b935061271061247d878a6126ca565b0493600080808061248e898c6121c5565b335af1612499612bf8565b50156124c4578415612247576124bf600080808089865af16124b9612bf8565b50612bb6565b612247565b60405162461bcd60e51b8152602081850152601a60248201527910dbdb1b185d195c985b081d1c985b9cd9995c8819985a5b195960321b6044820152606490fd5b9450612710612514888a6126ca565b049460018060a01b03806001541661252c888b6121c5565b6040805163a9059cbb60e01b8082523389830190815260208181019590955293959094909391928692849291839160009183910103925af19081156124135760009161261d575b50156125e0578880612589575b50505050612241565b600154604080519485526001600160a01b038716898601908152602081019390935285938593921691839160009183910103925af1908115612413576125d7926000926123f6575050612bb6565b38808088612580565b60405162461bcd60e51b8152808701849052601660248201527514995dd85c99081d1c985b9cd9995c8819985a5b195960521b6044820152606490fd5b6126349150843d86116107425761073481836120cd565b38612573565b338652600960205260ff6001604088200154168381101561267b5760031461223b57338652600960205260408620600101805460ff1916600317905561223b565b634e487b7160e01b875260218452602487fd5b96509450975061269d81612c38565b999195909596612206565b6126b06126fd565b6121ed565b602185634e487b7160e01b6000525260246000fd5b8181029291811591840414171561215957565b81156126e7570490565b634e487b7160e01b600052601260045260246000fd5b60105460ff81166004811015611f6c5760018103612842575050600f5461273e61272782426121c5565b82600e54804211612824575b5050601154906126ca565b6003549182612751575b50505042600f55565b61275d600b548361214c565b600c549361276b85836126ca565b94670de0b6b3a764000095868102908082048814901517156121595786612795846127ad936126dd565b04926127a384600a5461214c565b9384600a556126ca565b9286840293808504881490151715612159577ffe3516168fa6f5423bf11c50d47de797100cdc025318602cde3110d3baddae2b96610cd16127f193612819966126dd565b600b556040519384934290859094939260609260808301968352602083015260408201520152565b0390a1388080612748565b61283b9250600260ff1960105416176010556121c5565b8238612733565b1561284a5750565b42600f556301e1338042019081421161215957600191600e5560ff191617601055565b1561287457565b606460405162461bcd60e51b815260206004820152602060248201527f526577617264206d7573742062652067726561746572207468616e207a65726f6044820152fd5b6128c381151561286d565b6003548015612a5d576001546040516323b872dd60e01b81523360048083019190915230602483015260448201859052926001600160a01b03909216919060208180606481010381600080975af1908115612a525790612929918491612a345750612107565b6129356006548561214c565b90600c5461294381846126ca565b91670de0b6b3a76400009283810290808204851490151715612a2157908361296e82612981946126dd565b0461297a81895461214c565b88556126ca565b82810290808204841490151715612a0e576129a1939291610cd1916126dd565b60065560ff6010541691808310156129fb5750507fde88a922e0d3b88b24e9623efeb464919c6bf9f66857a65e2bfcf2ce87a9433d916002602092036129ee575b604051908152a1600190565b6129f66126fd565b6129e2565b634e487b7160e01b825260219052602490fd5b634e487b7160e01b855260118652602485fd5b634e487b7160e01b865260118752602486fd5b612a4c915060203d81116107425761073481836120cd565b3861067b565b6040513d85823e3d90fd5b5050600090565b15612a6b57565b60405162461bcd60e51b815260206004820152601960248201527f496e76616c696420636f6c6c61746572616c20616d6f756e74000000000000006044820152606490fd5b612abb81151561286d565b612ac6813414612a64565b600354908115612a5d57612adc6007548261214c565b90600c54612aea81846126ca565b670de0b6b3a764000094858202918083048714901517156121595785612b1382612b28946126dd565b04612b208160055461214c565b6005556126ca565b9284840293808504861490151715612159577f39434c7ce7d70dbcb1fff3d0ea6f47500ac190d6bf4f681f54f64200a7a696b794610cd1612b6b936020966126dd565b600755604051908152a1600190565b90604051612b878161207f565b608060048294805484526001810154602085015260028101546040850152600381015460608501520154910152565b15612bbd57565b60405162461bcd60e51b8152602060048201526013602482015272119959481d1c985b9cd9995c8819985a5b1959606a1b6044820152606490fd5b3d15612c33573d9067ffffffffffffffff821161209b5760405191612c27601f8201601f1916602001846120cd565b82523d6000602084013e565b606090565b906000809160019233815260206009815260409160ff868483200154169060049182811015612ff857600314612ff0575b87820154600d5490818103612d7e575050612c8a825460018a0154906121c5565b612c96895480926126ca565b93670de0b6b3a76400009586860295808704881490151715612d6b57612cde83612cd989612cc98f60030154809b6126dd565b049d6002600554910154906121c5565b6126ca565b87810290808204891490151715612a0e57612cfa8789926126dd565b0499612d0a575b50505050505050565b612d2c9394959697985090612cd9916009600a549233885252852054906121c5565b9184830292808404861490151715612d5857505090612d4a916126dd565b049038808080808080612d01565b634e487b7160e01b825260119052602490fd5b634e487b7160e01b845260118552602484fd5b8291949381879b979452600885528383208451612d9a816120b1565b81548152612dce6003600184015493848a85015260028101549884019889520154926060830193845260018b0154906121c5565b90612ddb8a5480936126ca565b92670de0b6b3a76400009a8b8502948086048d1490151715612fdd5783612cd98260028f612e116003612e1d970154809b6126dd565b049c51910154906121c5565b8b8102908082048d1490151715612fdd578f90918f9998979695949392612e45868f926126dd565b0499612f80575b505051612e58916126ca565b898102908082048b1490151715612f6d578991612e74916126dd565b049660018301809311612f5a578214612f16575091868b838295899552600888522095838d5197612ea4896120b1565b80548952600181015480938a015260028101549e89019e8f526003015497606001978852612ed1916126ca565b04612edb9161214c565b995190612ee7916126ca565b04612ef19161214c565b95612efb57505050565b612f1393949291612f0c91516126ca565b049061214c565b90565b612f31949b50612f3f9550879250612f0c91508690546126ca565b9683612f0c846005546126ca565b94612f48575050565b90612f0c612f13939492600a546126ca565b634e487b7160e01b845260118252602484fd5b634e487b7160e01b855260118352602485fd5b612f9e929e508391612cd9915190338a5260098d52892054906121c5565b8a8102908082048c1490151715612fca57908a612fbe84612e58946126dd565b049c9091508e38612e4c565b634e487b7160e01b865260118452602486fd5b634e487b7160e01b885260118652602488fd5b955085612c69565b506021602492634e487b7160e01b835252fd5b6001600160a01b0316600090815260136020526040902060038101541561303c5761303590612c38565b9192909190565b50600090600090600090565b906080820191825192600d5480851460001461309f5750509091506130718151600c54906126ca565b90670de0b6b3a7640000918281029080820484149015171561215957606061309b920151906126dd565b0490565b600094855260086020526040916130e683872084516130bd816120b1565b6060600383549384845260018101546020850152600281015489850152015491015285516126ca565b670de0b6b3a7640000948582029180830487149015171561319b5785916060613111920151906126dd565b049181516001810180911161319b57146131885751600181018091116131745785839161309b9596975260086020522060606003845192613151846120b1565b8054958685526001820154602086015260028201549085015201549101526126ca565b634e487b7160e01b86526011600452602486fd5b50905061309b91929350600c54906126ca565b634e487b7160e01b88526011600452602488fdfe9e80c048bc588b388047ffc6e8153e7c11aa34312de7ed62e1858ff3a44ddce89e71bc8eea02a63969f509818f2dafb9254532904319f9dbda79b67bd34a5f3d336167da71383daaeda5f91dd438aed09513a5eba021483293f7cab23d054eaea26469706673582212200a4c6a690eb194b24733fbc2ff4cd9257745b9599a92e5d87894f97236297bed64736f6c63430008140033",
  "linkReferences": {},
  "deployedLinkReferences": {}
}