{
  "_format": "hh-sol-artifact-1",
  "contractName": "StableBaseCDP",
  "sourceName": "contracts/StableBaseCDP.sol",
  "abi": [
    {
      "inputs": [],
      "stateMutability": "nonpayable",
      "type": "constructor"
    },
    {
      "inputs": [
        {
          "internalType": "address",
          "name": "sender",
          "type": "address"
        },
        {
          "internalType": "uint256",
          "name": "tokenId",
          "type": "uint256"
        },
        {
          "internalType": "address",
          "name": "owner",
          "type": "address"
        }
      ],
      "name": "ERC721IncorrectOwner",
      "type": "error"
    },
    {
      "inputs": [
        {
          "internalType": "address",
          "name": "operator",
          "type": "address"
        },
        {
          "internalType": "uint256",
          "name": "tokenId",
          "type": "uint256"
        }
      ],
      "name": "ERC721InsufficientApproval",
      "type": "error"
    },
    {
      "inputs": [
        {
          "internalType": "address",
          "name": "approver",
          "type": "address"
        }
      ],
      "name": "ERC721InvalidApprover",
      "type": "error"
    },
    {
      "inputs": [
        {
          "internalType": "address",
          "name": "operator",
          "type": "address"
        }
      ],
      "name": "ERC721InvalidOperator",
      "type": "error"
    },
    {
      "inputs": [
        {
          "internalType": "address",
          "name": "owner",
          "type": "address"
        }
      ],
      "name": "ERC721InvalidOwner",
      "type": "error"
    },
    {
      "inputs": [
        {
          "internalType": "address",
          "name": "receiver",
          "type": "address"
        }
      ],
      "name": "ERC721InvalidReceiver",
      "type": "error"
    },
    {
      "inputs": [
        {
          "internalType": "address",
          "name": "sender",
          "type": "address"
        }
      ],
      "name": "ERC721InvalidSender",
      "type": "error"
    },
    {
      "inputs": [
        {
          "internalType": "uint256",
          "name": "tokenId",
          "type": "uint256"
        }
      ],
      "name": "ERC721NonexistentToken",
      "type": "error"
    },
    {
      "inputs": [
        {
          "internalType": "address",
          "name": "owner",
          "type": "address"
        }
      ],
      "name": "OwnableInvalidOwner",
      "type": "error"
    },
    {
      "inputs": [
        {
          "internalType": "address",
          "name": "account",
          "type": "address"
        }
      ],
      "name": "OwnableUnauthorizedAccount",
      "type": "error"
    },
    {
      "inputs": [],
      "name": "ReentrancyGuardReentrantCall",
      "type": "error"
    },
    {
      "anonymous": false,
      "inputs": [
        {
          "indexed": true,
          "internalType": "uint256",
          "name": "safeId",
          "type": "uint256"
        },
        {
          "indexed": false,
          "internalType": "uint256",
          "name": "amount",
          "type": "uint256"
        },
        {
          "indexed": false,
          "internalType": "uint256",
          "name": "newRatio",
          "type": "uint256"
        },
        {
          "indexed": false,
          "internalType": "uint256",
          "name": "totalCollateral",
          "type": "uint256"
        },
        {
          "indexed": false,
          "internalType": "uint256",
          "name": "totalDebt",
          "type": "uint256"
        }
      ],
      "name": "AddedCollateral",
      "type": "event"
    },
    {
      "anonymous": false,
      "inputs": [
        {
          "indexed": true,
          "internalType": "address",
          "name": "owner",
          "type": "address"
        },
        {
          "indexed": true,
          "internalType": "address",
          "name": "approved",
          "type": "address"
        },
        {
          "indexed": true,
          "internalType": "uint256",
          "name": "tokenId",
          "type": "uint256"
        }
      ],
      "name": "Approval",
      "type": "event"
    },
    {
      "anonymous": false,
      "inputs": [
        {
          "indexed": true,
          "internalType": "address",
          "name": "owner",
          "type": "address"
        },
        {
          "indexed": true,
          "internalType": "address",
          "name": "operator",
          "type": "address"
        },
        {
          "indexed": false,
          "internalType": "bool",
          "name": "approved",
          "type": "bool"
        }
      ],
      "name": "ApprovalForAll",
      "type": "event"
    },
    {
      "anonymous": false,
      "inputs": [
        {
          "indexed": false,
          "internalType": "uint256",
          "name": "_fromTokenId",
          "type": "uint256"
        },
        {
          "indexed": false,
          "internalType": "uint256",
          "name": "_toTokenId",
          "type": "uint256"
        }
      ],
      "name": "BatchMetadataUpdate",
      "type": "event"
    },
    {
      "anonymous": false,
      "inputs": [
        {
          "indexed": true,
          "internalType": "uint256",
          "name": "safeId",
          "type": "uint256"
        },
        {
          "indexed": false,
          "internalType": "uint256",
          "name": "amount",
          "type": "uint256"
        },
        {
          "indexed": false,
          "internalType": "uint256",
          "name": "weight",
          "type": "uint256"
        },
        {
          "indexed": false,
          "internalType": "uint256",
          "name": "totalCollateral",
          "type": "uint256"
        },
        {
          "indexed": false,
          "internalType": "uint256",
          "name": "totalDebt",
          "type": "uint256"
        },
        {
          "indexed": false,
          "internalType": "uint256",
          "name": "nearestSpotInRedemptionQueue",
          "type": "uint256"
        },
        {
          "indexed": false,
          "internalType": "uint256",
          "name": "nearestSpotInLiquidationQueue",
          "type": "uint256"
        }
      ],
      "name": "Borrowed",
      "type": "event"
    },
    {
      "anonymous": false,
      "inputs": [
        {
          "indexed": false,
          "internalType": "address",
          "name": "priceFeed",
          "type": "address"
        },
        {
          "indexed": false,
          "internalType": "uint256",
          "name": "price",
          "type": "uint256"
        }
      ],
      "name": "ConnectedToPriceFeed",
      "type": "event"
    },
    {
      "anonymous": false,
      "inputs": [
        {
          "indexed": true,
          "internalType": "uint256",
          "name": "safeId",
          "type": "uint256"
        },
        {
          "indexed": false,
          "internalType": "uint256",
          "name": "fee",
          "type": "uint256"
        },
        {
          "indexed": false,
          "internalType": "bool",
          "name": "mint",
          "type": "bool"
        },
        {
          "indexed": false,
          "internalType": "uint256",
          "name": "sbrStakersFee",
          "type": "uint256"
        },
        {
          "indexed": false,
          "internalType": "uint256",
          "name": "stabilityPoolFee",
          "type": "uint256"
        },
        {
          "indexed": false,
          "internalType": "uint256",
          "name": "canRefund",
          "type": "uint256"
        }
      ],
      "name": "FeeDistributed",
      "type": "event"
    },
    {
      "anonymous": false,
      "inputs": [
        {
          "indexed": true,
          "internalType": "uint256",
          "name": "safeId",
          "type": "uint256"
        },
        {
          "indexed": false,
          "internalType": "uint256",
          "name": "amount",
          "type": "uint256"
        }
      ],
      "name": "FeeRefund",
      "type": "event"
    },
    {
      "anonymous": false,
      "inputs": [
        {
          "indexed": true,
          "internalType": "uint256",
          "name": "safeId",
          "type": "uint256"
        },
        {
          "indexed": false,
          "internalType": "uint256",
          "name": "topupRate",
          "type": "uint256"
        },
        {
          "indexed": false,
          "internalType": "uint256",
          "name": "feePaid",
          "type": "uint256"
        },
        {
          "indexed": false,
          "internalType": "uint256",
          "name": "newWeight",
          "type": "uint256"
        }
      ],
      "name": "FeeTopup",
      "type": "event"
    },
    {
      "anonymous": false,
      "inputs": [
        {
          "indexed": true,
          "internalType": "uint256",
          "name": "safeId",
          "type": "uint256"
        },
        {
          "indexed": false,
          "internalType": "uint256",
          "name": "borrowAmount",
          "type": "uint256"
        },
        {
          "indexed": false,
          "internalType": "uint256",
          "name": "collateral",
          "type": "uint256"
        },
        {
          "indexed": false,
          "internalType": "uint256",
          "name": "totalCollateral",
          "type": "uint256"
        },
        {
          "indexed": false,
          "internalType": "uint256",
          "name": "totalDebt",
          "type": "uint256"
        }
      ],
      "name": "LiquidatedUsingSecondaryMechanism",
      "type": "event"
    },
    {
      "anonymous": false,
      "inputs": [
        {
          "indexed": true,
          "internalType": "uint256",
          "name": "safeId",
          "type": "uint256"
        },
        {
          "indexed": false,
          "internalType": "uint256",
          "name": "borrowAmount",
          "type": "uint256"
        },
        {
          "indexed": false,
          "internalType": "uint256",
          "name": "collateral",
          "type": "uint256"
        },
        {
          "indexed": false,
          "internalType": "uint256",
          "name": "totalCollateral",
          "type": "uint256"
        },
        {
          "indexed": false,
          "internalType": "uint256",
          "name": "totalDebt",
          "type": "uint256"
        }
      ],
      "name": "LiquidatedUsingStabilityPool",
      "type": "event"
    },
    {
      "anonymous": false,
      "inputs": [
        {
          "indexed": true,
          "internalType": "uint256",
          "name": "safeId",
          "type": "uint256"
        },
        {
          "indexed": false,
          "internalType": "address",
          "name": "receiver",
          "type": "address"
        },
        {
          "indexed": false,
          "internalType": "uint256",
          "name": "feePaid",
          "type": "uint256"
        }
      ],
      "name": "LiquidationFeePaid",
      "type": "event"
    },
    {
      "anonymous": false,
      "inputs": [
        {
          "indexed": true,
          "internalType": "uint256",
          "name": "safeId",
          "type": "uint256"
        },
        {
          "indexed": false,
          "internalType": "uint256",
          "name": "gasCompensated",
          "type": "uint256"
        },
        {
          "indexed": false,
          "internalType": "address",
          "name": "receiver",
          "type": "address"
        },
        {
          "indexed": false,
          "internalType": "uint256",
          "name": "feePaid",
          "type": "uint256"
        }
      ],
      "name": "LiquidationGasCompensationPaid",
      "type": "event"
    },
    {
      "anonymous": false,
      "inputs": [
        {
          "indexed": true,
          "internalType": "uint256",
          "name": "safeId",
          "type": "uint256"
        },
        {
          "indexed": false,
          "internalType": "uint256",
          "name": "newRatio",
          "type": "uint256"
        },
        {
          "indexed": false,
          "internalType": "uint256",
          "name": "nextNode",
          "type": "uint256"
        }
      ],
      "name": "LiquidationQueueUpdated",
      "type": "event"
    },
    {
      "anonymous": false,
      "inputs": [
        {
          "indexed": false,
          "internalType": "uint256",
          "name": "_tokenId",
          "type": "uint256"
        }
      ],
      "name": "MetadataUpdate",
      "type": "event"
    },
    {
      "anonymous": false,
      "inputs": [
        {
          "indexed": true,
          "internalType": "uint256",
          "name": "safeId",
          "type": "uint256"
        },
        {
          "indexed": true,
          "internalType": "address",
          "name": "owner",
          "type": "address"
        },
        {
          "indexed": false,
          "internalType": "uint256",
          "name": "amount",
          "type": "uint256"
        },
        {
          "indexed": false,
          "internalType": "uint256",
          "name": "totalCollateral",
          "type": "uint256"
        },
        {
          "indexed": false,
          "internalType": "uint256",
          "name": "totalDebt",
          "type": "uint256"
        }
      ],
      "name": "OpenSafe",
      "type": "event"
    },
    {
      "anonymous": false,
      "inputs": [
        {
          "indexed": true,
          "internalType": "uint256",
          "name": "redemptionId",
          "type": "uint256"
        },
        {
          "indexed": true,
          "internalType": "uint256",
          "name": "safeId",
          "type": "uint256"
        },
        {
          "indexed": false,
          "internalType": "uint256",
          "name": "feePaid",
          "type": "uint256"
        }
      ],
      "name": "OwnerFeePaid",
      "type": "event"
    },
    {
      "anonymous": false,
      "inputs": [
        {
          "indexed": true,
          "internalType": "uint256",
          "name": "redemptionId",
          "type": "uint256"
        },
        {
          "indexed": false,
          "internalType": "uint256",
          "name": "feePaid",
          "type": "uint256"
        }
      ],
      "name": "OwnerRedemptionFeeDistributed",
      "type": "event"
    },
    {
      "anonymous": false,
      "inputs": [
        {
          "indexed": true,
          "internalType": "uint256",
          "name": "redemptionId",
          "type": "uint256"
        },
        {
          "indexed": true,
          "internalType": "uint256",
          "name": "safeId",
          "type": "uint256"
        },
        {
          "indexed": false,
          "internalType": "uint256",
          "name": "refund",
          "type": "uint256"
        },
        {
          "indexed": false,
          "internalType": "uint256",
          "name": "fee",
          "type": "uint256"
        }
      ],
      "name": "OwnerRefunded",
      "type": "event"
    },
    {
      "anonymous": false,
      "inputs": [
        {
          "indexed": true,
          "internalType": "address",
          "name": "previousOwner",
          "type": "address"
        },
        {
          "indexed": true,
          "internalType": "address",
          "name": "newOwner",
          "type": "address"
        }
      ],
      "name": "OwnershipTransferred",
      "type": "event"
    },
    {
      "anonymous": false,
      "inputs": [
        {
          "indexed": true,
          "internalType": "uint256",
          "name": "redemptionId",
          "type": "uint256"
        },
        {
          "indexed": true,
          "internalType": "uint256",
          "name": "safeId",
          "type": "uint256"
        },
        {
          "indexed": false,
          "internalType": "uint256",
          "name": "amount",
          "type": "uint256"
        },
        {
          "indexed": false,
          "internalType": "uint256",
          "name": "collateral",
          "type": "uint256"
        },
        {
          "indexed": false,
          "internalType": "uint256",
          "name": "refundedToOwner",
          "type": "uint256"
        },
        {
          "indexed": false,
          "internalType": "uint256",
          "name": "remaningToRedeem",
          "type": "uint256"
        }
      ],
      "name": "Redeemed",
      "type": "event"
    },
    {
      "anonymous": false,
      "inputs": [
        {
          "indexed": true,
          "internalType": "uint256",
          "name": "redemptionId",
          "type": "uint256"
        },
        {
          "indexed": false,
          "internalType": "uint256",
          "name": "amount",
          "type": "uint256"
        },
        {
          "indexed": false,
          "internalType": "uint256",
          "name": "redeemedCollateral",
          "type": "uint256"
        },
        {
          "indexed": false,
          "internalType": "uint256",
          "name": "price",
          "type": "uint256"
        },
        {
          "indexed": false,
          "internalType": "uint256",
          "name": "totalCollateral",
          "type": "uint256"
        },
        {
          "indexed": false,
          "internalType": "uint256",
          "name": "totalDebt",
          "type": "uint256"
        }
      ],
      "name": "RedeemedBatch",
      "type": "event"
    },
    {
      "anonymous": false,
      "inputs": [
        {
          "indexed": true,
          "internalType": "uint256",
          "name": "redemptionId",
          "type": "uint256"
        },
        {
          "indexed": true,
          "internalType": "uint256",
          "name": "safeId",
          "type": "uint256"
        },
        {
          "indexed": false,
          "internalType": "uint256",
          "name": "collateralToRedeem",
          "type": "uint256"
        },
        {
          "indexed": false,
          "internalType": "uint256",
          "name": "collateralToReturn",
          "type": "uint256"
        },
        {
          "indexed": false,
          "internalType": "uint256",
          "name": "feePaid",
          "type": "uint256"
        }
      ],
      "name": "RedeemerFeePaid",
      "type": "event"
    },
    {
      "anonymous": false,
      "inputs": [
        {
          "indexed": true,
          "internalType": "uint256",
          "name": "redemptionId",
          "type": "uint256"
        },
        {
          "indexed": false,
          "internalType": "uint256",
          "name": "feePaid",
          "type": "uint256"
        }
      ],
      "name": "RedeemerRedemptionFeeDistributed",
      "type": "event"
    },
    {
      "anonymous": false,
      "inputs": [
        {
          "indexed": true,
          "internalType": "uint256",
          "name": "safeId",
          "type": "uint256"
        },
        {
          "indexed": false,
          "internalType": "uint256",
          "name": "newWeight",
          "type": "uint256"
        },
        {
          "indexed": false,
          "internalType": "uint256",
          "name": "prevNode",
          "type": "uint256"
        }
      ],
      "name": "RedemptionQueueUpdated",
      "type": "event"
    },
    {
      "anonymous": false,
      "inputs": [
        {
          "indexed": true,
          "internalType": "uint256",
          "name": "safeId",
          "type": "uint256"
        },
        {
          "components": [
            {
              "internalType": "uint256",
              "name": "collateralAmount",
              "type": "uint256"
            },
            {
              "internalType": "uint256",
              "name": "borrowedAmount",
              "type": "uint256"
            },
            {
              "internalType": "uint256",
              "name": "weight",
              "type": "uint256"
            },
            {
              "internalType": "uint256",
              "name": "totalBorrowedAmount",
              "type": "uint256"
            },
            {
              "internalType": "uint256",
              "name": "feePaid",
              "type": "uint256"
            }
          ],
          "indexed": false,
          "internalType": "struct IStableBase.Safe",
          "name": "safe",
          "type": "tuple"
        }
      ],
      "name": "RemovedSafe",
      "type": "event"
    },
    {
      "anonymous": false,
      "inputs": [
        {
          "indexed": true,
          "internalType": "uint256",
          "name": "safeId",
          "type": "uint256"
        },
        {
          "indexed": false,
          "internalType": "uint256",
          "name": "amount",
          "type": "uint256"
        },
        {
          "indexed": false,
          "internalType": "uint256",
          "name": "newRatio",
          "type": "uint256"
        },
        {
          "indexed": false,
          "internalType": "uint256",
          "name": "totalCollateral",
          "type": "uint256"
        },
        {
          "indexed": false,
          "internalType": "uint256",
          "name": "totalDebt",
          "type": "uint256"
        }
      ],
      "name": "Repaid",
      "type": "event"
    },
    {
      "anonymous": false,
      "inputs": [
        {
          "indexed": true,
          "internalType": "uint256",
          "name": "safeId",
          "type": "uint256"
        },
        {
          "indexed": false,
          "internalType": "uint256",
          "name": "refundedCollateral",
          "type": "uint256"
        },
        {
          "indexed": false,
          "internalType": "uint256",
          "name": "totalCollateral",
          "type": "uint256"
        },
        {
          "indexed": false,
          "internalType": "uint256",
          "name": "totalDebt",
          "type": "uint256"
        }
      ],
      "name": "SafeClosed",
      "type": "event"
    },
    {
      "anonymous": false,
      "inputs": [
        {
          "indexed": true,
          "internalType": "uint256",
          "name": "safeId",
          "type": "uint256"
        }
      ],
      "name": "SafeRemovedFromLiquidationQueue",
      "type": "event"
    },
    {
      "anonymous": false,
      "inputs": [
        {
          "indexed": true,
          "internalType": "uint256",
          "name": "safeId",
          "type": "uint256"
        }
      ],
      "name": "SafeRemovedFromRedemptionQueue",
      "type": "event"
    },
    {
      "anonymous": false,
      "inputs": [
        {
          "indexed": true,
          "internalType": "uint256",
          "name": "safeId",
          "type": "uint256"
        },
        {
          "indexed": false,
          "internalType": "uint256",
          "name": "collateralAmount",
          "type": "uint256"
        },
        {
          "indexed": false,
          "internalType": "uint256",
          "name": "debtAmount",
          "type": "uint256"
        },
        {
          "indexed": false,
          "internalType": "uint256",
          "name": "collateralIncrease",
          "type": "uint256"
        },
        {
          "indexed": false,
          "internalType": "uint256",
          "name": "debtIncrease",
          "type": "uint256"
        },
        {
          "indexed": false,
          "internalType": "uint256",
          "name": "totalCollateral",
          "type": "uint256"
        },
        {
          "indexed": false,
          "internalType": "uint256",
          "name": "totalDebt",
          "type": "uint256"
        }
      ],
      "name": "SafeUpdated",
      "type": "event"
    },
    {
      "anonymous": false,
      "inputs": [
        {
          "indexed": true,
          "internalType": "address",
          "name": "from",
          "type": "address"
        },
        {
          "indexed": true,
          "internalType": "address",
          "name": "to",
          "type": "address"
        },
        {
          "indexed": true,
          "internalType": "uint256",
          "name": "tokenId",
          "type": "uint256"
        }
      ],
      "name": "Transfer",
      "type": "event"
    },
    {
      "anonymous": false,
      "inputs": [
        {
          "indexed": true,
          "internalType": "uint256",
          "name": "safeId",
          "type": "uint256"
        },
        {
          "indexed": false,
          "internalType": "uint256",
          "name": "amount",
          "type": "uint256"
        },
        {
          "indexed": false,
          "internalType": "uint256",
          "name": "totalCollateral",
          "type": "uint256"
        },
        {
          "indexed": false,
          "internalType": "uint256",
          "name": "totalDebt",
          "type": "uint256"
        }
      ],
      "name": "WithdrawnCollateral",
      "type": "event"
    },
    {
      "inputs": [],
      "name": "BOOTSTRAP_MODE_DEBT_THRESHOLD",
      "outputs": [
        {
          "internalType": "uint256",
          "name": "",
          "type": "uint256"
        }
      ],
      "stateMutability": "view",
      "type": "function"
    },
    {
      "inputs": [],
      "name": "EXTRA_GAS_COMPENSATION",
      "outputs": [
        {
          "internalType": "uint256",
          "name": "",
          "type": "uint256"
        }
      ],
      "stateMutability": "view",
      "type": "function"
    },
    {
      "inputs": [],
      "name": "MINIMUM_DEBT",
      "outputs": [
        {
          "internalType": "uint256",
          "name": "",
          "type": "uint256"
        }
      ],
      "stateMutability": "view",
      "type": "function"
    },
    {
      "inputs": [],
      "name": "PROTOCOL_MODE",
      "outputs": [
        {
          "internalType": "enum SBStructs.Mode",
          "name": "",
          "type": "uint8"
        }
      ],
      "stateMutability": "view",
      "type": "function"
    },
    {
      "inputs": [],
      "name": "REDEMPTION_BASE_FEE",
      "outputs": [
        {
          "internalType": "uint256",
          "name": "",
          "type": "uint256"
        }
      ],
      "stateMutability": "view",
      "type": "function"
    },
    {
      "inputs": [],
      "name": "REDEMPTION_LIQUIDATION_FEE",
      "outputs": [
        {
          "internalType": "uint256",
          "name": "",
          "type": "uint256"
        }
      ],
      "stateMutability": "view",
      "type": "function"
    },
    {
      "inputs": [],
      "name": "SBR_FEE_REWARD",
      "outputs": [
        {
          "internalType": "uint256",
          "name": "",
          "type": "uint256"
        }
      ],
      "stateMutability": "view",
      "type": "function"
    },
    {
      "inputs": [
        {
          "internalType": "uint256",
          "name": "safeId",
          "type": "uint256"
        },
        {
          "internalType": "uint256",
          "name": "amount",
          "type": "uint256"
        },
        {
          "internalType": "uint256",
          "name": "nearestSpotInLiquidationQueue",
          "type": "uint256"
        }
      ],
      "name": "addCollateral",
      "outputs": [],
      "stateMutability": "payable",
      "type": "function"
    },
    {
      "inputs": [
        {
          "internalType": "uint256",
          "name": "safeId",
          "type": "uint256"
        },
        {
          "internalType": "uint256",
          "name": "nearestSpotInLiquidationQueue",
          "type": "uint256"
        }
      ],
      "name": "adjustPosition",
      "outputs": [],
      "stateMutability": "nonpayable",
      "type": "function"
    },
    {
      "inputs": [
        {
          "internalType": "address",
          "name": "to",
          "type": "address"
        },
        {
          "internalType": "uint256",
          "name": "tokenId",
          "type": "uint256"
        }
      ],
      "name": "approve",
      "outputs": [],
      "stateMutability": "nonpayable",
      "type": "function"
    },
    {
      "inputs": [
        {
          "internalType": "address",
          "name": "owner",
          "type": "address"
        }
      ],
      "name": "balanceOf",
      "outputs": [
        {
          "internalType": "uint256",
          "name": "",
          "type": "uint256"
        }
      ],
      "stateMutability": "view",
      "type": "function"
    },
    {
      "inputs": [
        {
          "internalType": "uint256",
          "name": "safeId",
          "type": "uint256"
        },
        {
          "internalType": "uint256",
          "name": "amount",
          "type": "uint256"
        },
        {
          "internalType": "uint256",
          "name": "shieldingRate",
          "type": "uint256"
        },
        {
          "internalType": "uint256",
          "name": "nearestSpotInLiquidationQueue",
          "type": "uint256"
        },
        {
          "internalType": "uint256",
          "name": "nearestSpotInRedemptionQueue",
          "type": "uint256"
        }
      ],
      "name": "borrow",
      "outputs": [],
      "stateMutability": "nonpayable",
      "type": "function"
    },
    {
      "inputs": [
        {
          "components": [
            {
              "internalType": "uint256",
              "name": "collateralAmount",
              "type": "uint256"
            },
            {
              "internalType": "uint256",
              "name": "borrowedAmount",
              "type": "uint256"
            },
            {
              "internalType": "uint256",
              "name": "weight",
              "type": "uint256"
            },
            {
              "internalType": "uint256",
              "name": "totalBorrowedAmount",
              "type": "uint256"
            },
            {
              "internalType": "uint256",
              "name": "feePaid",
              "type": "uint256"
            }
          ],
          "internalType": "struct IStableBase.Safe",
          "name": "safe",
          "type": "tuple"
        },
        {
          "internalType": "uint256",
          "name": "amountToRedeem",
          "type": "uint256"
        },
        {
          "internalType": "uint256",
          "name": "collateralPrice",
          "type": "uint256"
        }
      ],
      "name": "calculateRedemptionAmountsAndFee",
      "outputs": [
        {
          "internalType": "bool",
          "name": "borrowMode",
          "type": "bool"
        },
        {
          "internalType": "uint256",
          "name": "_collateralToRedeem",
          "type": "uint256"
        },
        {
          "internalType": "uint256",
          "name": "_amountToRedeem",
          "type": "uint256"
        },
        {
          "internalType": "uint256",
          "name": "_amountToRefund",
          "type": "uint256"
        },
        {
          "internalType": "uint256",
          "name": "_ownerFee",
          "type": "uint256"
        },
        {
          "internalType": "uint256",
          "name": "_redeemerFee",
          "type": "uint256"
        }
      ],
      "stateMutability": "view",
      "type": "function"
    },
    {
      "inputs": [
        {
          "internalType": "uint256",
          "name": "safeId",
          "type": "uint256"
        }
      ],
      "name": "closeSafe",
      "outputs": [],
      "stateMutability": "nonpayable",
      "type": "function"
    },
    {
      "inputs": [],
      "name": "collateralLoss",
      "outputs": [
        {
          "internalType": "uint256",
          "name": "",
          "type": "uint256"
        }
      ],
      "stateMutability": "view",
      "type": "function"
    },
    {
      "inputs": [],
      "name": "cumulativeCollateralPerUnitCollateral",
      "outputs": [
        {
          "internalType": "uint256",
          "name": "",
          "type": "uint256"
        }
      ],
      "stateMutability": "view",
      "type": "function"
    },
    {
      "inputs": [],
      "name": "cumulativeDebtPerUnitCollateral",
      "outputs": [
        {
          "internalType": "uint256",
          "name": "",
          "type": "uint256"
        }
      ],
      "stateMutability": "view",
      "type": "function"
    },
    {
      "inputs": [],
      "name": "debtLoss",
      "outputs": [
        {
          "internalType": "uint256",
          "name": "",
          "type": "uint256"
        }
      ],
      "stateMutability": "view",
      "type": "function"
    },
    {
      "inputs": [],
      "name": "dfirTokenStaking",
      "outputs": [
        {
          "internalType": "contract IDFIRStaking",
          "name": "",
          "type": "address"
        }
      ],
      "stateMutability": "view",
      "type": "function"
    },
    {
      "inputs": [
        {
          "internalType": "uint256",
          "name": "safeId",
          "type": "uint256"
        },
        {
          "internalType": "uint256",
          "name": "topupRate",
          "type": "uint256"
        },
        {
          "internalType": "uint256",
          "name": "nearestSpotInRedemptionQueue",
          "type": "uint256"
        }
      ],
      "name": "feeTopup",
      "outputs": [],
      "stateMutability": "nonpayable",
      "type": "function"
    },
    {
      "inputs": [
        {
          "internalType": "uint256",
          "name": "tokenId",
          "type": "uint256"
        }
      ],
      "name": "getApproved",
      "outputs": [
        {
          "internalType": "address",
          "name": "",
          "type": "address"
        }
      ],
      "stateMutability": "view",
      "type": "function"
    },
    {
      "inputs": [
        {
          "internalType": "uint256",
          "name": "safeId",
          "type": "uint256"
        }
      ],
      "name": "getInactiveDebtAndCollateral",
      "outputs": [
        {
          "internalType": "uint256",
          "name": "",
          "type": "uint256"
        },
        {
          "internalType": "uint256",
          "name": "",
          "type": "uint256"
        }
      ],
      "stateMutability": "view",
      "type": "function"
    },
    {
      "inputs": [
        {
          "internalType": "address",
          "name": "owner",
          "type": "address"
        },
        {
          "internalType": "address",
          "name": "operator",
          "type": "address"
        }
      ],
      "name": "isApprovedForAll",
      "outputs": [
        {
          "internalType": "bool",
          "name": "",
          "type": "bool"
        }
      ],
      "stateMutability": "view",
      "type": "function"
    },
    {
      "inputs": [],
      "name": "liquidate",
      "outputs": [],
      "stateMutability": "nonpayable",
      "type": "function"
    },
    {
      "inputs": [
        {
          "internalType": "uint256",
          "name": "safeId",
          "type": "uint256"
        }
      ],
      "name": "liquidateSafe",
      "outputs": [],
      "stateMutability": "nonpayable",
      "type": "function"
    },
    {
      "inputs": [
        {
          "internalType": "uint256",
          "name": "",
          "type": "uint256"
        }
      ],
      "name": "liquidationSnapshots",
      "outputs": [
        {
          "internalType": "uint256",
          "name": "collateralPerCollateralSnapshot",
          "type": "uint256"
        },
        {
          "internalType": "uint256",
          "name": "debtPerCollateralSnapshot",
          "type": "uint256"
        }
      ],
      "stateMutability": "view",
      "type": "function"
    },
    {
      "inputs": [],
      "name": "mode",
      "outputs": [
        {
          "internalType": "enum SBStructs.Mode",
          "name": "",
          "type": "uint8"
        }
      ],
      "stateMutability": "view",
      "type": "function"
    },
    {
      "inputs": [],
      "name": "name",
      "outputs": [
        {
          "internalType": "string",
          "name": "",
          "type": "string"
        }
      ],
      "stateMutability": "view",
      "type": "function"
    },
    {
      "inputs": [
        {
          "internalType": "uint256",
          "name": "_safeId",
          "type": "uint256"
        },
        {
          "internalType": "uint256",
          "name": "_amount",
          "type": "uint256"
        }
      ],
      "name": "openSafe",
      "outputs": [],
      "stateMutability": "payable",
      "type": "function"
    },
    {
      "inputs": [],
      "name": "owner",
      "outputs": [
        {
          "internalType": "address",
          "name": "",
          "type": "address"
        }
      ],
      "stateMutability": "view",
      "type": "function"
    },
    {
      "inputs": [
        {
          "internalType": "uint256",
          "name": "tokenId",
          "type": "uint256"
        }
      ],
      "name": "ownerOf",
      "outputs": [
        {
          "internalType": "address",
          "name": "",
          "type": "address"
        }
      ],
      "stateMutability": "view",
      "type": "function"
    },
    {
      "inputs": [],
      "name": "priceOracle",
      "outputs": [
        {
          "internalType": "contract IPriceOracle",
          "name": "",
          "type": "address"
        }
      ],
      "stateMutability": "view",
      "type": "function"
    },
    {
      "inputs": [
        {
          "internalType": "uint256",
          "name": "amount",
          "type": "uint256"
        },
        {
          "internalType": "uint256",
          "name": "nearestSpotInLiquidationQueue",
          "type": "uint256"
        }
      ],
      "name": "redeem",
      "outputs": [],
      "stateMutability": "nonpayable",
      "type": "function"
    },
    {
      "inputs": [],
      "name": "renounceOwnership",
      "outputs": [],
      "stateMutability": "nonpayable",
      "type": "function"
    },
    {
      "inputs": [
        {
          "internalType": "uint256",
          "name": "safeId",
          "type": "uint256"
        },
        {
          "internalType": "uint256",
          "name": "amount",
          "type": "uint256"
        },
        {
          "internalType": "uint256",
          "name": "nearestSpotInLiquidationQueue",
          "type": "uint256"
        }
      ],
      "name": "repay",
      "outputs": [],
      "stateMutability": "nonpayable",
      "type": "function"
    },
    {
      "inputs": [
        {
          "internalType": "address",
          "name": "from",
          "type": "address"
        },
        {
          "internalType": "address",
          "name": "to",
          "type": "address"
        },
        {
          "internalType": "uint256",
          "name": "tokenId",
          "type": "uint256"
        }
      ],
      "name": "safeTransferFrom",
      "outputs": [],
      "stateMutability": "nonpayable",
      "type": "function"
    },
    {
      "inputs": [
        {
          "internalType": "address",
          "name": "from",
          "type": "address"
        },
        {
          "internalType": "address",
          "name": "to",
          "type": "address"
        },
        {
          "internalType": "uint256",
          "name": "tokenId",
          "type": "uint256"
        },
        {
          "internalType": "bytes",
          "name": "data",
          "type": "bytes"
        }
      ],
      "name": "safeTransferFrom",
      "outputs": [],
      "stateMutability": "nonpayable",
      "type": "function"
    },
    {
      "inputs": [
        {
          "internalType": "uint256",
          "name": "",
          "type": "uint256"
        }
      ],
      "name": "safes",
      "outputs": [
        {
          "internalType": "uint256",
          "name": "collateralAmount",
          "type": "uint256"
        },
        {
          "internalType": "uint256",
          "name": "borrowedAmount",
          "type": "uint256"
        },
        {
          "internalType": "uint256",
          "name": "weight",
          "type": "uint256"
        },
        {
          "internalType": "uint256",
          "name": "totalBorrowedAmount",
          "type": "uint256"
        },
        {
          "internalType": "uint256",
          "name": "feePaid",
          "type": "uint256"
        }
      ],
      "stateMutability": "view",
      "type": "function"
    },
    {
      "inputs": [],
      "name": "safesOrderedForLiquidation",
      "outputs": [
        {
          "internalType": "contract IDoublyLinkedList",
          "name": "",
          "type": "address"
        }
      ],
      "stateMutability": "view",
      "type": "function"
    },
    {
      "inputs": [],
      "name": "safesOrderedForRedemption",
      "outputs": [
        {
          "internalType": "contract IDoublyLinkedList",
          "name": "",
          "type": "address"
        }
      ],
      "stateMutability": "view",
      "type": "function"
    },
    {
      "inputs": [],
      "name": "sbdToken",
      "outputs": [
        {
          "internalType": "contract IMintableToken",
          "name": "",
          "type": "address"
        }
      ],
      "stateMutability": "view",
      "type": "function"
    },
    {
      "inputs": [],
      "name": "sbrStakingPoolCanReceiveRewards",
      "outputs": [
        {
          "internalType": "bool",
          "name": "",
          "type": "bool"
        }
      ],
      "stateMutability": "view",
      "type": "function"
    },
    {
      "inputs": [
        {
          "internalType": "address",
          "name": "_sbdToken",
          "type": "address"
        },
        {
          "internalType": "address",
          "name": "_priceOracle",
          "type": "address"
        },
        {
          "internalType": "address",
          "name": "_stabilityPool",
          "type": "address"
        },
        {
          "internalType": "address",
          "name": "_dfirTokenStaking",
          "type": "address"
        },
        {
          "internalType": "address",
          "name": "_safesOrderedForLiquidation",
          "type": "address"
        },
        {
          "internalType": "address",
          "name": "_safesOrderedForRedemption",
          "type": "address"
        }
      ],
      "name": "setAddresses",
      "outputs": [],
      "stateMutability": "nonpayable",
      "type": "function"
    },
    {
      "inputs": [
        {
          "internalType": "address",
          "name": "operator",
          "type": "address"
        },
        {
          "internalType": "bool",
          "name": "approved",
          "type": "bool"
        }
      ],
      "name": "setApprovalForAll",
      "outputs": [],
      "stateMutability": "nonpayable",
      "type": "function"
    },
    {
      "inputs": [
        {
          "internalType": "bool",
          "name": "canReceiveRewards",
          "type": "bool"
        }
      ],
      "name": "setCanSBRStakingPoolReceiveRewards",
      "outputs": [
        {
          "internalType": "bool",
          "name": "",
          "type": "bool"
        }
      ],
      "stateMutability": "nonpayable",
      "type": "function"
    },
    {
      "inputs": [
        {
          "internalType": "bool",
          "name": "canReceiveRewards",
          "type": "bool"
        }
      ],
      "name": "setCanStabilityPoolReceiveRewards",
      "outputs": [
        {
          "internalType": "bool",
          "name": "",
          "type": "bool"
        }
      ],
      "stateMutability": "nonpayable",
      "type": "function"
    },
    {
      "inputs": [],
      "name": "stabilityPool",
      "outputs": [
        {
          "internalType": "contract IStabilityPool",
          "name": "",
          "type": "address"
        }
      ],
      "stateMutability": "view",
      "type": "function"
    },
    {
      "inputs": [],
      "name": "stabilityPoolCanReceiveRewards",
      "outputs": [
        {
          "internalType": "bool",
          "name": "",
          "type": "bool"
        }
      ],
      "stateMutability": "view",
      "type": "function"
    },
    {
      "inputs": [
        {
          "internalType": "bytes4",
          "name": "interfaceId",
          "type": "bytes4"
        }
      ],
      "name": "supportsInterface",
      "outputs": [
        {
          "internalType": "bool",
          "name": "",
          "type": "bool"
        }
      ],
      "stateMutability": "view",
      "type": "function"
    },
    {
      "inputs": [],
      "name": "symbol",
      "outputs": [
        {
          "internalType": "string",
          "name": "",
          "type": "string"
        }
      ],
      "stateMutability": "view",
      "type": "function"
    },
    {
      "inputs": [
        {
          "internalType": "uint256",
          "name": "tokenId",
          "type": "uint256"
        }
      ],
      "name": "tokenURI",
      "outputs": [
        {
          "internalType": "string",
          "name": "",
          "type": "string"
        }
      ],
      "stateMutability": "view",
      "type": "function"
    },
    {
      "inputs": [],
      "name": "totalCollateral",
      "outputs": [
        {
          "internalType": "uint256",
          "name": "",
          "type": "uint256"
        }
      ],
      "stateMutability": "view",
      "type": "function"
    },
    {
      "inputs": [],
      "name": "totalDebt",
      "outputs": [
        {
          "internalType": "uint256",
          "name": "",
          "type": "uint256"
        }
      ],
      "stateMutability": "view",
      "type": "function"
    },
    {
      "inputs": [
        {
          "internalType": "address",
          "name": "from",
          "type": "address"
        },
        {
          "internalType": "address",
          "name": "to",
          "type": "address"
        },
        {
          "internalType": "uint256",
          "name": "tokenId",
          "type": "uint256"
        }
      ],
      "name": "transferFrom",
      "outputs": [],
      "stateMutability": "nonpayable",
      "type": "function"
    },
    {
      "inputs": [
        {
          "internalType": "address",
          "name": "newOwner",
          "type": "address"
        }
      ],
      "name": "transferOwnership",
      "outputs": [],
      "stateMutability": "nonpayable",
      "type": "function"
    },
    {
      "inputs": [
        {
          "internalType": "uint256",
          "name": "tokenId",
          "type": "uint256"
        },
        {
          "internalType": "string",
          "name": "newTokenURI",
          "type": "string"
        }
      ],
      "name": "updateTokenURI",
      "outputs": [],
      "stateMutability": "nonpayable",
      "type": "function"
    },
    {
      "inputs": [
        {
          "internalType": "uint256",
          "name": "safeId",
          "type": "uint256"
        },
        {
          "internalType": "uint256",
          "name": "amount",
          "type": "uint256"
        },
        {
          "internalType": "uint256",
          "name": "nearestSpotInLiquidationQueue",
          "type": "uint256"
        }
      ],
      "name": "withdrawCollateral",
      "outputs": [],
      "stateMutability": "nonpayable",
      "type": "function"
    }
  ],
  "bytecode": "0x608034620003a5576001600160401b0390604090808201838111828210176200038f578252600f815260206e537461626c6542617365205361666560881b81830152825193838501858110828211176200038f578452600685526553425361666560d01b8286015282518181116200038f576000928354916001958684811c9416801562000384575b8385101462000370578190601f948581116200031d575b508390858311600114620002b9578792620002ad575b5050600019600383901b1c191690861b1784555b8651928311620002995784548581811c911680156200028e575b828210146200027a5782811162000232575b5080918311600114620001c9575082939495829392620001bd575b5050600019600383901b1c191690831b1782555b3315620001a65760078054336001600160a01b03198216811790925590916001600160a01b03909116907f8be0079c531659141344cd1fd0a4f28419497f9722a3daafe3b4186f6b6457e09080a3612af860085560ff1980600c5416600c556016541660165561ffff1960185416601855601955516156cc9081620003ab8239f35b602490835190631e4fbdf760e01b82526004820152fd5b01519050388062000110565b90601f198316968585528285209285905b8982106200021a575050838697989695961062000200575b505050811b01825562000124565b015160001960f88460031b161c19169055388080620001f2565b808885968294968601518155019501930190620001da565b8585528185208380860160051c82019284871062000270575b0160051c019086905b82811062000264575050620000f5565b86815501869062000254565b925081926200024b565b634e487b7160e01b85526022600452602485fd5b90607f1690620000e3565b634e487b7160e01b84526041600452602484fd5b015190503880620000b5565b8780528488208994509190601f198416895b87828210620003065750508411620002ec575b505050811b018455620000c9565b015160001960f88460031b161c19169055388080620002de565b8385015186558c97909501949384019301620002cb565b9091508680528387208580850160051c82019286861062000366575b918a91869594930160051c01915b828110620003575750506200009f565b8981558594508a910162000347565b9250819262000339565b634e487b7160e01b86526022600452602486fd5b93607f169362000088565b634e487b7160e01b600052604160045260246000fd5b600080fdfe608080604052600436101561001357600080fd5b60003560e01c90816301ffc9a714613d7457508063048c661d14613d4b57806306fdde0314613ca8578063081812fc14613c8a57806308d2be9614613c6c578063095ea7b314613b855780630f3799fa14613b675780631625115c14613b4957806318e97fd11461392457806323b872dd1461390d5780632630c12f146138e457806328a0702514613839578063295a5212146138135780633655c5261461378e578063409d160714613770578063409f82301461375457806342842e0e1461372c578063434efcbd146136c45780634ac8eb5f146136a65780636352211e1461367657806367d02adf1461364d5780636cfb6bf91461341157806370a08231146133b8578063715018a6146133975780637bc658cb146133795780637cbc2373146126ea57806383511307146126b557806383ac5ca41461245f5780638851d95014612439578063895a74851461208b5780638a64b81214611ff55780638da5cb5b14611fcc57806393b3e6d314611f4b57806395d89b4114611e6c5780639a46c84a14611e4f5780639ee0442914611e2b578063a22cb46514611d86578063a8d74d1d14611aeb578063adbf8e7e1461147e578063b88d4fde1461141e578063b940b45e146113f8578063c2b99799146112e1578063c5691792146112b4578063c7529ecb1461128e578063c861c6e6146110e8578063c87b56dd14610ff6578063cd20722114610fd7578063d80f353c14610fb4578063ddb060a914610f8b578063e63078fd14610f62578063e985e9c514610f0c578063f23c220b14610ef0578063f2fde38b14610e67578063f8e61b6914610477578063fb09f724146103f4578063fc7b9c18146103d65763ff5430e81461029257600080fd5b346103d1576102a036613fa2565b6001600160a01b036102bd816102b585614354565b1633146147f5565b82600052600b60205260406000206102d581856148d6565b5060018154916102e6831515614b9a565b015490670de0b6b3a7640000918281029281840414901517156103bb5760009361031561034a926060946143bf565b9360095416906040519586809481936346b043a960e01b8352888b600485016040919493926060820195825260208201520152565b03925af19081156103af576040809260008051602061567783398151915294600091610381575b50015182519182526020820152a2005b6103a2915060603d81116103a8575b61039a8183613ed6565b810190614bdc565b38610371565b503d610390565b6040513d6000823e3d90fd5b634e487b7160e01b600052601160045260246000fd5b600080fd5b346103d15760003660031901126103d1576020601554604051908152f35b346103d157366003190160e081126103d15760a0136103d15760c061045060405161041e81613e82565b6004358152602435602082015260443560408201526064356060820152608435608082015260c4359060a43590614424565b936040939193519515158652602086015260408501526060840152608083015260a0820152f35b346103d15760a03660031901126103d15761049e6001600160a01b036102b5600435614354565b600435600052600b60205260406000206104ba816004356148d6565b506104c781541515614b9a565b600d54604051630fdb11cf60e01b815290602090829060049082906000906001600160a01b03165af180156103af57600090610e33575b61050a915082546143f7565b61271081029080820461271014901517156103bb57610535670de0b6b3a764000091600854906143bf565b046001820154906105486024358361440a565b11610dee57686c6b935b8bbd4000006105636024358361440a565b10610db157336001600160a01b0361057c600435614354565b1603610d6c576127106105936044356024356143f7565b600a5460405163dc281aff60e01b81529290910492906001600160a01b0316602083600481845afa9283156103af57600093610d38575b5081610c7657505080610c04575060443560028301555b8060243510610ba6576105f681602435614417565b90610607602435600185015461440a565b928360018201556003810161061f602435825461440a565b90556004810161063083825461440a565b9055670de0b6b3a7640000840293808504670de0b6b3a764000014901517156103bb576106616000948254906143bf565b600a5460028301546040516346b043a960e01b81526004803590820152602481019190915260843560448201529591939160609187916064918391906001600160a01b03165af19283156103af576000958694610b80575b506009546040516346b043a960e01b815260048035908201526024810192909252606480356044840152919660609288926001600160a01b0316918391829081015b03925af19485156103af57600095610b5f575b5060009080610877575b5061076760009482602093610838575b50600c546040516340c10f1960e01b815233600482015260248101929092529095869260089290921c6001600160a01b03169183919082906044820190565b03925af19081156103af576107a86002927f97fdb0133110ec65f5cad2f7a197ea89e1790e3ec217413d27293e89652ec23395600091610809575b50614c20565b6107b6602435601554614a59565b50015492610804601454916020806015549501519101519060405194859460043598602435879260a094919796959260c0850198855260208501526040840152606083015260808201520152565b0390a2005b61082b915060203d602011610831575b6108238183613ed6565b8101906143df565b876107a2565b503d610819565b90816108439161440a565b906040519081527f3ab340170295d343af302b5e35e4f56df5d151d79200feacdd743edf16ec06e48460043592a287610728565b600c546040516340c10f1960e01b81523060048201526024810183905291925060009190602090829060081c6001600160a01b03168185816044810103925af180156103af576108ce91600091610b405750614c20565b6103e882818102048114831517156103bb5782908360018060a01b03600f54166040516020816024816000631d3793b160e21b968783526127108a8a020460048401525af19081156103af57600091610b21575b50610aec575b600e5460405191825260048201859052602090829060249082906000906001600160a01b03165af19081156103af57600091610acd575b50610ab1575b808511610a745784151580610a6c575b6109d9575b926000979261271060209693610767966040519485526001898601520204604083015260608201528160808201527fce3dfe85eba133762c0c577aff378e2e0d3d8b19486eb42a2bad989a4200ed5060a060043592a292509450610718565b600c54604051632770a7eb60e21b815230600482015260248101879052929891959294919390602090869060081c6001600160a01b0316816000816044810103925af180156103af57600099602097610a4061271093610767998e91610a4f575b50614c5a565b9396509396505092975061097a565b610a6691508b3d8d11610831576108238183613ed6565b8f610a3a565b506001610975565b60405162461bcd60e51b8152602060048201526015602482015274125b9d985b1a59081c99599d5b9908185b5bdd5b9d605a1b6044820152606490fd5b939282610ac181610ac79361440a565b94614417565b93610965565b610ae6915060203d602011610831576108238183613ed6565b8a61095f565b945092509050610b026127108284020483614417565b908260006020610b186127108585020484614417565b96915050610928565b610b3a915060203d602011610831576108238183613ed6565b8b610922565b610b59915060203d602011610831576108238183613ed6565b886107a2565b610b7991955060603d6060116103a85761039a8183613ed6565b938561070e565b6060919450610b9e6106fb91833d85116103a85761039a8183613ed6565b9491506106b9565b60405162461bcd60e51b815260206004820152603060248201527f426f72726f77656420616d6f756e74206973206e6f742073756666696369656e60448201526f7420746f20706179207468652066656560801b6064820152608490fd5b600a54604051634a83e9cd60e11b81526004810192909252606090829060249082906001600160a01b03165afa80156103af57610c4e91600091610c58575b50604435905161440a565b60028301556105e1565b610c70915060603d81116103a85761039a8183613ed6565b84610c43565b9091606090602460405180948193634a83e9cd60e11b835260048301525afa9081156103af57600091610d1a575b50516002840191610ccc612710610cc583610cc0868854614417565b6143f7565b048561440a565b61271081029080820461271014901517156103bb57610cf1610cf7926024359061440a565b906143bf565b604435610d07575b5050506105e1565b610d109161440a565b9055828080610cff565b610d32915060603d81116103a85761039a8183613ed6565b84610ca4565b9092506020813d602011610d64575b81610d5460209383613ed6565b810103126103d1575191856105ca565b3d9150610d47565b60405162461bcd60e51b815260206004820152601e60248201527f4f6e6c79207468652053616665206f776e65722063616e20626f72726f7700006044820152606490fd5b60405162461bcd60e51b8152602060048201526015602482015274125b9d985b1a5908189bdc9c9bddc8185b5bdd5b9d605a1b6044820152606490fd5b60405162461bcd60e51b815260206004820152601f60248201527f426f72726f7720616d6f756e74206578636565647320746865206c696d6974006044820152606490fd5b506020813d602011610e5f575b81610e4d60209383613ed6565b810103126103d15761050a90516104fe565b3d9150610e40565b346103d15760203660031901126103d157610e80613e39565b610e88613fd2565b6001600160a01b03908116908115610ed757600754826001600160601b0360a01b821617600755167f8be0079c531659141344cd1fd0a4f28419497f9722a3daafe3b4186f6b6457e0600080a3005b604051631e4fbdf760e01b815260006004820152602490fd5b346103d15760003660031901126103d1576020604051600f8152f35b346103d15760403660031901126103d157610f25613e39565b610f2d613e4f565b9060018060a01b03809116600052600560205260406000209116600052602052602060ff604060002054166040519015158152f35b346103d15760003660031901126103d1576009546040516001600160a01b039091168152602090f35b346103d15760003660031901126103d157600a546040516001600160a01b039091168152602090f35b346103d15760003660031901126103d157602060ff601854166040519015158152f35b346103d15760203660031901126103d157610ff45a600435614de1565b005b346103d1576020806003193601126103d15760043561101481614354565b506000526006815260406000209060405191826000825461103481614042565b938484526001918683821691826000146110c6575050600114611087575b505061106092500383613ed6565b600060405161106e81613eba565b52611083604051928284938452830190613df9565b0390f35b85925060005281600020906000915b8583106110ae57505061106093508201018580611052565b80548389018501528794508693909201918101611096565b925093505061106094915060ff191682840152151560051b8201018580611052565b6110f136613fb8565b906001600160a01b0390611108826102b586614354565b83600052600b602052604060002061112081866148d6565b50805461112e811515614b9a565b823403611258578261113f9161440a565b815561114d8260145461440a565b6014556001810154670de0b6b3a7640000908181029181830414901517156103bb576000946111836111b89260609454906143bf565b9460095416906040519687809481936346b043a960e01b8352898c600485016040919493926060820195825260208201520152565b03925af180156103af5760008051602061567783398151915260408087937f1aef3bd0b630c567031c4699f8deb4f9d2c182bceb9492d362580e4899bb97619760009161123a575b5001518151908682526020820152a26014546015546040805193845260208401949094529282015260608101919091528060808101610804565b611252915060603d81116103a85761039a8183613ed6565b89611200565b60405162461bcd60e51b815260206004820152600e60248201526d125b9d985b1a5908185b5bdd5b9d60921b6044820152606490fd5b346103d15760003660031901126103d15761108360ff6016541660405191829182613f80565b346103d15760003660031901126103d157600c5460405160089190911c6001600160a01b03168152602090f35b346103d15760203660031901126103d1576004356113096001600160a01b036102b583614354565b80600052600b60205260406000209061132282826148d6565b5060018201546113a457600080808093610ff495549061134482601454614417565b60145561135081614a63565b6014546015546040805185815260208101939093528201527f4855a2844775685eaf28856c3afa1818d367078e3eb1ba859ddb03836160dbfd9080606081015b0390a2335af161139e61438f565b50614831565b60405162461bcd60e51b815260206004820152602660248201527f43616e6e6f7420636c6f73652053616665207769746820626f72726f77656420604482015265185b5bdd5b9d60d21b6064820152608490fd5b346103d15760003660031901126103d15760206040516a0422ca8b0a00a4250000008152f35b346103d15760803660031901126103d157611437613e39565b61143f613e4f565b6064359167ffffffffffffffff83116103d157366023840112156103d157611474610ff4933690602481600401359101613f14565b916044359161422a565b346103d15761148c36613fb8565b6114a06001600160a01b036102b585614354565b82600052600b6020526040600020916114b983856148d6565b508015611aa657600c546040516370a0823160e01b815233600482015292906020908490602490829060081c6001600160a01b03165afa9283156103af57600093611a72575b5061271090816115136001870154856143f7565b04809410611a2d5761152983600287015461440a565b60028601556004850161153d85825461440a565b9055600c546040516323b872dd60e01b81523360048201523060248201526044810186905290602090829060081c6001600160a01b0316816000816064810103925af19081156103af57600091611a0e575b50156119c957600a5460028601546040516346b043a960e01b81526004810189905260248101919091526044810192909252606090829060649082906000906001600160a01b03165af180156103af5760407f06c860f6b55db10b05529a27344e8869a5be9b2738d7680d8764fc30f81426ec9188936000916119ab575b506020600289015491015182519182526020820152a26000906103e8908185029185830414851517156103bb57600f54604051631d3793b160e21b81528284046004820152869491859190602090829060249082906000906001600160a01b03165af19081156103af5760009161198c575b50611968575b600e54604051631d3793b160e21b81526004810183905290602090829060249082906000906001600160a01b03165af19081156103af57600091611949575b5061192d575b868511610a7457889285151594858096611925575b611881575b917fce3dfe85eba133762c0c577aff378e2e0d3d8b19486eb42a2bad989a4200ed50939160a093604051938452600060208501520460408301526060820152856080820152a2611776575b5061080460027fe64824fece9b298b55bca71bfcc91bf24c2e9f4f5229269815b9c68693327b33940154604051938493846040919493926060820195825260208201520152565b600c5460405163a9059cbb60e01b81523360048201526024810183905291949190602090829060081c6001600160a01b0316816000816044810103925af19081156103af57600091611862575b501561182457600261080491867f3ab340170295d343af302b5e35e4f56df5d151d79200feacdd743edf16ec06e460207fe64824fece9b298b55bca71bfcc91bf24c2e9f4f5229269815b9c68693327b3398604051908152a294505061172f565b60405162461bcd60e51b8152602060048201526016602482015275151c985b9cd9995c881499599d5b990819985a5b195960521b6044820152606490fd5b61187b915060203d602011610831576108238183613ed6565b866117c3565b600c54604051632770a7eb60e21b8152306004820152602481018990529195509093919290602090859060081c6001600160a01b0316816000816044810103925af19283156103af578b9561190160a0957fce3dfe85eba133762c0c577aff378e2e0d3d8b19486eb42a2bad989a4200ed509760009161190c5750614c5a565b9193509193506116e4565b610a66915060203d602011610831576108238183613ed6565b5060006116df565b93908461193d816119439361440a565b92614417565b936116ca565b611962915060203d602011610831576108238183613ed6565b8a6116c4565b5050915061197882820485614417565b918461198682840487614417565b93611685565b6119a5915060203d602011610831576108238183613ed6565b8a61167f565b6119c3915060603d81116103a85761039a8183613ed6565b8961160d565b60405162461bcd60e51b815260206004820152601960248201527f5472616e73666572696e6720546f6b656e73206661696c6564000000000000006044820152606490fd5b611a27915060203d602011610831576108238183613ed6565b8761158f565b60405162461bcd60e51b815260206004820152601f60248201527f496e73756666696369656e742042616c616e636520746f2070617920666565006044820152606490fd5b9092506020813d602011611a9e575b81611a8e60209383613ed6565b810103126103d1575191856114ff565b3d9150611a81565b60405162461bcd60e51b815260206004820152601f60248201527f4665652072617465206d7573742062652067726561746572207468616e2030006044820152606490fd5b346103d157611af936613fb8565b90916001600160a01b039190611b12836102b583614354565b80600052602092600b8452604060002094611b2d86846148d6565b5085548015611d415760018701805490919015611d15575060008684600d5416600460405180948193630fdb11cf60e01b83525af19081156103af57600091611ce8575b5087549154611b82600854826143f7565b670de0b6b3a764000092838202918083048514901517156103bb57612710908181029181830414901517156103bb57611bc1611bc791611bcf936143bf565b85614417565b851115614767565b8181029181830414901517156103bb57600095611bf5611c2a92610cf186606096614417565b9460095416906040519788809481936346b043a960e01b8352898b600485016040919493926060820195825260208201520152565b03925af19283156103af57610ff496816000805160206156778339815191526040600099968a9997828b9a8b9a8b91611cca575b500151908351928352820152a25b611c77838254614417565b90557fdd28e2f316aa3aabcabdc08fd08e1eba83b8bd6479a3116826a62ea35eede780611ca683601454614417565b60148190556015546040805186815260208101939093528201528060608101611390565b611ce2915060603d81116103a85761039a8183613ed6565b8f611c5e565b90508681813d8311611d0e575b611cff8183613ed6565b810103126103d1575188611b71565b503d611cf5565b600096508695508594915084935096611d33610ff498841115614767565b611d3c82614c94565b611c6c565b60405162461bcd60e51b815260048101879052601960248201527f4e6f20636f6c6c61746572616c20746f207769746864726177000000000000006044820152606490fd5b346103d15760403660031901126103d157611d9f613e39565b602435908115158092036103d1576001600160a01b0316908115611e1257336000526005602052604060002082600052602052604060002060ff1981541660ff83161790556040519081527f17307eab39ab6107e8899845ad3d59bd9653f200f220920489ca2b5937696c3160203392a3005b604051630b61174360e31b815260048101839052602490fd5b346103d15760003660031901126103d1576020604051686c6b935b8bbd4000008152f35b346103d15760003660031901126103d15760206040516103e88152f35b346103d15760003660031901126103d15760405160006001805490611e9082614042565b80855291818116908115611f245750600114611ecb575b61108384611eb781860382613ed6565b604051918291602083526020830190613df9565b600081815292507fb10e2d527612073b26eecdfd717e6a320cf44b4afac2b0732d9fcbe2b7fa0cf65b828410611f0c575050508101602001611eb782611ea7565b80546020858701810191909152909301928101611ef4565b60ff191660208087019190915292151560051b85019092019250611eb79150839050611ea7565b346103d15760203660031901126103d157611f64613f93565b600e546001600160a01b03163303611f915760ff8019601854169115151617601855602060405160018152f35b60405162461bcd60e51b815260206004820152601360248201527213db9b1e481cdd18589a5b1a5d1e481c1bdbdb606a1b6044820152606490fd5b346103d15760003660031901126103d1576007546040516001600160a01b039091168152602090f35b346103d15760203660031901126103d157604060043580600052600b6020526120208260002061489a565b90600052601760205261206961207e83600020612069600186519261204484613e9e565b80548452015480602084015261206f8651670de0b6b3a7640000968793601054614417565b906143f7565b04945191601154905190614417565b0482519182526020820152f35b346103d15761209936613fb8565b906001600160a01b03906120b0826102b586614354565b836000526020600b815260406000206120c981876148d6565b5060018101805480156123f45785600c5460081c16906040516370a0823160e01b81523360048201528581602481865afa80156103af5787916000916123c3575b501061238b5780861161233557856121228183614417565b15918215612316575b5050156122d157604051632770a7eb60e21b815233600482015260248101869052908490829060449082906000905af180156103af576122b4575b50612172848254614417565b809155670de0b6b3a7640000908181029181830414901517156103bb5761219a9154906143bf565b928315612281576009546040516346b043a960e01b81526004810188905260248101869052604481019690965260609186916064918391600091165af19384156103af5760408692817f3e137a27f9f2791dd0ec5a27c00e506d1d3e32168a9facef1b38c04a765737559760008051602061567783398151915294600091612263575b500151825191878352820152a25b61223781601554614a07565b506014546015546040805193845260208401949094529282015260608101919091528060808101610804565b61227b915060603d81116103a85761039a8183613ed6565b8a61221d565b50507f3e137a27f9f2791dd0ec5a27c00e506d1d3e32168a9facef1b38c04a7657375592506122af84614c94565b61222b565b6122ca90843d8611610831576108238183613ed6565b5087612166565b60405162461bcd60e51b815260048101859052601860248201527f496e76616c69642072657061796d656e7420616d6f756e7400000000000000006044820152606490fd5b686c6b935b8bbd40000092509061232c91614417565b1015858a61212b565b60405162461bcd60e51b815260048101869052602860248201527f52657061796d656e7420616d6f756e74206578636565647320626f72726f77656044820152671908185b5bdd5b9d60c21b6064820152608490fd5b60405162461bcd60e51b815260048101869052601060248201526f125b9cdd59999a58da595b9d0814d09160821b6044820152606490fd5b809250878092503d83116123ed575b6123dc8183613ed6565b810103126103d1578690518b61210a565b503d6123d2565b60405162461bcd60e51b815260048101859052601b60248201527f4e6f20626f72726f77656420616d6f756e7420746f20726570617900000000006044820152606490fd5b346103d15760003660031901126103d157602060ff60185460081c166040519015158152f35b61246836613fa2565b9061247482151561471b565b61247f823414614767565b801561267e57806000526020600b815261249e604060002054156147b3565b60008281526002825260409020546001600160a01b03906124c1908216156147b3565b6040516124cd81613e82565b84815260048382016000815260408301600081526060840190600082526080850192600084526010546001601154916040519261250984613e9e565b83528a83019081528b60005260178b5260406000209251835551910155600b8852604060002095518655516001860155516002850155516003840155519101556125558460145461440a565b601455331561266557829081600052600283526040600020541660028115159384612632575b336000526003815260406000206001815401905583600052526040600020336001600160601b0360a01b82541617905533907fddf252ad1be2c89b69c2b068fc378daa952ba7f163c4a11628f55a4df523b3ef600080a4612619576014546015546040805194855260208501929092529083015233917f7dc80423b3ce080783063611ca470ecbf2b421ed6f318fd488e1ff4f210ad54a90606090a3005b6040516339e3563760e11b815260006004820152602490fd5b60008481526004602052604080822080546001600160a01b0319169055848252600383529020805460001901905561257b565b604051633250574960e11b815260006004820152602490fd5b60405162461bcd60e51b815260206004820152600f60248201526e125b9d985b1a590814d85999481251608a1b6044820152606490fd5b346103d15760203660031901126103d15760043560005260176020526040806000206001815491015482519182526020820152f35b346103d1576126f836613fa2565b60ff6016541660028110156133635760010361331e5761271982151561471b565b600c546040516323b872dd60e01b8152336004820152306024820152604481018490529060209082908160008160648101039260081c6001600160a01b03165af19081156103af576000916132ff575b50156132c157600d54604051630fdb11cf60e01b81529190602090839060049082906000906001600160a01b03165af19182156103af5760009261328d575b50600a5460405163dc281aff60e01b815290602090829060049082906001600160a01b03165afa9081156103af5760009161325b575b50604051602081019133835285604083015243606083015260808201526080815261280881613e82565b5190206040519261281884613e65565b818452846020850152806040850152600060608501526000608085015260a084019360008552600060c0820152600060e082015260006101008201529361285d614d9c565b5051935b606081015160208201511115612e1e57600a5460405163dc281aff60e01b815290602090829060049082906001600160a01b03165afa9081156103af57600091612dec575b506128af61486f565b506128b8614d9c565b5080600052600b60205260406000206128d181836148d6565b506128e56020840151606085015190614417565b80670de0b6b3a7640000810204670de0b6b3a764000014811517156103bb5761293290604085016129218151670de0b6b3a764000084026143bf565b50519061292d8461489a565b614424565b919586612c26575b61295891508761294a8487614417565b9380612bcf575b505061489a565b9061296161486f565b5061296a614d9c565b50612976848351614417565b8252612986836020840151614417565b602083015261299a60c0890191825161440a565b90526129b36129a9868461440a565b606089015161440a565b6060880152608087016129c786825161440a565b905285600052600b60205260406000209381519081865560208301519586600182015560408401516002820155606084015160038201556004608085015191015585159182918293612bc7575b8215612b9a575b505015612aa35750507fb15752a098fdc0a76340da8d6da57a8a5cb25497ff88ede0e2df01fc5a1808819250612a5085614c94565b612a8d865194612a69602089015160608a015190614417565b90604051948594859094939260609260808301968352602083015260408201520152565b0390a39360001981146103bb5760010193612861565b84670de0b6b3a7640000810204670de0b6b3a76400001417156103bb57612b1e93670de0b6b3a7640000612ad9925191026143bf565b6009546040516346b043a960e01b81526004810188905260248101839052604481018c90529460609186916001600160a01b0390911690829060009082906064820190565b03925af19384156103af5760408792817fb15752a098fdc0a76340da8d6da57a8a5cb25497ff88ede0e2df01fc5a1808819760008051602061567783398151915294600091612b7b575b50015182519182526020820152a2612a50565b612b94915060603d6060116103a85761039a8183613ed6565b38612b68565b15915081612bb8575b5080612bb1575b8e80612a1b565b5080612baa565b6402540be4009150108e612ba3565b915081612a14565b6101008b01612bdf82825161440a565b90528a51604080518981526020810188905290810192909252907f0d0509d61e4f095a558926b43cdf8dac5b38250c45f65a7d36fa74cb775b75c390606090a3878f612951565b8782881115612db05750600c54612c8f9060209060081c6001600160a01b0316612c4f8b614354565b90612c5a868c614417565b60405163a9059cbb60e01b81526001600160a01b03909316600484015260248301529092839190829060009082906044820190565b03925af19081156103af57600091612d91575b5015612d4c57878281897f9abf6579d89a8de3716c310885179c56b5e9afb2a607b37733dc95ee23ff5ac56040612cdf8f98612958995194614417565b8151908152856020820152a35b80612cf9575b505061293a565b60e08b01612d0882825161440a565b905260006004840155600160038401557f8228467254b0b3ae495df90914874baf109bfad2ce6b5adb5ad37563be8e959560208c5192604051908152a3878f612cf2565b60405162461bcd60e51b815260206004820152601960248201527f4d696e74206661696c656420666f72206f776e657220666565000000000000006044820152606490fd5b612daa915060203d602011610831576108238183613ed6565b8f612ca2565b61295892818b517f9abf6579d89a8de3716c310885179c56b5e9afb2a607b37733dc95ee23ff5ac56040805160008152856020820152a3612cec565b90506020813d602011612e16575b81612e0760209383613ed6565b810103126103d15751876128a6565b3d9150612dfa565b90858560a084015260009260e0810151806130c8575b5061010081018051801515806130bc575b156130ad57600e546040516325ac7aa560e21b8152600481018390529160209183916024918391906001600160a01b03165af19081156103af5760009161308e575b501561304957612ec1612ec9915b612eb76000808080612eac60c08a019c8d5161440a565b335af161139e61438f565b865190519061440a565b601454614417565b601455606081018281510361301057612ef6601554612ef060808451950194855190614417565b90614a07565b50519051808211612f5b575b5050915160145460155460408051958652602086019390935291840192909252606083019190915260808201527f91ea7e60c7bf449355b9b4e79484cfb75d18a61aaf34367ab4f0532952f97284908060a08101610804565b600c5460009592602092612faa9260081c6001600160a01b031691612f809190614417565b604051632770a7eb60e21b8152306004820152602481019190915296879283919082906044820190565b03925af19081156103af57612feb610804927f91ea7e60c7bf449355b9b4e79484cfb75d18a61aaf34367ab4f0532952f9728496600091612ff15750614c5a565b93612f02565b61300a915060203d602011610831576108238183613ed6565b88610a3a565b60405162461bcd60e51b8152602060048201526011602482015270149959195b5c1d1a5bdb8819985a5b1959607a1b6044820152606490fd5b60405162461bcd60e51b815260206004820152601c60248201527f41646420636f6c6c61746572616c20726577617264206661696c6564000000006044820152606490fd5b6130a7915060203d602011610831576108238183613ed6565b87612e87565b9450612ec990612ec190612e95565b5060ff60185416612e45565b60185460ff16156131a857506000602060018060a01b03600e5416602460e08501516040519485938492631d3793b160e21b845260048401525af19081156103af57600091613189575b50156131505780517f58bf57049a62fb6fdd450cdc1ce5ba4c4c8e433e1ae7b30446a4e7c46c6a47f1602060e0840151604051908152a25b85612e34565b60405162461bcd60e51b8152602060048201526011602482015270105919081c995dd85c990819985a5b1959607a1b6044820152606490fd5b6131a2915060203d602011610831576108238183613ed6565b86613112565b600c5460405163a9059cbb60e01b81523360048201526024810192909252602090829060081c6001600160a01b0316816000816044810103925af19081156103af5760009161323c575b5061314a5760405162461bcd60e51b815260206004820152601760248201527f4f776e65722066656520726566756e64206661696c65640000000000000000006044820152606490fd5b613255915060203d602011610831576108238183613ed6565b866131f2565b90506020813d602011613285575b8161327660209383613ed6565b810103126103d15751846127de565b3d9150613269565b9091506020813d6020116132b9575b816132a960209383613ed6565b810103126103d1575190836127a8565b3d915061329c565b60405162461bcd60e51b8152602060048201526016602482015275155b98589b19481d1bc81d1c985b9cd9995c8814d09160521b6044820152606490fd5b613318915060203d602011610831576108238183613ed6565b83612769565b60405162461bcd60e51b815260206004820152601a60248201527f50726f746f636f6c20696e20626f6f747374726170206d6f64650000000000006044820152606490fd5b634e487b7160e01b600052602160045260246000fd5b346103d15760003660031901126103d1576020601354604051908152f35b346103d15760003660031901126103d1576133b0613fd2565b610ff4613ffe565b346103d15760203660031901126103d1576001600160a01b036133d9613e39565b1680156133f85760005260036020526020604060002054604051908152f35b6040516322718ad960e21b815260006004820152602490fd5b346103d15760c03660031901126103d15761342a613e39565b613432613e4f565b6044356001600160a01b03818116939092918490036103d1576064358381168091036103d157608435948486168096036103d15760a435908582168092036103d157859361347e613fd2565b600c5490610100600160a81b039060081b1690610100600160a81b031916179687600c556001600160601b0360a01b9185871683600d541617600d5582600e541617600e558382600f541617600f55816009541617600955600a541617600a556040519063095ea7b360e01b908183526004830152600019958660248401528260448160006020998a9560081c165af19182156103af578592613630575b50604483600c5460081c1691600085600e541693604051998a9586948552600485015260248401525af19081156103af576000948492613613575b50600d5416600460405180968193630fdb11cf60e01b83525af19182156103af576000926135c3575b604080516001600160a01b0384168152602081018590527f61fba2f17481a6ec6ecc9a1ba9de88c315de56be88a514a6ed35041db7582ddc9190a16133b0613fd2565b90915082813d831161360c575b6135da8183613ed6565b810103126103d1577f61fba2f17481a6ec6ecc9a1ba9de88c315de56be88a514a6ed35041db7582ddc91519083613580565b503d6135d0565b61362990833d8511610831576108238183613ed6565b5085613557565b61364690833d8511610831576108238183613ed6565b508661351c565b346103d15760003660031901126103d157600f546040516001600160a01b039091168152602090f35b346103d15760203660031901126103d1576020613694600435614354565b6040516001600160a01b039091168152f35b346103d15760003660031901126103d1576020601454604051908152f35b346103d15760203660031901126103d157600435600052600b602052604060002080546110836001830154926002810154906004600382015491015491604051958695869192608093969594919660a084019784526020840152604083015260608201520152565b346103d157610ff461373d36613f4b565b906040519261374b84613eba565b6000845261422a565b346103d15760003660031901126103d1576020604051604b8152f35b346103d15760003660031901126103d1576020604051620186a08152f35b346103d15760203660031901126103d1576137a7613f93565b600f546001600160a01b031633036137db5761ff0060185491151560081b169061ff00191617601855602060405160018152f35b60405162461bcd60e51b815260206004820152601060248201526f4f6e6c7920534252205374616b696e6760801b6044820152606490fd5b346103d15760003660031901126103d15761108360ff600c541660405191829182613f80565b346103d15760003660031901126103d1576002601954146138d257600260195560045a600954604051631f19bf7f60e31b81529260209184919082906001600160a01b03165afa80156103af5760009061389f575b6138989250614de1565b6001601955005b506020823d82116138ca575b816138b860209383613ed6565b810103126103d157613898915161388e565b3d91506138ab565b604051633ee5aeb560e01b8152600490fd5b346103d15760003660031901126103d157600d546040516001600160a01b039091168152602090f35b346103d157610ff461391e36613f4b565b916140a1565b346103d15760403660031901126103d15760043567ffffffffffffffff6024358181116103d157366023820112156103d15761396a903690602481600401359101613f14565b916001600160a01b038061397d83614354565b163314908115613b35575b5015613aff5780600052602091600683526040600020908451908111613ae9576139b28254614042565b601f8111613aa3575b508394601f8211600114613a1d577ff8e1a15aba9398e019f0b49df1a4fde98ee17ae345cb5f6b5e2c27f5033e8ce79560009183613a12575b50508160011b916000199060031b1c19161790555b604051908152a1005b0151905086806139f4565b601f1982169583600052856000209160005b888110613a8c5750908392916001947ff8e1a15aba9398e019f0b49df1a4fde98ee17ae345cb5f6b5e2c27f5033e8ce79910613a73575b505050811b019055613a09565b015160001960f88460031b161c19169055868080613a66565b919287600181928685015181550194019201613a2f565b8260005284600020601f830160051c810191868410613adf575b601f0160051c01905b818110613ad357506139bb565b60008155600101613ac6565b9091508190613abd565b634e487b7160e01b600052604160045260246000fd5b60405162461bcd60e51b815260206004820152600e60248201526d139bdd08185d5d1a1bdc9a5e995960921b6044820152606490fd5b339150613b418361407c565b161484613988565b346103d15760003660031901126103d1576020601254604051908152f35b346103d15760003660031901126103d1576020601154604051908152f35b346103d15760403660031901126103d157613b9e613e39565b602435613baa81614354565b33151580613c59575b80613c2c575b613c14576001600160a01b039283169282918491167f8c5be1e5ebec7d5bd14f71427d1e84f3dd0314c0f7b2291e5b200ac8c7c3b925600080a4600090815260046020526040902080546001600160a01b0319169091179055005b60405163a9fbf51f60e01b8152336004820152602490fd5b5060018060a01b038116600052600560205260406000203360005260205260ff6040600020541615613bb9565b506001600160a01b038116331415613bb3565b346103d15760003660031901126103d1576020601054604051908152f35b346103d15760203660031901126103d157602061369460043561407c565b346103d15760003660031901126103d15760405160008054613cc981614042565b80845290600190818116908115611f245750600114613cf25761108384611eb781860382613ed6565b600080805292507f290decd9548b62a8d60345a988386fc84ba6bc95484008f6362f93160ef3e5635b828410613d33575050508101602001611eb782611ea7565b80546020858701810191909152909301928101613d1b565b346103d15760003660031901126103d157600e546040516001600160a01b039091168152602090f35b346103d15760203660031901126103d1576004359063ffffffff60e01b82168092036103d157602091632483248360e11b8114908115613db6575b5015158152f35b6380ac58cd60e01b811491508115613de8575b8115613dd7575b5083613daf565b6301ffc9a760e01b14905083613dd0565b635b5e139f60e01b81149150613dc9565b919082519283825260005b848110613e25575050826000602080949584010152601f8019910116010190565b602081830181015184830182015201613e04565b600435906001600160a01b03821682036103d157565b602435906001600160a01b03821682036103d157565b610120810190811067ffffffffffffffff821117613ae957604052565b60a0810190811067ffffffffffffffff821117613ae957604052565b6040810190811067ffffffffffffffff821117613ae957604052565b6020810190811067ffffffffffffffff821117613ae957604052565b90601f8019910116810190811067ffffffffffffffff821117613ae957604052565b67ffffffffffffffff8111613ae957601f01601f191660200190565b929192613f2082613ef8565b91613f2e6040519384613ed6565b8294818452818301116103d1578281602093846000960137010152565b60609060031901126103d1576001600160a01b039060043582811681036103d1579160243590811681036103d1579060443590565b9190602083019260028210156133635752565b6004359081151582036103d157565b60409060031901126103d1576004359060243590565b60609060031901126103d157600435906024359060443590565b6007546001600160a01b03163303613fe657565b60405163118cdaa760e01b8152336004820152602490fd5b600780546001600160a01b031981169091556000906001600160a01b03167f8be0079c531659141344cd1fd0a4f28419497f9722a3daafe3b4186f6b6457e08280a3565b90600182811c92168015614072575b602083101461405c57565b634e487b7160e01b600052602260045260246000fd5b91607f1691614051565b61408581614354565b506000908152600460205260409020546001600160a01b031690565b6001600160a01b03918216929091831561266557600092828452826020956002875260409684888820541696879133151580614191575b509060027fddf252ad1be2c89b69c2b068fc378daa952ba7f163c4a11628f55a4df523b3ef928461415e575b858352600381528b8320805460010190558683525289812080546001600160a01b0319168517905580a4169283830361413d5750505050565b6064945051926364283d7b60e01b8452600484015260248301526044820152fd5b600087815260046020526040902080546001600160a01b0319169055848352600381528b83208054600019019055614104565b919394509150806141e9575b156141ad578592918791386140d8565b8786886141ca576024915190637e27328960e01b82526004820152fd5b905163177e802f60e01b81523360048201526024810191909152604490fd5b50338714801561420e575b8061419d575085825260048152338589842054161461419d565b5086825260058152878220338352815260ff88832054166141f4565b91906142378282856140a1565b803b614244575b50505050565b61428660018060a01b0380921694604051938493630a85bd0160e11b968786523360048701521660248501526044840152608060648401526084830190613df9565b03906020816000938185885af190829082614305575b50506142d457826142ab61438f565b80519190826142cd57604051633250574960e11b815260048101839052602490fd5b9050602001fd5b6001600160e01b031916036142ed57503880808061423e565b60249060405190633250574960e11b82526004820152fd5b909192506020813d821161434c575b8161432160209383613ed6565b810103126143485751906001600160e01b031982168203614345575090388061429c565b80fd5b5080fd5b3d9150614314565b6000818152600260205260409020546001600160a01b0316908115614377575090565b60249060405190637e27328960e01b82526004820152fd5b3d156143ba573d906143a082613ef8565b916143ae6040519384613ed6565b82523d6000602084013e565b606090565b81156143c9570490565b634e487b7160e01b600052601260045260246000fd5b908160209103126103d1575180151581036103d15790565b818102929181159184041417156103bb57565b919082018092116103bb57565b919082039182116103bb57565b929190926000936000938491614460670de0b6b3a764000091826144498888516143f7565b0496602087018051612710948591600854906143f7565b0489106146dd5760808801918251858102908082048714811517156146c95769021e19e0c9bab240000002908082048814901517156146b55760608a01516144a7916143bf565b9367d02ab486cedc00008086018087116146a157680410d586a20a4c0000808210156146995750955b11614635578a811061454d57505051976144ea8982614417565b975199600f820291808304600f14901517156145395750839004905190818111614521575b505061451c905b886143f7565b040490565b61451c9296509061453191614417565b94903861450f565b634e487b7160e01b81526011600452602490fd5b9297509850809750518110156000146145f357865161456b91614417565b955196614578878961440a565b848102908082048614901517156145df5790614593916143bf565b9761459e878961440a565b90600f820291808304600f1490151715614539575082900494518086116145ca575b5061451c90614516565b6145d89061451c9296614417565b94906145c0565b634e487b7160e01b8a52601160045260248afd5b9691979550935085828102908082048414901517156146215790614616916143bf565b9561451c8594614516565b634e487b7160e01b86526011600452602486fd5b9b50985092989650509350600197815181101560001461466c575051948186028681048314871517156146215790614616916143bf565b939693958594915082870285881589830486141715614539575061451c91614693916143bf565b97614516565b9050956144d0565b634e487b7160e01b8e52601160045260248efd5b634e487b7160e01b8c52601160045260248cfd5b634e487b7160e01b8d52601160045260248dfd5b60405162461bcd60e51b815260206004820152601660248201527514d859994818d85b89dd081899481c995919595b595960521b6044820152606490fd5b1561472257565b60405162461bcd60e51b815260206004820152601d60248201527f416d6f756e74206d7573742062652067726561746572207468616e20300000006044820152606490fd5b1561476e57565b60405162461bcd60e51b815260206004820152601760248201527f496e73756666696369656e7420636f6c6c61746572616c0000000000000000006044820152606490fd5b156147ba57565b60405162461bcd60e51b81526020600482015260136024820152725361666520616c72656164792065786973747360681b6044820152606490fd5b156147fc57565b60405162461bcd60e51b815260206004820152600d60248201526c2737ba103a34329037bbb732b960991b6044820152606490fd5b1561483857565b60405162461bcd60e51b815260206004820152600f60248201526e151c985b9cd9995c8819985a5b1959608a1b6044820152606490fd5b6040519061487c82613e82565b60006080838281528260208201528260408201528260608201520152565b906040516148a781613e82565b608060048294805484526001810154602085015260028101546040850152600381015460608501520154910152565b90614903916148e361486f565b50806000526017602052604060002080546011540361490657505061489a565b90565b7fd175dc7ace8ab79a704c7f131182c6a800f6339fbb04aa06195fdcbef8470c479083546149fd61206960105461494f6001860194670de0b6b3a7640000938493875490614417565b0493600188019361496186865461440a565b85556003890161497287825461440a565b9055601054905561499e885492614996614990601154855490614417565b856143f7565b04809361440a565b885560115490556149b18160145461440a565b6014556149c084601554614a59565b5086549254936014549060155492604051968796879260a094919796959260c0850198855260208501526040840152606083015260808201520152565b0390a23880612951565b90614a1191614417565b6a0422ca8b0a00a425000000811180614a43575b614a31575b8060155590565b600160ff196016541617601655614a2a565b5060ff6016541660028110156133635715614a25565b90614a119161440a565b6000818152602090600b82526040614a7c81832061489a565b91848152600b84528060048382208281558260018201558260028201558260038201550155600284528460018060a01b038383205416918215928315614b67575b8282526002875284822080546001600160a01b03191690557fddf252ad1be2c89b69c2b068fc378daa952ba7f163c4a11628f55a4df523b3ef8280a4614b505791608060a092847fe960772e9c0837c0711918e62d81cb35da211fe9523b3a59ca48efbba1c027e095519382518552808301519085015280820151908401526060810151606084015201516080820152a2565b51637e27328960e01b815260048101849052602490fd5b600083815260046020526040902080546001600160a01b0319169055808252600387528482208054600019019055614abd565b15614ba157565b60405162461bcd60e51b815260206004820152601360248201527214d8599948191bd95cc81b9bdd08195e1a5cdd606a1b6044820152606490fd5b908160609103126103d15760405190606082019082821067ffffffffffffffff831117613ae957604091825280518352602081015160208401520151604082015290565b15614c2757565b60405162461bcd60e51b815260206004820152600b60248201526a135a5b9d0819985a5b195960aa1b6044820152606490fd5b15614c6157565b60405162461bcd60e51b815260206004820152600b60248201526a109d5c9b8819985a5b195960aa1b6044820152606490fd5b9060018060a01b039182600954166040519384634cc8221560e01b8082528460048301526060928383602460009a8b80995af1908115614d91578493602492614d74575b506040519889938492897f7cb6d5d1b9e03cf5f771721c1807c3c80ba408bc7caea74c4f99c48298a0957c8480a2600a54169083528860048401525af1948515614d69577f3b020d362e8a54112d1fecc7f22f93c8497b4903d15ee2c6ec7860f878d2292b939495614d4b575b505080a2565b81614d6192903d106103a85761039a8183613ed6565b503880614d45565b6040513d84823e3d90fd5b614d8a90853d87116103a85761039a8183613ed6565b5038614cd8565b6040513d87823e3d90fd5b60405190614da982613e65565b816101006000918281528260208201528260408201528260608201528260808201528260a08201528260c08201528260e08201520152565b60095460405163dc281aff60e01b8152919290602090839060049082906001600160a01b03165afa9182156103af57600092615642575b5082600052600b602052614e306040600020846148d6565b5082600052600b60205260406000209060018201549154928315614e548115614b9a565b83156155e557600d54604051630fdb11cf60e01b815290602090829060049082906000906001600160a01b03165af19081156103af576000916155b1575b50614ea6670de0b6b3a764000091876143f7565b04612710614eb6600854876143f7565b04111561557657600e5460405163abbdf0ad60e01b8152600481018690529190602090839060249082906001600160a01b03165afa9182156103af57600092615555575b5085604b810204604b1417156103bb57614f1685601454614417565b601455614f2584601554614a07565b50156153d95750600e54612710604b850204906020906001600160a01b03166044614f5a614f538589614417565b9488614417565b60405194859384926373b2389960e01b845289600485015260248401525af19081156103af576000916153ba575b501561538057600c54600e54604051632770a7eb60e21b81526001600160a01b039182166004820152602481018590529391602091859160081c16816000816044810103925af19283156103af5784869261500f61504e967fc64f2ed055a519370e650d42ed9cc3fbb359a9f9897a1b9aafcd0955a75c16a7946000916153615750614c5a565b601454601554604080519384526020840194909452928201526060810191909152608090a25b61503e84614c94565b61504784614a63565b5a90614417565b90620186a082018092116103bb57600a4802488104600a14481517156103bb57604b615083614990606461271094044861440a565b920204908181101561535a57905b8181116150f1575b50806150a457505050565b7f9c2928766ea26162d558ac36243bb5ae5053899b3bf8ffb17a4fe58c4a58fe3391816150dd6000808080606097335af161139e61438f565b6040519182523360208301526040820152a2565b9060185460ff8160081c166000146152795750600f549091906001600160a01b031661511d8383614417565b60206151298585614417565b926024604051809481936325ac7aa560e21b9788845260048401525af180156103af57869160009161525a575b5080158061524e575b156151e4575050600e546001600160a01b03169060209060246151828686614417565b9161518d8787614417565b926040519586948593845260048401525af19081156103af576000916151c5575b50156151bd575b505b38615099565b9050386151b5565b6151de915060203d602011610831576108238183613ed6565b386151ae565b909291506151f4575b50506151b7565b7fb4b2b37ecafa7a5e3ab5c5a2a5ef20a94fd3a50a412dfba8299cff836e06fc899061522b8460018060a01b03600f541692614417565b604080516001600160a01b03939093168352602083019190915290a282386151ed565b5060ff6018541661515f565b615273915060203d602011610831576108238183613ed6565b38615156565b60ff161561535457600e546001600160a01b031660206152998385614417565b9160246152a68587614417565b60405194859384926325ac7aa560e21b845260048401525af180156103af578591600091615335575b506152db5750506151b7565b90917fb4b2b37ecafa7a5e3ab5c5a2a5ef20a94fd3a50a412dfba8299cff836e06fc89906153148460018060a01b03600e541692614417565b604080516001600160a01b03939093168352602083019190915290a26151b7565b61534e915060203d602011610831576108238183613ed6565b386152cf565b506151b7565b5080615091565b61537a915060203d602011610831576108238183613ed6565b38610a3a565b60405162461bcd60e51b8152602060048201526012602482015271131a5c5d5a59185d1a5bdb8819985a5b195960721b6044820152606490fd5b6153d3915060203d602011610831576108238183613ed6565b38614f88565b8414615510576153f0612710604b85020484614417565b615400601454916012549061440a565b9261540d6013548261440a565b670de0b6b3a76400008502858104670de0b6b3a764000014861517156103bb5783615437916143bf565b916154448360115461440a565b60115581670de0b6b3a7640000810204670de0b6b3a764000014821517156103bb57615508846154de84670de0b6b3a76400006154cf847f63121f058a23bfc9339b2fe1b77b07cb96b113d4fc1858a2100486dc1745844f998f9b8f9a9e61504e9f6154cf836154ba6154d6958a8095026143bf565b956154c78760105461440a565b6010556143f7565b0490614417565b6012556143f7565b60135560155490604051948594859094939260609260808301968352602083015260408201520152565b0390a2615035565b60405162461bcd60e51b815260206004820152601e60248201527f43616e6e6f74206c697175696461746520746865206c617374205361666500006044820152606490fd5b61556f91925060203d602011610831576108238183613ed6565b9038614efa565b60405162461bcd60e51b815260206004820152601360248201527210d85b89dd081b1a5c5d5a59185d19481e595d606a1b6044820152606490fd5b906020823d6020116155dd575b816155cb60209383613ed6565b81010312614345575051614ea6614e92565b3d91506155be565b60405162461bcd60e51b815260206004820152602f60248201527f43616e6e6f74206c6971756964617465206120536166652077697468206e6f2060448201526e189bdc9c9bddd95908185b5bdd5b9d608a1b6064820152608490fd5b90916020823d60201161566e575b8161565d60209383613ed6565b810103126143455750519038614e18565b3d915061565056fef7151edff287bbc868e2814efac5abfa729c0a534dbe211586a9252568242225a2646970667358221220953f9119def2e1b2663eeadb980124a865c071e12b22d8931265181a46ad925d64736f6c63430008140033",
  "linkReferences": {},
  "deployedLinkReferences": {}
}