{
  "_format": "hh-sol-artifact-1",
  "contractName": "StabilityPool",
  "sourceName": "contracts/StabilityPool.sol",
  "abi": [
    {
      "inputs": [
        {
          "internalType": "bool",
          "name": "_rewardSenderActive",
          "type": "bool"
        }
      ],
      "stateMutability": "nonpayable",
      "type": "constructor"
    },
    {
      "inputs": [
        {
          "internalType": "address",
          "name": "owner",
          "type": "address"
        }
      ],
      "name": "OwnableInvalidOwner",
      "type": "error"
    },
    {
      "inputs": [
        {
          "internalType": "address",
          "name": "account",
          "type": "address"
        }
      ],
      "name": "OwnableUnauthorizedAccount",
      "type": "error"
    },
    {
      "anonymous": false,
      "inputs": [
        {
          "indexed": true,
          "internalType": "address",
          "name": "user",
          "type": "address"
        },
        {
          "indexed": false,
          "internalType": "uint256",
          "name": "amount",
          "type": "uint256"
        }
      ],
      "name": "CollateralClaimed",
      "type": "event"
    },
    {
      "anonymous": false,
      "inputs": [
        {
          "indexed": false,
          "internalType": "uint256",
          "name": "amount",
          "type": "uint256"
        }
      ],
      "name": "CollateralRewardAdded",
      "type": "event"
    },
    {
      "anonymous": false,
      "inputs": [
        {
          "indexed": true,
          "internalType": "address",
          "name": "user",
          "type": "address"
        },
        {
          "indexed": false,
          "internalType": "uint256",
          "name": "amount",
          "type": "uint256"
        },
        {
          "indexed": false,
          "internalType": "uint256",
          "name": "frontendFee",
          "type": "uint256"
        }
      ],
      "name": "DFireRewardClaimed",
      "type": "event"
    },
    {
      "anonymous": false,
      "inputs": [
        {
          "indexed": false,
          "internalType": "uint256",
          "name": "amount",
          "type": "uint256"
        },
        {
          "indexed": false,
          "internalType": "uint256",
          "name": "collateralReceived",
          "type": "uint256"
        },
        {
          "indexed": false,
          "internalType": "uint256",
          "name": "totalStaked",
          "type": "uint256"
        },
        {
          "indexed": false,
          "internalType": "uint256",
          "name": "stakeScalingFactor",
          "type": "uint256"
        },
        {
          "indexed": false,
          "internalType": "uint256",
          "name": "totalCollateralPerToken",
          "type": "uint256"
        }
      ],
      "name": "LiquidationPerformed",
      "type": "event"
    },
    {
      "anonymous": false,
      "inputs": [
        {
          "indexed": true,
          "internalType": "address",
          "name": "previousOwner",
          "type": "address"
        },
        {
          "indexed": true,
          "internalType": "address",
          "name": "newOwner",
          "type": "address"
        }
      ],
      "name": "OwnershipTransferred",
      "type": "event"
    },
    {
      "anonymous": false,
      "inputs": [
        {
          "indexed": false,
          "internalType": "address",
          "name": "sender",
          "type": "address"
        },
        {
          "indexed": false,
          "internalType": "uint256",
          "name": "amount",
          "type": "uint256"
        }
      ],
      "name": "Received",
      "type": "event"
    },
    {
      "anonymous": false,
      "inputs": [
        {
          "indexed": false,
          "internalType": "uint256",
          "name": "amount",
          "type": "uint256"
        }
      ],
      "name": "RewardAdded",
      "type": "event"
    },
    {
      "anonymous": false,
      "inputs": [
        {
          "indexed": true,
          "internalType": "address",
          "name": "user",
          "type": "address"
        },
        {
          "indexed": false,
          "internalType": "uint256",
          "name": "totalReward",
          "type": "uint256"
        },
        {
          "indexed": false,
          "internalType": "uint256",
          "name": "rewardFrontendFee",
          "type": "uint256"
        },
        {
          "indexed": false,
          "internalType": "uint256",
          "name": "totalCollateral",
          "type": "uint256"
        },
        {
          "indexed": false,
          "internalType": "uint256",
          "name": "collateralFrontendFee",
          "type": "uint256"
        }
      ],
      "name": "RewardClaimed",
      "type": "event"
    },
    {
      "anonymous": false,
      "inputs": [
        {
          "indexed": false,
          "internalType": "uint256",
          "name": "lastTime",
          "type": "uint256"
        },
        {
          "indexed": false,
          "internalType": "uint256",
          "name": "currentTime",
          "type": "uint256"
        },
        {
          "indexed": false,
          "internalType": "uint256",
          "name": "rewardAmount",
          "type": "uint256"
        },
        {
          "indexed": false,
          "internalType": "uint256",
          "name": "totalRewardPerToken",
          "type": "uint256"
        }
      ],
      "name": "SBRRewardsAdded",
      "type": "event"
    },
    {
      "anonymous": false,
      "inputs": [
        {
          "indexed": true,
          "internalType": "uint256",
          "name": "stakeResetCount",
          "type": "uint256"
        },
        {
          "components": [
            {
              "internalType": "uint256",
              "name": "scalingFactor",
              "type": "uint256"
            },
            {
              "internalType": "uint256",
              "name": "totalRewardPerToken",
              "type": "uint256"
            },
            {
              "internalType": "uint256",
              "name": "totalCollateralPerToken",
              "type": "uint256"
            },
            {
              "internalType": "uint256",
              "name": "totalSBRRewardPerToken",
              "type": "uint256"
            }
          ],
          "indexed": false,
          "internalType": "struct IStabilityPool.StakeResetSnapshot",
          "name": "snapshot",
          "type": "tuple"
        }
      ],
      "name": "ScalingFactorReset",
      "type": "event"
    },
    {
      "anonymous": false,
      "inputs": [
        {
          "indexed": true,
          "internalType": "address",
          "name": "user",
          "type": "address"
        },
        {
          "indexed": false,
          "internalType": "uint256",
          "name": "amount",
          "type": "uint256"
        }
      ],
      "name": "Staked",
      "type": "event"
    },
    {
      "anonymous": false,
      "inputs": [
        {
          "indexed": true,
          "internalType": "address",
          "name": "user",
          "type": "address"
        },
        {
          "indexed": false,
          "internalType": "uint256",
          "name": "amount",
          "type": "uint256"
        }
      ],
      "name": "Unstaked",
      "type": "event"
    },
    {
      "inputs": [],
      "name": "BASIS_POINTS_DIVISOR",
      "outputs": [
        {
          "internalType": "uint256",
          "name": "",
          "type": "uint256"
        }
      ],
      "stateMutability": "view",
      "type": "function"
    },
    {
      "inputs": [
        {
          "internalType": "uint256",
          "name": "amount",
          "type": "uint256"
        }
      ],
      "name": "addCollateralReward",
      "outputs": [
        {
          "internalType": "bool",
          "name": "",
          "type": "bool"
        }
      ],
      "stateMutability": "payable",
      "type": "function"
    },
    {
      "inputs": [
        {
          "internalType": "uint256",
          "name": "_amount",
          "type": "uint256"
        }
      ],
      "name": "addReward",
      "outputs": [
        {
          "internalType": "bool",
          "name": "",
          "type": "bool"
        }
      ],
      "stateMutability": "nonpayable",
      "type": "function"
    },
    {
      "inputs": [],
      "name": "claim",
      "outputs": [],
      "stateMutability": "nonpayable",
      "type": "function"
    },
    {
      "inputs": [
        {
          "internalType": "address",
          "name": "frontend",
          "type": "address"
        },
        {
          "internalType": "uint256",
          "name": "fee",
          "type": "uint256"
        }
      ],
      "name": "claim",
      "outputs": [],
      "stateMutability": "nonpayable",
      "type": "function"
    },
    {
      "inputs": [],
      "name": "collateralLoss",
      "outputs": [
        {
          "internalType": "uint256",
          "name": "",
          "type": "uint256"
        }
      ],
      "stateMutability": "view",
      "type": "function"
    },
    {
      "inputs": [
        {
          "internalType": "address",
          "name": "_user",
          "type": "address"
        }
      ],
      "name": "getUser",
      "outputs": [
        {
          "components": [
            {
              "internalType": "uint256",
              "name": "stake",
              "type": "uint256"
            },
            {
              "internalType": "uint256",
              "name": "rewardSnapshot",
              "type": "uint256"
            },
            {
              "internalType": "uint256",
              "name": "collateralSnapshot",
              "type": "uint256"
            },
            {
              "internalType": "uint256",
              "name": "cumulativeProductScalingFactor",
              "type": "uint256"
            },
            {
              "internalType": "uint256",
              "name": "stakeResetCount",
              "type": "uint256"
            }
          ],
          "internalType": "struct IStabilityPool.UserInfo",
          "name": "user",
          "type": "tuple"
        }
      ],
      "stateMutability": "view",
      "type": "function"
    },
    {
      "inputs": [
        {
          "internalType": "uint256",
          "name": "amount",
          "type": "uint256"
        }
      ],
      "name": "isLiquidationPossible",
      "outputs": [
        {
          "internalType": "bool",
          "name": "",
          "type": "bool"
        }
      ],
      "stateMutability": "view",
      "type": "function"
    },
    {
      "inputs": [],
      "name": "lastSBRRewardDistributedTime",
      "outputs": [
        {
          "internalType": "uint256",
          "name": "",
          "type": "uint256"
        }
      ],
      "stateMutability": "view",
      "type": "function"
    },
    {
      "inputs": [],
      "name": "minimumScalingFactor",
      "outputs": [
        {
          "internalType": "uint256",
          "name": "",
          "type": "uint256"
        }
      ],
      "stateMutability": "view",
      "type": "function"
    },
    {
      "inputs": [],
      "name": "owner",
      "outputs": [
        {
          "internalType": "address",
          "name": "",
          "type": "address"
        }
      ],
      "stateMutability": "view",
      "type": "function"
    },
    {
      "inputs": [
        {
          "internalType": "uint256",
          "name": "amount",
          "type": "uint256"
        },
        {
          "internalType": "uint256",
          "name": "collateral",
          "type": "uint256"
        }
      ],
      "name": "performLiquidation",
      "outputs": [
        {
          "internalType": "bool",
          "name": "",
          "type": "bool"
        }
      ],
      "stateMutability": "payable",
      "type": "function"
    },
    {
      "inputs": [],
      "name": "precision",
      "outputs": [
        {
          "internalType": "uint256",
          "name": "",
          "type": "uint256"
        }
      ],
      "stateMutability": "view",
      "type": "function"
    },
    {
      "inputs": [],
      "name": "renounceOwnership",
      "outputs": [],
      "stateMutability": "nonpayable",
      "type": "function"
    },
    {
      "inputs": [],
      "name": "rewardLoss",
      "outputs": [
        {
          "internalType": "uint256",
          "name": "",
          "type": "uint256"
        }
      ],
      "stateMutability": "view",
      "type": "function"
    },
    {
      "inputs": [],
      "name": "rewardSenderActive",
      "outputs": [
        {
          "internalType": "bool",
          "name": "",
          "type": "bool"
        }
      ],
      "stateMutability": "view",
      "type": "function"
    },
    {
      "inputs": [],
      "name": "sbrDistributionRate",
      "outputs": [
        {
          "internalType": "uint256",
          "name": "",
          "type": "uint256"
        }
      ],
      "stateMutability": "view",
      "type": "function"
    },
    {
      "inputs": [],
      "name": "sbrRewardDistributionEndTime",
      "outputs": [
        {
          "internalType": "uint256",
          "name": "",
          "type": "uint256"
        }
      ],
      "stateMutability": "view",
      "type": "function"
    },
    {
      "inputs": [],
      "name": "sbrRewardDistributionStatus",
      "outputs": [
        {
          "internalType": "enum StabilityPool.SBRRewardDistribution",
          "name": "",
          "type": "uint8"
        }
      ],
      "stateMutability": "view",
      "type": "function"
    },
    {
      "inputs": [],
      "name": "sbrRewardLoss",
      "outputs": [
        {
          "internalType": "uint256",
          "name": "",
          "type": "uint256"
        }
      ],
      "stateMutability": "view",
      "type": "function"
    },
    {
      "inputs": [
        {
          "internalType": "address",
          "name": "",
          "type": "address"
        }
      ],
      "name": "sbrRewardSnapshots",
      "outputs": [
        {
          "internalType": "uint256",
          "name": "rewardSnapshot",
          "type": "uint256"
        },
        {
          "internalType": "enum StabilityPool.SBRRewardDistribution",
          "name": "status",
          "type": "uint8"
        }
      ],
      "stateMutability": "view",
      "type": "function"
    },
    {
      "inputs": [],
      "name": "sbrToken",
      "outputs": [
        {
          "internalType": "contract IMintableToken",
          "name": "",
          "type": "address"
        }
      ],
      "stateMutability": "view",
      "type": "function"
    },
    {
      "inputs": [
        {
          "internalType": "address",
          "name": "_stakingToken",
          "type": "address"
        },
        {
          "internalType": "address",
          "name": "_stableBaseCDP",
          "type": "address"
        },
        {
          "internalType": "address",
          "name": "_sbrToken",
          "type": "address"
        }
      ],
      "name": "setAddresses",
      "outputs": [],
      "stateMutability": "nonpayable",
      "type": "function"
    },
    {
      "inputs": [],
      "name": "stableBaseCDP",
      "outputs": [
        {
          "internalType": "address",
          "name": "",
          "type": "address"
        }
      ],
      "stateMutability": "view",
      "type": "function"
    },
    {
      "inputs": [
        {
          "internalType": "uint256",
          "name": "_amount",
          "type": "uint256"
        },
        {
          "internalType": "address",
          "name": "frontend",
          "type": "address"
        },
        {
          "internalType": "uint256",
          "name": "fee",
          "type": "uint256"
        }
      ],
      "name": "stake",
      "outputs": [],
      "stateMutability": "nonpayable",
      "type": "function"
    },
    {
      "inputs": [
        {
          "internalType": "uint256",
          "name": "_amount",
          "type": "uint256"
        }
      ],
      "name": "stake",
      "outputs": [],
      "stateMutability": "nonpayable",
      "type": "function"
    },
    {
      "inputs": [],
      "name": "stakeResetCount",
      "outputs": [
        {
          "internalType": "uint256",
          "name": "",
          "type": "uint256"
        }
      ],
      "stateMutability": "view",
      "type": "function"
    },
    {
      "inputs": [
        {
          "internalType": "uint256",
          "name": "",
          "type": "uint256"
        }
      ],
      "name": "stakeResetSnapshots",
      "outputs": [
        {
          "internalType": "uint256",
          "name": "scalingFactor",
          "type": "uint256"
        },
        {
          "internalType": "uint256",
          "name": "totalRewardPerToken",
          "type": "uint256"
        },
        {
          "internalType": "uint256",
          "name": "totalCollateralPerToken",
          "type": "uint256"
        },
        {
          "internalType": "uint256",
          "name": "totalSBRRewardPerToken",
          "type": "uint256"
        }
      ],
      "stateMutability": "view",
      "type": "function"
    },
    {
      "inputs": [],
      "name": "stakeScalingFactor",
      "outputs": [
        {
          "internalType": "uint256",
          "name": "",
          "type": "uint256"
        }
      ],
      "stateMutability": "view",
      "type": "function"
    },
    {
      "inputs": [],
      "name": "stakingToken",
      "outputs": [
        {
          "internalType": "contract IERC20",
          "name": "",
          "type": "address"
        }
      ],
      "stateMutability": "view",
      "type": "function"
    },
    {
      "inputs": [],
      "name": "totalCollateralPerToken",
      "outputs": [
        {
          "internalType": "uint256",
          "name": "",
          "type": "uint256"
        }
      ],
      "stateMutability": "view",
      "type": "function"
    },
    {
      "inputs": [],
      "name": "totalRewardPerToken",
      "outputs": [
        {
          "internalType": "uint256",
          "name": "",
          "type": "uint256"
        }
      ],
      "stateMutability": "view",
      "type": "function"
    },
    {
      "inputs": [],
      "name": "totalSbrRewardPerToken",
      "outputs": [
        {
          "internalType": "uint256",
          "name": "",
          "type": "uint256"
        }
      ],
      "stateMutability": "view",
      "type": "function"
    },
    {
      "inputs": [],
      "name": "totalStakedRaw",
      "outputs": [
        {
          "internalType": "uint256",
          "name": "",
          "type": "uint256"
        }
      ],
      "stateMutability": "view",
      "type": "function"
    },
    {
      "inputs": [
        {
          "internalType": "address",
          "name": "newOwner",
          "type": "address"
        }
      ],
      "name": "transferOwnership",
      "outputs": [],
      "stateMutability": "nonpayable",
      "type": "function"
    },
    {
      "inputs": [
        {
          "internalType": "uint256",
          "name": "amount",
          "type": "uint256"
        }
      ],
      "name": "unstake",
      "outputs": [],
      "stateMutability": "nonpayable",
      "type": "function"
    },
    {
      "inputs": [
        {
          "internalType": "uint256",
          "name": "_amount",
          "type": "uint256"
        },
        {
          "internalType": "address",
          "name": "frontend",
          "type": "address"
        },
        {
          "internalType": "uint256",
          "name": "fee",
          "type": "uint256"
        }
      ],
      "name": "unstake",
      "outputs": [],
      "stateMutability": "nonpayable",
      "type": "function"
    },
    {
      "inputs": [
        {
          "internalType": "address",
          "name": "_user",
          "type": "address"
        }
      ],
      "name": "userPendingCollateral",
      "outputs": [
        {
          "internalType": "uint256",
          "name": "",
          "type": "uint256"
        }
      ],
      "stateMutability": "view",
      "type": "function"
    },
    {
      "inputs": [
        {
          "internalType": "address",
          "name": "_user",
          "type": "address"
        }
      ],
      "name": "userPendingReward",
      "outputs": [
        {
          "internalType": "uint256",
          "name": "",
          "type": "uint256"
        }
      ],
      "stateMutability": "view",
      "type": "function"
    },
    {
      "inputs": [
        {
          "internalType": "address",
          "name": "_user",
          "type": "address"
        }
      ],
      "name": "userPendingRewardAndCollateral",
      "outputs": [
        {
          "internalType": "uint256",
          "name": "",
          "type": "uint256"
        },
        {
          "internalType": "uint256",
          "name": "",
          "type": "uint256"
        },
        {
          "internalType": "uint256",
          "name": "",
          "type": "uint256"
        }
      ],
      "stateMutability": "view",
      "type": "function"
    },
    {
      "inputs": [
        {
          "internalType": "address",
          "name": "",
          "type": "address"
        }
      ],
      "name": "users",
      "outputs": [
        {
          "internalType": "uint256",
          "name": "stake",
          "type": "uint256"
        },
        {
          "internalType": "uint256",
          "name": "rewardSnapshot",
          "type": "uint256"
        },
        {
          "internalType": "uint256",
          "name": "collateralSnapshot",
          "type": "uint256"
        },
        {
          "internalType": "uint256",
          "name": "cumulativeProductScalingFactor",
          "type": "uint256"
        },
        {
          "internalType": "uint256",
          "name": "stakeResetCount",
          "type": "uint256"
        }
      ],
      "stateMutability": "view",
      "type": "function"
    },
    {
      "stateMutability": "payable",
      "type": "receive"
    }
  ],
  "bytecode": "0x6080346200010057601f620032ea38819003918201601f19168301916001600160401b03831184841017620001055780849260209460405283398101031262000100575180151580910362000100573315620000e75760008054336001600160a01b0319821681178355604051939260ff929091906001600160a01b03167f8be0079c531659141344cd1fd0a4f28419497f9722a3daafe3b4186f6b6457e08380a380600a5580600b55670de0b6b3a76400009081600c5580600d5580600e55600f558119908160105416601055601155601454169116176014556131ce90816200011c8239f35b604051631e4fbdf760e01b815260006004820152602490fd5b600080fd5b634e487b7160e01b600052604160045260246000fdfe608060409080825260049081361015610068575b5050361561002057600080fd5b7f88a5966d370b9919b20f3e2c13ff65706f196a4e32cc2c12bf57088f88525874906100586001600160a01b03600254163314611fc8565b51338152346020820152604090a1005b600091823560e01c9182630498dc3914611ed9575081630919e43914611eb25781630a4f08e014611e93578163126082cf14611e765781631625115c14611e575781632e17de78146119fc57816333d67481146119dd578163363bf9641461195e5781633e2403911461193a57816342c3c0011461191b5781634e71d92d146114f95781634fab3ee1146114ad57816351a7c716146112af57816352795cc81461129057816358bac6bb14611271578163619ecc7c146112495781636e9c931c146110935781636f77926b14610ff3578163715018a614610fcf5781637174df7014610f9c57816372f702f314610f7457816373b2389914610be257816374de4ec414610bac5781638da5cb5b14610b8657816396b1ea9414610b4c5781639e436b0614610b2d578163a214f9ef14610b0e578163a64dfc5d14610aef578163a694fc3a1461051b578163a87430ba146104a5578163aad3ec9614610463578163abbdf0ad1461043d578163b893cd91146103ea578163c2050f8d146103c2578163c504641d146103a3578163c5eb8bb214610363578163caf63e6c1461032b578163d3b5dc3b14610308578163ebba8d4d146102e9578163f2fde38b1461025d575063fca92dea1461023b5780610013565b9034610259578160031936011261025957602090600c549051908152f35b5080fd5b839150346102e55760203660031901126102e557610279611f17565b90610282611f5c565b6001600160a01b038092169283156102cf57505082546001600160a01b0319811683178455167f8be0079c531659141344cd1fd0a4f28419497f9722a3daafe3b4186f6b6457e08380a380f35b51631e4fbdf760e01b8152908101849052602490fd5b8280fd5b828434610259578160031936011261025957602090600b549051908152f35b82843461025957816003193601126102595760209051670de0b6b3a76400008152f35b8284346102595760203660031901126102595760609061035161034c611f17565b612fd4565b91929081519384526020840152820152f35b8284346102595760203660031901126102595761039a816020936001600160a01b0361038d611f17565b1681526013855220612c01565b50915191825250f35b828434610259578160031936011261025957602090600d549051908152f35b8284346102595781600319360112610259576020906001600160a01b03600254169051908152f35b839150346102e55760203660031901126102e557358252600860209081529181902080546001820154600283015460039093015493519182529381019390935260408301526060820152608090f35b0390f35b839150346102e55760203660031901126102e55760209250600354903511159051908152f35b82843461025957806003193601126102595761047d611f17565b90338352601360205282208054610492578280f35b61049f916024359161216e565b81808280f35b8383346105185760203660031901126105185781610439916001600160a01b036104cd611f17565b1681526013602052209182549260018101549460028201549060038301549201549251958695869192608093969594919660a084019784526020840152604083015260608201520152565b80fd5b839150346102e557602080600319360112610aeb578135918215610aaf573385526013825283852060ff6010541682811015610a9c57600203610a8f575b8590869187889389928a9260038601928354610a7c575b88549760019889890155600554600289015560ff601054168a811015610a69578d8f8b60028f941415600014610a2057506009600a54933383525220555b8315801561095d575b50821580156108e1575b508c871595861596876107f4575b509161061d9183600080516020613179833981519152969594546107dc575b600c549055600d548d8c0155519384933397859094939260609260808301968352602083015260408201520152565b0390a26107a7575b5050815486516323b872dd60e01b815233858201908152306020820152604081018890526001600160a01b0393928791839186169082908d90829060600103925af1801561079d5761067e918a91610780575b5061209c565b6106898682546120e8565b905560035461069886826120e8565b6003551580610774575b6106d7575b5050507f9e71bc8eea02a63969f509818f2dafb9254532904319f9dbda79b67bd34a5f3d9192519283523392a280f35b9060248492600254169388885195869485936393b3e6d360e01b85528401525af190811561076a577f9e71bc8eea02a63969f509818f2dafb9254532904319f9dbda79b67bd34a5f3d93949161073491879161073d575b5061210b565b929185806106a7565b61075d9150843d8611610763575b6107558183612062565b810190612084565b8761072e565b503d61074b565b84513d87823e3d90fd5b5060ff601454166106a2565b6107979150873d8911610763576107558183612062565b8a610678565b88513d8b823e3d90fd5b8751918252858201527f336167da71383daaeda5f91dd438aed09513a5eba021483293f7cab23d054eae873392a28780610625565b6107ed6107e88d612b43565b613011565b8c556105ee565b9150919293949596508917156108ce57908995949392918e6108538f8a8f91849b856001600160a01b036012541692518096819582946340c10f1960e01b845233908401602090939291936001600160a01b0360408201951681520152565b03925af19182156108c157916108a4575b5015610872578d90386105cf565b508c5162461bcd60e51b8152808b018c9052600b60248201526a135a5b9d0819985a5b195960aa1b6044820152606490fd5b6108bb91508d803d10610763576107558183612062565b38610864565b90508f51903d90823e3d90fd5b634e487b7160e01b8e5260118a5260248efd5b905088171561094a578c8d80808086335af16108fb612bc1565b5015610907578e6105c1565b8c5162461bcd60e51b8152808b018c9052601a60248201527f436f6c6c61746572616c207472616e73666572206661696c65640000000000006044820152606490fd5b634e487b7160e01b8d526011895260248dfd5b90915088171561094a5787548c5163a9059cbb60e01b8152338b8201908152602081018690528f93928492918e91839182900360400190829086906001600160a01b03165af1918215610a1557916109f8575b50156109bc578e6105b7565b8c5162461bcd60e51b8152808b018c9052601660248201527514995dd85c99081d1c985b9cd9995c8819985a5b195960521b6044820152606490fd5b610a0f91508c8d3d10610763576107558183612062565b8f6109b0565b8f51903d90823e3d90fd5b338252600990935220015460ff168a811015610a69578d8f8d60038d9403610a4c575b505050506105ae565b338252600990522001805460ff19166003179055888d8f8d610a43565b634e487b7160e01b8f5260218b5260248ffd5b94505050610a8984612c01565b94610570565b610a976126c6565b610559565b634e487b7160e01b875260218352602487fd5b60649184519162461bcd60e51b8352820152601860248201527743616e6e6f74207374616b65207a65726f20746f6b656e7360401b6044820152fd5b8380fd5b8284346102595781600319360112610259576020906011549051908152f35b82843461025957816003193601126102595760209051633b9aca008152f35b828434610259578160031936011261025957602090600a549051908152f35b838360203660031901126105185750610b7d602092610b776001600160a01b03600254163314611fc8565b35612a79565b90519015158152f35b8284346102595781600319360112610259576001600160a01b0360209254169051908152f35b8383346105185760203660031901126105185750610b7d602092610bdc6001600160a01b03600254163314611fc8565b35612881565b838092506003193601126102e55760025481359360248035926001600160a01b0316610c0f338214611fc8565b60035496878111610f3257610c25853414612a2d565b600c5497610c338282612161565b95670de0b6b3a76400009687810290808204891490151715610f2057610c63610c5d848a936126a6565b8c612693565b04998a600c55610c75600754836120e8565b610c7f8282612693565b898102908082048b1490151715610f0e57610c9b858b926126a6565b0491610cb785610cad856005546120e8565b9485600555612693565b8a8102908082048c1490151715610efc5793610d3d86948f8f610d108f978f9d9c9a98610d09610d459d997f59a8228a7fe4b6c3f4b4e280ee138524bcc0f5fdc478b910ef0bcd23ba77929a9b6126a6565b0490612161565b6007555194859489869192608093969594919660a084019784526020840152604083015260608201520152565b0390a1612161565b806003551580610ef0575b610e45575b5050633b9aca008610610d6d575b6020855160018152f35b83549060055492600a5494875198610d848a612046565b89526020890193845287890194855260608901958652600d5482526008602052878220895181558451600182015585516002820155600387519101558160055581875581600a55600c55600d54956000198714610e35576001870180600d558711610e3557505050947f6d03d2f0849bc4a04fd4c42e8a290943e89441aab87db7f2d66e5e61e8c9d8659260809260209787519351845251888401525186830152516060820152a282808080610d63565b634e487b7160e01b825260119052fd5b602090838851809481936393b3e6d360e01b8352818b8401525af1908115610ee6578391610ec8575b5015610e7b578187610d55565b836022608492602088519362461bcd60e51b85528401528201527f556e61626c6520746f2064656163746976617465207265776172642073656e6460448201526132b960f11b6064820152fd5b610ee0915060203d8111610763576107558183612062565b87610e6e565b86513d85823e3d90fd5b5060ff60145416610d50565b634e487b7160e01b8a5260118c52888afd5b634e487b7160e01b895260118b528789fd5b634e487b7160e01b8752601189528587fd5b865162461bcd60e51b8152602081880152601a818501527f496e76616c6964206c69717569646174696f6e20616d6f756e740000000000006044820152606490fd5b8284346102595781600319360112610259576020906001600160a01b03600154169051908152f35b82843461025957602036600319011261025957610fc6816020936001600160a01b0361038d611f17565b50509051908152f35b8234610518578060031936011261051857610fe8611f5c565b610ff0611f88565b80f35b8284346102595760203660031901126102595760806110508260a0946001600160a01b0361101f611f17565b8286855161102c81612014565b82815282602082015282878201528260608201520152168152601360205220612b43565b606081018051611083575b8351938251855260208301516020860152808301519085015251606084015201516080820152f35b61108c82613011565b825261105b565b839150346102e5576110a436611f32565b919290831561120b573386526110c460209360138552868820928361216e565b60015485516323b872dd60e01b815233848201908152306020820152604081018790526001600160a01b0393928691839186169082908c90829060600103925af180156112015761111b9189916111e4575061209c565b6111268582546120e8565b905560035461113585826120e8565b60035515806111d8575b611173575b50507f9e71bc8eea02a63969f509818f2dafb9254532904319f9dbda79b67bd34a5f3d9192519283523392a280f35b600160248492600254169388885195869485936393b3e6d360e01b85528401525af190811561076a577f9e71bc8eea02a63969f509818f2dafb9254532904319f9dbda79b67bd34a5f3d9394916111d091879161073d575061210b565b929185611144565b5060ff6014541661113f565b6111fb9150863d8811610763576107558183612062565b89610678565b87513d8a823e3d90fd5b845162461bcd60e51b8152602081840152601860248201527743616e6e6f74207374616b65207a65726f20746f6b656e7360401b6044820152606490fd5b8284346102595781600319360112610259576020906001600160a01b03601254169051908152f35b828434610259578160031936011261025957602090600e549051908152f35b828434610259578160031936011261025957602090600f549051908152f35b839150346102e5576112c036611f32565b919290831561146a573386526112e060209360138552868820928361216e565b805480851161142e57846112f391612161565b9055818361130381600354612161565b806003551580611422575b6113af575b600154865163a9059cbb60e01b8152339481019485526020850192909252909283916001600160a01b0316908290899082906040015b03925af190811561076a577f0f5bb82176feb1b5e747e28471aa92156a04d9f3ab9f45f28e2d704232b93f75939491611388918791611392575061209c565b519283523392a280f35b6113a99150843d8611610763576107558183612062565b87610678565b5085906001600160a01b036002541660248751809481936393b3e6d360e01b835281888401525af1801561141857611349926113f4869286948a916113fb575061210b565b9250611313565b6114129150853d8711610763576107558183612062565b8a61072e565b85513d88823e3d90fd5b5060ff6014541661130e565b855162461bcd60e51b81528084018590526016602482015275125b9d985b1a59081d5b9cdd185ad948185b5bdd5b9d60521b6044820152606490fd5b845162461bcd60e51b8152602081840152601a60248201527f43616e6e6f7420756e7374616b65207a65726f20746f6b656e730000000000006044820152606490fd5b8284346102595760203660031901126102595780916001600160a01b036114d2611f17565b1681526009602052206114f760ff600183549301541683519283526020830190611ef4565bf35b905082346102e557826003193601126102e557338352602090601382528084208054611523578480f35b60ff6010541684811015611908576002036118fb575b8493859486879688978995600381019586546118e0575b80549660019788840155600554600284015560ff60105416828110156118cd578a8e8a60028f94141560001461188457506009600a54933383525220555b861580156117b3575b5085158015611735575b508b1580159889611650575b50509160008051602061317983398151915295949391836115fd945461163d575b600c549055600d5491015588519384933397859094939260609260808301968352602083015260408201520152565b0390a2611608578480f35b7f336167da71383daaeda5f91dd438aed09513a5eba021483293f7cab23d054eae9282519485528401523392a2818080808480f35b6116496107e884612b43565b83556115ce565b9091929d9c9b9a99501715611722579a8a9b8b808b6116ab8e9f9c809e9f6001600160a01b036012541691519485809481936340c10f1960e01b8352338c8401602090939291936001600160a01b0360408201951681520152565b03925af191821561171757916116fa575b50156116c9578d806115ad565b895162461bcd60e51b81528083018c9052600b60248201526a135a5b9d0819985a5b195960aa1b6044820152606490fd5b61171191508c8d3d10610763576107558183612062565b8e6116bc565b8c51903d90823e3d90fd5b634e487b7160e01b8b5260118c5260248bfd5b9093508717156117a0578b928c80808089335af1611751612bc1565b501561175d578d6115a1565b895162461bcd60e51b81528083018c9052601a60248201527f436f6c6c61746572616c207472616e73666572206661696c65640000000000006044820152606490fd5b634e487b7160e01b8c526011905260248bfd5b909192939450871715611871578654895163a9059cbb60e01b815233848201908152602081018990528e96959493928792918e91839182900360400190829086906001600160a01b03165af19182156117175791611854575b5015611818578d611597565b895162461bcd60e51b81528083018c9052601660248201527514995dd85c99081d1c985b9cd9995c8819985a5b195960521b6044820152606490fd5b61186b91508c8d3d10610763576107558183612062565b8e61180c565b634e487b7160e01b8c526011825260248cfd5b338252600990935220015460ff16828110156118cd578a8e8d60038c94036118b0575b5050505061158e565b338252600990522001805460ff19166003179055878a8e8d6118a7565b634e487b7160e01b8e526021835260248efd5b94506118f0919950809350612c01565b999193909394611550565b6119036126c6565b611539565b634e487b7160e01b865260218552602486fd5b8284346102595781600319360112610259576020906003549051908152f35b82843461025957816003193601126102595760209060ff6014541690519015158152f35b823461051857606036600319011261051857611978611f17565b602435906001600160a01b0391828116809103610aeb57604435928084168094036119d9576119a5611f5c565b6bffffffffffffffffffffffff60a01b92168260015416176001558160025416176002556012541617601255610fe8611f5c565b8480fd5b8284346102595781600319360112610259576020906006549051908152f35b839150346102e557602080600319360112610aeb578135918215611e16573385526013825283852060ff6010541682811015610a9c57600203611e09575b8590869187889389928a9260038601928354611df6575b88549760019889890155600554600289015560ff601054168a811015610a69578d8f8b60028f941415600014611dad57506009600a54933383525220555b83158015611d31575b5082158015611d0b575b508c87159586159687611c70575b5091611afd9183600080516020613179833981519152969594546107dc57600c549055600d548d8c0155519384933397859094939260609260808301968352602083015260408201520152565b0390a2611c3b575b50508054808611611bff57918591611b1e838795612161565b9055611b2c82600354612161565b806003551580611bf3575b611b74575b54865163a9059cbb60e01b8152339481019485526020850192909252909283916001600160a01b031690829089908290604001611349565b918791506001600160a01b036002541660248851809481936393b3e6d360e01b835281898401525af1928315611be9576001600160a01b038593611bc36113499689958c91611bcc575061210b565b91945050611b3c565b611be39150873d8911610763576107558183612062565b8c61072e565b86513d89823e3d90fd5b5060ff60145416611b37565b865162461bcd60e51b81528085018690526016602482015275125b9d985b1a59081d5b9cdd185ad948185b5bdd5b9d60521b6044820152606490fd5b8751918252858201527f336167da71383daaeda5f91dd438aed09513a5eba021483293f7cab23d054eae873392a28780611b05565b9150919293949596508917156108ce57908995949392918e611ccf8f8a8f91849b856001600160a01b036012541692518096819582946340c10f1960e01b845233908401602090939291936001600160a01b0360408201951681520152565b03925af19182156108c15791611cee575b5015610872578d9038611ab0565b611d0591508d803d10610763576107558183612062565b38611ce0565b905088171561094a578c8d80808086335af1611d25612bc1565b5015610907578e611aa2565b90915088171561094a5787548c5163a9059cbb60e01b8152338b8201908152602081018690528f93928492918e91839182900360400190829086906001600160a01b03165af1918215610a155791611d90575b50156109bc578e611a98565b611da791508c8d3d10610763576107558183612062565b8f611d84565b338252600990935220015460ff168a811015610a69578d8f8d60038d9403611dd9575b50505050611a8f565b338252600990522001805460ff19166003179055888d8f8d611dd0565b94505050611e0384612c01565b94611a51565b611e116126c6565b611a3a565b60649184519162461bcd60e51b8352820152601a60248201527f43616e6e6f7420756e7374616b65207a65726f20746f6b656e730000000000006044820152fd5b8284346102595781600319360112610259576020906007549051908152f35b828434610259578160031936011261025957602090516127108152f35b8284346102595781600319360112610259576020906005549051908152f35b8284346102595781600319360112610259576020906114f760ff6010541691518092611ef4565b9150346102e557826003193601126102e55760209250548152f35b906004821015611f015752565b634e487b7160e01b600052602160045260246000fd5b600435906001600160a01b0382168203611f2d57565b600080fd5b6060906003190112611f2d57600435906024356001600160a01b0381168103611f2d579060443590565b6001600160a01b03600054163303611f7057565b60405163118cdaa760e01b8152336004820152602490fd5b600080546001600160a01b0319811682556001600160a01b03167f8be0079c531659141344cd1fd0a4f28419497f9722a3daafe3b4186f6b6457e08280a3565b15611fcf57565b60405162461bcd60e51b815260206004820152601f60248201527f43616c6c6572206973206e6f7420746865206465627420636f6e7472616374006044820152606490fd5b60a0810190811067ffffffffffffffff82111761203057604052565b634e487b7160e01b600052604160045260246000fd5b6080810190811067ffffffffffffffff82111761203057604052565b90601f8019910116810190811067ffffffffffffffff82111761203057604052565b90816020910312611f2d57518015158103611f2d5790565b156120a357565b60405162461bcd60e51b815260206004820152601660248201527f5472616e7366657220746f6b656e73206661696c6564000000000000000000006044820152606490fd5b919082018092116120f557565b634e487b7160e01b600052601160045260246000fd5b1561211257565b60405162461bcd60e51b815260206004820152602160248201527f556e61626c6520746f207365742072657761726420646973747269627574696f6044820152603760f91b6064820152608490fd5b919082039182116120f557565b9160ff60105416926004938481101561267e57600203612671575b6000906000809181908297839760038301908154612657575b82546001850155600554600285015560ff60105416838110156126445760021461260357600a54338752600960205260408720555b876124be575b86612424575b8a801515998a612291575b505050916000805160206131798339815191529594939183612240945461227e575b600c549055600d549101556040519384933397859094939260609260808301968352602083015260408201520152565b0390a261224b575050565b60405191825260208201527f336167da71383daaeda5f91dd438aed09513a5eba021483293f7cab23d054eae60403392a2565b61228a6107e884612b43565b8355612210565b612710929b50906122a59198979698612693565b04988a6001600160a01b03916122c08c846012541693612161565b9260405186816340c10f1960e01b95868252816000816122fd60209b8c9733908401602090939291936001600160a01b0360408201951681520152565b03925af19081156123c957600091612407575b50156123d557908c92918361232e575b50508c9150979596976121ee565b9161236c979593916000869c98969460125416926040519a8b958694859384528a8401602090939291936001600160a01b0360408201951681520152565b03925af19788156123c957600080516020613179833981519152986122409661239e926000926123ac575b5050612b7f565b919350919589388080612320565b6123c29250803d10610763576107558183612062565b3880612397565b6040513d6000823e3d90fd5b60405162461bcd60e51b8152808701859052600b60248201526a135a5b9d0819985a5b195960aa1b6044820152606490fd5b61241e9150853d8711610763576107558183612062565b38612310565b9350612710612433878a612693565b04936000808080612444898c612161565b335af161244f612bc1565b501561247a5784156121e357612475600080808089865af161246f612bc1565b50612b7f565b6121e3565b60405162461bcd60e51b8152602081850152601a60248201527f436f6c6c61746572616c207472616e73666572206661696c65640000000000006044820152606490fd5b94506127106124cd888a612693565b04946001600160a01b0380600154166124e6888b612161565b91604051868163a9059cbb60e01b948582528160008161252360209a8b9733908401602090939291936001600160a01b0360408201951681520152565b03925af19081156123c9576000916125e6575b50156125a957888061254c575b505050506121dd565b6125839284926001541690600060405180968195829483528a8d8401602090939291936001600160a01b0360408201951681520152565b03925af19081156123c9576125a0926000926123ac575050612b7f565b38808088612543565b60405162461bcd60e51b8152808701849052601660248201527514995dd85c99081d1c985b9cd9995c8819985a5b195960521b6044820152606490fd5b6125fd9150843d8611610763576107558183612062565b38612536565b338652600960205260ff60016040882001541683811015612644576003146121d757338652600960205260408620600101805460ff191660031790556121d7565b634e487b7160e01b875260218452602487fd5b96509450975061266681612c01565b9991959095966121a2565b6126796126c6565b612189565b602185634e487b7160e01b6000525260246000fd5b818102929181159184041417156120f557565b81156126b0570490565b634e487b7160e01b600052601260045260246000fd5b60105460ff81166004811015611f01576001810361280b575050600f546127076126f08242612161565b82600e548042116127ed575b505060115490612693565b600354918261271a575b50505042600f55565b612726600b54836120e8565b600c54936127348583612693565b94670de0b6b3a764000095868102908082048814901517156120f5578661275e84612776936126a6565b049261276c84600a546120e8565b9384600a55612693565b92868402938085048814901517156120f5577ffe3516168fa6f5423bf11c50d47de797100cdc025318602cde3110d3baddae2b96610d096127ba936127e2966126a6565b600b556040519384934290859094939260609260808301968352602083015260408201520152565b0390a1388080612711565b6128049250600260ff196010541617601055612161565b82386126fc565b156128135750565b42600f556301e133804201908142116120f557600191600e5560ff191617601055565b1561283d57565b606460405162461bcd60e51b815260206004820152602060248201527f526577617264206d7573742062652067726561746572207468616e207a65726f6044820152fd5b61288c811515612836565b6003548015612a26576001546040516323b872dd60e01b81523360048083019190915230602483015260448201859052926001600160a01b03909216919060208180606481010381600080975af1908115612a1b57906128f29184916129fd575061209c565b6128fe600654856120e8565b90600c5461290c8184612693565b91670de0b6b3a764000092838102908082048514901517156129ea5790836129378261294a946126a6565b046129438189546120e8565b8855612693565b828102908082048414901517156129d75761296a939291610d09916126a6565b60065560ff6010541691808310156129c45750507fde88a922e0d3b88b24e9623efeb464919c6bf9f66857a65e2bfcf2ce87a9433d916002602092036129b7575b604051908152a1600190565b6129bf6126c6565b6129ab565b634e487b7160e01b825260219052602490fd5b634e487b7160e01b855260118652602485fd5b634e487b7160e01b865260118752602486fd5b612a15915060203d8111610763576107558183612062565b38610678565b6040513d85823e3d90fd5b5050600090565b15612a3457565b60405162461bcd60e51b815260206004820152601960248201527f496e76616c696420636f6c6c61746572616c20616d6f756e74000000000000006044820152606490fd5b612a84811515612836565b612a8f813414612a2d565b600354908115612a2657612aa5600754826120e8565b90600c54612ab38184612693565b670de0b6b3a764000094858202918083048714901517156120f55785612adc82612af1946126a6565b04612ae9816005546120e8565b600555612693565b92848402938085048614901517156120f5577f39434c7ce7d70dbcb1fff3d0ea6f47500ac190d6bf4f681f54f64200a7a696b794610d09612b34936020966126a6565b600755604051908152a1600190565b90604051612b5081612014565b608060048294805484526001810154602085015260028101546040850152600381015460608501520154910152565b15612b8657565b60405162461bcd60e51b8152602060048201526013602482015272119959481d1c985b9cd9995c8819985a5b1959606a1b6044820152606490fd5b3d15612bfc573d9067ffffffffffffffff82116120305760405191612bf0601f8201601f191660200184612062565b82523d6000602084013e565b606090565b906000809160019233815260206009815260409160ff868483200154169060049182811015612fc157600314612fb9575b87820154600d5490818103612d47575050612c53825460018a015490612161565b612c5f89548092612693565b93670de0b6b3a76400009586860295808704881490151715612d3457612ca783612ca289612c928f60030154809b6126a6565b049d600260055491015490612161565b612693565b878102908082048914901517156129d757612cc38789926126a6565b0499612cd3575b50505050505050565b612cf59394959697985090612ca2916009600a54923388525285205490612161565b9184830292808404861490151715612d2157505090612d13916126a6565b049038808080808080612cca565b634e487b7160e01b825260119052602490fd5b634e487b7160e01b845260118552602484fd5b8291949381879b979452600885528383208451612d6381612046565b81548152612d976003600184015493848a85015260028101549884019889520154926060830193845260018b015490612161565b90612da48a548093612693565b92670de0b6b3a76400009a8b8502948086048d1490151715612fa65783612ca28260028f612dda6003612de6970154809b6126a6565b049c5191015490612161565b8b8102908082048d1490151715612fa6578f90918f9998979695949392612e0e868f926126a6565b0499612f49575b505051612e2191612693565b898102908082048b1490151715612f36578991612e3d916126a6565b049660018301809311612f23578214612edf575091868b838295899552600888522095838d5197612e6d89612046565b80548952600181015480938a015260028101549e89019e8f526003015497606001978852612e9a91612693565b04612ea4916120e8565b995190612eb091612693565b04612eba916120e8565b95612ec457505050565b612edc93949291612ed59151612693565b04906120e8565b90565b612efa949b50612f089550879250612ed59150869054612693565b9683612ed584600554612693565b94612f11575050565b90612ed5612edc939492600a54612693565b634e487b7160e01b845260118252602484fd5b634e487b7160e01b855260118352602485fd5b612f67929e508391612ca2915190338a5260098d5289205490612161565b8a8102908082048c1490151715612f9357908a612f8784612e21946126a6565b049c9091508e38612e15565b634e487b7160e01b865260118452602486fd5b634e487b7160e01b885260118652602488fd5b955085612c32565b506021602492634e487b7160e01b835252fd5b6001600160a01b0316600090815260136020526040902060038101541561300557612ffe90612c01565b9192909190565b50600090600090600090565b906080820191825192600d5480851460001461306857505090915061303a8151600c5490612693565b90670de0b6b3a764000091828102908082048414901517156120f5576060613064920151906126a6565b0490565b600094855260086020526040916130af838720845161308681612046565b606060038354938484526001810154602085015260028101548985015201549101528551612693565b670de0b6b3a7640000948582029180830487149015171561316457859160606130da920151906126a6565b0491815160018101809111613164571461315157516001810180911161313d57858391613064959697526008602052206060600384519261311a84612046565b805495868552600182015460208601526002820154908501520154910152612693565b634e487b7160e01b86526011600452602486fd5b50905061306491929350600c5490612693565b634e487b7160e01b88526011600452602488fdfe9e80c048bc588b388047ffc6e8153e7c11aa34312de7ed62e1858ff3a44ddce8a264697066735822122015c16016ca00cb08c6cb4a0dd53bf377470eae52a17fd46469bfc069ccab962d64736f6c63430008140033",
  "linkReferences": {},
  "deployedLinkReferences": {}
}