{
  "_format": "hh-sol-artifact-1",
  "contractName": "StableBaseCDP",
  "sourceName": "contracts/StableBaseCDP.sol",
  "abi": [
    {
      "inputs": [],
      "stateMutability": "nonpayable",
      "type": "constructor"
    },
    {
      "inputs": [
        {
          "internalType": "address",
          "name": "sender",
          "type": "address"
        },
        {
          "internalType": "uint256",
          "name": "tokenId",
          "type": "uint256"
        },
        {
          "internalType": "address",
          "name": "owner",
          "type": "address"
        }
      ],
      "name": "ERC721IncorrectOwner",
      "type": "error"
    },
    {
      "inputs": [
        {
          "internalType": "address",
          "name": "operator",
          "type": "address"
        },
        {
          "internalType": "uint256",
          "name": "tokenId",
          "type": "uint256"
        }
      ],
      "name": "ERC721InsufficientApproval",
      "type": "error"
    },
    {
      "inputs": [
        {
          "internalType": "address",
          "name": "approver",
          "type": "address"
        }
      ],
      "name": "ERC721InvalidApprover",
      "type": "error"
    },
    {
      "inputs": [
        {
          "internalType": "address",
          "name": "operator",
          "type": "address"
        }
      ],
      "name": "ERC721InvalidOperator",
      "type": "error"
    },
    {
      "inputs": [
        {
          "internalType": "address",
          "name": "owner",
          "type": "address"
        }
      ],
      "name": "ERC721InvalidOwner",
      "type": "error"
    },
    {
      "inputs": [
        {
          "internalType": "address",
          "name": "receiver",
          "type": "address"
        }
      ],
      "name": "ERC721InvalidReceiver",
      "type": "error"
    },
    {
      "inputs": [
        {
          "internalType": "address",
          "name": "sender",
          "type": "address"
        }
      ],
      "name": "ERC721InvalidSender",
      "type": "error"
    },
    {
      "inputs": [
        {
          "internalType": "uint256",
          "name": "tokenId",
          "type": "uint256"
        }
      ],
      "name": "ERC721NonexistentToken",
      "type": "error"
    },
    {
      "inputs": [
        {
          "internalType": "address",
          "name": "owner",
          "type": "address"
        }
      ],
      "name": "OwnableInvalidOwner",
      "type": "error"
    },
    {
      "inputs": [
        {
          "internalType": "address",
          "name": "account",
          "type": "address"
        }
      ],
      "name": "OwnableUnauthorizedAccount",
      "type": "error"
    },
    {
      "inputs": [],
      "name": "ReentrancyGuardReentrantCall",
      "type": "error"
    },
    {
      "anonymous": false,
      "inputs": [
        {
          "indexed": true,
          "internalType": "uint256",
          "name": "safeId",
          "type": "uint256"
        },
        {
          "indexed": false,
          "internalType": "uint256",
          "name": "amount",
          "type": "uint256"
        },
        {
          "indexed": false,
          "internalType": "uint256",
          "name": "newRatio",
          "type": "uint256"
        },
        {
          "indexed": false,
          "internalType": "uint256",
          "name": "totalCollateral",
          "type": "uint256"
        },
        {
          "indexed": false,
          "internalType": "uint256",
          "name": "totalDebt",
          "type": "uint256"
        }
      ],
      "name": "AddedCollateral",
      "type": "event"
    },
    {
      "anonymous": false,
      "inputs": [
        {
          "indexed": true,
          "internalType": "address",
          "name": "owner",
          "type": "address"
        },
        {
          "indexed": true,
          "internalType": "address",
          "name": "approved",
          "type": "address"
        },
        {
          "indexed": true,
          "internalType": "uint256",
          "name": "tokenId",
          "type": "uint256"
        }
      ],
      "name": "Approval",
      "type": "event"
    },
    {
      "anonymous": false,
      "inputs": [
        {
          "indexed": true,
          "internalType": "address",
          "name": "owner",
          "type": "address"
        },
        {
          "indexed": true,
          "internalType": "address",
          "name": "operator",
          "type": "address"
        },
        {
          "indexed": false,
          "internalType": "bool",
          "name": "approved",
          "type": "bool"
        }
      ],
      "name": "ApprovalForAll",
      "type": "event"
    },
    {
      "anonymous": false,
      "inputs": [
        {
          "indexed": false,
          "internalType": "uint256",
          "name": "_fromTokenId",
          "type": "uint256"
        },
        {
          "indexed": false,
          "internalType": "uint256",
          "name": "_toTokenId",
          "type": "uint256"
        }
      ],
      "name": "BatchMetadataUpdate",
      "type": "event"
    },
    {
      "anonymous": false,
      "inputs": [
        {
          "indexed": true,
          "internalType": "uint256",
          "name": "safeId",
          "type": "uint256"
        },
        {
          "indexed": false,
          "internalType": "uint256",
          "name": "amount",
          "type": "uint256"
        },
        {
          "indexed": false,
          "internalType": "uint256",
          "name": "weight",
          "type": "uint256"
        },
        {
          "indexed": false,
          "internalType": "uint256",
          "name": "totalCollateral",
          "type": "uint256"
        },
        {
          "indexed": false,
          "internalType": "uint256",
          "name": "totalDebt",
          "type": "uint256"
        },
        {
          "indexed": false,
          "internalType": "uint256",
          "name": "nearestSpotInRedemptionQueue",
          "type": "uint256"
        },
        {
          "indexed": false,
          "internalType": "uint256",
          "name": "nearestSpotInLiquidationQueue",
          "type": "uint256"
        }
      ],
      "name": "Borrowed",
      "type": "event"
    },
    {
      "anonymous": false,
      "inputs": [
        {
          "indexed": false,
          "internalType": "address",
          "name": "priceFeed",
          "type": "address"
        },
        {
          "indexed": false,
          "internalType": "uint256",
          "name": "price",
          "type": "uint256"
        }
      ],
      "name": "ConnectedToPriceFeed",
      "type": "event"
    },
    {
      "anonymous": false,
      "inputs": [
        {
          "indexed": true,
          "internalType": "uint256",
          "name": "safeId",
          "type": "uint256"
        },
        {
          "indexed": false,
          "internalType": "uint256",
          "name": "fee",
          "type": "uint256"
        },
        {
          "indexed": false,
          "internalType": "bool",
          "name": "mint",
          "type": "bool"
        },
        {
          "indexed": false,
          "internalType": "uint256",
          "name": "sbrStakersFee",
          "type": "uint256"
        },
        {
          "indexed": false,
          "internalType": "uint256",
          "name": "stabilityPoolFee",
          "type": "uint256"
        },
        {
          "indexed": false,
          "internalType": "uint256",
          "name": "canRefund",
          "type": "uint256"
        }
      ],
      "name": "FeeDistributed",
      "type": "event"
    },
    {
      "anonymous": false,
      "inputs": [
        {
          "indexed": true,
          "internalType": "uint256",
          "name": "safeId",
          "type": "uint256"
        },
        {
          "indexed": false,
          "internalType": "uint256",
          "name": "amount",
          "type": "uint256"
        }
      ],
      "name": "FeeRefund",
      "type": "event"
    },
    {
      "anonymous": false,
      "inputs": [
        {
          "indexed": true,
          "internalType": "uint256",
          "name": "safeId",
          "type": "uint256"
        },
        {
          "indexed": false,
          "internalType": "uint256",
          "name": "topupRate",
          "type": "uint256"
        },
        {
          "indexed": false,
          "internalType": "uint256",
          "name": "feePaid",
          "type": "uint256"
        },
        {
          "indexed": false,
          "internalType": "uint256",
          "name": "newWeight",
          "type": "uint256"
        }
      ],
      "name": "FeeTopup",
      "type": "event"
    },
    {
      "anonymous": false,
      "inputs": [
        {
          "indexed": true,
          "internalType": "uint256",
          "name": "safeId",
          "type": "uint256"
        },
        {
          "indexed": false,
          "internalType": "uint256",
          "name": "borrowAmount",
          "type": "uint256"
        },
        {
          "indexed": false,
          "internalType": "uint256",
          "name": "collateral",
          "type": "uint256"
        },
        {
          "indexed": false,
          "internalType": "uint256",
          "name": "totalCollateral",
          "type": "uint256"
        },
        {
          "indexed": false,
          "internalType": "uint256",
          "name": "totalDebt",
          "type": "uint256"
        }
      ],
      "name": "LiquidatedUsingSecondaryMechanism",
      "type": "event"
    },
    {
      "anonymous": false,
      "inputs": [
        {
          "indexed": true,
          "internalType": "uint256",
          "name": "safeId",
          "type": "uint256"
        },
        {
          "indexed": false,
          "internalType": "uint256",
          "name": "borrowAmount",
          "type": "uint256"
        },
        {
          "indexed": false,
          "internalType": "uint256",
          "name": "collateral",
          "type": "uint256"
        },
        {
          "indexed": false,
          "internalType": "uint256",
          "name": "totalCollateral",
          "type": "uint256"
        },
        {
          "indexed": false,
          "internalType": "uint256",
          "name": "totalDebt",
          "type": "uint256"
        }
      ],
      "name": "LiquidatedUsingStabilityPool",
      "type": "event"
    },
    {
      "anonymous": false,
      "inputs": [
        {
          "indexed": true,
          "internalType": "uint256",
          "name": "safeId",
          "type": "uint256"
        },
        {
          "indexed": false,
          "internalType": "address",
          "name": "receiver",
          "type": "address"
        },
        {
          "indexed": false,
          "internalType": "uint256",
          "name": "feePaid",
          "type": "uint256"
        }
      ],
      "name": "LiquidationFeePaid",
      "type": "event"
    },
    {
      "anonymous": false,
      "inputs": [
        {
          "indexed": true,
          "internalType": "uint256",
          "name": "safeId",
          "type": "uint256"
        },
        {
          "indexed": false,
          "internalType": "uint256",
          "name": "gasCompensated",
          "type": "uint256"
        },
        {
          "indexed": false,
          "internalType": "address",
          "name": "receiver",
          "type": "address"
        },
        {
          "indexed": false,
          "internalType": "uint256",
          "name": "feePaid",
          "type": "uint256"
        }
      ],
      "name": "LiquidationGasCompensationPaid",
      "type": "event"
    },
    {
      "anonymous": false,
      "inputs": [
        {
          "indexed": true,
          "internalType": "uint256",
          "name": "safeId",
          "type": "uint256"
        },
        {
          "indexed": false,
          "internalType": "uint256",
          "name": "newRatio",
          "type": "uint256"
        },
        {
          "indexed": false,
          "internalType": "uint256",
          "name": "nextNode",
          "type": "uint256"
        }
      ],
      "name": "LiquidationQueueUpdated",
      "type": "event"
    },
    {
      "anonymous": false,
      "inputs": [
        {
          "indexed": false,
          "internalType": "uint256",
          "name": "_tokenId",
          "type": "uint256"
        }
      ],
      "name": "MetadataUpdate",
      "type": "event"
    },
    {
      "anonymous": false,
      "inputs": [
        {
          "indexed": true,
          "internalType": "uint256",
          "name": "safeId",
          "type": "uint256"
        },
        {
          "indexed": true,
          "internalType": "address",
          "name": "owner",
          "type": "address"
        },
        {
          "indexed": false,
          "internalType": "uint256",
          "name": "amount",
          "type": "uint256"
        },
        {
          "indexed": false,
          "internalType": "uint256",
          "name": "totalCollateral",
          "type": "uint256"
        },
        {
          "indexed": false,
          "internalType": "uint256",
          "name": "totalDebt",
          "type": "uint256"
        }
      ],
      "name": "OpenSafe",
      "type": "event"
    },
    {
      "anonymous": false,
      "inputs": [
        {
          "indexed": true,
          "internalType": "uint256",
          "name": "redemptionId",
          "type": "uint256"
        },
        {
          "indexed": true,
          "internalType": "uint256",
          "name": "safeId",
          "type": "uint256"
        },
        {
          "indexed": false,
          "internalType": "uint256",
          "name": "feePaid",
          "type": "uint256"
        }
      ],
      "name": "OwnerFeePaid",
      "type": "event"
    },
    {
      "anonymous": false,
      "inputs": [
        {
          "indexed": true,
          "internalType": "uint256",
          "name": "redemptionId",
          "type": "uint256"
        },
        {
          "indexed": false,
          "internalType": "uint256",
          "name": "feePaid",
          "type": "uint256"
        }
      ],
      "name": "OwnerRedemptionFeeDistributed",
      "type": "event"
    },
    {
      "anonymous": false,
      "inputs": [
        {
          "indexed": true,
          "internalType": "uint256",
          "name": "redemptionId",
          "type": "uint256"
        },
        {
          "indexed": true,
          "internalType": "uint256",
          "name": "safeId",
          "type": "uint256"
        },
        {
          "indexed": false,
          "internalType": "uint256",
          "name": "refund",
          "type": "uint256"
        },
        {
          "indexed": false,
          "internalType": "uint256",
          "name": "fee",
          "type": "uint256"
        }
      ],
      "name": "OwnerRefunded",
      "type": "event"
    },
    {
      "anonymous": false,
      "inputs": [
        {
          "indexed": true,
          "internalType": "address",
          "name": "previousOwner",
          "type": "address"
        },
        {
          "indexed": true,
          "internalType": "address",
          "name": "newOwner",
          "type": "address"
        }
      ],
      "name": "OwnershipTransferred",
      "type": "event"
    },
    {
      "anonymous": false,
      "inputs": [
        {
          "indexed": true,
          "internalType": "uint256",
          "name": "redemptionId",
          "type": "uint256"
        },
        {
          "indexed": true,
          "internalType": "uint256",
          "name": "safeId",
          "type": "uint256"
        },
        {
          "indexed": false,
          "internalType": "uint256",
          "name": "amount",
          "type": "uint256"
        },
        {
          "indexed": false,
          "internalType": "uint256",
          "name": "collateral",
          "type": "uint256"
        },
        {
          "indexed": false,
          "internalType": "uint256",
          "name": "refundedToOwner",
          "type": "uint256"
        },
        {
          "indexed": false,
          "internalType": "uint256",
          "name": "remaningToRedeem",
          "type": "uint256"
        }
      ],
      "name": "Redeemed",
      "type": "event"
    },
    {
      "anonymous": false,
      "inputs": [
        {
          "indexed": true,
          "internalType": "uint256",
          "name": "redemptionId",
          "type": "uint256"
        },
        {
          "indexed": false,
          "internalType": "uint256",
          "name": "amount",
          "type": "uint256"
        },
        {
          "indexed": false,
          "internalType": "uint256",
          "name": "redeemedCollateral",
          "type": "uint256"
        },
        {
          "indexed": false,
          "internalType": "uint256",
          "name": "price",
          "type": "uint256"
        },
        {
          "indexed": false,
          "internalType": "uint256",
          "name": "totalCollateral",
          "type": "uint256"
        },
        {
          "indexed": false,
          "internalType": "uint256",
          "name": "totalDebt",
          "type": "uint256"
        }
      ],
      "name": "RedeemedBatch",
      "type": "event"
    },
    {
      "anonymous": false,
      "inputs": [
        {
          "indexed": true,
          "internalType": "uint256",
          "name": "redemptionId",
          "type": "uint256"
        },
        {
          "indexed": true,
          "internalType": "uint256",
          "name": "safeId",
          "type": "uint256"
        },
        {
          "indexed": false,
          "internalType": "uint256",
          "name": "collateralToRedeem",
          "type": "uint256"
        },
        {
          "indexed": false,
          "internalType": "uint256",
          "name": "collateralToReturn",
          "type": "uint256"
        },
        {
          "indexed": false,
          "internalType": "uint256",
          "name": "feePaid",
          "type": "uint256"
        }
      ],
      "name": "RedeemerFeePaid",
      "type": "event"
    },
    {
      "anonymous": false,
      "inputs": [
        {
          "indexed": true,
          "internalType": "uint256",
          "name": "redemptionId",
          "type": "uint256"
        },
        {
          "indexed": false,
          "internalType": "uint256",
          "name": "feePaid",
          "type": "uint256"
        }
      ],
      "name": "RedeemerRedemptionFeeDistributed",
      "type": "event"
    },
    {
      "anonymous": false,
      "inputs": [
        {
          "indexed": true,
          "internalType": "uint256",
          "name": "safeId",
          "type": "uint256"
        },
        {
          "indexed": false,
          "internalType": "uint256",
          "name": "newWeight",
          "type": "uint256"
        },
        {
          "indexed": false,
          "internalType": "uint256",
          "name": "prevNode",
          "type": "uint256"
        }
      ],
      "name": "RedemptionQueueUpdated",
      "type": "event"
    },
    {
      "anonymous": false,
      "inputs": [
        {
          "indexed": true,
          "internalType": "uint256",
          "name": "safeId",
          "type": "uint256"
        }
      ],
      "name": "RemovedSafe",
      "type": "event"
    },
    {
      "anonymous": false,
      "inputs": [
        {
          "indexed": true,
          "internalType": "uint256",
          "name": "safeId",
          "type": "uint256"
        },
        {
          "indexed": false,
          "internalType": "uint256",
          "name": "amount",
          "type": "uint256"
        },
        {
          "indexed": false,
          "internalType": "uint256",
          "name": "newRatio",
          "type": "uint256"
        },
        {
          "indexed": false,
          "internalType": "uint256",
          "name": "totalCollateral",
          "type": "uint256"
        },
        {
          "indexed": false,
          "internalType": "uint256",
          "name": "totalDebt",
          "type": "uint256"
        }
      ],
      "name": "Repaid",
      "type": "event"
    },
    {
      "anonymous": false,
      "inputs": [
        {
          "indexed": true,
          "internalType": "uint256",
          "name": "safeId",
          "type": "uint256"
        },
        {
          "indexed": false,
          "internalType": "uint256",
          "name": "refundedCollateral",
          "type": "uint256"
        },
        {
          "indexed": false,
          "internalType": "uint256",
          "name": "totalCollateral",
          "type": "uint256"
        },
        {
          "indexed": false,
          "internalType": "uint256",
          "name": "totalDebt",
          "type": "uint256"
        }
      ],
      "name": "SafeClosed",
      "type": "event"
    },
    {
      "anonymous": false,
      "inputs": [
        {
          "indexed": true,
          "internalType": "uint256",
          "name": "safeId",
          "type": "uint256"
        }
      ],
      "name": "SafeRemovedFromLiquidationQueue",
      "type": "event"
    },
    {
      "anonymous": false,
      "inputs": [
        {
          "indexed": true,
          "internalType": "uint256",
          "name": "safeId",
          "type": "uint256"
        }
      ],
      "name": "SafeRemovedFromRedemptionQueue",
      "type": "event"
    },
    {
      "anonymous": false,
      "inputs": [
        {
          "indexed": true,
          "internalType": "uint256",
          "name": "safeId",
          "type": "uint256"
        },
        {
          "indexed": false,
          "internalType": "uint256",
          "name": "collateralAmount",
          "type": "uint256"
        },
        {
          "indexed": false,
          "internalType": "uint256",
          "name": "debtAmount",
          "type": "uint256"
        },
        {
          "indexed": false,
          "internalType": "uint256",
          "name": "collateralIncrease",
          "type": "uint256"
        },
        {
          "indexed": false,
          "internalType": "uint256",
          "name": "debtIncrease",
          "type": "uint256"
        },
        {
          "indexed": false,
          "internalType": "uint256",
          "name": "totalCollateral",
          "type": "uint256"
        },
        {
          "indexed": false,
          "internalType": "uint256",
          "name": "totalDebt",
          "type": "uint256"
        }
      ],
      "name": "SafeUpdated",
      "type": "event"
    },
    {
      "anonymous": false,
      "inputs": [
        {
          "indexed": true,
          "internalType": "address",
          "name": "from",
          "type": "address"
        },
        {
          "indexed": true,
          "internalType": "address",
          "name": "to",
          "type": "address"
        },
        {
          "indexed": true,
          "internalType": "uint256",
          "name": "tokenId",
          "type": "uint256"
        }
      ],
      "name": "Transfer",
      "type": "event"
    },
    {
      "anonymous": false,
      "inputs": [
        {
          "indexed": true,
          "internalType": "uint256",
          "name": "safeId",
          "type": "uint256"
        },
        {
          "indexed": false,
          "internalType": "uint256",
          "name": "amount",
          "type": "uint256"
        },
        {
          "indexed": false,
          "internalType": "uint256",
          "name": "totalCollateral",
          "type": "uint256"
        },
        {
          "indexed": false,
          "internalType": "uint256",
          "name": "totalDebt",
          "type": "uint256"
        }
      ],
      "name": "WithdrawnCollateral",
      "type": "event"
    },
    {
      "inputs": [],
      "name": "BOOTSTRAP_MODE_DEBT_THRESHOLD",
      "outputs": [
        {
          "internalType": "uint256",
          "name": "",
          "type": "uint256"
        }
      ],
      "stateMutability": "view",
      "type": "function"
    },
    {
      "inputs": [],
      "name": "EXTRA_GAS_COMPENSATION",
      "outputs": [
        {
          "internalType": "uint256",
          "name": "",
          "type": "uint256"
        }
      ],
      "stateMutability": "view",
      "type": "function"
    },
    {
      "inputs": [],
      "name": "MINIMUM_DEBT",
      "outputs": [
        {
          "internalType": "uint256",
          "name": "",
          "type": "uint256"
        }
      ],
      "stateMutability": "view",
      "type": "function"
    },
    {
      "inputs": [],
      "name": "PROTOCOL_MODE",
      "outputs": [
        {
          "internalType": "enum SBStructs.Mode",
          "name": "",
          "type": "uint8"
        }
      ],
      "stateMutability": "view",
      "type": "function"
    },
    {
      "inputs": [],
      "name": "REDEMPTION_BASE_FEE",
      "outputs": [
        {
          "internalType": "uint256",
          "name": "",
          "type": "uint256"
        }
      ],
      "stateMutability": "view",
      "type": "function"
    },
    {
      "inputs": [],
      "name": "REDEMPTION_LIQUIDATION_FEE",
      "outputs": [
        {
          "internalType": "uint256",
          "name": "",
          "type": "uint256"
        }
      ],
      "stateMutability": "view",
      "type": "function"
    },
    {
      "inputs": [],
      "name": "SBR_FEE_REWARD",
      "outputs": [
        {
          "internalType": "uint256",
          "name": "",
          "type": "uint256"
        }
      ],
      "stateMutability": "view",
      "type": "function"
    },
    {
      "inputs": [
        {
          "internalType": "uint256",
          "name": "safeId",
          "type": "uint256"
        },
        {
          "internalType": "uint256",
          "name": "amount",
          "type": "uint256"
        },
        {
          "internalType": "uint256",
          "name": "nearestSpotInLiquidationQueue",
          "type": "uint256"
        }
      ],
      "name": "addCollateral",
      "outputs": [],
      "stateMutability": "payable",
      "type": "function"
    },
    {
      "inputs": [
        {
          "internalType": "uint256",
          "name": "safeId",
          "type": "uint256"
        },
        {
          "internalType": "uint256",
          "name": "nearestSpotInLiquidationQueue",
          "type": "uint256"
        }
      ],
      "name": "adjustPosition",
      "outputs": [],
      "stateMutability": "nonpayable",
      "type": "function"
    },
    {
      "inputs": [
        {
          "internalType": "address",
          "name": "to",
          "type": "address"
        },
        {
          "internalType": "uint256",
          "name": "tokenId",
          "type": "uint256"
        }
      ],
      "name": "approve",
      "outputs": [],
      "stateMutability": "nonpayable",
      "type": "function"
    },
    {
      "inputs": [
        {
          "internalType": "address",
          "name": "owner",
          "type": "address"
        }
      ],
      "name": "balanceOf",
      "outputs": [
        {
          "internalType": "uint256",
          "name": "",
          "type": "uint256"
        }
      ],
      "stateMutability": "view",
      "type": "function"
    },
    {
      "inputs": [
        {
          "internalType": "uint256",
          "name": "safeId",
          "type": "uint256"
        },
        {
          "internalType": "uint256",
          "name": "amount",
          "type": "uint256"
        },
        {
          "internalType": "uint256",
          "name": "shieldingRate",
          "type": "uint256"
        },
        {
          "internalType": "uint256",
          "name": "nearestSpotInLiquidationQueue",
          "type": "uint256"
        },
        {
          "internalType": "uint256",
          "name": "nearestSpotInRedemptionQueue",
          "type": "uint256"
        }
      ],
      "name": "borrow",
      "outputs": [],
      "stateMutability": "nonpayable",
      "type": "function"
    },
    {
      "inputs": [
        {
          "components": [
            {
              "internalType": "uint256",
              "name": "collateralAmount",
              "type": "uint256"
            },
            {
              "internalType": "uint256",
              "name": "borrowedAmount",
              "type": "uint256"
            },
            {
              "internalType": "uint256",
              "name": "weight",
              "type": "uint256"
            },
            {
              "internalType": "uint256",
              "name": "totalBorrowedAmount",
              "type": "uint256"
            },
            {
              "internalType": "uint256",
              "name": "feePaid",
              "type": "uint256"
            }
          ],
          "internalType": "struct IStableBase.Safe",
          "name": "safe",
          "type": "tuple"
        },
        {
          "internalType": "uint256",
          "name": "amountToRedeem",
          "type": "uint256"
        },
        {
          "internalType": "uint256",
          "name": "collateralPrice",
          "type": "uint256"
        }
      ],
      "name": "calculateRedemptionAmountsAndFee",
      "outputs": [
        {
          "internalType": "bool",
          "name": "borrowMode",
          "type": "bool"
        },
        {
          "internalType": "uint256",
          "name": "_collateralToRedeem",
          "type": "uint256"
        },
        {
          "internalType": "uint256",
          "name": "_amountToRedeem",
          "type": "uint256"
        },
        {
          "internalType": "uint256",
          "name": "_amountToRefund",
          "type": "uint256"
        },
        {
          "internalType": "uint256",
          "name": "_ownerFee",
          "type": "uint256"
        },
        {
          "internalType": "uint256",
          "name": "_redeemerFee",
          "type": "uint256"
        }
      ],
      "stateMutability": "view",
      "type": "function"
    },
    {
      "inputs": [
        {
          "internalType": "uint256",
          "name": "safeId",
          "type": "uint256"
        }
      ],
      "name": "closeSafe",
      "outputs": [],
      "stateMutability": "nonpayable",
      "type": "function"
    },
    {
      "inputs": [],
      "name": "collateralLoss",
      "outputs": [
        {
          "internalType": "uint256",
          "name": "",
          "type": "uint256"
        }
      ],
      "stateMutability": "view",
      "type": "function"
    },
    {
      "inputs": [],
      "name": "cumulativeCollateralPerUnitCollateral",
      "outputs": [
        {
          "internalType": "uint256",
          "name": "",
          "type": "uint256"
        }
      ],
      "stateMutability": "view",
      "type": "function"
    },
    {
      "inputs": [],
      "name": "cumulativeDebtPerUnitCollateral",
      "outputs": [
        {
          "internalType": "uint256",
          "name": "",
          "type": "uint256"
        }
      ],
      "stateMutability": "view",
      "type": "function"
    },
    {
      "inputs": [],
      "name": "debtLoss",
      "outputs": [
        {
          "internalType": "uint256",
          "name": "",
          "type": "uint256"
        }
      ],
      "stateMutability": "view",
      "type": "function"
    },
    {
      "inputs": [],
      "name": "dfirTokenStaking",
      "outputs": [
        {
          "internalType": "contract IDFIRStaking",
          "name": "",
          "type": "address"
        }
      ],
      "stateMutability": "view",
      "type": "function"
    },
    {
      "inputs": [
        {
          "internalType": "uint256",
          "name": "safeId",
          "type": "uint256"
        },
        {
          "internalType": "uint256",
          "name": "topupRate",
          "type": "uint256"
        },
        {
          "internalType": "uint256",
          "name": "nearestSpotInRedemptionQueue",
          "type": "uint256"
        }
      ],
      "name": "feeTopup",
      "outputs": [],
      "stateMutability": "nonpayable",
      "type": "function"
    },
    {
      "inputs": [
        {
          "internalType": "uint256",
          "name": "tokenId",
          "type": "uint256"
        }
      ],
      "name": "getApproved",
      "outputs": [
        {
          "internalType": "address",
          "name": "",
          "type": "address"
        }
      ],
      "stateMutability": "view",
      "type": "function"
    },
    {
      "inputs": [
        {
          "internalType": "uint256",
          "name": "safeId",
          "type": "uint256"
        }
      ],
      "name": "getInactiveDebtAndCollateral",
      "outputs": [
        {
          "internalType": "uint256",
          "name": "",
          "type": "uint256"
        },
        {
          "internalType": "uint256",
          "name": "",
          "type": "uint256"
        }
      ],
      "stateMutability": "view",
      "type": "function"
    },
    {
      "inputs": [
        {
          "internalType": "address",
          "name": "owner",
          "type": "address"
        },
        {
          "internalType": "address",
          "name": "operator",
          "type": "address"
        }
      ],
      "name": "isApprovedForAll",
      "outputs": [
        {
          "internalType": "bool",
          "name": "",
          "type": "bool"
        }
      ],
      "stateMutability": "view",
      "type": "function"
    },
    {
      "inputs": [],
      "name": "liquidate",
      "outputs": [],
      "stateMutability": "nonpayable",
      "type": "function"
    },
    {
      "inputs": [
        {
          "internalType": "uint256",
          "name": "safeId",
          "type": "uint256"
        }
      ],
      "name": "liquidateSafe",
      "outputs": [],
      "stateMutability": "nonpayable",
      "type": "function"
    },
    {
      "inputs": [
        {
          "internalType": "uint256",
          "name": "",
          "type": "uint256"
        }
      ],
      "name": "liquidationSnapshots",
      "outputs": [
        {
          "internalType": "uint256",
          "name": "collateralPerCollateralSnapshot",
          "type": "uint256"
        },
        {
          "internalType": "uint256",
          "name": "debtPerCollateralSnapshot",
          "type": "uint256"
        }
      ],
      "stateMutability": "view",
      "type": "function"
    },
    {
      "inputs": [],
      "name": "mode",
      "outputs": [
        {
          "internalType": "enum SBStructs.Mode",
          "name": "",
          "type": "uint8"
        }
      ],
      "stateMutability": "view",
      "type": "function"
    },
    {
      "inputs": [],
      "name": "name",
      "outputs": [
        {
          "internalType": "string",
          "name": "",
          "type": "string"
        }
      ],
      "stateMutability": "view",
      "type": "function"
    },
    {
      "inputs": [
        {
          "internalType": "uint256",
          "name": "_safeId",
          "type": "uint256"
        },
        {
          "internalType": "uint256",
          "name": "_amount",
          "type": "uint256"
        }
      ],
      "name": "openSafe",
      "outputs": [],
      "stateMutability": "payable",
      "type": "function"
    },
    {
      "inputs": [],
      "name": "owner",
      "outputs": [
        {
          "internalType": "address",
          "name": "",
          "type": "address"
        }
      ],
      "stateMutability": "view",
      "type": "function"
    },
    {
      "inputs": [
        {
          "internalType": "uint256",
          "name": "tokenId",
          "type": "uint256"
        }
      ],
      "name": "ownerOf",
      "outputs": [
        {
          "internalType": "address",
          "name": "",
          "type": "address"
        }
      ],
      "stateMutability": "view",
      "type": "function"
    },
    {
      "inputs": [],
      "name": "priceOracle",
      "outputs": [
        {
          "internalType": "contract IPriceOracle",
          "name": "",
          "type": "address"
        }
      ],
      "stateMutability": "view",
      "type": "function"
    },
    {
      "inputs": [
        {
          "internalType": "uint256",
          "name": "amount",
          "type": "uint256"
        },
        {
          "internalType": "uint256",
          "name": "nearestSpotInLiquidationQueue",
          "type": "uint256"
        }
      ],
      "name": "redeem",
      "outputs": [],
      "stateMutability": "nonpayable",
      "type": "function"
    },
    {
      "inputs": [],
      "name": "renounceOwnership",
      "outputs": [],
      "stateMutability": "nonpayable",
      "type": "function"
    },
    {
      "inputs": [
        {
          "internalType": "uint256",
          "name": "safeId",
          "type": "uint256"
        },
        {
          "internalType": "uint256",
          "name": "amount",
          "type": "uint256"
        },
        {
          "internalType": "uint256",
          "name": "nearestSpotInLiquidationQueue",
          "type": "uint256"
        }
      ],
      "name": "repay",
      "outputs": [],
      "stateMutability": "nonpayable",
      "type": "function"
    },
    {
      "inputs": [
        {
          "internalType": "address",
          "name": "from",
          "type": "address"
        },
        {
          "internalType": "address",
          "name": "to",
          "type": "address"
        },
        {
          "internalType": "uint256",
          "name": "tokenId",
          "type": "uint256"
        }
      ],
      "name": "safeTransferFrom",
      "outputs": [],
      "stateMutability": "nonpayable",
      "type": "function"
    },
    {
      "inputs": [
        {
          "internalType": "address",
          "name": "from",
          "type": "address"
        },
        {
          "internalType": "address",
          "name": "to",
          "type": "address"
        },
        {
          "internalType": "uint256",
          "name": "tokenId",
          "type": "uint256"
        },
        {
          "internalType": "bytes",
          "name": "data",
          "type": "bytes"
        }
      ],
      "name": "safeTransferFrom",
      "outputs": [],
      "stateMutability": "nonpayable",
      "type": "function"
    },
    {
      "inputs": [
        {
          "internalType": "uint256",
          "name": "",
          "type": "uint256"
        }
      ],
      "name": "safes",
      "outputs": [
        {
          "internalType": "uint256",
          "name": "collateralAmount",
          "type": "uint256"
        },
        {
          "internalType": "uint256",
          "name": "borrowedAmount",
          "type": "uint256"
        },
        {
          "internalType": "uint256",
          "name": "weight",
          "type": "uint256"
        },
        {
          "internalType": "uint256",
          "name": "totalBorrowedAmount",
          "type": "uint256"
        },
        {
          "internalType": "uint256",
          "name": "feePaid",
          "type": "uint256"
        }
      ],
      "stateMutability": "view",
      "type": "function"
    },
    {
      "inputs": [],
      "name": "safesOrderedForLiquidation",
      "outputs": [
        {
          "internalType": "contract IDoublyLinkedList",
          "name": "",
          "type": "address"
        }
      ],
      "stateMutability": "view",
      "type": "function"
    },
    {
      "inputs": [],
      "name": "safesOrderedForRedemption",
      "outputs": [
        {
          "internalType": "contract IDoublyLinkedList",
          "name": "",
          "type": "address"
        }
      ],
      "stateMutability": "view",
      "type": "function"
    },
    {
      "inputs": [],
      "name": "sbdToken",
      "outputs": [
        {
          "internalType": "contract IMintableToken",
          "name": "",
          "type": "address"
        }
      ],
      "stateMutability": "view",
      "type": "function"
    },
    {
      "inputs": [],
      "name": "sbrStakingPoolCanReceiveRewards",
      "outputs": [
        {
          "internalType": "bool",
          "name": "",
          "type": "bool"
        }
      ],
      "stateMutability": "view",
      "type": "function"
    },
    {
      "inputs": [
        {
          "internalType": "address",
          "name": "_sbdToken",
          "type": "address"
        },
        {
          "internalType": "address",
          "name": "_priceOracle",
          "type": "address"
        },
        {
          "internalType": "address",
          "name": "_stabilityPool",
          "type": "address"
        },
        {
          "internalType": "address",
          "name": "_dfirTokenStaking",
          "type": "address"
        },
        {
          "internalType": "address",
          "name": "_safesOrderedForLiquidation",
          "type": "address"
        },
        {
          "internalType": "address",
          "name": "_safesOrderedForRedemption",
          "type": "address"
        }
      ],
      "name": "setAddresses",
      "outputs": [],
      "stateMutability": "nonpayable",
      "type": "function"
    },
    {
      "inputs": [
        {
          "internalType": "address",
          "name": "operator",
          "type": "address"
        },
        {
          "internalType": "bool",
          "name": "approved",
          "type": "bool"
        }
      ],
      "name": "setApprovalForAll",
      "outputs": [],
      "stateMutability": "nonpayable",
      "type": "function"
    },
    {
      "inputs": [
        {
          "internalType": "bool",
          "name": "canReceiveRewards",
          "type": "bool"
        }
      ],
      "name": "setCanSBRStakingPoolReceiveRewards",
      "outputs": [
        {
          "internalType": "bool",
          "name": "",
          "type": "bool"
        }
      ],
      "stateMutability": "nonpayable",
      "type": "function"
    },
    {
      "inputs": [
        {
          "internalType": "bool",
          "name": "canReceiveRewards",
          "type": "bool"
        }
      ],
      "name": "setCanStabilityPoolReceiveRewards",
      "outputs": [
        {
          "internalType": "bool",
          "name": "",
          "type": "bool"
        }
      ],
      "stateMutability": "nonpayable",
      "type": "function"
    },
    {
      "inputs": [],
      "name": "stabilityPool",
      "outputs": [
        {
          "internalType": "contract IStabilityPool",
          "name": "",
          "type": "address"
        }
      ],
      "stateMutability": "view",
      "type": "function"
    },
    {
      "inputs": [],
      "name": "stabilityPoolCanReceiveRewards",
      "outputs": [
        {
          "internalType": "bool",
          "name": "",
          "type": "bool"
        }
      ],
      "stateMutability": "view",
      "type": "function"
    },
    {
      "inputs": [
        {
          "internalType": "bytes4",
          "name": "interfaceId",
          "type": "bytes4"
        }
      ],
      "name": "supportsInterface",
      "outputs": [
        {
          "internalType": "bool",
          "name": "",
          "type": "bool"
        }
      ],
      "stateMutability": "view",
      "type": "function"
    },
    {
      "inputs": [],
      "name": "symbol",
      "outputs": [
        {
          "internalType": "string",
          "name": "",
          "type": "string"
        }
      ],
      "stateMutability": "view",
      "type": "function"
    },
    {
      "inputs": [
        {
          "internalType": "uint256",
          "name": "tokenId",
          "type": "uint256"
        }
      ],
      "name": "tokenURI",
      "outputs": [
        {
          "internalType": "string",
          "name": "",
          "type": "string"
        }
      ],
      "stateMutability": "view",
      "type": "function"
    },
    {
      "inputs": [],
      "name": "totalCollateral",
      "outputs": [
        {
          "internalType": "uint256",
          "name": "",
          "type": "uint256"
        }
      ],
      "stateMutability": "view",
      "type": "function"
    },
    {
      "inputs": [],
      "name": "totalDebt",
      "outputs": [
        {
          "internalType": "uint256",
          "name": "",
          "type": "uint256"
        }
      ],
      "stateMutability": "view",
      "type": "function"
    },
    {
      "inputs": [
        {
          "internalType": "address",
          "name": "from",
          "type": "address"
        },
        {
          "internalType": "address",
          "name": "to",
          "type": "address"
        },
        {
          "internalType": "uint256",
          "name": "tokenId",
          "type": "uint256"
        }
      ],
      "name": "transferFrom",
      "outputs": [],
      "stateMutability": "nonpayable",
      "type": "function"
    },
    {
      "inputs": [
        {
          "internalType": "address",
          "name": "newOwner",
          "type": "address"
        }
      ],
      "name": "transferOwnership",
      "outputs": [],
      "stateMutability": "nonpayable",
      "type": "function"
    },
    {
      "inputs": [
        {
          "internalType": "uint256",
          "name": "tokenId",
          "type": "uint256"
        },
        {
          "internalType": "string",
          "name": "newTokenURI",
          "type": "string"
        }
      ],
      "name": "updateTokenURI",
      "outputs": [],
      "stateMutability": "nonpayable",
      "type": "function"
    },
    {
      "inputs": [
        {
          "internalType": "uint256",
          "name": "safeId",
          "type": "uint256"
        },
        {
          "internalType": "uint256",
          "name": "amount",
          "type": "uint256"
        },
        {
          "internalType": "uint256",
          "name": "nearestSpotInLiquidationQueue",
          "type": "uint256"
        }
      ],
      "name": "withdrawCollateral",
      "outputs": [],
      "stateMutability": "nonpayable",
      "type": "function"
    }
  ],
  "bytecode": "0x608034620003a5576001600160401b0390604090808201838111828210176200038f578252600f815260206e537461626c6542617365205361666560881b81830152825193838501858110828211176200038f578452600685526553425361666560d01b8286015282518181116200038f576000928354916001958684811c9416801562000384575b8385101462000370578190601f948581116200031d575b508390858311600114620002b9578792620002ad575b5050600019600383901b1c191690861b1784555b8651928311620002995784548581811c911680156200028e575b828210146200027a5782811162000232575b5080918311600114620001c9575082939495829392620001bd575b5050600019600383901b1c191690831b1782555b3315620001a65760078054336001600160a01b03198216811790925590916001600160a01b03909116907f8be0079c531659141344cd1fd0a4f28419497f9722a3daafe3b4186f6b6457e09080a3612af860085560ff1980600c5416600c556016541660165561ffff1960185416601855601955516156569081620003ab8239f35b602490835190631e4fbdf760e01b82526004820152fd5b01519050388062000110565b90601f198316968585528285209285905b8982106200021a575050838697989695961062000200575b505050811b01825562000124565b015160001960f88460031b161c19169055388080620001f2565b808885968294968601518155019501930190620001da565b8585528185208380860160051c82019284871062000270575b0160051c019086905b82811062000264575050620000f5565b86815501869062000254565b925081926200024b565b634e487b7160e01b85526022600452602485fd5b90607f1690620000e3565b634e487b7160e01b84526041600452602484fd5b015190503880620000b5565b8780528488208994509190601f198416895b87828210620003065750508411620002ec575b505050811b018455620000c9565b015160001960f88460031b161c19169055388080620002de565b8385015186558c97909501949384019301620002cb565b9091508680528387208580850160051c82019286861062000366575b918a91869594930160051c01915b828110620003575750506200009f565b8981558594508a910162000347565b9250819262000339565b634e487b7160e01b86526022600452602486fd5b93607f169362000088565b634e487b7160e01b600052604160045260246000fd5b600080fdfe608080604052600436101561001357600080fd5b60003560e01c90816301ffc9a714613d3f57508063048c661d14613d1857806306fdde0314613c75578063081812fc14613c5757806308d2be9614613c39578063095ea7b314613b515780630f3799fa14613b335780631625115c14613b1557806318e97fd1146138f057806323b872dd146138d95780632630c12f146138b257806328a070251461380a578063295a5212146137e45780633655c5261461375f578063409d160714613741578063409f82301461372557806342842e0e146136fd578063434efcbd146136955780634ac8eb5f146136775780636352211e1461364857806367d02adf146136215780636cfb6bf9146133e957806370a0823114613390578063715018a61461336f5780637bc658cb146133515780637cbc2373146126ea57806383511307146126b557806383ac5ca4146124615780638851d9501461243b578063895a74851461208d5780638a64b81214611ff75780638da5cb5b14611fd057806393b3e6d314611f4f57806395d89b4114611e705780639a46c84a14611e535780639ee0442914611e2f578063a22cb46514611d8a578063a8d74d1d14611af1578063adbf8e7e1461148a578063b88d4fde1461142a578063b940b45e14611404578063c2b99799146112ed578063c5691792146112c3578063c7529ecb1461129d578063c861c6e6146110f7578063c87b56dd14611005578063cd20722114610fe6578063d80f353c14610fc3578063ddb060a914610f9c578063e63078fd14610f75578063e985e9c514610f1e578063f23c220b14610f02578063f2fde38b14610e79578063f8e61b6914610477578063fb09f724146103f4578063fc7b9c18146103d65763ff5430e81461029257600080fd5b346103d1576102a036613f6d565b6001600160a01b036102bd816102b58561431f565b1633146147c7565b82600052600b60205260406000206102d581856148a8565b5060018154916102e6831515614b32565b015490670de0b6b3a7640000918281029281840414901517156103bb5760009361031561034a9260609461438a565b9360095416906040519586809481936346b043a960e01b8352888b600485016040919493926060820195825260208201520152565b03925af19081156103af576040809260008051602061560183398151915294600091610381575b50015182519182526020820152a2005b6103a2915060603d81116103a8575b61039a8183613ea1565b810190614b74565b38610371565b503d610390565b6040513d6000823e3d90fd5b634e487b7160e01b600052601160045260246000fd5b600080fd5b346103d15760003660031901126103d1576020601554604051908152f35b346103d157366003190160e081126103d15760a0136103d15760c061045060405161041e81613e4d565b6004358152602435602082015260443560408201526064356060820152608435608082015260c4359060a435906143ef565b936040939193519515158652602086015260408501526060840152608083015260a0820152f35b346103d15760a03660031901126103d15761049e6001600160a01b036102b560043561431f565b600435600052600b60205260406000206104ba816004356148a8565b50600481546104ca811515614b32565b60206001600160a01b03600d541660405193848092630fdb11cf60e01b82525afa9081156103af57600091610e43575b61050492506143c2565b61271081029080820461271014901517156103bb5761052f670de0b6b3a7640000916008549061438a565b04600182015490610542602435836143d5565b11610dfe57686c6b935b8bbd40000061055d602435836143d5565b10610db957336001600160a01b0361057660043561431f565b1603610d745761271061058d6044356024356143c2565b04906001600160a01b03600a5416906040519163dc281aff60e01b8352602083600481845afa9283156103af57600093610d40575b5081610c7e57505080610c10575060443560028301555b8060243510610bb2576105ee816024356143e2565b906105ff60243560018501546143d5565b928360018201556003810161061760243582546143d5565b9055600481016106288382546143d5565b9055670de0b6b3a7640000840293808504670de0b6b3a764000014901517156103bb5761065960009482549061438a565b9160606106a46001600160a01b03600a541660028501546040519889809481936346b043a960e01b835260843590600435600485016040919493926060820195825260208201520152565b03925af19283156103af576000958694610b8c575b506009546040516346b043a960e01b815260048035908201526024810192909252606480356044840152919660609288926001600160a01b0316918391829081015b03925af19485156103af57600095610b6b575b506000908061087c575b5061076c6000948260209361083d575b506001600160a01b03600c5460081c16906040519687809481936340c10f1960e01b83523360048401602090939291936001600160a01b0360408201951681520152565b03925af19081156103af576107ad6002927f97fdb0133110ec65f5cad2f7a197ea89e1790e3ec217413d27293e89652ec2339560009161080e575b50614bb8565b6107bb602435601554614a2b565b50015492610809601454916020806015549501519101519060405194859460043598602435879260a094919796959260c0850198855260208501526040840152606083015260808201520152565b0390a2005b610830915060203d602011610836575b6108288183613ea1565b8101906143aa565b876107a7565b503d61081e565b9081610848916143d5565b906040519081527f3ab340170295d343af302b5e35e4f56df5d151d79200feacdd743edf16ec06e48460043592a287610728565b600c546040516340c10f1960e01b81523060048201526024810183905291925060009190602090829060081c6001600160a01b03168185816044810103925af180156103af576108d391600091610b4c5750614bb8565b6103e882818102048114831517156103bb578290836001600160a01b03600f54166040516020816024816000631d3793b160e21b968783526127108a8a020460048401525af19081156103af57600091610b2d575b50610af8575b602060009160246001600160a01b03600e541691604051948593849283528960048401525af19081156103af57600091610ad9575b50610abd575b808511610a785784151580610a70575b6109dd575b92600097926127106020969361076c966040519485526001898601520204604083015260608201528160808201527fce3dfe85eba133762c0c577aff378e2e0d3d8b19486eb42a2bad989a4200ed5060a060043592a292509450610718565b600c54604051632770a7eb60e21b815230600482015260248101879052929891959294919390602090869060081c6001600160a01b0316816000816044810103925af180156103af57600099602097610a446127109361076c998e91610a53575b50614bf2565b9396509396505092975061097e565b610a6a91508b3d8d11610836576108288183613ea1565b8f610a3e565b506001610979565b60405162461bcd60e51b815260206004820152601560248201527f496e76616c696420726566756e6420616d6f756e7400000000000000000000006044820152606490fd5b939282610acd81610ad3936143d5565b946143e2565b93610969565b610af2915060203d602011610836576108288183613ea1565b8a610963565b945092509050610b0e61271082840204836143e2565b908260006020610b2461271085850204846143e2565b9691505061092e565b610b46915060203d602011610836576108288183613ea1565b8b610928565b610b65915060203d602011610836576108288183613ea1565b886107a7565b610b8591955060603d6060116103a85761039a8183613ea1565b938561070e565b6060919450610baa6106fb91833d85116103a85761039a8183613ea1565b9491506106b9565b60405162461bcd60e51b815260206004820152603060248201527f426f72726f77656420616d6f756e74206973206e6f742073756666696369656e60448201526f7420746f20706179207468652066656560801b6064820152608490fd5b60606001600160a01b03600a541691602460405180948193634a83e9cd60e11b835260048301525afa80156103af57610c5691600091610c60575b5060443590516143d5565b60028301556105d9565b610c78915060603d81116103a85761039a8183613ea1565b84610c4b565b9091606090602460405180948193634a83e9cd60e11b835260048301525afa9081156103af57600091610d22575b50516002840191610cd4612710610ccd83610cc88688546143e2565b6143c2565b04856143d5565b61271081029080820461271014901517156103bb57610cf9610cff92602435906143d5565b9061438a565b604435610d0f575b5050506105d9565b610d18916143d5565b9055828080610d07565b610d3a915060603d81116103a85761039a8183613ea1565b84610cac565b9092506020813d602011610d6c575b81610d5c60209383613ea1565b810103126103d1575191856105c2565b3d9150610d4f565b60405162461bcd60e51b815260206004820152601e60248201527f4f6e6c79207468652053616665206f776e65722063616e20626f72726f7700006044820152606490fd5b60405162461bcd60e51b815260206004820152601560248201527f496e76616c696420626f72726f7720616d6f756e7400000000000000000000006044820152606490fd5b60405162461bcd60e51b815260206004820152601f60248201527f426f72726f7720616d6f756e74206578636565647320746865206c696d6974006044820152606490fd5b90506020823d602011610e71575b81610e5e60209383613ea1565b810103126103d1576105049151906104fa565b3d9150610e51565b346103d15760203660031901126103d157610e92613e04565b610e9a613f9d565b6001600160a01b03809116908115610ee957600754826001600160601b0360a01b821617600755167f8be0079c531659141344cd1fd0a4f28419497f9722a3daafe3b4186f6b6457e0600080a3005b604051631e4fbdf760e01b815260006004820152602490fd5b346103d15760003660031901126103d1576020604051600f8152f35b346103d15760403660031901126103d157610f37613e04565b610f3f613e1a565b906001600160a01b03809116600052600560205260406000209116600052602052602060ff604060002054166040519015158152f35b346103d15760003660031901126103d15760206001600160a01b0360095416604051908152f35b346103d15760003660031901126103d15760206001600160a01b03600a5416604051908152f35b346103d15760003660031901126103d157602060ff601854166040519015158152f35b346103d15760203660031901126103d1576110035a600435614d7a565b005b346103d1576020806003193601126103d1576004356110238161431f565b50600052600681526040600020906040519182600082546110438161400d565b938484526001918683821691826000146110d5575050600114611096575b505061106f92500383613ea1565b600060405161107d81613e85565b52611092604051928284938452830190613dc4565b0390f35b85925060005281600020906000915b8583106110bd57505061106f93508201018580611061565b805483890185015287945086939092019181016110a5565b925093505061106f94915060ff191682840152151560051b8201018580611061565b61110036613f83565b906001600160a01b0390611117826102b58661431f565b83600052600b602052604060002061112f81866148a8565b50805461113d811515614b32565b823403611267578261114e916143d5565b815561115c826014546143d5565b6014556001810154670de0b6b3a7640000908181029181830414901517156103bb576000946111926111c792606094549061438a565b9460095416906040519687809481936346b043a960e01b8352898c600485016040919493926060820195825260208201520152565b03925af180156103af5760008051602061560183398151915260408087937f1aef3bd0b630c567031c4699f8deb4f9d2c182bceb9492d362580e4899bb976197600091611249575b5001518151908682526020820152a26014546015546040805193845260208401949094529282015260608101919091528060808101610809565b611261915060603d81116103a85761039a8183613ea1565b8961120f565b60405162461bcd60e51b815260206004820152600e60248201526d125b9d985b1a5908185b5bdd5b9d60921b6044820152606490fd5b346103d15760003660031901126103d15761109260ff6016541660405191829182613f4b565b346103d15760003660031901126103d15760206001600160a01b03600c5460081c16604051908152f35b346103d15760203660031901126103d1576004356113156001600160a01b036102b58361431f565b80600052600b60205260406000209061132e82826148a8565b5060018201546113b057600080808093611003955490611350826014546143e2565b60145561135c81614a35565b6014546015546040805185815260208101939093528201527f4855a2844775685eaf28856c3afa1818d367078e3eb1ba859ddb03836160dbfd9080606081015b0390a2335af16113aa61435a565b50614803565b60405162461bcd60e51b815260206004820152602660248201527f43616e6e6f7420636c6f73652053616665207769746820626f72726f77656420604482015265185b5bdd5b9d60d21b6064820152608490fd5b346103d15760003660031901126103d15760206040516a0422ca8b0a00a4250000008152f35b346103d15760803660031901126103d157611443613e04565b61144b613e1a565b6064359167ffffffffffffffff83116103d157366023840112156103d157611480611003933690602481600401359101613edf565b91604435916141f4565b346103d15761149836613f83565b6114ac6001600160a01b036102b58561431f565b82600052600b6020526040600020916114c583856148a8565b508015611aac576001600160a01b03916020600c546024604051809681936370a0823160e01b835233600484015260081c165afa9283156103af57600093611a78575b50612710908161151c6001870154856143c2565b04809410611a33576115328360028701546143d5565b6002860155600485016115468582546143d5565b9055600c546040516323b872dd60e01b81523360048201523060248201526044810186905290602090829060081c6001600160a01b0316816000816064810103925af19081156103af57600091611a14575b50156119cf57600a5460028601546040516346b043a960e01b81526004810189905260248101919091526044810192909252606090829060649082906000906001600160a01b03165af180156103af5760407f06c860f6b55db10b05529a27344e8869a5be9b2738d7680d8764fc30f81426ec9188936000916119b1575b506020600289015491015182519182526020820152a26000906103e8908185029185830414851517156103bb5784928593600060206001600160a01b03600f5416602460405180948193631d3793b160e21b8352898b0460048401525af19081156103af57600091611992575b5061196e575b600060206001600160a01b03600e5416602460405180948193631d3793b160e21b83528760048401525af19081156103af5760009161194f575b50611933575b868511610a785788928515159485809661192b575b611887575b917fce3dfe85eba133762c0c577aff378e2e0d3d8b19486eb42a2bad989a4200ed50939160a093604051938452600060208501520460408301526060820152856080820152a2611775575b5061080960027fe64824fece9b298b55bca71bfcc91bf24c2e9f4f5229269815b9c68693327b33940154604051938493846040919493926060820195825260208201520152565b600c5460405163a9059cbb60e01b81523360048201526024810183905291949190602090829060081c6001600160a01b0316816000816044810103925af19081156103af57600091611868575b501561182357600261080991867f3ab340170295d343af302b5e35e4f56df5d151d79200feacdd743edf16ec06e460207fe64824fece9b298b55bca71bfcc91bf24c2e9f4f5229269815b9c68693327b3398604051908152a294505061172e565b60405162461bcd60e51b815260206004820152601660248201527f5472616e7366657220526566756e64206661696c6564000000000000000000006044820152606490fd5b611881915060203d602011610836576108288183613ea1565b866117c2565b600c54604051632770a7eb60e21b8152306004820152602481018990529195509093919290602090859060081c6001600160a01b0316816000816044810103925af19283156103af578b9561190760a0957fce3dfe85eba133762c0c577aff378e2e0d3d8b19486eb42a2bad989a4200ed50976000916119125750614bf2565b9193509193506116e3565b610a6a915060203d602011610836576108288183613ea1565b5060006116de565b93908461194381611949936143d5565b926143e2565b936116c9565b611968915060203d602011610836576108288183613ea1565b8a6116c3565b5050915061197e828204856143e2565b918461198c828404876143e2565b93611689565b6119ab915060203d602011610836576108288183613ea1565b8a611683565b6119c9915060603d81116103a85761039a8183613ea1565b89611616565b60405162461bcd60e51b815260206004820152601960248201527f5472616e73666572696e6720546f6b656e73206661696c6564000000000000006044820152606490fd5b611a2d915060203d602011610836576108288183613ea1565b87611598565b60405162461bcd60e51b815260206004820152601f60248201527f496e73756666696369656e742042616c616e636520746f2070617920666565006044820152606490fd5b9092506020813d602011611aa4575b81611a9460209383613ea1565b810103126103d157519185611508565b3d9150611a87565b60405162461bcd60e51b815260206004820152601f60248201527f4665652072617465206d7573742062652067726561746572207468616e2030006044820152606490fd5b346103d157611aff36613f83565b6001600160a01b0392919291611b18836102b58361431f565b80600052602092600b8452604060002094611b3386846148a8565b5085548015611d455760018701805490919015611d19575060048684600d541660405192838092630fdb11cf60e01b82525afa9081156103af57600091611cec575b5087549154611b86600854826143c2565b670de0b6b3a764000092838202918083048514901517156103bb57612710908181029181830414901517156103bb57611bc5611bcb91611bd39361438a565b856143e2565b851115614739565b8181029181830414901517156103bb57600095611bf9611c2e92610cf9866060966143e2565b9460095416906040519788809481936346b043a960e01b8352898b600485016040919493926060820195825260208201520152565b03925af19283156103af5761100396816000805160206156018339815191526040600099968a9997828b9a8b9a8b91611cce575b500151908351928352820152a25b611c7b8382546143e2565b90557fdd28e2f316aa3aabcabdc08fd08e1eba83b8bd6479a3116826a62ea35eede780611caa836014546143e2565b6014819055601554604080518681526020810193909352820152806060810161139c565b611ce6915060603d81116103a85761039a8183613ea1565b8f611c62565b90508681813d8311611d12575b611d038183613ea1565b810103126103d1575188611b75565b503d611cf9565b600096508695508594915084935096611d3761100398841115614739565b611d4082614c2c565b611c70565b60405162461bcd60e51b815260048101879052601960248201527f4e6f20636f6c6c61746572616c20746f207769746864726177000000000000006044820152606490fd5b346103d15760403660031901126103d157611da3613e04565b602435908115158092036103d1576001600160a01b0316908115611e1657336000526005602052604060002082600052602052604060002060ff1981541660ff83161790556040519081527f17307eab39ab6107e8899845ad3d59bd9653f200f220920489ca2b5937696c3160203392a3005b604051630b61174360e31b815260048101839052602490fd5b346103d15760003660031901126103d1576020604051686c6b935b8bbd4000008152f35b346103d15760003660031901126103d15760206040516103e88152f35b346103d15760003660031901126103d15760405160006001805490611e948261400d565b80855291818116908115611f285750600114611ecf575b61109284611ebb81860382613ea1565b604051918291602083526020830190613dc4565b600081815292507fb10e2d527612073b26eecdfd717e6a320cf44b4afac2b0732d9fcbe2b7fa0cf65b828410611f10575050508101602001611ebb82611eab565b80546020858701810191909152909301928101611ef8565b60ff191660208087019190915292151560051b85019092019250611ebb9150839050611eab565b346103d15760203660031901126103d157611f68613f5e565b6001600160a01b03600e54163303611f955760ff8019601854169115151617601855602060405160018152f35b60405162461bcd60e51b815260206004820152601360248201527213db9b1e481cdd18589a5b1a5d1e481c1bdbdb606a1b6044820152606490fd5b346103d15760003660031901126103d15760206001600160a01b0360075416604051908152f35b346103d15760203660031901126103d157604060043580600052600b6020526120228260002061486c565b90600052601760205261206b6120808360002061206b600186519261204684613e69565b8054845201548060208401526120718651670de0b6b3a76400009687936010546143e2565b906143c2565b049451916011549051906143e2565b0482519182526020820152f35b346103d15761209b36613f83565b906001600160a01b03906120b2826102b58661431f565b836000526020600b815260406000206120cb81876148a8565b5060018101805480156123f65785600c5460081c16906040516370a0823160e01b81523360048201528581602481865afa80156103af5787916000916123c5575b501061238d57808611612337578561212481836143e2565b15918215612318575b5050156122d357604051632770a7eb60e21b815233600482015260248101869052908490829060449082906000905af180156103af576122b6575b506121748482546143e2565b809155670de0b6b3a7640000908181029181830414901517156103bb5761219c91549061438a565b928315612283576009546040516346b043a960e01b81526004810188905260248101869052604481019690965260609186916064918391600091165af19384156103af5760408692817f3e137a27f9f2791dd0ec5a27c00e506d1d3e32168a9facef1b38c04a765737559760008051602061560183398151915294600091612265575b500151825191878352820152a25b612239816015546149d9565b506014546015546040805193845260208401949094529282015260608101919091528060808101610809565b61227d915060603d81116103a85761039a8183613ea1565b8a61221f565b50507f3e137a27f9f2791dd0ec5a27c00e506d1d3e32168a9facef1b38c04a7657375592506122b184614c2c565b61222d565b6122cc90843d8611610836576108288183613ea1565b5087612168565b60405162461bcd60e51b815260048101859052601860248201527f496e76616c69642072657061796d656e7420616d6f756e7400000000000000006044820152606490fd5b686c6b935b8bbd40000092509061232e916143e2565b1015858a61212d565b60405162461bcd60e51b815260048101869052602860248201527f52657061796d656e7420616d6f756e74206578636565647320626f72726f77656044820152671908185b5bdd5b9d60c21b6064820152608490fd5b60405162461bcd60e51b815260048101869052601060248201526f125b9cdd59999a58da595b9d0814d09160821b6044820152606490fd5b809250878092503d83116123ef575b6123de8183613ea1565b810103126103d1578690518b61210c565b503d6123d4565b60405162461bcd60e51b815260048101859052601b60248201527f4e6f20626f72726f77656420616d6f756e7420746f20726570617900000000006044820152606490fd5b346103d15760003660031901126103d157602060ff60185460081c166040519015158152f35b61246a36613f6d565b906124768215156146ed565b612481823414614739565b801561267e57806000526020600b81526124a060406000205415614785565b81600052600281526001600160a01b036124c1816040600020541615614785565b6040516124cd81613e4d565b84815260048382016000815260408301600081526060840190600082526080850192600084526010546001601154916040519261250984613e69565b83528a83019081528b60005260178b5260406000209251835551910155600b885260406000209551865551600186015551600285015551600384015551910155612555846014546143d5565b601455331561266557829081600052600283526040600020541660028115159384612632575b336000526003815260406000206001815401905583600052526040600020336001600160601b0360a01b82541617905533907fddf252ad1be2c89b69c2b068fc378daa952ba7f163c4a11628f55a4df523b3ef600080a4612619576014546015546040805194855260208501929092529083015233917f7dc80423b3ce080783063611ca470ecbf2b421ed6f318fd488e1ff4f210ad54a90606090a3005b6040516339e3563760e11b815260006004820152602490fd5b60008481526004602052604080822080546001600160a01b0319169055848252600383529020805460001901905561257b565b604051633250574960e11b815260006004820152602490fd5b60405162461bcd60e51b815260206004820152600f60248201526e125b9d985b1a590814d85999481251608a1b6044820152606490fd5b346103d15760203660031901126103d15760043560005260176020526040806000206001815491015482519182526020820152f35b346103d1576126f836613f6d565b60ff60165416600281101561333b576001036132f6576127198215156146ed565b600c546040516323b872dd60e01b815233600482015230602482015260448101849052906020908290606490829060009060081c6001600160a01b03165af19081156103af576000916132d7575b50156132925760049060206001600160a01b03600d541660405193848092630fdb11cf60e01b82525afa9182156103af5760009261325e575b50600460206001600160a01b03600a54166040519283809263dc281aff60e01b82525afa9081156103af5760009161322c575b5060405160208101913383528560408301524360608301526080820152608081526127fd81613e4d565b5190206040519261280d84613e30565b818452846020850152806040850152600060608501526000608085015260a084019360008552600060c0820152600060e0820152600061010082015293612852614d35565b5051935b606081015160208201511115612df657600460206001600160a01b03600a54166040519283809263dc281aff60e01b82525afa9081156103af57600091612dc4575b506128a1614841565b506128aa614d35565b5080600052600b60205260406000206128c381836148a8565b506128d760208401516060850151906143e2565b80670de0b6b3a7640000810204670de0b6b3a764000014811517156103bb5761292490604085016129138151670de0b6b3a7640000840261438a565b50519061291f8461486c565b6143ef565b919586612c07575b61294a91508761293c84876143e2565b9380612bb0575b505061486c565b90612953614841565b5061295c614d35565b506129688483516143e2565b82526129788360208401516143e2565b602083015261298c60c089019182516143d5565b90526129a561299b86846143d5565b60608901516143d5565b6060880152608087016129b98682516143d5565b905285600052600b60205260406000209381519081865560208301519586600182015560408401516002820155606084015160038201556004608085015191015585159182918293612ba8575b8215612b88575b505015612a955750507fb15752a098fdc0a76340da8d6da57a8a5cb25497ff88ede0e2df01fc5a1808819250612a4285614c2c565b612a7f865194612a5b602089015160608a0151906143e2565b90604051948594859094939260609260808301968352602083015260408201520152565b0390a39360001981146103bb5760010193612856565b84670de0b6b3a7640000810204670de0b6b3a76400001417156103bb57612b0c93670de0b6b3a7640000612acb9251910261438a565b60608a6001600160a01b03600954168360008a604051998a95869485936346b043a960e01b8552600485016040919493926060820195825260208201520152565b03925af19384156103af5760408792817fb15752a098fdc0a76340da8d6da57a8a5cb25497ff88ede0e2df01fc5a1808819760008051602061560183398151915294600091612b69575b50015182519182526020820152a2612a42565b612b82915060603d6060116103a85761039a8183613ea1565b38612b56565b15915081612b99575b508e80612a0d565b6402540be4009150108e612b91565b915081612a06565b6101008b01612bc08282516143d5565b90528a51604080518981526020810188905290810192909252907f0d0509d61e4f095a558926b43cdf8dac5b38250c45f65a7d36fa74cb775b75c390606090a3878f612943565b8782881115612d885750612c6e60206001600160a01b03600c5460081c16612c2e8b61431f565b90612c39868c6143e2565b60405163a9059cbb60e01b81526001600160a01b03909316600484015260248301529092839190829060009082906044820190565b03925af19081156103af57600091612d69575b5015612d2457878281897f9abf6579d89a8de3716c310885179c56b5e9afb2a607b37733dc95ee23ff5ac56040612cbe8f9861294a9951946143e2565b8151908152856020820152a35b80612cd8575b505061292c565b60e08b01612ce78282516143d5565b9052600060048401557f8228467254b0b3ae495df90914874baf109bfad2ce6b5adb5ad37563be8e959560208c5192604051908152a3878f612cd1565b60405162461bcd60e51b815260206004820152601960248201527f4d696e74206661696c656420666f72206f776e657220666565000000000000006044820152606490fd5b612d82915060203d602011610836576108288183613ea1565b8f612c81565b61294a92818b517f9abf6579d89a8de3716c310885179c56b5e9afb2a607b37733dc95ee23ff5ac56040805160008152856020820152a3612ccb565b90506020813d602011612dee575b81612ddf60209383613ea1565b810103126103d1575187612898565b3d9150612dd2565b90858560a084015260009260e081015180613098575b50610100810180518015158061308c575b1561307d5760206001600160a01b03600e54166024604051809481936325ac7aa560e21b83528160048401525af19081156103af5760009161305e575b501561301957612e94612e9c915b612e8a6000808080612e7f60c08a019c8d516143d5565b335af16113aa61435a565b86519051906143d5565b6014546143e2565b6014556060810182815103612fe057612ec9601554612ec3608084519501948551906143e2565b906149d9565b50519051808211612f2e575b5050915160145460155460408051958652602086019390935291840192909252606083019190915260808201527f91ea7e60c7bf449355b9b4e79484cfb75d18a61aaf34367ab4f0532952f97284908060a08101610809565b612f7a60009592612f506020936001600160a01b03600c5460081c16926143e2565b604051632770a7eb60e21b8152306004820152602481019190915296879283919082906044820190565b03925af19081156103af57612fbb610809927f91ea7e60c7bf449355b9b4e79484cfb75d18a61aaf34367ab4f0532952f9728496600091612fc15750614bf2565b93612ed5565b612fda915060203d602011610836576108288183613ea1565b88610a3e565b60405162461bcd60e51b8152602060048201526011602482015270149959195b5c1d1a5bdb8819985a5b1959607a1b6044820152606490fd5b60405162461bcd60e51b815260206004820152601c60248201527f41646420636f6c6c61746572616c20726577617264206661696c6564000000006044820152606490fd5b613077915060203d602011610836576108288183613ea1565b87612e5a565b9450612e9c90612e9490612e68565b5060ff60185416612e1d565b60185460ff16156131795750600060206001600160a01b03600e5416602460e08501516040519485938492631d3793b160e21b845260048401525af19081156103af5760009161315a575b50156131215780517f58bf57049a62fb6fdd450cdc1ce5ba4c4c8e433e1ae7b30446a4e7c46c6a47f1602060e0840151604051908152a25b85612e0c565b60405162461bcd60e51b8152602060048201526011602482015270105919081c995dd85c990819985a5b1959607a1b6044820152606490fd5b613173915060203d602011610836576108288183613ea1565b866130e3565b600c5460405163a9059cbb60e01b81523360048201526024810192909252602090829060081c6001600160a01b0316816000816044810103925af19081156103af5760009161320d575b5061311b5760405162461bcd60e51b815260206004820152601760248201527f4f776e65722066656520726566756e64206661696c65640000000000000000006044820152606490fd5b613226915060203d602011610836576108288183613ea1565b866131c3565b90506020813d602011613256575b8161324760209383613ea1565b810103126103d15751846127d3565b3d915061323a565b9091506020813d60201161328a575b8161327a60209383613ea1565b810103126103d1575190836127a0565b3d915061326d565b60405162461bcd60e51b815260206004820152601660248201527f556e61626c6520746f207472616e7366657220534244000000000000000000006044820152606490fd5b6132f0915060203d602011610836576108288183613ea1565b83612767565b60405162461bcd60e51b815260206004820152601a60248201527f50726f746f636f6c20696e20626f6f747374726170206d6f64650000000000006044820152606490fd5b634e487b7160e01b600052602160045260246000fd5b346103d15760003660031901126103d1576020601354604051908152f35b346103d15760003660031901126103d157613388613f9d565b611003613fc9565b346103d15760203660031901126103d1576001600160a01b036133b1613e04565b1680156133d05760005260036020526020604060002054604051908152f35b6040516322718ad960e21b815260006004820152602490fd5b346103d15760c03660031901126103d157613402613e04565b61340a613e1a565b90604435916001600160a01b03918284168094036103d1576064358381168091036103d157608435948486168096036103d15760a435908582168092036103d1578593613455613f9d565b610100600160a81b03600c549160081b1690610100600160a81b031916179687600c556001600160601b0360a01b9185871683600d541617600d5582600e541617600e558382600f541617600f55816009541617600955600a541617600a556040519063095ea7b360e01b908183526004830152600019958660248401528260448160006020998a9560081c165af19182156103af578592613604575b50604483600c5460081c1691600085600e541693604051998a9586948552600485015260248401525af19081156103af5760049484926135e7575b50600d541660405194858092630fdb11cf60e01b82525afa9182156103af57600092613597575b604080516001600160a01b0384168152602081018590527f61fba2f17481a6ec6ecc9a1ba9de88c315de56be88a514a6ed35041db7582ddc9190a1613388613f9d565b90915082813d83116135e0575b6135ae8183613ea1565b810103126103d1577f61fba2f17481a6ec6ecc9a1ba9de88c315de56be88a514a6ed35041db7582ddc91519083613554565b503d6135a4565b6135fd90833d8511610836576108288183613ea1565b508561352d565b61361a90833d8511610836576108288183613ea1565b50866134f2565b346103d15760003660031901126103d15760206001600160a01b03600f5416604051908152f35b346103d15760203660031901126103d157602061366660043561431f565b6001600160a01b0360405191168152f35b346103d15760003660031901126103d1576020601454604051908152f35b346103d15760203660031901126103d157600435600052600b602052604060002080546110926001830154926002810154906004600382015491015491604051958695869192608093969594919660a084019784526020840152604083015260608201520152565b346103d15761100361370e36613f16565b906040519261371c84613e85565b600084526141f4565b346103d15760003660031901126103d1576020604051604b8152f35b346103d15760003660031901126103d1576020604051620186a08152f35b346103d15760203660031901126103d157613778613f5e565b6001600160a01b03600f541633036137ac5761ff0060185491151560081b169061ff00191617601855602060405160018152f35b60405162461bcd60e51b815260206004820152601060248201526f4f6e6c7920534252205374616b696e6760801b6044820152606490fd5b346103d15760003660031901126103d15761109260ff600c541660405191829182613f4b565b346103d15760003660031901126103d1576002601954146138a057600260195560045a60206001600160a01b036009541660405193848092631f19bf7f60e31b82525afa80156103af5760009061386d575b6138669250614d7a565b6001601955005b506020823d8211613898575b8161388660209383613ea1565b810103126103d157613866915161385c565b3d9150613879565b604051633ee5aeb560e01b8152600490fd5b346103d15760003660031901126103d15760206001600160a01b03600d5416604051908152f35b346103d1576110036138ea36613f16565b9161406b565b346103d15760403660031901126103d15760043567ffffffffffffffff6024358181116103d157366023820112156103d157613936903690602481600401359101613edf565b916001600160a01b03806139498361431f565b163314908115613b01575b5015613acb5780600052602091600683526040600020908451908111613ab55761397e825461400d565b601f8111613a6f575b508394601f82116001146139e9577ff8e1a15aba9398e019f0b49df1a4fde98ee17ae345cb5f6b5e2c27f5033e8ce795600091836139de575b50508160011b916000199060031b1c19161790555b604051908152a1005b0151905086806139c0565b601f1982169583600052856000209160005b888110613a585750908392916001947ff8e1a15aba9398e019f0b49df1a4fde98ee17ae345cb5f6b5e2c27f5033e8ce79910613a3f575b505050811b0190556139d5565b015160001960f88460031b161c19169055868080613a32565b9192876001819286850151815501940192016139fb565b8260005284600020601f830160051c810191868410613aab575b601f0160051c01905b818110613a9f5750613987565b60008155600101613a92565b9091508190613a89565b634e487b7160e01b600052604160045260246000fd5b60405162461bcd60e51b815260206004820152600e60248201526d139bdd08185d5d1a1bdc9a5e995960921b6044820152606490fd5b339150613b0d83614047565b161484613954565b346103d15760003660031901126103d1576020601254604051908152f35b346103d15760003660031901126103d1576020601154604051908152f35b346103d15760403660031901126103d157613b6a613e04565b602435613b768161431f565b33151580613c26575b80613bf8575b613be05781906001600160a01b03809416938491167f8c5be1e5ebec7d5bd14f71427d1e84f3dd0314c0f7b2291e5b200ac8c7c3b925600080a4600090815260046020526040902080546001600160a01b0319169091179055005b60405163a9fbf51f60e01b8152336004820152602490fd5b506001600160a01b038116600052600560205260406000203360005260205260ff6040600020541615613b85565b50336001600160a01b0382161415613b7f565b346103d15760003660031901126103d1576020601054604051908152f35b346103d15760203660031901126103d1576020613666600435614047565b346103d15760003660031901126103d15760405160008054613c968161400d565b80845290600190818116908115611f285750600114613cbf5761109284611ebb81860382613ea1565b600080805292507f290decd9548b62a8d60345a988386fc84ba6bc95484008f6362f93160ef3e5635b828410613d00575050508101602001611ebb82611eab565b80546020858701810191909152909301928101613ce8565b346103d15760003660031901126103d15760206001600160a01b03600e5416604051908152f35b346103d15760203660031901126103d1576004359063ffffffff60e01b82168092036103d157602091632483248360e11b8114908115613d81575b5015158152f35b6380ac58cd60e01b811491508115613db3575b8115613da2575b5083613d7a565b6301ffc9a760e01b14905083613d9b565b635b5e139f60e01b81149150613d94565b919082519283825260005b848110613df0575050826000602080949584010152601f8019910116010190565b602081830181015184830182015201613dcf565b600435906001600160a01b03821682036103d157565b602435906001600160a01b03821682036103d157565b610120810190811067ffffffffffffffff821117613ab557604052565b60a0810190811067ffffffffffffffff821117613ab557604052565b6040810190811067ffffffffffffffff821117613ab557604052565b6020810190811067ffffffffffffffff821117613ab557604052565b90601f8019910116810190811067ffffffffffffffff821117613ab557604052565b67ffffffffffffffff8111613ab557601f01601f191660200190565b929192613eeb82613ec3565b91613ef96040519384613ea1565b8294818452818301116103d1578281602093846000960137010152565b60609060031901126103d1576001600160a01b039060043582811681036103d1579160243590811681036103d1579060443590565b91906020830192600282101561333b5752565b6004359081151582036103d157565b60409060031901126103d1576004359060243590565b60609060031901126103d157600435906024359060443590565b6001600160a01b03600754163303613fb157565b60405163118cdaa760e01b8152336004820152602490fd5b60006001600160a01b036007546001600160601b0360a01b8116600755167f8be0079c531659141344cd1fd0a4f28419497f9722a3daafe3b4186f6b6457e08280a3565b90600182811c9216801561403d575b602083101461402757565b634e487b7160e01b600052602260045260246000fd5b91607f169161401c565b6140508161431f565b5060005260046020526001600160a01b036040600020541690565b90916001600160a01b038093169283156126655760009282845282602095600287526040968488882054169687913315158061415b575b509060027fddf252ad1be2c89b69c2b068fc378daa952ba7f163c4a11628f55a4df523b3ef9284614128575b858352600381528b8320805460010190558683525289812080546001600160a01b0319168517905580a416928383036141075750505050565b6064945051926364283d7b60e01b8452600484015260248301526044820152fd5b600087815260046020526040902080546001600160a01b0319169055848352600381528b832080546000190190556140ce565b919394509150806141b3575b15614177578592918791386140a2565b878688614194576024915190637e27328960e01b82526004820152fd5b905163177e802f60e01b81523360048201526024810191909152604490fd5b5033871480156141d8575b806141675750858252600481523385898420541614614167565b5086825260058152878220338352815260ff88832054166141be565b919061420182828561406b565b803b61420e575b50505050565b6142516001600160a01b0380921694604051938493630a85bd0160e11b968786523360048701521660248501526044840152608060648401526084830190613dc4565b03906020816000938185885af1908290826142d0575b505061429f578261427661435a565b805191908261429857604051633250574960e11b815260048101839052602490fd5b9050602001fd5b6001600160e01b031916036142b8575038808080614208565b60249060405190633250574960e11b82526004820152fd5b909192506020813d8211614317575b816142ec60209383613ea1565b810103126143135751906001600160e01b0319821682036143105750903880614267565b80fd5b5080fd5b3d91506142df565b8060005260026020526001600160a01b0360406000205416908115614342575090565b60249060405190637e27328960e01b82526004820152fd5b3d15614385573d9061436b82613ec3565b916143796040519384613ea1565b82523d6000602084013e565b606090565b8115614394570490565b634e487b7160e01b600052601260045260246000fd5b908160209103126103d1575180151581036103d15790565b818102929181159184041417156103bb57565b919082018092116103bb57565b919082039182116103bb57565b92919092600093600093849161442b670de0b6b3a764000091826144148888516143c2565b0496602087018051612710948591600854906143c2565b0489106146a85760808801918251858102908082048714811517156146945769021e19e0c9bab240000002908082048814901517156146805760608a01516144729161438a565b9367d02ab486cedc000080860180871161466c57680410d586a20a4c0000808210156146645750955b11614600578a811061451857505051976144b589826143e2565b975199600f820291808304600f149015171561450457508390049051908181116144ec575b50506144e7905b886143c2565b040490565b6144e7929650906144fc916143e2565b9490386144da565b634e487b7160e01b81526011600452602490fd5b9297509850809750518110156000146145be578651614536916143e2565b95519661454387896143d5565b848102908082048614901517156145aa579061455e9161438a565b9761456987896143d5565b90600f820291808304600f149015171561450457508290049451808611614595575b506144e7906144e1565b6145a3906144e792966143e2565b949061458b565b634e487b7160e01b8a52601160045260248afd5b9691979550935085828102908082048414901517156145ec57906145e19161438a565b956144e785946144e1565b634e487b7160e01b86526011600452602486fd5b9b509850929896505093506001978151811015600014614637575051948186028681048314871517156145ec57906145e19161438a565b93969395859491508287028588158983048614171561450457506144e79161465e9161438a565b976144e1565b90509561449b565b634e487b7160e01b8e52601160045260248efd5b634e487b7160e01b8c52601160045260248cfd5b634e487b7160e01b8d52601160045260248dfd5b60405162461bcd60e51b815260206004820152601660248201527f536166652063616e27742062652072656465656d6564000000000000000000006044820152606490fd5b156146f457565b60405162461bcd60e51b815260206004820152601d60248201527f416d6f756e74206d7573742062652067726561746572207468616e20300000006044820152606490fd5b1561474057565b60405162461bcd60e51b815260206004820152601760248201527f496e73756666696369656e7420636f6c6c61746572616c0000000000000000006044820152606490fd5b1561478c57565b60405162461bcd60e51b81526020600482015260136024820152725361666520616c72656164792065786973747360681b6044820152606490fd5b156147ce57565b60405162461bcd60e51b815260206004820152600d60248201526c2737ba103a34329037bbb732b960991b6044820152606490fd5b1561480a57565b60405162461bcd60e51b815260206004820152600f60248201526e151c985b9cd9995c8819985a5b1959608a1b6044820152606490fd5b6040519061484e82613e4d565b60006080838281528260208201528260408201528260608201520152565b9060405161487981613e4d565b608060048294805484526001810154602085015260028101546040850152600381015460608501520154910152565b906148d5916148b5614841565b5080600052601760205260406000208054601154036148d857505061486c565b90565b7fd175dc7ace8ab79a704c7f131182c6a800f6339fbb04aa06195fdcbef8470c479083546149cf61206b6010546149216001860194670de0b6b3a76400009384938754906143e2565b049360018801936149338686546143d5565b8555600389016149448782546143d5565b905560105490556149708854926149686149626011548554906143e2565b856143c2565b0480936143d5565b88556011549055614983816014546143d5565b60145561499284601554614a2b565b5086549254936014549060155492604051968796879260a094919796959260c0850198855260208501526040840152606083015260808201520152565b0390a23880612943565b906149e3916143e2565b6a0422ca8b0a00a425000000811180614a15575b614a03575b8060155590565b600160ff1960165416176016556149fc565b5060ff60165416600281101561333b57156149f7565b906149e3916143d5565b6000818152600b60205280600460408220828155826001820155826002820155826003820155015560026020526001600160a01b0360408220541682828215928315614afd575b82825260026020526040822080546001600160a01b03191690557fddf252ad1be2c89b69c2b068fc378daa952ba7f163c4a11628f55a4df523b3ef8280a4614ae457807fc1994583f2200cbf43c3b238fbaa817112765d2672a45325dabd1216bd27c0c791a2565b604051637e27328960e01b815260048101839052602490fd5b600083815260046020526040902080546001600160a01b03191690558082526003602052604082208054600019019055614a7c565b15614b3957565b60405162461bcd60e51b815260206004820152601360248201527214d8599948191bd95cc81b9bdd08195e1a5cdd606a1b6044820152606490fd5b908160609103126103d15760405190606082019082821067ffffffffffffffff831117613ab557604091825280518352602081015160208401520151604082015290565b15614bbf57565b60405162461bcd60e51b815260206004820152600b60248201526a135a5b9d0819985a5b195960aa1b6044820152606490fd5b15614bf957565b60405162461bcd60e51b815260206004820152600b60248201526a109d5c9b8819985a5b195960aa1b6044820152606490fd5b906001600160a01b039182600954166040519384634cc8221560e01b8082528460048301526060928383602460009a8b80995af1908115614d2a578493602492614d0d575b506040519889938492897f7cb6d5d1b9e03cf5f771721c1807c3c80ba408bc7caea74c4f99c48298a0957c8480a2600a54169083528860048401525af1948515614d02577f3b020d362e8a54112d1fecc7f22f93c8497b4903d15ee2c6ec7860f878d2292b939495614ce4575b505080a2565b81614cfa92903d106103a85761039a8183613ea1565b503880614cde565b6040513d84823e3d90fd5b614d2390853d87116103a85761039a8183613ea1565b5038614c71565b6040513d87823e3d90fd5b60405190614d4282613e30565b816101006000918281528260208201528260408201528260608201528260808201528260a08201528260c08201528260e08201520152565b9060049060206001600160a01b03600954166040519384809263dc281aff60e01b82525afa9182156103af576000926155cc575b5082600052600b602052614dc66040600020846148a8565b5082600052600b60205260406000209060018201549154928315614dea8115614b32565b831561556f57600460206001600160a01b03600d541660405192838092630fdb11cf60e01b82525afa9081156103af5760009161553b575b50614e36670de0b6b3a764000091876143c2565b04612710614e46600854876143c2565b0411156155005760249060206001600160a01b03600e54166040519384809263abbdf0ad60e01b82528960048301525afa9182156103af576000926154df575b5085604b810204604b1417156103bb57614ea2856014546143e2565b601455614eb1846015546149d9565b501561536357506001600160a01b03600e54166020612710604b860204916044614ee5614ede85896143e2565b94886143e2565b60405194859384926373b2389960e01b845289600485015260248401525af19081156103af57600091615344575b501561530a57600c54600e54604051632770a7eb60e21b81526001600160a01b039182166004820152602481018590529391602091859160081c16816000816044810103925af19283156103af57848692614f9a614fd9967fc64f2ed055a519370e650d42ed9cc3fbb359a9f9897a1b9aafcd0955a75c16a7946000916152eb5750614bf2565b601454601554604080519384526020840194909452928201526060810191909152608090a25b614fc984614c2c565b614fd284614a35565b5a906143e2565b90620186a082018092116103bb57600a4802488104600a14481517156103bb57604b61500e61496260646127109404486143d5565b92020490818110156152e457905b81811161507c575b508061502f57505050565b7f9c2928766ea26162d558ac36243bb5ae5053899b3bf8ffb17a4fe58c4a58fe3391816150686000808080606097335af16113aa61435a565b6040519182523360208301526040820152a2565b9060185460ff8160081c166000146152025750906001600160a01b03600f54166150a683836143e2565b60206150b285856143e2565b926024604051809481936325ac7aa560e21b9788845260048401525af180156103af5786916000916151e3575b508015806151d7575b1561516c57505060206001600160a01b03600e541691602461510a86866143e2565b9161511587876143e2565b926040519586948593845260048401525af19081156103af5760009161514d575b5015615145575b505b38615024565b90503861513d565b615166915060203d602011610836576108288183613ea1565b38615136565b9092915061517c575b505061513f565b7fb4b2b37ecafa7a5e3ab5c5a2a5ef20a94fd3a50a412dfba8299cff836e06fc89906151b4846001600160a01b03600f5416926143e2565b604080516001600160a01b03939093168352602083019190915290a28238615175565b5060ff601854166150e8565b6151fc915060203d602011610836576108288183613ea1565b386150df565b60ff16156152de576001600160a01b03600e5416602061522283856143e2565b91602461522f85876143e2565b60405194859384926325ac7aa560e21b845260048401525af180156103af5785916000916152bf575b5061526457505061513f565b90917fb4b2b37ecafa7a5e3ab5c5a2a5ef20a94fd3a50a412dfba8299cff836e06fc899061529e846001600160a01b03600e5416926143e2565b604080516001600160a01b03939093168352602083019190915290a261513f565b6152d8915060203d602011610836576108288183613ea1565b38615258565b5061513f565b508061501c565b615304915060203d602011610836576108288183613ea1565b38610a3e565b60405162461bcd60e51b8152602060048201526012602482015271131a5c5d5a59185d1a5bdb8819985a5b195960721b6044820152606490fd5b61535d915060203d602011610836576108288183613ea1565b38614f13565b841461549a5761537a612710604b850204846143e2565b61538a60145491601254906143d5565b92615397601354826143d5565b670de0b6b3a76400008502858104670de0b6b3a764000014861517156103bb57836153c19161438a565b916153ce836011546143d5565b60115581670de0b6b3a7640000810204670de0b6b3a764000014821517156103bb576154928461546884670de0b6b3a7640000615459847f63121f058a23bfc9339b2fe1b77b07cb96b113d4fc1858a2100486dc1745844f998f9b8f9a9e614fd99f61545983615444615460958a80950261438a565b95615451876010546143d5565b6010556143c2565b04906143e2565b6012556143c2565b60135560155490604051948594859094939260609260808301968352602083015260408201520152565b0390a2614fc0565b60405162461bcd60e51b815260206004820152601e60248201527f43616e6e6f74206c697175696461746520746865206c617374205361666500006044820152606490fd5b6154f991925060203d602011610836576108288183613ea1565b9038614e86565b60405162461bcd60e51b815260206004820152601360248201527210d85b89dd081b1a5c5d5a59185d19481e595d606a1b6044820152606490fd5b906020823d602011615567575b8161555560209383613ea1565b81010312614310575051614e36614e22565b3d9150615548565b60405162461bcd60e51b815260206004820152602f60248201527f43616e6e6f74206c6971756964617465206120536166652077697468206e6f2060448201526e189bdc9c9bddd95908185b5bdd5b9d608a1b6064820152608490fd5b90916020823d6020116155f8575b816155e760209383613ea1565b810103126143105750519038614dae565b3d91506155da56fef7151edff287bbc868e2814efac5abfa729c0a534dbe211586a9252568242225a2646970667358221220fc9e427545ec4c1b151e9a32366f832c64567526bfc2dbc5faf15a28380cd73e64736f6c63430008140033",
  "linkReferences": {},
  "deployedLinkReferences": {}
}