{
  "_format": "hh-sol-artifact-1",
  "contractName": "TestMath",
  "sourceName": "contracts/tests/TestMath.sol",
  "abi": [
    {
      "inputs": [
        {
          "internalType": "uint256",
          "name": "value",
          "type": "uint256"
        },
        {
          "internalType": "uint256",
          "name": "weight",
          "type": "uint256"
        }
      ],
      "name": "addValue",
      "outputs": [],
      "stateMutability": "nonpayable",
      "type": "function"
    },
    {
      "inputs": [],
      "name": "calculateRate",
      "outputs": [
        {
          "internalType": "uint256",
          "name": "",
          "type": "uint256"
        }
      ],
      "stateMutability": "view",
      "type": "function"
    },
    {
      "inputs": [],
      "name": "rate",
      "outputs": [
        {
          "internalType": "uint256",
          "name": "weightedSum",
          "type": "uint256"
        },
        {
          "internalType": "uint256",
          "name": "totalWeight",
          "type": "uint256"
        }
      ],
      "stateMutability": "view",
      "type": "function"
    },
    {
      "inputs": [
        {
          "internalType": "uint256",
          "name": "value",
          "type": "uint256"
        },
        {
          "internalType": "uint256",
          "name": "weight",
          "type": "uint256"
        }
      ],
      "name": "subtractValue",
      "outputs": [],
      "stateMutability": "nonpayable",
      "type": "function"
    }
  ],
  "bytecode": "0x60803461005857604081016001600160401b03811182821017610042576000916020916040528281520152600080556000600155604051610273908161005e8239f35b634e487b7160e01b600052604160045260246000fd5b600080fdfe608080604052600436101561001357600080fd5b600090813560e01c9081632c4e722e1461013657508063919beeb1146100ff578063d47eba68146100b15763d59cfa661461004d57600080fd5b346100ae576100a461005e3661015d565b610069929192610178565b928454845261009c61009583600154936020880194855288602061008b610178565b82815201526101ae565b85516101e4565b8452516101e4565b9051825560015580f35b80fd5b50346100ae576100a46100c33661015d565b6100ce929192610178565b92845484526100f76100f083600154936020880194855288602061008b610178565b85516101d7565b8452516101d7565b50346100ae57806003193601126100ae5761012e60209161011e610178565b90548152600154838201526101f1565b604051908152f35b905034610159578160031936011261015957604091546001549082526020820152f35b5080fd5b6040906003190112610173576004359060243590565b600080fd5b604051906040820182811067ffffffffffffffff82111761019857604052565b634e487b7160e01b600052604160045260246000fd5b818102929181159184041417156101c157565b634e487b7160e01b600052601160045260246000fd5b919082018092116101c157565b919082039182116101c157565b6020810190815115610236575161271091828202918083048414901517156101c1575190811561022057040490565b634e487b7160e01b600052601260045260246000fd5b505060009056fea2646970667358221220d6fe76f6adde3ad6e50e446e706668432b752fd0b7df0899ede36446242b25e964736f6c63430008140033",
  "linkReferences": {},
  "deployedLinkReferences": {}
}