{
  "_format": "hh-sol-artifact-1",
  "contractName": "StakingRewardsAccumulator",
  "sourceName": "contracts/StakingRewardAccumulator.sol",
  "abi": [
    {
      "inputs": [
        {
          "internalType": "address",
          "name": "_tokenAddress",
          "type": "address"
        }
      ],
      "stateMutability": "nonpayable",
      "type": "constructor"
    },
    {
      "inputs": [],
      "name": "claimRewards",
      "outputs": [],
      "stateMutability": "nonpayable",
      "type": "function"
    },
    {
      "inputs": [
        {
          "internalType": "uint256",
          "name": "_rewardAmount",
          "type": "uint256"
        }
      ],
      "name": "distributeRewards",
      "outputs": [],
      "stateMutability": "nonpayable",
      "type": "function"
    },
    {
      "inputs": [
        {
          "internalType": "address",
          "name": "",
          "type": "address"
        }
      ],
      "name": "rewardsBalance",
      "outputs": [
        {
          "internalType": "uint256",
          "name": "",
          "type": "uint256"
        }
      ],
      "stateMutability": "view",
      "type": "function"
    },
    {
      "inputs": [
        {
          "internalType": "uint256",
          "name": "_amount",
          "type": "uint256"
        }
      ],
      "name": "stake",
      "outputs": [],
      "stateMutability": "nonpayable",
      "type": "function"
    },
    {
      "inputs": [
        {
          "internalType": "address",
          "name": "",
          "type": "address"
        }
      ],
      "name": "stakedBalance",
      "outputs": [
        {
          "internalType": "uint256",
          "name": "",
          "type": "uint256"
        }
      ],
      "stateMutability": "view",
      "type": "function"
    },
    {
      "inputs": [],
      "name": "token",
      "outputs": [
        {
          "internalType": "contract IERC20",
          "name": "",
          "type": "address"
        }
      ],
      "stateMutability": "view",
      "type": "function"
    },
    {
      "inputs": [],
      "name": "totalRewards",
      "outputs": [
        {
          "internalType": "uint256",
          "name": "",
          "type": "uint256"
        }
      ],
      "stateMutability": "view",
      "type": "function"
    },
    {
      "inputs": [],
      "name": "totalStaked",
      "outputs": [
        {
          "internalType": "uint256",
          "name": "",
          "type": "uint256"
        }
      ],
      "stateMutability": "view",
      "type": "function"
    },
    {
      "inputs": [
        {
          "internalType": "address",
          "name": "_staker",
          "type": "address"
        }
      ],
      "name": "viewAccumulatedRewards",
      "outputs": [
        {
          "internalType": "uint256",
          "name": "",
          "type": "uint256"
        }
      ],
      "stateMutability": "view",
      "type": "function"
    },
    {
      "inputs": [
        {
          "internalType": "uint256",
          "name": "_amount",
          "type": "uint256"
        }
      ],
      "name": "withdraw",
      "outputs": [],
      "stateMutability": "nonpayable",
      "type": "function"
    }
  ],
  "bytecode": "0x608060405234801561001057600080fd5b5060405161082038038061082083398101604081905261002f91610054565b600080546001600160a01b0319166001600160a01b0392909216919091179055610084565b60006020828403121561006657600080fd5b81516001600160a01b038116811461007d57600080fd5b9392505050565b61078d806100936000396000f3fe608060405234801561001057600080fd5b506004361061009e5760003560e01c8063817b1cd211610066578063817b1cd21461010f578063896bdac814610118578063a694fc3a14610138578063d263c4a41461014b578063fc0c546a1461015e57600080fd5b80630e15561a146100a35780632e1a7d4d146100bf578063372500ab146100d457806359974e38146100dc57806360217267146100ef575b600080fd5b6100ac60045481565b6040519081526020015b60405180910390f35b6100d26100cd366004610677565b610189565b005b6100d261037e565b6100d26100ea366004610677565b61049f565b6100ac6100fd366004610690565b60016020526000908152604090205481565b6100ac60035481565b6100ac610126366004610690565b60026020526000908152604090205481565b6100d2610146366004610677565b61050f565b6100ac610159366004610690565b610627565b600054610171906001600160a01b031681565b6040516001600160a01b0390911681526020016100b6565b600081116101de5760405162461bcd60e51b815260206004820152601d60248201527f416d6f756e74206d7573742062652067726561746572207468616e203000000060448201526064015b60405180910390fd5b3360009081526001602052604090205481111561023d5760405162461bcd60e51b815260206004820152601b60248201527f496e73756666696369656e74207374616b65642062616c616e6365000000000060448201526064016101d5565b60006003548260045461025091906106d6565b61025a91906106ed565b3360009081526002602052604090205490915061027890829061070f565b3360009081526002602090815260408083209390935560019052205461029f90839061070f565b336000908152600160205260409020556003546102bd90839061070f565b60035560005460405163a9059cbb60e01b8152336004820152602481018490526001600160a01b039091169063a9059cbb906044015b6020604051808303816000875af1158015610312573d6000803e3d6000fd5b505050506040513d601f19601f820116820180604052508101906103369190610722565b61037a5760405162461bcd60e51b8152602060048201526015602482015274151bdad95b881d1c985b9cd9995c8819985a5b1959605a1b60448201526064016101d5565b5050565b600061038933610638565b9050600081116103d15760405162461bcd60e51b81526020600482015260136024820152724e6f207265776172647320746f20636c61696d60681b60448201526064016101d5565b336000818152600260205260408082208290559054905163a9059cbb60e01b81526004810192909252602482018390526001600160a01b03169063a9059cbb906044016020604051808303816000875af1158015610433573d6000803e3d6000fd5b505050506040513d601f19601f820116820180604052508101906104579190610722565b61049c5760405162461bcd60e51b815260206004820152601660248201527514995dd85c99081d1c985b9cd9995c8819985a5b195960521b60448201526064016101d5565b50565b600081116104fb5760405162461bcd60e51b8152602060048201526024808201527f52657761726420616d6f756e74206d75737420626520677265617465722074686044820152630616e20360e41b60648201526084016101d5565b806004546105099190610744565b60045550565b6000811161055f5760405162461bcd60e51b815260206004820152601d60248201527f416d6f756e74206d7573742062652067726561746572207468616e203000000060448201526064016101d5565b3360009081526001602052604090205461057a908290610744565b33600090815260016020526040902055600354610598908290610744565b6003819055600454600091906105af9084906106d6565b6105b991906106ed565b336000908152600260205260409020549091506105d7908290610744565b33600081815260026020526040808220939093555491516323b872dd60e01b81526004810191909152306024820152604481018490526001600160a01b03909116906323b872dd906064016102f3565b600061063282610638565b92915050565b6001600160a01b0381166000908152600160205260408120546003546004548391906106659084906106d6565b61066f91906106ed565b949350505050565b60006020828403121561068957600080fd5b5035919050565b6000602082840312156106a257600080fd5b81356001600160a01b03811681146106b957600080fd5b9392505050565b634e487b7160e01b600052601160045260246000fd5b8082028115828204841417610632576106326106c0565b60008261070a57634e487b7160e01b600052601260045260246000fd5b500490565b81810381811115610632576106326106c0565b60006020828403121561073457600080fd5b815180151581146106b957600080fd5b80820180821115610632576106326106c056fea264697066735822122038f0508dbf97894ee118bdfa405a1d6334fe90cf1621ddb416a3da7645e1576364736f6c63430008140033",
  "linkReferences": {},
  "deployedLinkReferences": {}
}